S01900004368656D5F73696D5F64726F706C6574732E737265631A
S113000023C2000041C200003FC200003DC2000004
S11300103BC2000039C2000037C2000035C20000F4
S113002033C2000031C200000C94DB272EC2000052
S11300302BC2000029C2000027C2000025C2000014
S113004023C2000021C200001FC200001DC2000024
S11300501BC2000019C2000017C2000015C2000034
S113006013C200000C94430D0C94930D0C946B0D6F
S11300700C94BB0D0C940B0E0C94E30D05C2000004
S113008003C2000001C20000FFC10000FDC1000066
S1130090FBC10000F9C10000F7C10000F5C1000078
S11300A0F3C10000F1C10000EFC10000EDC1000088
S11300B0EBC10000E9C1000007C40000E5C1000075
S11300C0E3C10000E1C10000DFC10000DDC10000A8
S11300D0DBC10000D9C10000D7C10000D5C10000B8
S11300E0D3C10000D1C100000C94AB0E0C94FB0EE4
S11300F00C94D30E0C94230F0C94730F0C944B0F8D
S1130100C3C10000C1C10000BFC10000BDC10000E7
S1130110BBC10000B9C10000B7C10000B5C10000F7
S1130120B3C10000B1C10000AFC10000ADC1000007
S1130130ABC10000A9C10000A7C10000A5C1000017
S1130140A3C10000A1C100009FC100009DC1000027
S11301509BC1000099C1000097C1000095C1000037
S11301600C94330E0C94830E0C945B0E0C94671653
S11301708BC1000089C1000087C1000085C1000057
S113018083C1000081C100007FC100007DC1000067
S11301907BC1000079C1000077C1000075C1000077
S11301A073C1000071C100006FC100006DC1000087
S11301B06BC1000069C1000067C1000065C1000097
S11301C063C1000061C100005FC100005DC10000A7
S11301D05BC1000059C1000057C100000C949B0F83
S11301E00C94EB0F0C94C30F4FC100004DC10000E1
S11301F04BC1000049C1000047C100007F048504D1
S11302008A04910496049D04A2041C092C09410942
S113021088099809A909B909390B490B020B190B6B
S1130220290B590B690B1E2F2C2F3A2F482FB82F4F
S1130230562F642F722F802FB82FB82FB82FB82FB6
S1130240B82FB82FB82F8E2FB82FB82FB82FB82F9C
S1130250B82FB82FB82FB82FB82FB82FB82FB82F62
S1130260B82FB82FB82FB82FB82F9C2FB82FB82F6E
S1130270B82FB82FB82FB82FB82FB82FB82FB82F42
S1130280B82FB82FB82FB82FB82FB82FB82FAA2F40
S1130290DC2FE22FE82FEE2F1E30F42FFA2F003040
S11302A006301E301E301E301E301E301E301E30F2
S11302B00C301E301E301E301E301E301E301E30DC
S11302C01E301E301E301E301E301E301E301E30BA
S11302D01E301E3012301E301E301E301E301E30B6
S11302E01E301E301E301E301E301E301E301E309A
S11302F01E301E301E301E301830084AD73B3BCE0D
S1130300016E84BCBFFDC12F3D6C74319ABD568310
S11303103DDA3D00C77F11BED9E4BB4C3E916BAAC8
S1130320AABE000000803F05A84CCDB2D44EB93817
S113033036A9020C50B9918688083CA6AAAA2ABEFE
S1130340000000803F006E616E00696E6600004030
S11303507A10F35A00A0724E18090010A5D4E800D0
S113036000E87648170000E40B54020000CA9A3BE8
S1130370000000E1F505000080969800000040426E
S11303800F000000A08601000000102700000000FC
S1130390E803000000006400000000000A00000000
S11303A000000100000000002C76D888DC674F08AC
S11303B023DFC1DFAE59E1B1B796E5E3E453C63AB2
S11303C0E651997696E8E6C28426EB898C9B62ED29
S11303D0407C6FFCEFBC9C9F40F2BAA56FA5F490E3
S11303E0055A2AF75C936B6CF9676DC11BFCE0E45A
S11303F00D47FEF520E6B500D0ED902E03009435B0
S113040077050080841E080000204E0A000000C802
S11304100C333333330F986E12831141EF8D211453
S1130420893BE65516CFFEE6DB18D1844B381BF723
S11304307C1D901DA4BBE424203284725E228100C2
S1130440C9F124ECA1E53D2711241FBECFEFCDBF98
S1130450DFE3DEBF00E00CBF19E2A0E0B0E2E0EBB6
S1130460FFE700E00BBF02C007900D92A23DB10769
S1130470D9F72EE2A2EDB9E201C01D92A83CB20761
S1130480E1F7B0D10C94D63FBBCD0F921F922F92BF
S11304903F924F925F926F927F928F929F92AF9210
S11304A0BF92CF92DF92EF92FF920F931F932F93FD
S11304B03F934F935F936F937F938F939F93AF93E8
S11304C0BF93CF93DF93EF93FF930FB70F93E3E2C1
S11304D0F7E200E0EF93FF930F938091D12A839585
S11304E08093D12A18958091D12A8A958093D12A14
S11304F00F910FBFFF91EF91DF91CF91BF91AF911A
S11305009F918F917F916F915F914F913F912F9127
S11305101F910F91FF90EF90DF90CF90BF90AF901D
S11305209F908F907F906F905F904F903F902F900F
S11305301F900F9008950FB6F8946091080470917D
S113054009048091F1299091F2290FBE0895BF9278
S1130550CF92DF92EF92FF920F931F93CF93DF938B
S1130560CDB7DEB76B97CDBFDEBFCE010B968F83C1
S113057098878091F029882349F086E08093CB2ADC
S11305801092F02987E391E20E94393F8091CB2AAF
S1130590882309F44DC0E090CB2ABFB6F894EA94BE
S11305A0F12C6701CC0CDD1C86010E0D1F1D000F04
S11305B0111F000F111F000F111F095C154DF801C9
S11305C0478950E0B6016E0D7F1D660F771F660FD9
S11305D0771F660F771F635C754D8F8198850E9426
S11305E0853EF8018789EF81F885E80FF11D1082B7
S11305F0F80180819181A281B38189839A83AB833D
S1130600BC83848195818D839E8386898987F80143
S113061087898A878091CB2A81508093CB2ABFBE59
S1130620CE0101960E9464338091CB2A8111B3CF0D
S11306306B96CDBFDEBFDF91CF911F910F91FF90DD
S1130640EF90DF90CF90BF900895CF93DF93CDB715
S1130650DEB7C054D109CDBFDEBF82E08093CA01AA
S113066080E4E7EFF0E2DE01119601900D928A95A5
S1130670E1F7AE014F5F5F4FBE016F5B7F4F20E03C
S113068030E0FA0181919191A191B191AF01ABBF99
S1130690FC01879196912827822F82958227082E24
S11306A0869586958025082E869580258770022E4E
S11306B0232F869507948795302D282706948795B0
S11306C0302528274617570709F0DBCF1092CA01B7
S11306D02093D4293093D529C05CDF4FCDBFDEBF32
S11306E0DF91CF910895E0EAF0E082818160828316
S11306F08281826082838281846082837894089577
S113070040E060E084E60E94192184E690E00E94C3
S1130710B02440E064E680E00E94192184E690E081
S11307200E94B02444E660E080E00E94192184E63F
S113073090E00E94B0240E940E2140E060E084E634
S11307400E94192184E690E00E94B02440E064E60F
S113075080E00E94192184E690E00E94B02444E6DF
S113076060E080E00E94192184E690E00E94B024B9
S11307700E940E2140E060E084E60E94192184E694
S113078090E00E94B02440E064E680E00E941921D9
S113079084E690E00E94B02444E660E080E00E9499
S11307A0192184E690E00E94B0240C940E2108954F
S11307B00E9489244ADF0E9457240E94A6150E94A1
S11307C0D7200E946E230E94B2160E94B51668D0EC
S11307D027D30E94BE100E94AE140E94F31683DF3A
S11307E08FCF0895E5DF0E94BB320E943C33AFDE19
S11307F0FCCF88ED84BF81E0E8E7F0E081830895D1
S1130800E0ECF1E087858823ECF30895F9DFE0EC70
S1130810F1E0878581FF0AC086E38287EBECF1E093
S113082021E030E088ED90E084BF20830895CF93E9
S1130830DF93D82FC92FE4DFE0ECF1E0D083CF7150
S1130840C183128286E08287EBECF1E021E030E0A4
S113085088ED90E084BF2083E0ECF1E08481DF91B7
S1130860CF9108951F93CF93DF93182FD92FC62FBD
S1130870CDDFE0ECF1E083E382871083DF71D18385
S11308801282C48385E38287EBECF1E021E030E05F
S113089088ED90E084BF2083DF91CF911F9108956C
S11308A01092F12A1092EE291092EF2983E0E0E8E9
S11308B0F6E0818388EB8093A10483E28093A5040E
S11308C081E08093A40408951F920F920FB60F92B3
S11308D011240BB60F925F936F937F938F939F9323
S11308E0AF93BF93EF93FF938091F12A90E0873009
S11308F0910558F5FC01E250FF4F0C944A3C80915D
S1130900EF2981708093A70420C08091EE29809301
S1130910A7041BC08091EF29817080618093A70494
S113092014C08091EE298093A7040FC08091EF2911
S1130930817080668093A70408C08091EE2980931B
S1130940A70403C083E08093A3048091F12A90E07C
S1130950019667E070E00E94153C8093F12AFF91B4
S1130960EF91BF91AF919F918F917F916F915F9123
S11309700F900BBE0F900FBE0F901F901895809391
S1130980EE299093EF2988E58093A6048FE795E2FA
S11309900197F1F700C000008CE58093A6048FE76F
S11309A095E20197F1F700C0000008954F925F921D
S11309B06F927F928F929F92AF92BF92CF92DF926B
S11309C0EF92FF920F931F93CF93DF93CDB7DEB7D0
S11309D02C97CDBFDEBFFE0131968CE0DF011D9266
S11309E08A95E9F70F2EF6E0AF2EF0E2BF2EF02D38
S11309F00F2EFEE68F2EFBE29F2EF02D6F01552465
S1130A005A94E12CF12C772473944FB6F89487010F
S1130A10F701EE0FFF1FE295F295F07FFE27E07FCE
S1130A20FE27E659F44D878D81FF80C16E2C552D2C
S1130A3055200CF497C140E0F701EE0FFF1FE2953B
S1130A40F295F07FFE27E07FFE27E258F44D808187
S1130A509181A52FAA0FBB0B21E030E02C0F3D1F85
S1130A60A20FB31F2D913C912817390709F4472D84
S1130A7051506AF7F801EE0FFF1FE295F295F07FEF
S1130A80FE27E07FFE27E659F44D84899589D60137
S1130A908D939C934423F1F0F801EE0FFF1FE29530
S1130AA0F295F07FFE27E07FFE27E659F44D148A85
S1130AB0158A168A178A108E118E128E138E148E32
S1130AC0158E168E178ED501ED91FC91848180616F
S1130AD084832CC1F801EE0FFF1FE295F295F07F9D
S1130AE0FE27E07FFE27E659F44D878D83FF62C021
S1130AF08F01468D50E0B40184E69CE20E94853E5D
S1130B00D8015E96EC915E97F0E0EC59F34D1082BB
S1130B105E968C915E9790E08093612C9093622C0A
S1130B208D919D910D90BC91A02D80935B2C909301
S1130B305C2CA0935D2CB0935E2CF8018689978978
S1130B408093C92A9093CA2AF5E0F61540F1862DC0
S1130B5090E0FC01EE0FFF1FE295F295F07FFE2777
S1130B60E07FFE27E659F44D148A158A168A178AFF
S1130B70108E118E128E138E148E158E168E178E65
S1130B80FC01EE0FFF1FEA5FFF4D0190F081E02DA5
S1130B90848180618483639426E06212D8CF20E04C
S1130BA030E047ED56E065E070E080E090E00E94C0
S1130BB0D624BCC08091CB2A863020F07092F029D4
S1130BC01092CB2A000F111F02951295107F102747
S1130BD0007F10270659144DD8015E964C918091E0
S1130BE0CB2A90E09C01220F331F820F931F880FA2
S1130BF0991F880F991F880F991F50E0B401835CD7
S1130C00954D0E94853E8091CB2A90E0F801268D77
S1130C10FC01EE0FFF1F8E0F9F1FFC01EE0FFF1F45
S1130C20EE0FFF1FEE0FFF1FE95CF54DE20FF11D04
S1130C3016828091CB2A90E0D8014D915D916D91FF
S1130C407C9113979C01220F331F820F931FFC0189
S1130C50EE0FFF1FEE0FFF1FEE0FFF1FE95CF54DB8
S1130C6040835183628373838091CB2A90E0FC019B
S1130C70EE0FFF1F8E0F9F1FFC01EE0FFF1FEE0FE5
S1130C80FF1FEE0FFF1FE95CF54D668A8091CB2AAA
S1130C9090E056962D913C915797FC01EE0FFF1F63
S1130CA08E0F9F1FFC01EE0FFF1FEE0FFF1FEE0FB5
S1130CB0FF1FE95CF54D248335838091CB2A90E0B6
S1130CC05E962C915E97FC01EE0FFF1F8E0F9F1F07
S1130CD0FC01EE0FFF1FEE0FFF1FEE0FFF1FE95C7D
S1130CE0F54D278B8091CB2A8F5F8093CB2A549626
S1130CF01D921C92559756961D921C925797589682
S1130D001D921C9259975A961D921C925B975C9661
S1130D101D921C925D975E961C925E975F961C9244
S1130D20D501ED91FC918481806184834FBEBFEF36
S1130D30EB1AFB0AE2E0AE0EB11CF0E28F0E911C3E
S1130D4022E0C20ED11C539435E053125ECE20E053
S1130D5030E046ED54E06EE370E080E090E00E9405
S1130D60D62411C0F701EE0FFF1FE295F295F07F34
S1130D70FE27E07FFE27E659F44D84899589D60144
S1130D808D939C93A7CE2C96CDBFDEBFDF91CF91E0
S1130D901F910F91FF90EF90DF90CF90BF90AF9095
S1130DA09F908F907F906F905F904F900895DF9207
S1130DB0EF92FF920F931F93CF93DF93CDB7DEB7DC
S1130DC0EDB6FEB68091612C9091622C01962DB700
S1130DD03EB7281B390B2DBF3EBF0DB71EB70F5FA3
S1130DE01F4FDFB6F8944091612C5091622C4F5FF5
S1130DF05F4F64E67CE2C8010E94853E6091612CED
S1130E007091622CDFBEC8010E94CD2CEDBEFEBEE7
S1130E10DF91CF911F910F91FF90EF90DF90089594
S1130E20CF93DF93A0EAB6E083EF11968C931197EA
S1130E30E0E0FBE082E0848380818360808383ED53
S1130E4087A386A389E681A783A785A787A780A709
S1130E5082A7C0E4D6E034E43A8380E696E024E056
S1130E60FC01228340E856E0FA01328312962C9367
S1130E70129738E8398328E0FC012183FA01318391
S1130E8011962C93119720E42B8B2F8BFC01238B31
S1130E90FA01238B278B53962C9382E190E2E6E0B0
S1130EA0F0E268E253E040E732E0A081B1811396BA
S1130EB06C93A081B18115965C93A081B181169643
S1130EC04C93A081B18117963C93A081B181149673
S1130ED02C911497206114962C93A191B19114969E
S1130EE02C911497286014962C93E817F907E9F6C7
S1130EF080E091E044DDA6E0B0E280E090E0FC0117
S1130F00EE0FFF1FE295F295F07FFE27E07FFE27AC
S1130F10E659F44D148A158A168A178A108E118E92
S1130F20128E138E148E158E168E178EED91FD91E2
S1130F3024812061248301968630910501F7109263
S1130F405B2C10925C2C10925D2C10925E2C1092F3
S1130F50CB2A1092F02920E030E046ED54E06EE315
S1130F6070E080E090E00E94D624DF91CF91089554
S1130F705F926F927F928F929F92AF92BF92CF9225
S1130F80DF92EF92FF920F931F93CF93DF93662E1E
S1130F90572E742EC091D429D091D529E82EF12C46
S1130FA080FD0DC081E090E0AC019701082E02C0E5
S1130FB0359527950A94E2F720FF2AC002C040E045
S1130FC050E0FA01EE0FFF1FE295F295F07FFE2745
S1130FD0E07FFE27E659F44D878D8870C8278C2F53
S1130FE082958C27082E869586958025082E8695D1
S1130FF0802587700C2ECD2F869507948795D02D4C
S1131000C82706948795D025C827711007C087C0C4
S113101001968630910509F0C7CFF7CF962DE62DBE
S1131020F52D8191C8278C2F82958C27082E8695C3
S113103086958025082E8695802587700C2ECD2FC9
S1131040869507948795D02DC82706948795D02533
S1131050C8278E2F891B871520F361C0C701002E76
S113106002C0959587950A94E2F780FF25C0F801A0
S1131070EE0FFF1FE295F295F07FFE27E07FFE273B
S1131080E659F44D768EC48BD58B128E138E8091D7
S1131090D4299091D529868B978BA501662D752D22
S11310A0C4010E94853EF6019181F801E050F04EA2
S11310B08081892BF60181830F5F1F4FF0E28F0E31
S11310C0911C0630110551F6E6E0F0E280E090E074
S11310D09701082E02C0359527950A94E2F720FF60
S11310E018C0DC01AA0FBB1FA295B295B07FBA2726
S11310F0A07FBA27A659B44D1D921D921D921C9231
S11311001397A081B18113962C91139722601396A3
S11311102C930196329686309105D1F610C00F2E8D
S1131120FEE68F2EFBE29F2EF02D00E010E0A72CB0
S1131130B12C0F2EC12CFBE0DF2EF02D8FCFDF91D1
S1131140CF911F910F91FF90EF90DF90CF90BF90C0
S1131150AF909F908F907F906F905F900895AF9223
S1131160BF92CF92DF92FF920F931F93CF93DF939F
S1131170C82FD0E0FE01EE0FFF1FEA5FFF4D019084
S1131180F081E02DF080D7D9FE01EE0FFF1FE2952C
S1131190F295F07FFE27E07FFE27E659F44D0081AB
S11311A01181228133815B016C01A01AB10AC20A48
S11311B0D30A96018501053111052105310510F188
S11311C0FE01EE0FFF1FE295F295F07FFE27E07F10
S11311D0FE27E659F44D148A158A168A178A108E4A
S11311E0118E128E138E148E158E168E178EFE018E
S11311F0EE0FFF1FEA5FFF4D0190F081E02D248187
S113120020612483FE01EE0FFF1FE295F295F07F2B
S1131210FE27E07FFE27E659F44D608371838283C5
S11312209383828D938D8730910508F0B3C0FC01C0
S1131230EB5FFE4F0C944A3C8F2D90E0FE01EE0FC5
S1131240FF1FE295F295F07FFE27E07FFE27E65927
S1131250F44D868B978BD6C0FE01EE0FFF1FE295EF
S1131260F295F07FFE27E07FFE27E659F44D86894C
S113127097899F29868B978B86899789848F958FE9
S1131280C1C0FF2074F4FE01EE0FFF1FE295F2953A
S1131290F07FFE27E07FFE27E659F44D878D8860B6
S11312A0878FFE01EE0FFF1FE295F295F07FFE2778
S11312B0E07FFE27E659F44D278D848D958D2870A7
S11312C08227282F22952827022E26952695202529
S11312D0022E269520252770082E892F26950794FF
S11312E02795902D82270694279590258227FE0125
S11312F0EE0FFF1FE295F295F07FFE27E07FFE27B9
S1131300E659F44D848F958F8F2D8F77868F7AC011
S11313108F2D90E0FE01EE0FFF1FE295F295F07F16
S1131320FE27E07FFE27E659F44D848B958B6AC037
S1131330FE01EE0FFF1FE295F295F07FFE27E07F9E
S1131340FE27E659F44D848995899F29848B958BD2
S113135059C08F2D90E0FE01EE0FFF1FE295F2952C
S1131360F07FFE27E07FFE27E659F44D808F918FB2
S113137049C0FE01EE0FFF1FE295F295F07FFE27B4
S1131380E07FFE27E659F44D808D918D9F29808F53
S1131390918F38C0FE01EE0FFF1FE295F295F07FAA
S11313A0FE27E07FFE27E659F44DA28DB38D1797F3
S11313B0AE0FBF1F1496FC92848D958D8F25282F18
S11313C022952827022E269526952025022E26953D
S11313D020252770082E892F269507942795902D70
S11313E082270694279590258227FE01EE0FFF1F82
S11313F0E295F295F07FFE27E07FFE27E659F44D53
S1131400848F958FFE01EE0FFF1FE295F295F07F1A
S1131410FE27E07FFE27E659F44D828D938D0196D9
S1131420828F938F228D338D868D90E007962817B7
S1131430390708F4C6C0FE01EE0FFF1FE295F295CE
S1131440F07FFE27E07FFE27E659F44D248D358D8D
S1131450848995892817390709F1FE01EE0FFF1FCA
S1131460E295F295F07FFE27E07FFE27E659F44DE2
S1131470148A158A168A178A108E118E128E138E6C
S1131480148E158E168E178ECC0FDD1FCA5FDF4D9E
S1131490E881F98184818061848393C0FE01EE0F29
S11314A0FF1FE295F295F07FFE27E07FFE27E659C5
S11314B0F44D808D918D892BA9F1FE01EE0FFF1F54
S11314C0E295F295F07FFE27E07FFE27E659F44D82
S11314D0208D318D8091D4299091D52928173907F1
S11314E009F1FE01EE0FFF1FE295F295F07FFE2752
S11314F0E07FFE27E659F44D148A158A168A178A66
S1131500108E118E128E138E148E158E168E178ECB
S1131510CC0FDD1FCA5FDF4DE881F98184818061D2
S113152084834FC0FE01EE0FFF1FE295F295F07F1A
S1131530FE27E07FFE27E659F44D268937898091FE
S1131540D4299091D5292817390709F5FE01EE0F02
S1131550FF1FE295F295F07FFE27E07FFE27E65914
S1131560F44D148A158A168A178A108E118E128EDB
S1131570138E148E158E168E178ECC0FDD1FCA5F38
S1131580DF4DE881F9818481806184831AC0FE0182
S1131590EE0FFF1FE295F295F07FFE27E07FFE2716
S11315A0E659F44D878D8260878F878D8160878FA0
S11315B0CC0FDD1FCA5FDF4DE881F98184818F7E06
S11315C08483DF91CF911F910F91FF90DF90CF9093
S11315D0BF90AF90089590E0FC01EE0FFF1FE295DD
S11315E0F295F07FFE27E07FFE27E659F44D228D29
S11315F0338D2730310508F07CC0F901E45FFE4FDC
S11316000C944A3CFC01EE0FFF1FE295F295F07F2B
S1131610FE27E07FFE27E659F44D268D2093632CA8
S1131620278D23FF7AC02091632C20682093632C9C
S113163074C0FC01EE0FFF1FE295F295F07FFE27C8
S1131640E07FFE27E659F44D248935892093632CE5
S113165064C0FC01EE0FFF1FE295F295F07FFE27B8
S1131660E07FFE27E659F44D248935893093632CB5
S113167054C0FC01EE0FFF1FE295F295F07FFE27A8
S1131680E07FFE27E659F44D268937892093632CA1
S113169044C0FC01EE0FFF1FE295F295F07FFE2798
S11316A0E07FFE27E659F44D268937893093632C71
S11316B034C0FC01EE0FFF1FE295F295F07FFE2788
S11316C0E07FFE27E659F44D208D318D2093632C65
S11316D024C0FC01EE0FFF1FE295F295F07FFE2778
S11316E0E07FFE27E659F44D208D318D3093632C35
S11316F014C0FC01EE0FFF1FE295F295F07FFE2768
S1131700E07FFE27E659F44D228D338D27503109B1
S1131710E20FF31F24812093632CFC01EE0FFF1FC3
S1131720EA5FFF4D0190F081E02D2091632C20832E
S1131730FC01EE0FFF1FE295F295F07FFE27E07F9C
S1131740FE27E659F44D228D338D2F5F3F4F228FB4
S1131750338F428D538D268D30E0295F3F4F4217E2
S1131760530750F1FC01EE0FFF1FE295F295F07F55
S1131770FE27E07FFE27E659F44D148A158A168A5F
S1131780178A108E118E128E138E148E158E168E4D
S1131790178EFC01EE0FFF1FEA5FFF4DA081B181A0
S11317A014968C911497806114968C930190F08117
S11317B0E02D83818C7F83830895E0E0FBE0318119
S11317C090E0DC01A050B04E2C912095232321837E
S11317D0FC01EE0FFF1FE295F295F07FFE27E07FFC
S11317E0FE27E659F44D178E168E128E138E108E28
S11317F0118E168A178AFC01EE0FFF1FEA5FFF4D58
S1131800A081B18111968C911197806411968C936B
S11318100190F081E02D848180618483089560E0EB
S1131820482F50E0262F30E0CA01062E02C09595BD
S113183087950A94E2F780FF0EC0F901EE0FFF1FAF
S1131840E295F295F07FFE27E07FFE27E659F44DFE
S1131850878D837021F46F5F663020F3089560E014
S1131860E1CFCF92DF92EF92FF920F931F93CF932A
S1131870DF93D82E7B01C42E8901D1DFA6E0B0E22C
S1131880E0E0F0E02D2D30E091E0E9010E2E02C001
S1131890D595C7950A94E2F7C0FF17C0CD91DC91A6
S11318A011978C818F7E8C83EF01CC0FDD1FC29545
S11318B0D295D07FDC27C07FDC27C659D44D9F8FBB
S11318C08F8D88608F8F088F198F31961296E6302E
S11318D0F105D9F64C2DB7018D2D4ADBDF91CF915F
S11318E01F910F91FF90EF90DF90CF9008950F9389
S11318F01F93CF93DF93182FEB01042F90DFE6E0C3
S1131900F0E220E030E0612F70E091E0DB01022E94
S113191002C0B595A7950A94E2F7A0FF21C0A08163
S1131920B18114968C9114978F7E14968C93D9015F
S1131930AA0FBB1FA295B295B07FBA27A07FBA2782
S1131940A659B44D5F969C935F975F968C915F9771
S113195088605F968C935F9758961D921C92599756
S11319602F5F3F4F32962630310581F6402FBE015E
S1131970812FFEDADF91CF911F910F910895CF92BD
S1131980DF92EF92FF920F931F93CF93DF93D82EA2
S11319907B01C42E890143DFA6E0B0E2E0E0F0E081
S11319A02D2D30E091E0E9010E2E02C0D595C795AA
S11319B00A94E2F7C0FF14C0CD91DC9111978C8199
S11319C08F7E8C83EF01CC0FDD1FC295D295D07F23
S11319D0DC27C07FDC27C659D44D9F8F088F198F11
S11319E031961296E630F105F1F64C2DB7018D2DA6
S11319F0BFDADF91CF911F910F91FF90EF90DF90AD
S1131A00CF9008950F931F93CF93DF93182FEB017B
S1131A10042F05DFE6E0F0E220E030E0612F70E023
S1131A2091E0DB01022E02C0B595A7950A94E2F776
S1131A30A0FF1AC0A081B18114968C9114978F7E57
S1131A4014968C93D901AA0FBB1FA295B295B07FAF
S1131A50BA27A07FBA27A659B44D5F969C935F9787
S1131A6058961D921C9259972F5F3F4F32962630FD
S1131A703105B9F6402FBE01812F7ADADF91CF917B
S1131A801F910F9108951F920F920FB60F92112478
S1131A900BB60F922F933F934F935F936F937F9364
S1131AA08F939F93AF93BF93EF93FF9380E057DBA4
S1131AB0FF91EF91BF91AF919F918F917F916F9122
S1131AC05F914F913F912F910F900BBE0F900FBEDE
S1131AD00F901F9018951F920F920FB60F9211241A
S1131AE00BB60F922F933F934F935F936F937F9314
S1131AF08F939F93AF93BF93EF93FF9380E05DDE4B
S1131B00FF91EF91BF91AF919F918F917F916F91D1
S1131B105F914F913F912F910F900BBE0F900FBE8D
S1131B200F901F9018951F920F920FB60F921124C9
S1131B300BB60F922F933F934F935F936F937F93C3
S1131B408F939F93AF93BF93EF93FF9380E043DD15
S1131B50FF91EF91BF91AF919F918F917F916F9181
S1131B605F914F913F912F910F900BBE0F900FBE3D
S1131B700F901F9018951F920F920FB60F92112479
S1131B800BB60F922F933F934F935F936F937F9373
S1131B908F939F93AF93BF93EF93FF9381E0DFDA2B
S1131BA0FF91EF91BF91AF919F918F917F916F9131
S1131BB05F914F913F912F910F900BBE0F900FBEED
S1131BC00F901F9018951F920F920FB60F92112429
S1131BD00BB60F922F933F934F935F936F937F9323
S1131BE08F939F93AF93BF93EF93FF9381E0E5DDD2
S1131BF0FF91EF91BF91AF919F918F917F916F91E1
S1131C005F914F913F912F910F900BBE0F900FBE9C
S1131C100F901F9018951F920F920FB60F921124D8
S1131C200BB60F922F933F934F935F936F937F93D2
S1131C308F939F93AF93BF93EF93FF9381E0CBDC9C
S1131C40FF91EF91BF91AF919F918F917F916F9190
S1131C505F914F913F912F910F900BBE0F900FBE4C
S1131C600F901F9018951F920F920FB60F92112488
S1131C700BB60F922F933F934F935F936F937F9382
S1131C808F939F93AF93BF93EF93FF9382E067DAB1
S1131C90FF91EF91BF91AF919F918F917F916F9140
S1131CA05F914F913F912F910F900BBE0F900FBEFC
S1131CB00F901F9018951F920F920FB60F92112438
S1131CC00BB60F922F933F934F935F936F937F9332
S1131CD08F939F93AF93BF93EF93FF9382E06DDD58
S1131CE0FF91EF91BF91AF919F918F917F916F91F0
S1131CF05F914F913F912F910F900BBE0F900FBEAC
S1131D000F901F9018951F920F920FB60F921124E7
S1131D100BB60F922F933F934F935F936F937F93E1
S1131D208F939F93AF93BF93EF93FF9382E053DC22
S1131D30FF91EF91BF91AF919F918F917F916F919F
S1131D405F914F913F912F910F900BBE0F900FBE5B
S1131D500F901F9018951F920F920FB60F92112497
S1131D600BB60F922F933F934F935F936F937F9391
S1131D708F939F93AF93BF93EF93FF9383E0EFD938
S1131D80FF91EF91BF91AF919F918F917F916F914F
S1131D905F914F913F912F910F900BBE0F900FBE0B
S1131DA00F901F9018951F920F920FB60F92112447
S1131DB00BB60F922F933F934F935F936F937F9341
S1131DC08F939F93AF93BF93EF93FF9383E0F5DCDF
S1131DD0FF91EF91BF91AF919F918F917F916F91FF
S1131DE05F914F913F912F910F900BBE0F900FBEBB
S1131DF00F901F9018951F920F920FB60F921124F7
S1131E000BB60F922F933F934F935F936F937F93F0
S1131E108F939F93AF93BF93EF93FF9383E0DBDBA9
S1131E20FF91EF91BF91AF919F918F917F916F91AE
S1131E305F914F913F912F910F900BBE0F900FBE6A
S1131E400F901F9018951F920F920FB60F921124A6
S1131E500BB60F922F933F934F935F936F937F93A0
S1131E608F939F93AF93BF93EF93FF9384E077D9BE
S1131E70FF91EF91BF91AF919F918F917F916F915E
S1131E805F914F913F912F910F900BBE0F900FBE1A
S1131E900F901F9018951F920F920FB60F92112456
S1131EA00BB60F922F933F934F935F936F937F9350
S1131EB08F939F93AF93BF93EF93FF9384E07DDC65
S1131EC0FF91EF91BF91AF919F918F917F916F910E
S1131ED05F914F913F912F910F900BBE0F900FBECA
S1131EE00F901F9018951F920F920FB60F92112406
S1131EF00BB60F922F933F934F935F936F937F9300
S1131F008F939F93AF93BF93EF93FF9384E063DB2F
S1131F10FF91EF91BF91AF919F918F917F916F91BD
S1131F205F914F913F912F910F900BBE0F900FBE79
S1131F300F901F9018951F920F920FB60F921124B5
S1131F400BB60F922F933F934F935F936F937F93AF
S1131F508F939F93AF93BF93EF93FF9385E0FFD845
S1131F60FF91EF91BF91AF919F918F917F916F916D
S1131F705F914F913F912F910F900BBE0F900FBE29
S1131F800F901F9018951F920F920FB60F92112465
S1131F900BB60F922F933F934F935F936F937F935F
S1131FA08F939F93AF93BF93EF93FF9385E005DCEB
S1131FB0FF91EF91BF91AF919F918F917F916F911D
S1131FC05F914F913F912F910F900BBE0F900FBED9
S1131FD00F901F9018951F920F920FB60F92112415
S1131FE00BB60F922F933F934F935F936F937F930F
S1131FF08F939F93AF93BF93EF93FF9385E0EBDAB7
S1132000FF91EF91BF91AF919F918F917F916F91CC
S11320105F914F913F912F910F900BBE0F900FBE88
S11320200F901F9018951F93CF93DF93613021F485
S1132030FC018081918151C0623049F5FC0120810D
S1132040318182819381820F931F99230CF401962D
S11320509595879542C012961F5F1617E9F0712F68
S1132060ED01E72FF0E0EE0FFF1FE80FF91F4081AD
S113207051812D913C9111974217530724F44883C1
S11320805983208331837F5F7613EBCFE4CF6623BC
S113209029F0DC0110E0E0CF60FD15C06695E62F65
S11320A0F0E0E150F048EE0FFF1FE80FF91F208128
S11320B0318182819381820F931F99230CF40196BD
S11320C0959587950AC06695262F30E0220F331F19
S11320D0FC01E20FF31F80819181DF91CF911F9169
S11320E008950F931F93CF93DF93CDB7DEB72A974D
S11320F0CDBFDEBFE0E4F2E091A1977091A391A17E
S1132100082F10E0D801A156BE4D8C91892B81A3D4
S1132110DE0111969E01255F3F4F51E09FB7F89471
S113212080A1806880A383A18823E9F39FBF45A190
S113213084A190E0942B95958795959587958D939B
S11321409D9353A3A217B30749F763E0CE01059605
S11321506ADFF801EE0FFF1FEE51F54D208131814A
S11321608217930714F0821B01C080E02A96CDBF2A
S1132170DEBFDF91CF911F910F910895EF92FF92EF
S11321800F931F93CF93DF938CEFE0E2F6E082830B
S1132190E0E4F2E0128280E1818387E0848392E0CC
S11321A090A381A384B5848785B5858781E08083E6
S11321B085E38A95F1F700001092E22A1092E32A4F
S11321C01092E42A1092E52A1092E62A1092E72A45
S11321D01092E82A1092E92A1092EA2A1092EB2A25
S11321E01092EC2A1092ED2A85E090E00E94B0242F
S11321F080E077DFC2EEDAE2F12CEE24EA940FC03D
S11322008F2D6FDF801708F4082F1150C9F7202F86
S113221030E029933993F39486E0F81619F015E029
S11322200E2DEECFDF91CF911F910F91FF90EF9084
S113223008955F926F927F928F929F92AF92BF9216
S1132240CF92DF92EF92FF920F931F93CF93DF937E
S1132250CDB7DEB76E97CDBFDEBF81E08093892B0B
S11322608093A92B8093C92B8093E92B8093092C0D
S11322708093292C6090EE297090EF2980E091E002
S11322800E94BF040F2EF2E1EF2EF0E2FF2EF02D9C
S1132290CE010D96E6E0F0E241915191DA011496F7
S11322A02C91DC012D93CD01DA0114961C92EE15CC
S11322B0FF0591F78E010F5F1F4FB12C0F2EFFE822
S11322C0CF2EDD24D394F02DF6013197F1F70000E1
S11322D000C08B2D06DF282F30E0F80121933193C5
S11322E08F01B394F6E0BF12EFCFE0E0FBE0818111
S11322F08C708183E0EAF6E083EF858320E436E0A6
S113230058E8D90111965C9380E696E048E0DC0138
S113231011964C9360E876E0DB0111965C9341835F
S1132320D90116965C93DC0116964C93DB01169644
S11323305C9346838FEC97E00197F1F7000000C0AF
S1132340E0E4F2E0808182608083FE0131966F01D7
S113235000E010E0512C0F2EFFECAF2EF7E0BF2E63
S1132360F02D88248394912CC5010197F1F7000086
S113237000C0802FB6DE90E0F801EE0FFF1F21E0D1
S113238030E02C0F3D1FE20FF31F828B938B828969
S1132390938982899389D6012D913D916D01821B88
S11323A0930B419744F0C401002E02C0880F991F7B
S11323B00A94E2F7582A0F5F1F4F06301105A1F661
S11323C098E8E0E4F6E0978388E0E0E6F6E08783C7
S11323D0E0E8F6E09783E0EAF6E0878383EF86831C
S11323E0AE01435F5F4FE6E0F0E281919191DA0143
S11323F02D91AD01DC0114962C93EE15FF05A9F780
S1132400E0E0FBE08181836F8183C3010E94BF040C
S11324101092892B1092A92B1092C92B1092E92BA0
S11324201092092C1092292C852D6E96CDBFDEBFFB
S1132430DF91CF911F910F91FF90EF90DF90CF909C
S1132440BF90AF909F908F907F906F905F90089512
S113245083E0E0E0F8E08183E0E4F8E08183E0E019
S1132460F9E08183E0E4F6E093E39683A0E6B6E046
S113247016968C931697108A118A148A158A509688
S11324801C92509751961C921092362A8091EC29F6
S11324909091ED290C944F2608958091362A882333
S11324A024F48091362A877008958FEF08954F920F
S11324B05F926F927F928F929F92AF92BF92CF92D0
S11324C0DF92EF92FF920F931F93CF93DF93CDB7D9
S11324D0DEB72997CDBFDEBF182F7B01DEDF88234F
S11324E00CF079C1812F877080688093362AA09080
S11324F0CD2AB090CE2AAA0CBB1CAA0CBB1CAA0CD9
S1132500BB1CAA0CBB1CAA0CBB1C8090EF2A90908D
S1132510F02A880C991C880C991C880C991C880C2E
S1132520991C880C991C812F90E09C01220F331F69
S1132530820F931F880F991F855D934D9E01295F1C
S11325403F4F6901FE01319600E010E03C01DC01DF
S11325504D915C914115510529F410821182D901E4
S11325601C9218C0BA01552324F466277727641BEC
S1132570750B6A0D7B1D60837183D30111964C9199
S1132580440F440B440F4F5FD9014C93080D191DA0
S1132590060F171F029632962F5F3F4FEC15FD056D
S11325A0A9F640E059E0FA0106A317A3A0E4B8E0B5
S11325B096960D931C93979780E098E0FC0106A3F0
S11325C017A329813A8122A733A720A731A78B819A
S11325D09C819A968D939C939B9798968D939C93AC
S11325E099978D819E81DA019A968D939C939B97FE
S11325F098968D939C939997A090EF2AB090F02A87
S1132600AA0CBB1CAA0CBB1CAA0CBB1CAA0CBB1C92
S1132610AA0CBB1CFE0131966F0140E0E0E0F0E043
S11326206894882486F8992493F8612C6894772414
S113263073F80F2E412CF9E05F2EF02DD6012D9169
S11326403D916D012115310569F1413081F018F09A
S11326504230C9F023C0C8018E1B9F0BB8010E94F1
S1132660013CD30190968D939C93919717C0C80118
S11326708E1B9F0BB8010E94013CD40190968D9350
S11326809C9391970BC0C8018E1B9F0BB8010E94AD
S1132690013CD20190968D939C939197EA0DFB1D7A
S11326A0E20FF31F4F5F433049F60E171F0709F47B
S11326B094C01F930F93FF93EF9385EA91E29F9346
S11326C08F930E94283F0F900F900F900F900F90C0
S11326D00F9083C05F5F4FEF450FE7E0F0E0EC0F32
S11326E0FD1FE40FF11D6081662364F5413089F01C
S11326F018F04230D9F054C0FC01C18250967C934A
S1132700509715964C911597426015964C931597D2
S1132710E1CFF901C18254967C93549715964C915C
S11327201597406215964C931597D4CF83E1E0E05A
S1132730F9E08183E0E6F6E080E4808B85818260C5
S1132740858331C0161664F5413089F018F04230A3
S1132750D9F026C0FC01D18251967C9351971596ED
S11327604C911597416015964C931597B3CFF90189
S1132770D18255967C93559715964C911597406147
S113278015964C931597A6CF83E2E0E0F9E0818398
S1132790E0E6F6E080E4818B85818160858303C077
S11327A0533008F497CF9801D7010E94503C6894A5
S11327B014F896958795779567951694D1F720E048
S11327C030E048E252E10E94D6248093EC299093B1
S11327D0ED2981E013C080E011C051E020E438E02D
S11327E00F2EF3E2DF2EF02DA0E4B6E070E480E0DB
S11327F098E00F2EF3E1CF2EF02D6DCF2996CDBFAB
S1132800DEBFDF91CF911F910F91FF90EF90DF908A
S1132810CF90BF90AF909F908F907F906F905F907C
S11328204F900895AF92BF92CF92DF92EF92FF92B2
S11328301F93CF93DF93182FEB01A82EB12C80E0C8
S113284090E00E9443366B017C01F501EE0FFF1FFF
S1132850E65AF44D6081718180E090E00E94433635
S113286020E030E04AE754E40E94AA359B01AC0121
S1132870C701B6010E94AA350E941736E62EF72E2C
S11328807F936F93DF93CF931F921F938BEE91E20D
S11328909F938F930E94283F6E2D7F2D812F07DEFB
S11328A08DB79EB708968DBF9EBFDF91CF911F91C4
S11328B0FF90EF90DF90CF90BF90AF900895E82FF6
S11328C0F0E0EE0FFF1FE65AF44D60837183089524
S11328D0FF920F931F93CF93DF93C0E0D0E01BC010
S11328E0CE0140960E941704F82ECE0141960E9414
S11328F01704FE01E55DF34D2F2D30E0322F222722
S1132900282B208331832296C017D10749F700333F
S1132910110529F0E8018E010A5F1F4FE1CF0AE596
S11329201BE2C0E4D0E0CE010E941704F82ECE01D1
S113293001960E9417042F2D30E0322F2227282BD6
S1132940F801219331938F012296C035D10559F7AF
S1132950DF91CF911F910F91FF90089583E3E0E4FD
S1132960F6E0818383E0E0E6F6E08183E0E0F8E0EE
S113297097E090838183E0E4F8E090838183E0E052
S1132980F9E0908381831092362A84E190E0809369
S1132990CD2A9093CE2A8EE190E08093EF2A9093F3
S11329A0F02A96CF0895FF920F931F93CF93DF934E
S11329B0C0E0D0E016C0FE01E55DF34DF08061811A
S11329C0CE0140960E9432046F2DCE0141960E94A2
S11329D032042296C017D10771F70033110529F08C
S11329E0E8018E010A5F1F4FE6CF0AE51BE2C0E44F
S11329F0D0E0F801F08061810E5F1F4FCE010E948C
S1132A0032046F2DCE0101960E9432042296C03505
S1132A10D10579F7DF91CF911F910F91FF90089520
S1132A209F92AF92BF92CF92DF92EF92FF920F9359
S1132A301F93CF93DF9388E292E20E94393F0F2ED7
S1132A40FBE2CF2EFCE2DF2EF02DE12CF12C0F2E39
S1132A50F6E3AF2EF2E2BF2EF02D0CE312E2FF926A
S1132A60EF92BF92AF920E94283F0F900F900F9069
S1132A700F90E601912C8881998122969F938F93E0
S1132A801F930F930E94283F93940F900F900F90E1
S1132A900F9083E09812EFCF80ED99E20E94393FC6
S1132AA08FEFE81AF80A86E0C80ED11C88E0E81611
S1132AB0F104A9F680ED99E20E94393FDF91CF91AC
S1132AC01F910F91FF90EF90DF90CF90BF90AF9048
S1132AD09F900895EF92FF920F931F93CF93DF93EC
S1132AE080E492E20E94393F0AE51BE2C0E0D0E0B4
S1132AF00F2EF8E5EF2EF2E2FF2EF02DF801808183
S1132B0091810E5F1F4F9F938F93DF93CF93FF921B
S1132B10EF920E94283F21960F900F900F900F90F4
S1132B200F900F90C830D10549F7DF91CF911F91D5
S1132B300F91FF90EF900895E0EBF9E0918195FFFC
S1132B40FDCF8093B00981E090E00895E0E6F6E0DF
S1132B5080E8818380E48283E0EBF9E083E085838D
S1132B6087E1868384EA8783848180618483848186
S1132B708860848382E190E28093C22E9093C32E76
S1132B801092342A1092352A80E1838308951F938A
S1132B90CF93DF938091342A9091352A182FFC012A
S1132BA0FF27EC50F64D8081882379F0C2ECDEE2F9
S1132BB06881798190E00E94F63E1F5FE12FF0E08A
S1132BC0EC50F64D80818111F3CF812F90E08093FA
S1132BD0342A9093352ADF91CF911F9108958091E3
S1132BE0B00990912A2C913031F4813409F4CFDF6B
S1132BF010922A2C08959091F329992341F08B3552
S1132C0019F481E080932A2C1092F32908958D30D1
S1132C1011F08A30A9F480ED99E20E94393F609165
S1132C20342A7091352AFB01EC50F64D108284EF62
S1132C3099E20E94CD2C1092342A1092352A0895DC
S1132C408830A1F48091342A9091352A009729F094
S1132C5001978093342A9093352A82E692E29F93D7
S1132C608F930E94283F0F900F9008958B3121F489
S1132C7081E08093F32908952091342A3091352AF4
S1132C802034310591F41F9280E48F9386E692E21A
S1132C909F938F930E94283F1092342A1092352AD2
S1132CA00F900F900F900F900895F901EC50F64D8E
S1132CB080832F5F3F4F2093342A3093352A6091CD
S1132CC0C22E7091C32E90E00C94F63E08951F928C
S1132CD00F920FB60F9211240BB60F922F933F93BE
S1132CE04F935F936F937F938F939F93AF93BF9310
S1132CF0EF93FF9374DFFF91EF91BF91AF919F9199
S1132D008F917F916F915F914F913F912F910F9090
S1132D100BBE0F900FBE0F901F90189583E0E0E25A
S1132D20F6E08283E0E9F3E081E08083818388E058
S1132D308283838380E1868308958FE1E0E0F6E077
S1132D408283E0E8F3E089E080838183128281E07A
S1132D50838382818061828383818061838380E134
S1132D6086830895DBDFE9CF0895E0ECF0E080E2AC
S1132D70808388B1838389B183838AB183838BB150
S1132D8083838CB183838DB1838380B3838382B344
S1132D90838383B3838384B3838385B38383A0E0F2
S1132DA0B2E094968C91949783839C968C919C9793
S1132DB08383D4968C918383A0E4B2E094968C911F
S1132DC0949783839C968C91838381E08093A42C35
S1132DD080E191E092838150E9F784E88093C00018
S1132DE01092A52C08958AEB9CE22EEB3CE214C0D1
S1132DF0DF0154971C9214961C9214961C921496FC
S1132E001C9214961C9210824F5F7896463081F77C
S1132E1001968217930719F0FC0140E0E9CF089569
S1132E202F923F924F925F926F927F928F929F92D6
S1132E30AF92BF92CF92DF92EF92FF920F931F93C4
S1132E40CF93DF93C8E3D0E28C010F2EF8E62F2E48
S1132E50F0E23F2EF02D812C912C540124013501F8
S1132E60F80161918F0170E080E090E00E944536A6
S1132E706B017C01288139814A815B810E94BA37C8
S1132E809B01AC01C301B2010E94DD342B013C0162
S1132E902C813D814E815F81C701B6010E94BA3702
S1132EA09B01AC01C501B4010E94DD344B015C01FE
S1132EB02896C215D305A1F6A30192010E945035AC
S1132EC0DF91CF911F910F91FF90EF90DF90CF9002
S1132ED0BF90AF909F908F907F906F905F904F9036
S1132EE03F902F900895CF92DF92FF920F931F93FC
S1132EF0CF93DF93F62E072FA62FB72FE42FF52FAE
S1132F0026E011921D922150E1F7C42ED52E40E007
S1132F1050E017C09D0110817D91710F7193E601FE
S1132F207881E9012881270FE60128836F5F6630E5
S1132F3089F74A5F5F4FDFEFCD1ADD0A443251054E
S1132F4039F0DC01A40FB51FEF2DF02F60E0E2CFC4
S1132F50DF91CF911F910F91FF90DF90CF90089553
S1132F60DF92EF92FF920F931F93CF93DF9346EA82
S1132F705CE266E37DE2E12CDD24DA941EC0C191BB
S1132F80C11708F41C2F0C1708F40C2FD150B9F7F3
S1132F90011BE01608F4E02E0D93FA942C5F3F4FCA
S1132FA0FF2029F0F901D4E000E01D2DE8CF0696BA
S1132FB0485E5F4F4617570739F09A01DC010F2E20
S1132FC0F6E0FF2EF02DEECF81E08E1508F480E0C0
S1132FD0DF91CF911F910F91FF90EF90DF900895B3
S1132FE0DF92EF92FF920F931F93CF93DF9306EA42
S1132FF01CE20F2EF6E3EF2EFDE2FF2EF02D0DC0A6
S11330008D2D6FD88883D394249686E0D812F8CF78
S1133010085E1F4F0E151F0519F0E801D12CF0CFE3
S1133020DF91CF911F910F91FF90EF90DF90089562
S11330302F923F924F925F926F927F928F929F92C4
S1133040AF92BF92CF92DF92EF92FF920F931F93B2
S1133050CF93DF938FE59AEEA0E0B0E00197A1094A
S1133060B109000001F0D1F7C89500008FE79EE395
S11330700197F1F7000000C00F2EF7EA6F2EFCE273
S11330807F2EF02D0F2EF7E34F2EFDE25F2EF02D55
S11330900E949B024B015C018301332433940E9400
S11330A09B026B017C01E801212C822D1AD88883B4
S11330B02394249686E02812F8CF0E949B02DC0118
S11330C0CB018C199D09AE09BF090397A105B10570
S11330D0A0F382E0831520F085E090E00E94B02404
S11330E033940F5F1F4F84E03812D9CF0E949B02A4
S11330F0DC01CB0188199909AA09BB094797A105E5
S1133100B105A0F38FE090E00E94B02488E1680E3E
S1133110711C6414750409F0BBCFDF91CF911F912A
S11331200F91FF90EF90DF90CF90BF90AF909F9062
S11331308F907F906F905F904F903F902F90089565
S1133140CF93DF931F92CDB7DEB772DF49DF89E1FA
S113315089839E012F5F3F4F46E050E26AE070E0B2
S113316080E090E00E94D6240F90DF91CF910895E3
S1133170AF92BF92CF92DF92EF92FF920F931F9381
S1133180823019F130F4882309F45BC0813071F086
S113319006C08430C1F140F1853009F443C0E12C0C
S11331A0F12C00E010E0C12CD12C58C00F2EF0EB14
S11331B0EF2EF8E0FF2EF02D00E416E06894CC2406
S11331C0C7F86894DD24D1F849C00F2EF0EAEF2E39
S11331D0F9E0FF2EF02D00E616E06894CC24C3F845
S11331E06894DD24D4F83AC00F2EF0EAEF2EFAE00A
S11331F0FF2EF02D00E816E06894CC24C3F8689400
S1133200DD24D5F82BC00F2EF0EBEF2EFAE0FF2EC5
S1133210F02D00E816E06894CC24C7F86894DD2407
S1133220D7F81CC00F2EF0EAEF2EFBE0FF2EF02D96
S113323000EA16E06894CC24C3F86894DD24D6F838
S11332400DC00F2EF0EAEF2EF8E0FF2EF02D00E473
S113325016E06894CC24C3F8DD24D394F701A48049
S1133260E0E0FBE08181BD2CB0948B218183E0EA16
S1133270F6E0D18284818D298483F7011482F801D8
S1133280C18284819C2D90958923848370E080E0A1
S113329090E00E94433620E034E244EF5BE40E9475
S11332A0BA3720E030E04AE754E40E94AA3520E02F
S11332B030E040E05FE30E94DD340E941736AB014A
S11332C0BC014D3051056105710508F45DC0413004
S11332D0F4E05F0761057105D8F4415051096109B3
S11332E07109DB01CA01B695A79597958795B6959F
S11332F0A795979587954370552766277727009755
S1133300A105B10509F440C08A9501F0E9F73CC074
S11333104230510584E068077105D0F442505109E8
S113332061097109DB01CA01B695A795979587953F
S1133330B695A79597958795437055276627772760
S11333400097A105B10501F10197F1F700001CC038
S11333504450510961097109DB01CA01689412F8EA
S1133360B695A795979587951694D1F747705527E5
S1133370662777270097A105B10531F00197A109C8
S1133380B109000001F0D1F7413051056105710523
S113339011F400000EC0423051056105710511F4AD
S11333A000C00FC0433051056105710511F4C89583
S11333B010C0443051056105710519F4C895000029
S11333C010C0453051056105710519F4C89500C058
S11333D011C0463051056105710519F4C895C895A9
S11333E012C0473051056105710521F4C895C8958F
S11333F0000012C0483051056105710521F4C895DB
S1133400C89500C013C0493051056105710521F408
S1133410C895C895C89514C04A3051056105710511
S113342029F4C895C895C895000013C04B305105C0
S11334306105710529F4C895C895C89500C009C0EF
S11334404C3051056105710521F4C895C895C8959E
S1133450C895F8018481C82AC482F701A482E0EAED
S1133460F6E08481B822B482E0E0FBE08181D82ACE
S1133470D1821F910F91FF90EF90DF90CF90BF907A
S1133480AF900895CF92DF92EF92FF92CF938FE0A7
S113349090E00E94B0240E949B026B017C0180E0BA
S11334A091E00E94BF040E949B02DC01CB018C19B5
S11334B09D09AE09BF090297A105B105A0F3C0E0BB
S11334C00E949B026B017C0167E18C2F51DE0E94FC
S11334D09B02AB01BC014C195D096E097F094731A0
S11334E051056105710598F38FE090E00E94B024C6
S11334F0CF5FC63029F7CF91FF90EF90DF90CF9048
S11335000895EF92FF920F931F93CF93DF93E0E41C
S1133510FAE0C2ADD3AD00AD11ADE0E4F9E0E0AC4A
S1133520F1AC4FEF60E080E084D645E050E069EA1A
S113353072E28FE30E94770C8FE30E940F0C8DE5FB
S113354090E00E94B0244E2D602F8C2F72D68FEF06
S113355099DFDF91CF911F910F91FF90EF90089524
S1133560CF92DF92EF92FF926B017C0120E030E07A
S1133570A9010E94AF378823ACF02BED3FE049E46A
S113358050E4C701B6010E94DD342BED3FE049EC65
S113359050E40E9487362BED3FE049E450E40E945A
S11335A0DC3414C02BED3FE049E450E4C701B6011C
S11335B00E94DC342BED3FE049EC50E40E94873656
S11335C02BED3FE049E450E40E94DD34FF90EF909E
S11335D0DF90CF9008952F923F926F927F928F92B7
S11335E09F92AF92BF92CF92DF92EF92FF920F938E
S11335F01F93CF93DF93CDB7DEB76097CDBFDEBF08
S11336004D875E876F87788B19821A821B821C8292
S11336101D821E821F82188608E310E21C010F2EF1
S1133620F8E66F2EF0E27F2EF02DF10161911F017B
S113363070E080E090E00E9445366B017C01898057
S11336409A80AB80BC80F801208131814281538112
S11336500E94BA37A50194010E94DD3469837A83FC
S11336608B839C838D809E80AF80B884F8012481F5
S1133670358146815781C701B6010E94BA37A50139
S113368094010E94DD346D837E838F839887085F65
S11336901F4F0615170549F629813A814B815C8134
S11336A06D817E818F8198850E94503569877A87E4
S11336B08B879C87C984DA84EB84FC842BED3FE000
S11336C049E450E46D857E858F8598890E94DD34B8
S11336D0A70196010E94DC3443DF6096CDBFDEBFB4
S11336E0DF91CF911F910F91FF90EF90DF90CF90DA
S11336F0BF90AF909F908F907F906F903F902F904E
S113370008952EDF2BED3FE049E450E40E94AA35F2
S113371020E030E044E353E40C94BA370895CF92A8
S1133720DF92EF92FF926B017C012BED3FE049ECBD
S11337305FEB0E94AF3718167CF42BED3FE049ECA9
S11337405FE3C701B6010E94A33588234CF4C70187
S1133750B6010E94A73507C060E070E0CB0103C04A
S113376060E070E0CB01FF90EF90DF90CF90089580
S1133770CF92DF92EF92FF926B017C012BED3FE041
S113378049EC5FEB0E94AF3718167CF42BED3FE059
S113379049EC5FE3C701B6010E94A33588234CF4CA
S11337A0C701B6010E94A73507C060E070E0CB01F5
S11337B003C060E070E0CB01FF90EF90DF90CF900A
S11337C008954F3FE1F420E030E040E05FE30E94E1
S11337D0BA372AE038E64EEA5FE30E94DC340E94FE
S11337E027389B01AC0165E075E48DE991E40E9402
S11337F0AA352FE13EE249E95FE30C94DC341F92E1
S11338004F938FEA92E29F938F930E94283F0F90E9
S11338100F900F900F9060E070E0CB0108954F92ED
S11338205F926F927F928F929F92AF92BF92CF924C
S1133830DF92EF92FF920F931F93CF93DF9300D009
S11338401F92CDB7DEB72B013C0129833A834B830A
S11338505C83AC2DBD2DEE2DFF2D60E040E050E0EB
S113386020E030E07FEF1FEF8D9190E028173907BB
S113387010F49C01162F819190E04817590710F419
S1133880AC01762F6F5F663079F7872E912CF401A7
S1133890EE0FFF1FEE0FFF1FE05EFF4D2081318111
S11338A042815381C301B2010E94DC346B017C016B
S11338B02BED3FE049EC5FE30E94AF3718160CF4A0
S11338C076C02BED3FE049EC5FEBC701B6010E94E7
S11338D0A33588230CF46FC029813A814B815C8124
S11338E0C301B2010E94DC34E12FF0E0EE0FFF1FB0
S11338F0EE0FFF1FE05EFF4D208131814281538135
S11339000E94DC342BED3FE049E450E40E94DC34B7
S113391027DE2B013C012BED3FE049EC5FE30E94E5
S1133920AF3718160CF44BC02BED3FE049EC5FEBBE
S1133930C301B2010E94A33588230CF444C0C7011B
S1133940B601EDDE6B017C01C301B20111DF9B0105
S1133950AC01C701B6010E94BA376B017C0120E0BB
S113396030E0A9010E94AF3718168CF5812F90E042
S11339709C01220F331F820F931F880F991FA80EDB
S1133980B91EF401EA0DFB1D608170E080E090E057
S11339900E944536A70196010E94AA35402F11DFE7
S11339A028E93CE445E850E40E94DD3413C060E0BB
S11339B070E0CB010FC060E070E0CB010BC060E0B1
S11339C070E0CB0107C060E070E0CB0103C060E0B1
S11339D070E0CB012496CDBFDEBFDF91CF911F9164
S11339E00F91FF90EF90DF90CF90BF90AF909F909A
S11339F08F907F906F905F904F9008952F923F9299
S1133A004F925F926F927F928F929F92AF92BF92EA
S1133A10CF92DF92EF92FF920F931F93CF93DF9396
S1133A20CDB7DEB7C75BD109CDBFDEBFCD55DF4F04
S1133A30688379838A839B83C35AD040C955DF4FF7
S1133A40288339834A835B83C75AD040CF54DF4FDE
S1133A50E882F9820A831B83C15BD040CB54DF4FD9
S1133A60C882C55BD040C356DF4FA882CD59D04031
S1133A70C256DF4FB882CE59D040CE010196CA5407
S1133A80DF4F88839983C65BD040E0E2F0E2C555FE
S1133A90DF4FE883F983CB5AD04088E390E2C556E0
S1133AA0DF4F88839983CB59D040C355DF4F1882A9
S1133AB0CD5AD0409FEFC055DF4F9883C05BD040B4
S1133AC0EFEFC155DF4FE883CF5AD04000E036C254
S1133AD0CF56DF4F8881C159D040C356DF4FF8819C
S1133AE0CD59D0408F1BCF56DF4FE881F981C159A2
S1133AF0D0401191CF56DF4FE883F983C159D040AC
S1133B00011780F4C055DF4F8883C05BD040C25595
S1133B10DF4FF881CE5AD040C155DF4FF883CF5ADA
S1133B20D040012F123008F49BC128E93CE445E061
S1133B3050E4F10160817181828193810E94BA37DE
S1133B40C956DF4F688379838A839B83C759D040E2
S1133B5028E93CE445E050E4F10164817581868103
S1133B6097810E94BA37C156DF4F688379838A836D
S1133B709B83CF59D040C955DF4F688179818A81B1
S1133B809B81C75AD0400E94A7354B015C0128E9AC
S1133B903CE445E050E4C556DF4FE881F981CB5958
S1133BA0D04060817181828193810E94BA376B0118
S1133BB07C01CD55DF4F288139814A815B81C35A0D
S1133BC0D040C501B4010E94BA379B01AC01C701C2
S1133BD0B6010E94DD344B015C01C955DF4F688199
S1133BE079818A819B81C75AD0400E941D382B015C
S1133BF03C0128E93CE445E050E4C556DF4FE88148
S1133C00F981CB59D04064817581868197810E9466
S1133C10BA376B017C01CD55DF4F288139814A8148
S1133C205B81C35AD040C301B2010E94BA379B01E1
S1133C30AC01C701B6010E94DD346B017C01C95699
S1133C40DF4F288139814A815B81C759D040C50142
S1133C50B4010E94DC342B013C01C156DF4F2881A2
S1133C6039814A815B81CF59D040C701B6010E9496
S1133C70DC34A30192010E945035CB56DF4FE8811A
S1133C80F981C559D04020813181428153810E94FC
S1133C90DC342B013C01A5019401C956DF4F688136
S1133CA079818A819B81C759D0400E94DC344B01C1
S1133CB05C01A7019601C156DF4F688179818A8131
S1133CC09B81CF59D0400E94DC34A50194010E940D
S1133CD05035C555DF4FE881F981CB5AD04020815A
S1133CE03181428153810E94DC34CF54DF4F2881DB
S1133CF039814A815B81C15BD0400E94DC346B0115
S1133D007C01C301B2012CDC2B013C01C701B601CB
S1133D1027DC6B017C01C301B20101DDC956DF4F11
S1133D20688379838A839B83C759D040C701B601CE
S1133D301FDD6B017C01612F70E080E090E00E9448
S1133D4045364B015C01A7019601C956DF4F6881D6
S1133D5079818A819B81C759D0400E94BA379B01DF
S1133D60AC01C501B4010E94AA35CB54DF4F488190
S1133D70C55BD04026DD4B015C01C301B2010E944A
S1133D80A735A50194010E94BA376B017C01C55681
S1133D90DF4FE881F981CB59D040208131814281C4
S1133DA05381F10160817181828193810E94DC34AD
S1133DB028E93CE445E050E40E94BA379B01AC0199
S1133DC0C701B6010E94DD346B017C01C301B2015D
S1133DD00E941D38A50194010E94BA374B015C0171
S1133DE0C556DF4FE881F981CB59D0402481358114
S1133DF046815781F10164817581868197810E9492
S1133E00DC3428E93CE445E050E40E94BA379B01E5
S1133E10AC01C501B4010E94DD344B015C01A70172
S1133E209601C701B6010E94BA376B017C01A50156
S1133E309401C501B4010E94BA379B01AC01C701CA
S1133E40B6010E94DD340E942738CD56DF4FE88149
S1133E50F981C359D04060837183828393830AC0FC
S1133E60CD56DF4FE881F981C359D04010821182C9
S1133E7012821382F8E02F0E311CCB56DF4F88815B
S1133E809981C559D0400496CB56DF4F88839983D6
S1133E90C559D040CD56DF4FE881F981C359D04090
S1133EA03496CD56DF4FE883F983C359D040F8E602
S1133EB02F16F0E23F0609F00BCEC355DF4F2881E1
S1133EC0CD5AD0402F5FC355DF4F2883CD5AD04001
S1133ED0C556DF4F88819981CB59D0400896C55685
S1133EE0DF4F88839983CB59D040C555DF4FE88194
S1133EF0F981CB5AD0403496C555DF4FE883F98316
S1133F00CB5AD040C356DF4F88819981CD59D040D8
S1133F100696C356DF4F88839983CD59D040CA543F
S1133F20DF4FE881F981C65BD0407896CA54DF4FF1
S1133F30E883F983C65BD040263089F1CA54DF4F49
S1133F4088819981C65BD040CD56DF4F88839983A1
S1133F50C359D040E0E2F0E2CB56DF4FE883F98367
S1133F60C559D0400F2EF8E32F2EF0E23F2EF02D4E
S1133F70C356DF4F88819981CD59D040CF56DF4F4A
S1133F8088839983C159D040C355DF4F9881CD5A56
S1133F90D040C255DF4F9883CE5AD04099CDC155F9
S1133FA0DF4FE881CF5AD0408E2F90E0FC01EE0F16
S1133FB0FF1F8E0F9F1FFC01EE0FFF1FC055DF4F29
S1133FC02881C05BD040E20FF11DEE0FFF1FEE0F02
S1133FD0FF1FEC0FFD1F6181728183819481C9549D
S1133FE0DF4FCDBFDEBFDF91CF911F910F91FF90C7
S1133FF0EF90DF90CF90BF90AF909F908F907F9085
S11340006F905F904F903F902F9008954F925F92E2
S11340106F927F928F929F92AF92BF92CF92DF92D4
S1134020EF92FF920F931F93CF93DF93CDB7DEB739
S1134030E897CDBFDEBFCE0101960E94B017811173
S11340406CC0AE014B5D5F4FBE01655D7F4FCE011D
S113405001960E947317CE018B960E9410172B01B4
S11340603C01AB01BC01CE018596B5DA69AB7AABF4
S11340708BAB9CABCE0101965C01DE0195966D0184
S11340808A967C010FEF29A93AA94BA95CA9C3011F
S1134090B201C5DB6DAB7EAB8FAB98AF20E030E0F7
S11340A0A9010E94A3358823C1F1CC24CA94E9A8AC
S11340B0FAA80BA91CA9A30192016DA97EA98FA935
S11340C098AD9CDC6093D22A7093D32A8093D42A2F
S11340D09093D52A4092D62A5092D72A6092D82A11
S11340E07092D92A89A99AA9ABA9BCA98093DA2A82
S11340F09093DB2AA093DC2AB093DD2AA092DE2AD7
S1134100B092DF2A8091C92A9091CA2A8093E02A2A
S11341109093E12A81E08093EE2AE896CDBFDEBF3A
S1134120DF91CF911F910F91FF90EF90DF90CF908F
S1134130BF90AF909F908F907F906F905F904F90C3
S11341400895FF920F931F93CF93DF93CDB7DEB7FC
S11341502797CDBFDEBF8C01F62E87E0EFECF2E2AD
S1134160DE01119601900D928A95E1F76F8386EA3C
S11341709CE20E94F017980147E050E0BE016F5F97
S11341807F4F8FE30E94310C8FE30E940F0C8DE56B
S113419090E0E6D30E9418188F2D38DF2796CDBF04
S11341A0DEBFDF91CF911F910F91FF900895E0E85A
S11341B0F6E080E2818380E18183E0E6F6E08183BA
S11341C0E0E4FAE08FEF90E086A397A312A613A68B
S11341D02081216020832181236021832181206229
S11341E0218386A397A310A611A620812160208392
S11341F0218123602183218120612183E0E4F9E08E
S113420086A397A310A611A68081816080838181F3
S1134210836081838181806181830895E0E4F9E092
S113422010AE11AEE0E4FAE010AE11AE12AE13AE71
S1134230089590E0E0E4FAE082AF93AF70E060AFFD
S113424071AF50E0E0E4F9E040AF51AF08952F9230
S11342503F924F925F926F927F928F929F92AF9212
S1134260BF92CF92DF92EF92FF920F931F93CF935F
S1134270DF93CDB7DEB72B97CDBFDEBFFC01D62EC3
S1134280B42E2C833D831801EA82FB829C01A3E8AF
S1134290BDE20E94503C0024880F991F001C880F27
S11342A0991F001C892F902D48E651E0849F9001AE
S11342B0859F300D949F300D1124BF01621B730B39
S11342C080E090E00E9443362B013C016D2D70E0AC
S11342D080E090E00E94453620E030E04FE753E470
S11342E00E94AA356B017C016B2D70E080E090E0A8
S11342F00E94453620E030E04FE753E40E94AA359F
S1134300062F172F8B879A87C701B6010E94123692
S11343109B01772324F422273327261B370BB9016B
S1134320882777FD8095982F0E9445362CEA35EC36
S113433047E257E30E94A33588232CF4AA81BB816A
S1134340BC92F101B08220E030E040E752E4C301C6
S1134350B2010E94AA354B015C010E9417366983A1
S113436070E080E090E00E9445369B01AC01C501FD
S1134370B4010E94DC344B015C01A701960160E0AA
S113438070E080E89FE30E94DC34202F312F4B85BE
S11343905A850E94BA37662E772E482E592EA501CB
S11343A09401C701B6010E94BA379B01AC0160E0D9
S11343B070E080E89FE30E94DC34202F312F4B858E
S11343C05A850E94BA376E837F8388879987A501AF
S11343D0940160E070E080E89FE30E94DC34A70170
S11343E096010E94BA379B01AC0160E070E080E85E
S11343F09FE30E94DC34202F312F4B855A850E9485
S1134400BA37C62ED72EE82EF92EF981F23031F1C3
S113441030F4FF2309F45DC0F130A9F007C029810D
S11344202430F1F160F1253009F44BC0612C712C7A
S1134430412C512CC12CD12CE12CF12C00E010E0AA
S11344401B861A8646C0C02ED12EEB84FA840E81B8
S11344501F8188858B87A985AA873BC0302F212F90
S11344609B858A85062D172D4B865A866C2C7D2CB0
S11344704E2C5F2CC32ED22EE92EF82E2AC0CE80CD
S1134480DF80E884F984302F212F9B858A85062DCF
S1134490172D4B865A86632E722E492E582E19C01C
S11344A0302F212F9B858A850C2D1D2DEB86FA86B6
S11344B0C62CD72CE42CF52C632E722E492E582EA4
S11344C008C0C62CD72CE42CF52C6E807F80488441
S11344D0598420E030E04FE753E4602F712F8B853F
S11344E09A850E94BA370E941736EC81FD81608359
S11344F020E030E04FE753E4662D772D842D952D91
S11345000E94BA370E941736AA81BB816C9320E0BF
S113451030E04FE753E46C2D7D2D8E2D9F2D0E94AE
S1134520BA370E941736F10160832B96CDBFDEBFE8
S1134530DF91CF911F910F91FF90EF90DF90CF907B
S1134540BF90AF909F908F907F906F905F904F90AF
S11345503F902F900895EF92FF920F931F93CF9364
S1134560DF9300D0CDB7DEB79E012D5F3F4F7901B9
S11345708E010E5F1F4F2250310969DE8B812A8123
S1134580498150E0E0E4FAE042AF53AF30E020AFBD
S113459031AF90E0E0E4F9E080AF91AF2396CDBF76
S11345A0DEBFDF91CF911F910F91FF90EF9008959F
S11345B0CF93DF93CDB7DEB72A97CDBFDEBFDE0141
S11345C011969E01255F3F4FE0E0F2E051E080A1AB
S11345D0806880A383A18823E9F345A184A190E0A6
S11345E0942B95958795959587959595879595950C
S11345F087958D939D9353A3A217B30741F763E067
S1134600CE0105960E9413102A96CDBFDEBFDF911E
S1134610CF910895CF93DF93CDB7DEB72A97CDBF5F
S1134620DEBFDE0111969E01255F3F4FE0E0F2E020
S113463051E080A5806880A783A58823E9F345A578
S113464084A590E0942B9595879595958795959558
S11346508795959587958D939D9353A7A217B30737
S113466041F763E0CE0105960E9413102A96CDBF50
S1134670DEBFDF91CF910895CF93DF93CDB7DEB73F
S11346802A97CDBFDEBFDE0111969E01255F3F4F05
S1134690E0E0F2E051E080A9806880AB83A9882340
S11346A0E9F345A984A990E0942B95958795959570
S11346B0879595958795959587958D939D9353AB00
S11346C0A217B30741F763E0CE0105960E941310C9
S11346D02A96CDBFDEBFDF91CF910895DF92EF928E
S11346E0FF920F931F93CF93DF9380EEE0E0F6E009
S11346F08283E0E0F2E080E2828386E1818386E0E7
S1134700848383E080A380A787E080AB8CE281A3CD
S113471084E381A78CE381AB80B5848781B58587E9
S113472081E080838FE891E00197F1F700C00000F9
S11347303FDFA2DF6FDF8AE090E012D1D12CC0E02E
S1134740D0E000E010E0E12CF12C32DFE80EF91E9D
S113475061DF080F191F90DFC80FD91F8AE090E0AE
S1134760FFD080ED99E20E94393FD39493E0D912AF
S1134770ECCF23E030E0C701B9010E94153C462F7D
S1134780E72F6093582B7093592BC801B9010E94ED
S1134790153CF62F172F6093CF2A7093D02ACE01A1
S11347A0B9010E94153C6093C72A7093C82A7F936D
S11347B06F931F93FF93EF934F938CE193E29F9337
S11347C08F930E94283F8DB79EB708968DBF9EBFDA
S11347D0DF91CF911F910F91FF90EF90DF9008959B
S11347E03F924F925F926F927F928F929F92AF927D
S11347F0BF92CF92DF92EF92FF920F931F93CF93CA
S1134800DF935C016B017A01E0E4FAE082AC93ACE3
S1134810782CC0ADD1AD6C2EE0E4F9E000AD11AD63
S1134820302E811004C0C11102C0002339F040E0D1
S113483060E080E0FEDC86E990E092D0B9DE482EAC
S1134840E9DE582E19DF9091582B491A9091CF2AFE
S1134850591A9091C72A891BA114B10411F0F501CA
S11348604082C114D10411F0F6015082E114F10424
S113487011F0F7018083711004C0611002C033206D
S113488021F0402F6C2F882DD4DCDF91CF911F9124
S11348900F91FF90EF90DF90CF90BF90AF909F90DB
S11348A08F907F906F905F904F903F9008951092FB
S11348B05F2C1092602C1092CC2A1092D12A109264
S11348C0362D2FB7F8941092F1291092F22985E031
S11348D0E0E4F0E0838383E0E0E0F4E0828381813C
S11348E080FDFDCF8FEF9FEFE0E0F4E082879387B8
S11348F0818180FDFDCF81E080930004E0E0F4E05D
S1134900818180FDFDCFE0E0F4E0108611862FBFA9
S1134910089588ED84BF82E080935000E0E5F0E0E4
S1134920818181FFFDCF88ED84BFE0E4F0E081E088
S1134930808385E08383E0E0F4E0818180FDFDCF26
S1134940E0E0F4E08FEF9FEF8287938781E080833C
S1134950818180FDFDCFE0E0F4E0108611860895AA
S1134960CF92DF92EF92FF927C01F8940E949B0217
S113497078949B01AC012E0D3F1D411D511D690111
S11349807A01F8940E949B026C157D058E059F05A3
S113499010F0789406C078943AE63A95F1F700C09E
S11349A0F0CFFF90EF90DF90CF9008952F923F9239
S11349B04F925F926F927F928F929F92AF92BF922B
S11349C0CF92DF92EF92FF920F931F93CF93DF93D7
S11349D0CDB7DEB72597CDBFDEBF69837A838B83DE
S11349E09C836A0189018091CC2A8A3008F03EC1F7
S11349F04091362D842F90E001966AE070E00E9489
S1134A00153C582F481791F19927FC01EE0FFF1F11
S1134A109C01220F331F220F331F220F331FE20F7B
S1134A20F31FE95CF24D24813581232BF9F0EAE090
S1134A30F0E015C09927DC01AA0FBB1F9C01220FCF
S1134A40331F220F331F220F331FA20FB31FA95C82
S1134A50B24D14962D913C911597232B39F0019664
S1134A60BF010E94153C582F4813E4CF5093362DB4
S1134A70852F90E07C01EE0CFF1C880F991F880F96
S1134A80991F880F991F8E0D9F1D9C01295C324D23
S1134A9079012115310509F4EBC00E949B0289803C
S1134AA09A80AB80BC80DC01CB01880D991DAA1DC6
S1134AB0BB1D8230910530F0F70180839183A2837E
S1134AC0B38308C00496A11DB11DF70180839183AF
S1134AD0A283B383D70116960D931C93179714964C
S1134AE0CD92DC921597E0E4FAE0C2ACD3ACA0AC72
S1134AF0B1ACE0E4F9E080AC91ACBFB7BD83F8940D
S1134B0040E062E38FEF95DB20915F2C3091602CC5
S1134B10F701208731872115310509F180819181C1
S1134B20A281B381F9014081518162817381481767
S1134B3059076A077B0798F400851185011511054B
S1134B4009F47EC0F8014081518162817381481764
S1134B5059076A077B07A8F1D801890173C0E0925D
S1134B605F2CF092602CF70180819181A281B38146
S1134B704091F1295091F229E0E0F4E00285138597
S1134B8060E070E0BA015527442720E030E0402B74
S1134B90512B622B732B481759076A077B0758F070
S1134BA0218120FDFDCFE0E0F4E0848795878281B8
S1134BB0846082834FC0E0E0F4E082818B7F828353
S1134BC049C00F2EFAE56F2EF3E27F2EF02DD801A7
S1134BD018964C90189719963C900E949B023F920D
S1134BE04F929F938F937F936F93F80183818F9359
S1134BF082818F9381818F9380818F9385818F931D
S1134C0084818F931F930F937F926F920E94283F0A
S1134C10F801A085B185CDBFDEBF109799F0F701EB
S1134C2020803180428053804D915D916D917C91C3
S1134C301397421553056405750520F48D01C7CFFC
S1134C40D8018901F701A087B187D8011896ED92A0
S1134C50FC9219978091CC2A8F5F8093CC2A482D9F
S1134C606A2D8C2DE6DABD81BFBF02C0E12CF12C88
S1134C70C7012596CDBFDEBFDF91CF911F910F9164
S1134C80FF90EF90DF90CF90BF90AF909F908F9068
S1134C907F906F905F904F903F902F9008951F9357
S1134CA0CF93DF93FC011FB7F894A0915F2CB091D0
S1134CB0602C109709F4B1C08A179B0709F050C003
S1134CC08085918580935F2C9093602C8091362D04
S1134CD090E0AC01440F551F9C01220F331F220F9B
S1134CE0331F220F331F240F351F295C324DE21767
S1134CF0F307E9F4FC01EE0FFF1F9C01220F331FA1
S1134D00220F331F220F331FE20FF31FE95CF24D12
S1134D101482158209966AE070E00E94153C809323
S1134D20362D8091CC2A81508093CC2A78C0CAE059
S1134D30D0E00996BE010E94153C9927AC01440FAE
S1134D40551F9C01220F331F220F331F220F331FC5
S1134D50240F351F295C324DE217F30751F7CACFF0
S1134D6018962D913C9119972115310509F457C0D6
S1134D70E217F30711F0D901F3CF808591851896D6
S1134D808D939C9319978091362D90E0AC01440F3C
S1134D90551F9C01220F331F220F331F220F331F75
S1134DA0240F351F295C324DE217F307E9F4FC01A7
S1134DB0EE0FFF1F9C01220F331F220F331F220F00
S1134DC0331FE20FF31FE95CF24D1482158209963A
S1134DD06AE070E00E94153C8093362D8091CC2AC5
S1134DE081508093CC2A1BC0CAE0D0E00996BE0152
S1134DF00E94153C9927AC01440F551F9C01220FBA
S1134E00331F220F331F220F331F240F351F295C3A
S1134E10324DE217F30751F7CACF1FBF01C01FBFBE
S1134E20DF91CF911F9108958FB7F894E0915F2C93
S1134E30F091602C309729F00084F185E02D3097B3
S1134E40D9F78FBF08951FB7F894E0915F2CF091C4
S1134E50602C309709F067C0A6C0E0905F2CF090FA
S1134E60602CD70118968D919C91199780935F2C93
S1134E709093602C7894D7011496ED91FC9115973A
S1134E8016968D919C9117971995F8948091362DCB
S1134E9090E0AC01440F551F9C01220F331F220FD9
S1134EA0331F220F331F240F351F295C324DE216A6
S1134EB0F30611F5FC01EE0FFF1F9C01220F331FB7
S1134EC0220F331F220F331FE20FF31FE95CF24D51
S1134ED0148215820996BE010E94153C8093362DDA
S1134EE08091CC2A81508093CC2AE0915F2CF09160
S1134EF0602C3097D1F457C00996BE010E94153C2E
S1134F009927AC01440F551F9C01220F331F220F18
S1134F10331F220F331F240F351F295C324DE21635
S1134F20F30651F7C7CFCAE0D0E0C080D180E28059
S1134F30F3800E949B02DC01CB010296A11DB11DEE
S1134F408C159D05AE05BF0508F087CFE0915F2C59
S1134F50F091602C309739F180819181A281B381E5
S1134F604091F1295091F229E0E0F4E0C284D38425
S1134F7060E070E0BA0155274427E12CF12C4C295C
S1134F805D296E297F29481759076A077B0758F05E
S1134F90218120FDFDCFE0E0F4E0848795878281C4
S1134FA08460828305C0E0E0F4E082818B7F8283A9
S1134FB01FBF0C9473021F920F920FB60F9211240D
S1134FC00BB60F92CF92DF92EF92FF922F933F9303
S1134FD04F935F936F937F938F939F93AF93BF93FD
S1134FE0CF93EF93FF93CFB7F8948091F1299091E9
S1134FF0F22901968093F1299093F229E0915F2C94
S1135000F091602C309709F43FC0C080D180E280D9
S1135010F3808091F1299091F229E0E0F4E0428557
S11350205385A0E0B0E0DC019927882760E070E0B8
S1135030842B952BA62BB72BC816D906EA06FB069C
S113504018F50E949B02DC01CB010296A11DB11D43
S11350508C159D05AE05BF0598F4E0E0F4E0818170
S113506080FDFDCFE0915F2CF091602C80819181D7
S1135070E0E0F4E08487958782818460828302C0C3
S11350800C944502CFBF01C0CFBFFF91EF91CF91E8
S1135090BF91AF919F918F917F916F915F914F914C
S11350A03F912F91FF90EF90DF90CF900F900BBE28
S11350B00F900FBE0F901F9018950895FC018081EA
S11350C09181A281B381AD0166277727642F39C806
S11350D00895EF92FF920F931F93CF93DF930E9453
S11350E01911C0E0D0E090E0082F10E00F2EFBEA89
S11350F0EF2EF3E2FF2EF02D98010C2E02C0359511
S113510027950A94E2F720FF0BC0DF93CF93FF9219
S1135110EF920E94283F0F900F900F900F9091E014
S11351202196C630D10541F7911108C080EB93E276
S11351309F938F930E94283F0F900F9080ED99E2E8
S11351400E94393FDF91CF911F910F91FF90EF9013
S11351500895FF920F931F93CF93DF931F921F9293
S1135160CDB7DEB720E230E029833A83BE016F5F1A
S11351707F4F0E94823EFC01F080BE016F5F7F4F33
S113518080E090E00E94823E0E947A3D8C0100976C
S1135190F1F0F0EDFF0E48EC60E080E04AD81F9398
S11351A00F931F92FF9225EB33E23F932F930E94BC
S11351B0283FB8018F2D0E94571240E060E080E044
S11351C038D80F900F900F900F900F900F900F9072
S11351D00F90DF91CF911F910F91FF9008951F932E
S11351E0CF93DF931F921F92CDB7DEB720E230E05A
S11351F029833A83BE016F5F7F4F0E94823EFC0188
S113520010811053BE016F5F7F4F80E090E00E94D9
S1135210823E0E947A3DBC01812F0E9412140F909D
S11352200F90DF91CF911F910895CF93DF9300D01A
S1135230CDB7DEB7AE014D5F5F4FBE016E5F7F4FEE
S1135240CE010196CDDA8B811F928F938A811F92B2
S11352508F9389811F928F9387ED93E29F938F930E
S11352600E94283FCDBFDEBF2396CDBFDEBFDF91B6
S1135270CF910895CF93DF931F921F92CDB7DEB7DE
S113528020E230E029833A83BE016F5F7F4F0E94A2
S1135290823E0E947A3D0E94BF040F900F90DF91DE
S11352A0CF91089540E060E084EB0E94192180E0F2
S11352B090E00E94281240E060E080E00C94192104
S11352C008950F931F93CF93DF931F921F92CDB72F
S11352D0DEB720E230E029833A83BE016F5F7F4F5F
S11352E00E94823E009729F480EF93E20E94393FA6
S11352F079C00E947A3D8C01883070F011271F9389
S11353000F9384E194E29F938F930E94283F0F9020
S11353100F900F900F9066C0BE016F5F7F4F80E0CB
S113532090E00E94823E009729F480E394E20E9478
S1135330393F58C011270E947A3DF801EE0FFF1F34
S1135340E00FF11FEE0FFF1FE55DF34D80839183A6
S1135350BE016F5F7F4F80E090E00E94823E009725
S113536029F484E594E20E94393F3CC00E947A3DCE
S1135370F801EE0FFF1FE00FF11FEE0FFF1FE55DB9
S1135380F34D82839383BE016F5F7F4F80E090E093
S11353900E94823E009729F489E794E20E94393FF3
S11353A021C00E947A3DF801EE0FFF1FE00FF11FAC
S11353B0EE0FFF1FE55DF34D848395839F938F93D9
S11353C083818F9382818F9381818F9380818F9347
S11353D01F930F938DE994E29F938F930E94283F2C
S11353E0CDBFDEBF0F900F90DF91CF911F910F9132
S11353F008951F93CF93DF931F921F92CDB7DEB70B
S113540020E230E029833A83BE016F5F7F4F0E9420
S1135410823EFC0110811053BE016F5F7F4F80E01C
S113542090E00E94823E0E947A3DBC01812F0E943E
S11354305F140F900F90DF91CF911F91089520E09A
S113544030E041E85AE165E070E080E090E0AECA07
S113545008950F931F93CF93DF9300D000D0CDB75F
S1135460DEB720E230E029833A83BE016F5F7F4FCD
S11354700E94823E0E947A3D8C01BE016F5F7F4F85
S113548080E090E00E94823E0E947A3DA80160E0A4
S113549070E0682B4B835C836D837E839E012D5F5C
S11354A03F4F4EE558E265E070E080E090E07EDA40
S11354B02696CDBFDEBFDF91CF911F910F91089546
S11354C00F931F93CF93DF93EC010E949B020091F3
S11354D05B2C10915C2C20915D2C30915E2CAB01E7
S11354E0BC01401B510B620B730B4A5F5F4F6F4F44
S11354F07F4F4D3551056105710528F48DE590E028
S1135500841B950B2DDA88818E5F0E94421ADF91ED
S1135510CF911F910F9108950F931F930E949B02A7
S113552000915B2C10915C2C20915D2C30915E2CB1
S1135530AB01BC01401B510B620B730B4B5F5F4F04
S11355406F4F7F4F4D3551056105710528F48DE589
S113555090E0841B950B04DA0E94A0181092EE2AA6
S11355601F910F9108956F927F928F929F92AF92A5
S1135570BF92CF92DF92EF92FF920F931F93CF933C
S1135580DF931F921F92CDB7DEB7782E692E80E28B
S113559090E089839A83BE016F5F7F4F872D962D9C
S11355A00E94823E7C01FC0101900020E9F73197C2
S11355B06F01C81AD90A6BED74E20E948E3E892BE2
S11355C021F01C141D0424F15CC0BE016F5F7F4FE9
S11355D080E090E00E94823E0E947A3D8C01BE01F0
S11355E06F5F7F4F80E090E00E94823E0E947A3D90
S11355F0F82EBE016F5F7F4F80E090E00E94823EF4
S11356000E947A3D482F6F2DC8010E94AB2251C0E1
S113561000E010E00F2EF0E4AF2EF9E0BF2EF02DE5
S11356200F2EF0E48F2EFAE09F2EF02DBE016F5F57
S11356307F4F80E090E00E94823EF70121917F013C
S1135640223739F40E947A3D9927F40182AF93AF4F
S113565012C0273639F40E947A3D9927F40180AFAD
S113566091AF09C0223669F40E947A3D9C01332728
S1135670F50120AF31AF0F5F1F4FC016D106B1F651
S113568018C06F927F928FED94E29F938F930E9444
S1135690283F8AE295E20E94393F8DE695E20E9416
S11356A0393F83EB95E20E94393F0F900F900F90A2
S11356B00F900F900F90DF91CF911F910F91FF905A
S11356C0EF90DF90CF90BF90AF909F908F907F909E
S11356D06F90089520E030E04DE558E265E070E019
S11356E080E090E063C908958091D5298F938091DB
S11356F0D4298F9381EE95E29F938F930E94283F44
S11357000F900F900F900F900895CF93DF93D82FA1
S1135710C92FE82FF92FDF010D900020E9F7119729
S1135720AE1BBF0BBF93AF939F938F9322EF35E2D2
S11357303F932F930E94283FED2FFC2FDF010D9004
S11357400020E9F71197AD014E1B5F0B6D2F7C2FE5
S11357508FE30E94770C0F900F900F900F900F9093
S11357600F90DF91CF910895CF92DF92EF92FF9245
S11357700F931F93CF93DF93CDB7DEB7A597CDBF1C
S1135780DEBF8C0166EA78E20E949E3E7C01FF2423
S1135790A701B801CE0101960E94AD3E8FEFE81A31
S11357A0F80AB8016E0D7F1D8E010A5F1F4FC801F4
S11357B00E94973E40E150E060E070E0CE01019627
S11357C00E94693C6B017C01F80101900020E9F71B
S11357D03197E01BF10BFF93EF931F930F938EE12F
S11357E096E29F938F930E94283FF8010190002036
S11357F0E9F73197AF01401B510B9601B8018FE3D4
S11358000E94310C0F900F900F900F900F900F90FB
S1135810A596CDBFDEBFDF91CF911F910F91FF9071
S1135820EF90DF90CF900895FC0180818823E1F010
S1135830DF010D900020E9F71197AE1BBF0BA131DA
S1135840B105A0F01F9280E18F93BF93AF9380E5E1
S113585096E29F938F930E94283F0F900F900F9092
S11358600F900F900F900895EFE3F6E2DF010D9093
S11358700020E9F71197AD014E1B5F0BBF018FE3C9
S11358800C94020D0895EF92FF920F931F93CF9300
S1135890DF93CDB7DEB7A597CDBFDEBF8C0166EA37
S11358A078E20E949E3E7C01FF24A701B801CE014C
S11358B001960E94AD3EB8016E0D7F1D8E010A5FF8
S11358C01F4FC8010E94973E40E150E060E070E045
S11358D0CE0101960E94693CF80101900020E9F78D
S11358E03197AF01401B510B9B01B8018FE30E941C
S11358F0BF0CA596CDBFDEBFDF91CF911F910F9155
S1135900FF90EF9008950F931F93CF93DF9361154A
S1135910710579F1FC011081112371F1DC011196FB
S1135920680F791F01E0E0E0F0E003C01D9111234E
S1135930E1F0103249F4013071F4E40FF51F1082E4
S113594000E0E0E0F0E00CC0013029F4EA01CE0F01
S1135950DF1F188304C0E901CE0FDF1F18833196BF
S1135960A617B70719F7CF0101C0CF01013061F4C1
S113597005C0E0E0F0E002C0E0E0F0E0E40FF51F75
S11359801082F901108204C0F901E80FF91F108296
S1135990DF91CF911F910F910895CF93DF93CDB7EE
S11359A0DEB7C058D109CDBFDEBFFC012081222360
S11359B009F44EC19E012F5F3F4FAE014F5B5F4F15
S11359C0A2DF6DE876E2CE018F5B9F4F0E948E3E90
S11359D0892B21F4CE010196BCDB3AC161EB76E25E
S11359E0CE018F5B9F4F0E948E3E892B21F4CE0106
S11359F00196F5DB2DC168E976E2CE018F5B9F4FFE
S1135A000E948E3E892B11F410DC22C160EA76E2FA
S1135A10CE018F5B9F4F0E948E3E892B21F4CE01D5
S1135A20019628DC15C167EA76E2CE018F5B9F4FB1
S1135A300E948E3E892B11F44CDB0AC16CEA76E29B
S1135A40CE018F5B9F4F0E948E3E892B11F42ADC7E
S1135A50FFC066EB76E2CE018F5B9F4F0E948E3EC5
S1135A60892B21F4CE0101962CDCF2C061EC76E2A4
S1135A70CE018F5B9F4F0E948E3E892B21F4CE0175
S1135A800196B7DCE5C063ED76E2CE018F5B9F4FF4
S1135A900E948E3E892B11F4D2DCDAC069ED76E2E5
S1135AA0CE018F5B9F4F0E948E3E892B21F4CE0145
S1135AB00196CFDCCDC06FED76E2CE018F5B9F4FB8
S1135AC00E948E3E892B21F4CE010196F9DCC0C0E0
S1135AD069EA72E2CE018F5B9F4F0E948E3E892B52
S1135AE011F41ADDB5C065EE76E2CE018F5B9F4FEF
S1135AF00E948E3E892B21F4CE01019634DDA8C08C
S1135B006DEE76E2CE018F5B9F4F0E948E3E892B15
S1135B1011F4EADD9DC064EF76E2CE018F5B9F4F06
S1135B200E948E3E892B11F4D5DD92C065E077E2A8
S1135B30CE018F5B9F4F0E948E3E892B21F4CE01B4
S1135B400196E3DD85C061E077E2CE018F5B9F4F74
S1135B500E948E3E892B21F4CE01019605DE78C089
S1135B6069E077E2CE018F5B9F4F0E948E3E892BC6
S1135B7021F4CE01019658DE6BC06DE077E2CE01D0
S1135B808F5B9F4F0E948E3E892B21F4CE0101969C
S1135B907ADE5EC061E177E2CE018F5B9F4F0E94A7
S1135BA08E3E892B11F440D953C067E177E2CE01D0
S1135BB08F5B9F4F0E948E3E892B19F40E94F9033C
S1135BC047C06DE177E2CE018F5B9F4F0E948E3E0E
S1135BD0892B19F40E94D3143BC062E377E2CE010F
S1135BE08F5B9F4F0E948E3E892B29F40E941015D3
S1135BF00E946A152DC080E090E0892BD1F0BE018F
S1135C006F5F7F4FCE018F5B9F4F0E940000811119
S1135C101FC0CE018F5B9F4F9F938F9387E497E2C2
S1135C209F938F930E94283F0F900F900F900F9097
S1135C300FC0CE018F5B9F4F9F938F9387E497E2B2
S1135C409F938F930E94283F0F900F900F900F9077
S1135C50C058DF4FCDBFDEBFDF91CF910895E9EA91
S1135C60FDE221EB3EE2A0EBBDE280819181892B34
S1135C7019F08C918C598C937696E217F307A9F757
S1135C8020E030E04FE25EE26CE271E080E090E020
S1135C900C94D6240895CF92DF92EF92FF920F9343
S1135CA01F93CF93DF9389E697E20E94393F809157
S1135CB0A92D9091AA2D009709F043C01BC08D8196
S1135CC09E810097B9F09F938F93F80180811F9272
S1135CD08F93DF93CF93FF92EF920E94283F0A5E47
S1135CE01F4F6696EDB7FEB73896EDBFFEBFCC15D5
