:1000000023C2000041C200003FC200003DC2000008
:100010003BC2000039C2000037C2000035C20000F8
:1000200033C2000031C200000C949D282EC2000093
:100030002BC2000029C2000027C2000025C2000018
:1000400023C2000021C200001FC200001DC2000028
:100050001BC2000019C2000017C2000015C2000038
:1000600013C200000C94D20C0C94220D0C94FA0CC8
:100070000C944A0D0C949A0D0C94720D05C200005C
:1000800003C2000001C20000FFC10000FDC100006A
:10009000FBC10000F9C10000F7C10000F5C100007C
:1000A000F3C10000F1C10000EFC10000EDC100008C
:1000B000EBC10000E9C1000000C40000E5C1000080
:1000C000E3C10000E1C10000DFC10000DDC10000AC
:1000D000DBC10000D9C10000D7C10000D5C10000BC
:1000E000D3C10000D1C100000C943A0E0C948A0ECA
:1000F0000C94620E0C94B20E0C94020F0C94DA0E57
:10010000C3C10000C1C10000BFC10000BDC10000EB
:10011000BBC10000B9C10000B7C10000B5C10000FB
:10012000B3C10000B1C10000AFC10000ADC100000B
:10013000ABC10000A9C10000A7C10000A5C100001B
:10014000A3C10000A1C100009FC100009DC100002B
:100150009BC1000099C1000097C1000095C100003B
:100160000C94C20D0C94120E0C94EA0D0C94F6151E
:100170008BC1000089C1000087C1000085C100005B
:1001800083C1000081C100007FC100007DC100006B
:100190007BC1000079C1000077C1000075C100007B
:1001A00073C1000071C100006FC100006DC100008B
:1001B0006BC1000069C1000067C1000065C100009B
:1001C00063C1000061C100005FC100005DC10000AB
:1001D0005BC1000059C1000057C100000C942A0FF8
:1001E0000C947A0F0C94520F4FC100004DC10000C7
:1001F0004BC1000049C1000047C1000078047E04E3
:1002000083048A048F0496049B045E086B087D08AF
:10021000BB08C808D608E308A30AB00A750A890A09
:10022000960ABD0ACA0AFD2F0B30193027309730C5
:100230003530433051305F309730973097309730BA
:100240009730973097306D309730973097309730A0
:100250009730973097309730973097309730973066
:10026000973097309730973097307B309730973072
:100270009730973097309730973097309730973046
:100280009730973097309730973097309730893044
:10029000B330B930BF30C530F530CB30D130D73086
:1002A000DD30F530F530F530F530F530F530F5303E
:1002B000E330F530F530F530F530F530F530F53028
:1002C000F530F530F530F530F530F530F530F53006
:1002D000F530F530E930F530F530F530F530F53002
:1002E000F530F530F530F530F530F530F530F530E6
:1002F000F530F530F530F530EF30084AD73B3BCEDE
:10030000016E84BCBFFDC12F3D6C74319ABD568314
:100310003DDA3D00C77F11BED9E4BB4C3E916BAACC
:10032000AABE000000803F05A84CCDB2D44EB9381B
:1003300036A9020C50B9918688083CA6AAAA2ABE02
:10034000000000803F006E616E00696E6600004034
:100350007A10F35A00A0724E18090010A5D4E800D4
:1003600000E87648170000E40B54020000CA9A3BEC
:10037000000000E1F5050000809698000000404272
:100380000F000000A0860100000010270000000000
:10039000E803000000006400000000000A00000004
:1003A00000000100000000002C76D888DC674F08B0
:1003B00023DFC1DFAE59E1B1B796E5E3E453C63AB6
:1003C000E651997696E8E6C28426EB898C9B62ED2D
:1003D000407C6FFCEFBC9C9F40F2BAA56FA5F490E7
:1003E000055A2AF75C936B6CF9676DC11BFCE0E45E
:1003F0000D47FEF520E6B500D0ED902E03009435B4
:1004000077050080841E080000204E0A000000C806
:100410000C333333330F986E12831141EF8D211457
:10042000893BE65516CFFEE6DB18D1844B381BF727
:100430007C1D901DA4BBE424203284725E228100C6
:10044000C9F124ECA1E53D2711241FBECFEFCDBF9C
:10045000DFE3DEBF00E00CBF1CE2A0E0B0E2EEE4B0
:10046000F4E800E00BBF02C007900D92A237B1077D
:10047000D9F723E3A2E7BCE201C01D92AB30B2077B
:10048000E1F7A9D10C942542BBCD0F921F922F9278
:100490003F924F925F926F927F928F929F92AF9214
:1004A000BF92CF92DF92EF92FF920F931F932F9301
:1004B0003F934F935F936F937F938F939F93AF93EC
:1004C000BF93CF93DF93EF93FF930FB70F93E2EBBD
:1004D000F7E200E0EF93FF930F938091E12D839576
:1004E0008093E12D18958091E12D8A958093E12DDF
:1004F0000F910FBFFF91EF91DF91CF91BF91AF911E
:100500009F918F917F916F915F914F913F912F912B
:100510001F910F91FF90EF90DF90CF90BF90AF9021
:100520009F908F907F906F905F904F903F902F9013
:100530001F900F9008950FB6F89460910804709181
:1005400009048091A12C9091A22C0FBE0895CF9206
:10055000DF92EF92FF920F931F93CF93DF93CDB76C
:10056000DEB7AB97CDBFDEBFCE010B968F839887EA
:100570008091A02C882349F086E08093DB2D109297
:10058000A02C87EE91E20E9488418091DB2D882388
:1005900009F447C00F2EF8E2DF2EF02DE090DB2D9E
:1005A000CFB6F894EA94F12CDE9CB001DF9C700D7C
:1005B00011248B010951134DF80147A150E06351FB
:1005C000734D8F8198850E94D440F801808191817C
:1005D000A281B38189839A83AB83BC838481958113
:1005E0008D839E8386A1898787A18A87CFBEDE9C63
:1005F000F001DF9CF00D1124E951F34D87A1EF814B
:10060000F885E80FF11D10828091DB2D81508093D9
:10061000DB2DCE0101960E9417358091DB2D8111D3
:10062000BDCFAB96CDBFDEBFDF91CF911F910F91B4
:10063000FF90EF90DF90CF900895CF93DF93CDB7E9
:10064000DEB7C054D109CDBFDEBF82E08093CA01BE
:1006500080E4E7EAF1E2DE01119601900D928A95BD
:10066000E1F7AE014F5F5F4FBE016F5B7F4F20E050
:1006700030E0FA0181919191A191B191AF01ABBFAD
:10068000FC01879196912827822F82958227082E38
:10069000869586958025082E869580258770022E62
:1006A000232F869507948795302D282706948795C4
:1006B000302528274617570709F0DBCF1092CA01CB
:1006C0002093742C3093752CC05CDF4FCDBFDEBF00
:1006D000DF91CF910895E0EAF0E08281816082832A
:1006E000828182608283828184608283789408958B
:1006F00040E060E084E60E948A2084E690E00E9468
:100700000C2440E064E680E00E948A2084E690E0C9
:100710000E940C2444E660E080E00E948A2084E687
:1007200090E00E940C240E947F2040E060E084E67C
:100730000E948A2084E690E00E940C2440E064E657
:1007400080E00E948A2084E690E00E940C2444E627
:1007500060E080E00E948A2084E690E00E940C2401
:100760000E947F2040E060E084E60E948A2084E6C8
:1007700090E00E940C2440E064E680E00E948A2021
:1007800084E690E00E940C2444E660E080E00E9451
:100790008A2084E690E00E940C240C947F20089527
:1007A000F8940E94E52349DF0E94B3230E94351587
:1007B0000E9448200E94DF220E9441160E94441697
:1007C00068D078D20E944D100E943D140E9482167B
:1007D00082DF8ECF0895E4DF0E9464340E94EF34FC
:1007E000B6DEFCCF88ED84BF81E0E8E7F0E08183EE
:1007F0000895E0ECF1E087858823ECF30895F9DFB4
:10080000E0ECF1E0878581FF0AC086E38287EBECAC
:10081000F1E021E030E088ED90E084BF208308958E
:10082000CF93DF93D82FC92FE4DFE0ECF1E0D08342
:10083000CF71C183128286E08287EBECF1E021E088
:1008400030E088ED90E084BF2083E0ECF1E084812B
:10085000DF91CF9108951F93CF93DF93182FD92F56
:10086000C62FCDDFE0ECF1E083E382871083DF71F8
:10087000D1831282C48385E38287EBECF1E021E02F
:1008800030E088ED90E084BF2083DF91CF911F910D
:1008900008951092012E10929E2C10929F2C83E0AE
:1008A000E0E8F6E0818388EB8093A10483E2809303
:1008B000A50481E08093A40408951F920F920FB6BF
:1008C0000F9211240BB60F925F936F937F938F93C8
:1008D0009F93AF93BF93EF93FF938091012E90E08E
:1008E0008730910558F5FC01E250FF4F0C94993E7A
:1008F00080919F2C81708093A70420C080919E2CB2
:100900008093A7041BC080919F2C8170806180938D
:10091000A70414C080919E2C8093A7040FC08091DF
:100920009F2C817080668093A70408C080919E2CC4
:100930008093A70403C083E08093A3048091012ED9
:1009400090E0019667E070E00E94643E8093012E83
:10095000FF91EF91BF91AF919F918F917F916F9197
:100960005F910F900BBE0F900FBE0F901F901895C8
:1009700080939E2C90939F2C88E58093A6048FE70C
:1009800095E20197F1F700C000008CE58093A60482
:100990008FE795E20197F1F700C0000008952F92CC
:1009A0003F924F925F926F927F928F929F92AF92FF
:1009B000BF92CF92DF92EF92FF920F931F93CF934C
:1009C000DF93CDB7DEB72E97CDBFDEBFFE013196E8
:1009D0008CE0DF011D928A95E9F70F2EF6E0AF2E2D
:1009E000F0E2BF2EF02D0F2EFEE78F2EFEE29F2E9F
:1009F000F02D6F0155245A9400E010E00F2EF0E323
:100A00004F2EF02D0F2EF8E22F2EF02D332433949D
:100A10007801409EF001419EF00D1124E658F14D01
:100A200087A581FFD7C00D87552D55200CF4E2C056
:100A300040E0409ED001419EB00D1124A256B14D20
:100A40008D919C911197E52FEE0FFF0B21E030E087
:100A50002C0F3D1FE20FF31F20813181281739072A
:100A600009F4432D515062F74E9CF0014F9CF00D5C
:100A70001124E658F14D84A195A1D6018D939C9344
:100A80004423D1F04E9CF0014F9CF00D1124E65808
:100A9000F14D14A215A216A217A210A611A612A615
:100AA00013A614A615A616A617A6D501ED91FC91BE
:100AB0008481806184838EC04E9CF0014F9CF00D38
:100AC0001124E658F14D87A583FF05C08FE492E21B
:100AD0000E9488419CC08091DB2D863020F03092AE
:100AE000A02C1092DB2DBFB7BE87F8944E9CC0019E
:100AF0004F9C900D1124FC01E658F14D3F0146A595
:100B00008091DB2D289EC001112450E0B401835157
:100B1000934D0E94D440E091DB2DD3019E968C91A1
:100B20009E972E9EF0011124E951F34DE80FF11D1F
:100B300016822091DB2D8D919D910D90BC91A02D61
:100B4000229EF0011124E951F34D80839183A28309
:100B5000B383E091DB2D2E9EF0011124E951F34D7A
:100B6000BD85B6A3E091DB2DD30196968D919C9126
:100B700097972E9EF0011124E951F34D84839583BC
:100B8000E091DB2D9E968C912E9EF0011124E9516F
:100B9000F34D87A3BE85BFBF8091DB2D8F5F809310
:100BA000DB2D4E9CF0014F9CF00D1124E658F14DC9
:100BB00014A215A216A217A210A611A612A613A679
:100BC00014A615A616A617A6D501ED91FC91848151
:100BD000806184830F5F1F4FB2E0AB0EB11CE0E376
:100BE0008E0E911CF2E0CF0ED11C539425E05212D0
:100BF0000FCF0DC0409EF001419EF00D1124E6582C
:100C0000F14D84A195A1D6018D939C9355CF2E963D
:100C1000CDBFDEBFDF91CF911F910F91FF90EF907D
:100C2000DF90CF90BF90AF909F908F907F906F900C
:100C30005F904F903F902F900895DF92EF92FF9238
:100C40000F931F93CF93DF93CDB7DEB7EDB6FEB60C
:100C50008091D52F9091D62F01962DB73EB7281BA6
:100C6000390B2DBF3EBF0DB71EB70F5F1F4F83E778
:100C700092E20E948841DFB6F8944091D52F5091BE
:100C8000D62F4F5F5F4F68ED7FE2C8010E94D440CE
:100C90006091D52F7091D62FDFBEC8010E94A32D81
:100CA000EDBEFEBEDF91CF911F910F91FF90EF90AF
:100CB000DF900895CF93DF93A0EAB6E083EF11961B
:100CC0008C931197E0E0FBE082E084838081836075
:100CD000808383ED87A386A389E681A783A785A761
:100CE00087A780A782A7C0E4D6E034E43A8380E6F1
:100CF00096E024E0FC01228340E856E0FA013283CA
:100D000012962C93129738E8398328E0FC0121834E
:100D1000FA01318311962C93119720E42B8B2F8BA2
:100D2000FC01238BFA01238B278B53962C9382E1B2
:100D300090E2E6E0F0E268E253E040E732E0A081D2
:100D4000B18113966C93A081B18115965C93A081BB
:100D5000B18116964C93A081B18117963C93A081E6
:100D6000B18114962C911497206114962C93A19123
:100D7000B19114962C911497286014962C93E8172F
:100D8000F907E9F680E091E0F3DDA6E0B0E280E06B
:100D900090E030E3389FF001399FF00D1124E658C0
:100DA000F14D14A215A216A217A210A611A612A602
:100DB00013A614A615A616A617A6ED91FD912481DB
:100DC0002061248301968630910521F71092CB2F64
:100DD0001092CC2F1092CD2F1092CE2F1092DB2D8F
:100DE0001092A02C20E030E04FEC54E06EE370E075
:100DF00080E090E00E948F27DF91CF9108954F927D
:100E00005F926F927F928F929F92AF92BF92CF929A
:100E1000DF92EF92FF920F931F93CF93DF93182FE0
:100E2000662E572E742E80E2841720F48CE892E20E
:100E30000E948841C091742CD091752CE12EF12C28
:100E400010FD0DC081E090E0AC019701082E02C0BA
:100E5000359527950A94E2F720FF27C002C040E0AD
:100E600050E080E3849FF001859FF00D1124E65847
:100E7000F14D87A58870C8278C2F82958C27082E66
:100E8000869586958025082E8695802587700C2E60
:100E9000CD2F869507948795D02DC82706948795E2
:100EA000D025C827711007C080C0019686309105F3
:100EB00009F0CACFF7CF962DE62DF52D8191C827E1
:100EC0008C2F82958C27082E869586958025082E56
:100ED0008695802587700C2ECD2F86950794879553
:100EE000D02DC82706948795D025C8278E2F891B1B
:100EF000871520F35AC0C701002E02C0959587952B
:100F00000A94E2F780FF21C0409EF001419EF00D5F
:100F10001124E658F14D76A6C4A3D5A312A613A6B4
:100F20008091742C9091752C86A397A3A501662DB2
:100F3000752DC4010E94D440F6019181F801E05062
:100F4000F04E8081892BF60181830F5F1F4FF0E304
:100F50008F0E911C0630110571F6E6E0F0E280E09C
:100F600090E040E39701082E02C0359527950A943A
:100F7000E2F720FF14C0489FD001499FB00D112413
:100F8000A658B14D1D921D921D921C921397A081DF
:100F9000B18113962C911397226013962C9301968E
:100FA000329686309105F1F614C00F2EFEE78F2E93
:100FB000FEE29F2EF02D00E010E00F2EF0E34F2E0A
:100FC000F02DA72CB12C0F2EC12CFBE0DF2EF02D25
:100FD00092CFDF91CF911F910F91FF90EF90DF9013
:100FE000CF90BF90AF909F908F907F906F905F90C9
:100FF0004F900895AF92BF92CF92DF92FF920F93DE
:101000001F93CF93DF93C82FD0E0FE01EE0FFF1F99
:10101000EA5FFF4D0190F081E02DF0808CDA20E353
:101020002C9FF0012D9FF00D1124E658F14D008109
:101030001181228133815B016C01A01AB10AC20ABD
:10104000D30A960185010531110521053105F8F016
:1010500020E32C9FF0012D9FF00D1124E658F14D57
:1010600014A215A216A217A210A611A612A613A6C4
:1010700014A615A616A617A6FE01EE0FFF1FEA5F1F
:10108000FF4D0190F081E02D24812061248320E335
:101090002C9FF0012D9FF00D1124E658F14D608337
:1010A00071838283938382A593A58730910508F08D
:1010B00098C0FC01EB5FFE4F0C94993E8F2D90E0A1
:1010C00020E32C9FF0012D9FF00D1124E658F14DE7
:1010D00086A397A3B8C080E38C9FF0018D9FF00D8D
:1010E0001124E658F14D86A197A19F2986A397A3C5
:1010F00086A197A184A795A7A6C0FF205CF480E3F2
:101100008C9FF0018D9FF00D1124E658F14D87A5BD
:10111000886087A780E38C9FF0018D9FF00D1124DC
:10112000E658F14D27A584A595A528708227282F7C
:1011300022952827022E269526952025022E2695D3
:1011400020252770082E892F269507942795902D06
:101150008227069427959025822720E32C9FF00173
:101160002D9FF00D1124E658F14D84A795A78F2DE2
:101170008F7786A768C08F2D90E020E32C9FF00129
:101180002D9FF00D1124E658F14D84A395A35BC06B
:1011900080E38C9FF0018D9FF00D1124E658F14DF6
:1011A00084A195A19F2984A395A34DC08F2D90E084
:1011B00020E32C9FF0012D9FF00D1124E658F14DF6
:1011C00080A791A740C080E38C9FF0018D9FF00D18
:1011D0001124E658F14D80A591A59F2980A791A7DC
:1011E00032C080E38C9FF0018D9FF00D1124E658F2
:1011F000F14DA2A5B3A51797AE0FBF1F1496FC9291
:1012000084A595A58F25282F22952827022E26957F
:1012100026952025022E269520252770082E892F19
:10122000269507942795902D82270694279590253B
:10123000822720E32C9FF0012D9FF00D1124E6580A
:10124000F14D84A795A780E38C9FF0018D9FF00D51
:101250001124E658F14D82A593A5019682A793A784
:1012600022A533A586A590E007962817390708F42C
:101270001FC180E38C9FF0018D9FF00D1124E65873
:10128000F14D24A535A584A195A128173907F1F0C2
:1012900080E38C9FF0018D9FF00D1124E658F14DF5
:1012A00014A215A216A217A210A611A612A613A682
:1012B00014A615A616A617A6CC0FDD1FCA5FDF4D14
:1012C000E881F981848180618483F2C080E38C9F0E
:1012D000F0018D9FF00D1124E658F14D80A591A5E8
:1012E000892B79F180E38C9FF0018D9FF00D112403
:1012F000E658F14D20A531A58091742C9091752C64
:1013000028173907F1F080E38C9FF0018D9FF00DD5
:101310001124E658F14D14A215A216A217A210A688
:1013200011A612A613A614A615A616A617A6CC0FCC
:10133000DD1FCA5FDF4DE881F9818481806184838C
:10134000B7C080E38C9FF0018D9FF00D1124E6580B
:10135000F14D26A137A18091742C9091752C2817FE
:101360003907F1F480E38C9FF0018D9FF00D11247B
:10137000E658F14D14A215A216A217A210A611A6A6
:1013800012A613A614A615A616A617A6CC0FDD1F27
:10139000CA5FDF4DE881F98184818061848388C0E0
:1013A00080E38C9FF0018D9FF00D1124E658F14DE4
:1013B00087A583FF66C0FFB6F89480E38C9FB001D9
:1013C0008D9F700D11248B010658114DD8019E96EA
:1013D0004C9150E06258714D88ED9FE20E94D440DC
:1013E000D8019E96EC919E97F0E0E852F04D108265
:1013F0009E968C919E9790E08093D52F9093D62FB8
:101400004D915D916D917C9113974093CB2F5093AB
:10141000CC2F6093CD2F7093CE2F96968D919C916B
:1014200097978093D92D9093DA2DFFBEA6E0B0E276
:1014300080E090E030E3389FF001399FF00D1124F7
:10144000E658F14D14A215A216A217A210A611A6D5
:1014500012A613A614A615A616A617A6ED91FD9121
:1014600024812061248301968630910521F720E0B4
:1014700030E04DE156E06EE370E080E090E00E94E5
:10148000CB2680E38C9FF0018D9FF00D1124E65850
:10149000F14D87A5826087A787A5816087A7CC0FBC
:1014A000DD1FCA5FDF4DE881F98184818F7E8483EF
:1014B000DF91CF911F910F91FF90DF90CF90BF9060
:1014C000AF900895282F30E090E3899FF001112418
:1014D000E658F14D82A593A58730910508F067C0C5
:1014E000FC01E45FFE4F0C94993E80E3829FF00183
:1014F000839FF00D1124E658F14D86A58093D72FD8
:1015000087A583FF64C08091D72F80688093D72FF1
:101510005EC080E3829FF001839FF00D1124E658A6
:10152000F14D84A195A18093D72F51C080E3829F74
:10153000F001839FF00D1124E658F14D84A195A18F
:101540009093D72F44C080E3829FF001839FF00DDA
:101550001124E658F14D86A197A18093D72F37C06B
:1015600080E3829FF001839FF00D1124E658F14D36
:1015700086A197A19093D72F2AC080E3829FF00184
:10158000839FF00D1124E658F14D80A591A580931D
:10159000D72F1DC080E3829FF001839FF00D11249F
:1015A000E658F14D80A591A59093D72F10C080E308
:1015B000829FF001839FF00D1124E658F14D82A522
:1015C00093A50797E80FF91F84818093D72FF9011E
:1015D000EE0FFF1FEA5FFF4D0190F081E02D80913B
:1015E000D72F808380E3829FF001839FF00D112429
:1015F000E658F14D82A593A5019682A793A742A52F
:1016000053A586A590E007964817590738F180E35F
:10161000829FF001839FF00D1124E658F14D14A232
:1016200015A216A217A210A611A612A613A614A6FA
:1016300015A616A617A6F901EE0FFF1FEA5FFF4DCC
:10164000A081B18114968C911497806114968C932B
:101650000190F081E02D83818C7F83830895E0E009
:10166000FBE0318190E0DC01A050B04E2C91209540
:101670002323218320E3289FF001299FF00D1124CB
:10168000E658F14D17A616A612A613A610A611A687
:1016900016A217A2FC01EE0FFF1FEA5FFF4DA0810B
:1016A000B18111968C911197806411968C93019061
:1016B000F081E02D84818061848308957F928F92F0
:1016C0009F92AF92BF92CF92DF92EF92FF920F93D1
:1016D0001F93CF93DF93C82FE0E4FAE002AD13AD80
:1016E000E0ACF1ACE0E4F9E0C0ACD1AC4FEF60E0CD
:1016F0008FEF0E948A20D0E00F2EF0E37F2EF02D96
:1017000080E090E09E01082E02C0359527950A944E
:10171000E2F720FF0AC0789EF001799EF00D1124B7
:10172000E658F14D27A5237041F4019686309105C6
:1017300049F719C00E944426E3CF8FE193E0019757
:10174000F1F700C00000E091D32FF091D42F8080FA
:101750009180A280B3800E949B0286169706A806FD
:10176000B90670F6E7CF8FE193E00197F1F700C07B
:1017700000004C2D6E2D802F0E948A20DF91CF918A
:101780001F910F91FF90EF90DF90CF90BF90AF909F
:101790009F908F907F900895CF92DF92EF92FF926B
:1017A0000F931F93CF93DF93D82E7B01C42E890113
:1017B00085DFA6E0B0E2E0E0F0E02D2D30E040E390
:1017C00091E0E9010E2E02C0D595C7950A94E2F783
:1017D000C0FF13C0CD91DC9111978C818F7E8C83DB
:1017E0004E9FE0014F9FD00D1124C658D14D9FA7A9
:1017F0008FA588608FA708A719A731961296E630A3
:10180000F105F9F64C2DB7018D2DF9DADF91CF9165
:101810001F910F91FF90EF90DF90CF9008950F935D
:101820001F93CF93DF93182FEB01042F47DFE6E0E0
:10183000F0E220E030E0612F70E040E391E0DB0176
:10184000022E02C0B595A7950A94E2F7A0FF1DC02D
:10185000A081B18114968C9114978F7E14968C93ED
:10186000429FD001439FB00D1124A658B14D9F96C1
:101870009C939F979F968C919F9788609F968C933F
:101880009F9798961D921C9299972F5F3F4F329683
:1018900026303105A1F6402FBE01812FB0DADF914D
:1018A000CF911F910F910895CF92DF92EF92FF9207
:1018B0000F931F93CF93DF93D82E7B01C42E890102
:1018C000FDDEA6E0B0E2E0E0F0E02D2D30E040E308
:1018D00091E0E9010E2E02C0D595C7950A94E2F772
:1018E000C0FF10C0CD91DC9111978C818F7E8C83CD
:1018F0004E9FE0014F9FD00D1124C658D14D9FA798
:1019000008A719A731961296E630F10511F74C2D6C
:10191000B7018D2D74DADF91CF911F910F91FF9058
:10192000EF90DF90CF9008950F931F93CF93DF93A5
:10193000182FEB01042FC2DEE6E0F0E220E030E0F9
:10194000612F70E040E391E0DB01022E02C0B5950B
:10195000A7950A94E2F7A0FF16C0A081B181149662
:101960008C9114978F7E14968C93429FD001439F45
:10197000B00D1124A658B14D9F969C939F979896B1
:101980001D921C9299972F5F3F4F3296263031055A
:10199000D9F6402FBE01812F32DADF91CF911F910E
:1019A0000F9108951F920F920FB60F9211240BB64C
:1019B0000F922F933F934F935F936F937F938F93E8
:1019C0009F93AF93BF93EF93FF9380E013DBFF915F
:1019D000EF91BF91AF919F918F917F916F915F91A7
:1019E0004F913F912F910F900BBE0F900FBE0F9014
:1019F0001F9018951F920F920FB60F9211240BB6DD
:101A00000F922F933F934F935F936F937F938F9397
:101A10009F93AF93BF93EF93FF9380E020DEFF91FE
:101A2000EF91BF91AF919F918F917F916F915F9156
:101A30004F913F912F910F900BBE0F900FBE0F90C3
:101A40001F9018951F920F920FB60F9211240BB68C
:101A50000F922F933F934F935F936F937F938F9347
:101A60009F93AF93BF93EF93FF9380E02BDDFF91A4
:101A7000EF91BF91AF919F918F917F916F915F9106
:101A80004F913F912F910F900BBE0F900FBE0F9073
:101A90001F9018951F920F920FB60F9211240BB63C
:101AA0000F922F933F934F935F936F937F938F93F7
:101AB0009F93AF93BF93EF93FF9381E09BDAFF91E6
:101AC000EF91BF91AF919F918F917F916F915F91B6
:101AD0004F913F912F910F900BBE0F900FBE0F9023
:101AE0001F9018951F920F920FB60F9211240BB6EC
:101AF0000F922F933F934F935F936F937F938F93A7
:101B00009F93AF93BF93EF93FF9381E0A8DDFF9185
:101B1000EF91BF91AF919F918F917F916F915F9165
:101B20004F913F912F910F900BBE0F900FBE0F90D2
:101B30001F9018951F920F920FB60F9211240BB69B
:101B40000F922F933F934F935F936F937F938F9356
:101B50009F93AF93BF93EF93FF9381E0B3DCFF912B
:101B6000EF91BF91AF919F918F917F916F915F9115
:101B70004F913F912F910F900BBE0F900FBE0F9082
:101B80001F9018951F920F920FB60F9211240BB64B
:101B90000F922F933F934F935F936F937F938F9306
:101BA0009F93AF93BF93EF93FF9382E023DAFF916C
:101BB000EF91BF91AF919F918F917F916F915F91C5
:101BC0004F913F912F910F900BBE0F900FBE0F9032
:101BD0001F9018951F920F920FB60F9211240BB6FB
:101BE0000F922F933F934F935F936F937F938F93B6
:101BF0009F93AF93BF93EF93FF9382E030DDFF910C
:101C0000EF91BF91AF919F918F917F916F915F9174
:101C10004F913F912F910F900BBE0F900FBE0F90E1
:101C20001F9018951F920F920FB60F9211240BB6AA
:101C30000F922F933F934F935F936F937F938F9365
:101C40009F93AF93BF93EF93FF9382E03BDCFF91B1
:101C5000EF91BF91AF919F918F917F916F915F9124
:101C60004F913F912F910F900BBE0F900FBE0F9091
:101C70001F9018951F920F920FB60F9211240BB65A
:101C80000F922F933F934F935F936F937F938F9315
:101C90009F93AF93BF93EF93FF9383E0ABD9FF91F3
:101CA000EF91BF91AF919F918F917F916F915F91D4
:101CB0004F913F912F910F900BBE0F900FBE0F9041
:101CC0001F9018951F920F920FB60F9211240BB60A
:101CD0000F922F933F934F935F936F937F938F93C5
:101CE0009F93AF93BF93EF93FF9383E0B8DCFF9193
:101CF000EF91BF91AF919F918F917F916F915F9184
:101D00004F913F912F910F900BBE0F900FBE0F90F0
:101D10001F9018951F920F920FB60F9211240BB6B9
:101D20000F922F933F934F935F936F937F938F9374
:101D30009F93AF93BF93EF93FF9383E0C3DBFF9138
:101D4000EF91BF91AF919F918F917F916F915F9133
:101D50004F913F912F910F900BBE0F900FBE0F90A0
:101D60001F9018951F920F920FB60F9211240BB669
:101D70000F922F933F934F935F936F937F938F9324
:101D80009F93AF93BF93EF93FF9384E033D9FF9179
:101D9000EF91BF91AF919F918F917F916F915F91E3
:101DA0004F913F912F910F900BBE0F900FBE0F9050
:101DB0001F9018951F920F920FB60F9211240BB619
:101DC0000F922F933F934F935F936F937F938F93D4
:101DD0009F93AF93BF93EF93FF9384E040DCFF9119
:101DE000EF91BF91AF919F918F917F916F915F9193
:101DF0004F913F912F910F900BBE0F900FBE0F9000
:101E00001F9018951F920F920FB60F9211240BB6C8
:101E10000F922F933F934F935F936F937F938F9383
:101E20009F93AF93BF93EF93FF9384E04BDBFF91BE
:101E3000EF91BF91AF919F918F917F916F915F9142
:101E40004F913F912F910F900BBE0F900FBE0F90AF
:101E50001F9018951F920F920FB60F9211240BB678
:101E60000F922F933F934F935F936F937F938F9333
:101E70009F93AF93BF93EF93FF9385E0BBD8FF9100
:101E8000EF91BF91AF919F918F917F916F915F91F2
:101E90004F913F912F910F900BBE0F900FBE0F905F
:101EA0001F9018951F920F920FB60F9211240BB628
:101EB0000F922F933F934F935F936F937F938F93E3
:101EC0009F93AF93BF93EF93FF9385E0C8DBFF91A0
:101ED000EF91BF91AF919F918F917F916F915F91A2
:101EE0004F913F912F910F900BBE0F900FBE0F900F
:101EF0001F9018951F920F920FB60F9211240BB6D8
:101F00000F922F933F934F935F936F937F938F9392
:101F10009F93AF93BF93EF93FF9385E0D3DAFF9145
:101F2000EF91BF91AF919F918F917F916F915F9151
:101F30004F913F912F910F900BBE0F900FBE0F90BE
:101F40001F9018951F93CF93DF93613021F4FC010C
:101F50008081918151C0623049F5FC01208131813D
:101F600082819381820F931F99230CF4019695959A
:101F7000879542C012961F5F1617E9F0712FED0189
:101F8000E72FF0E0EE0FFF1FE80FF91F40815181AE
:101F90002D913C9111974217530724F4488359839C
:101FA000208331837F5F7613EBCFE4CF662329F064
:101FB000DC0110E0E0CF60FD15C06695E62FF0E093
:101FC000E150F048EE0FFF1FE80FF91F208131812B
:101FD00082819381820F931F99230CF4019695952A
:101FE00087950AC06695262F30E0220F331FFC012B
:101FF000E20FF31F80819181DF91CF911F910895AE
:102000000F931F93CF93DF93CDB7DEB72A97CDBF42
:10201000DEBFE0E4F2E091A1977091A391A1082FB7
:1020200010E0D801AC54BD4D8C91892B81A3DE0109
:1020300011969E01255F3F4F51E09FB7F89480A114
:10204000806880A383A18823E9F39FBF45A184A171
:1020500090E0942B95958795959587958D939D9375
:1020600053A3A217B30749F763E0CE0105966ADFD1
:10207000F801EE0FFF1FEE50F24D208131818217E3
:10208000930714F0821B01C080E02A96CDBFDEBF0B
:10209000DF91CF911F910F910895EF92FF920F93CF
:1020A0001F93CF93DF938CEFE0E2F6E08283E0E4CE
:1020B000F2E0128280E1818387E0848392E090A342
:1020C00081A384B5848785B5858781E0808385E396
:1020D0008A95F1F700001092F22D1092F32D1092D4
:1020E000F42D1092F52D1092F62D1092F72D1092DE
:1020F000F82D1092F92D1092FA2D1092FB2D1092BE
:10210000FC2D1092FD2D85E090E00E940C2480E0D3
:1021100077DFC2EFDDE2F12CEE24EA940FC08F2DC1
:102120006FDF801708F4082F1150C9F7202F30E017
:1021300029933993F39486E0F81619F015E00E2DE3
:10214000EECFDF91CF911F910F91FF90EF90089507
:102150005F926F927F928F929F92AF92BF92CF9237
:10216000DF92EF92FF920F931F93CF93DF93CDB740
:10217000DEB76E97CDBFDEBF81E08093A92E80933E
:10218000D92E8093092F8093392F8093692F8093C4
:10219000992F60909E2C70909F2C80E091E00E947F
:1021A000B8040F2EF2E1EF2EF0E2FF2EF02DCE015B
:1021B0000D96E6E0F0E241915191DA0114962C91EE
:1021C000DC012D93CD01DA0114961C92EE15FF056A
:1021D00091F78E010F5F1F4FB12C0F2EFFE8CF2E0E
:1021E000DD24D394F02DF6013197F1F7000000C003
:1021F0008B2D06DF282F30E0F801219331938F01DA
:10220000B394F6E0BF12EFCFE0E0FBE081818C7089
:102210008183E0EAF6E083EF858320E436E058E846
:10222000D90111965C9380E696E048E0DC011196B6
:102230004C9360E876E0DB0111965C934183D90111
:1022400016965C93DC0116964C93DB0116965C9314
:1022500046838FEC97E00197F1F7000000C0E0E4BF
:10226000F2E0808182608083FE0131966F0100E0A0
:1022700010E0512C0F2EFFECAF2EF7E0BF2EF02D0B
:1022800088248394912CC5010197F1F7000000C0C8
:10229000802FB6DE90E0F801EE0FFF1F21E030E066
:1022A0002C0F3D1FE20FF31F828B938B8289938942
:1022B00082899389D6012D913D916D01821B930BEB
:1022C000419744F0C401002E02C0880F991F0A9460
:1022D000E2F7582A0F5F1F4F06301105A1F698E864
:1022E000E0E4F6E0978388E0E0E6F6E08783E0E864
:1022F000F6E09783E0EAF6E0878383EF8683AE011A
:10230000435F5F4FE6E0F0E281919191DA012D9118
:10231000AD01DC0114962C93EE15FF05A9F7E0E062
:10232000FBE08181836F8183C3010E94B804109216
:10233000A92E1092D92E1092092F1092392F109297
:10234000692F1092992F852D6E96CDBFDEBFDF913C
:10235000CF911F910F91FF90EF90DF90CF90BF90A2
:10236000AF909F908F907F906F905F90089583E0E3
:10237000E0E0F8E08183E0E4F8E08183E0E0F9E088
:102380008183E0E4F6E093E39683A0E6B6E0169658
:102390008C931697108A118A148A158A50961C926B
:1023A000509751961C921092E62C80919C2C909103
:1023B0009D2C0C94322408958091E62C882324F4DB
:1023C0008091E62C877008958FEF08954F925F9269
:1023D0006F927F928F929F92AF92BF92CF92DF9235
:1023E000EF92FF920F931F93CF93DF93CDB7DEB79A
:1023F0002997CDBFDEBF182F7B01DEDF88230CF0CD
:1024000079C1812F877080688093E62CA090DD2DA4
:10241000B090DE2DAA0CBB1CAA0CBB1CAA0CBB1CCA
:10242000AA0CBB1CAA0CBB1C8090FF2D9090002E08
:10243000880C991C880C991C880C991C880C991C78
:10244000880C991C812F90E09C01220F331F820F72
:10245000931F880F991F8556904D9E01295F3F4F0E
:102460006901FE01319600E010E03C01DC014D9174
:102470005C914115510529F410821182D9011C92F9
:1024800018C0BA01552324F466277727641B750BFF
:102490006A0D7B1D60837183D30111964C91440FAB
:1024A000440B440F4F5FD9014C93080D191D060FC3
:1024B000171F029632962F5F3F4FEC15FD05A9F6C8
:1024C00040E059E0FA0106A317A3A0E4B8E096960D
:1024D0000D931C93979780E098E0FC0106A317A347
:1024E00029813A8122A733A720A731A78B819C811C
:1024F0009A968D939C939B9798968D939C9399977E
:102500008D819E81DA019A968D939C939B979896E4
:102510008D939C939997A090FF2DB090002EAA0CBC
:10252000BB1CAA0CBB1CAA0CBB1CAA0CBB1CAA0C77
:10253000BB1CFE0131966F0140E0E0E0F0E06894E2
:10254000882486F8992493F8612C6894772473F88A
:102550000F2E412CF9E05F2EF02DD6012D913D91EB
:102560006D012115310569F1413081F018F04230DB
:10257000C9F023C0C8018E1B9F0BB8010E94503EBA
:10258000D30190968D939C93919717C0C8018E1B91
:102590009F0BB8010E94503ED40190968D939C935E
:1025A00091970BC0C8018E1B9F0BB8010E94503E33
:1025B000D20190968D939C939197EA0DFB1DE20FAB
:1025C000F31F4F5F433049F60E171F0709F494C0FD
:1025D0001F930F93FF93EF938AEB92E29F938F9356
:1025E0000E9477410F900F900F900F900F900F90D7
:1025F00083C05F5F4FEF450FE7E0F0E0EC0FFD1F9A
:10260000E40FF11D6081662364F5413089F018F014
:102610004230D9F054C0FC01C18250967C9350974F
:1026200015964C911597426015964C931597E1CFEE
:10263000F901C18254967C93549715964C91159745
:10264000406215964C931597D4CF83E1E0E0F9E012
:102650008183E0E6F6E080E4808B8581826085837B
:1026600031C0161664F5413089F018F04230D9F0C7
:1026700026C0FC01D18251967C93519715964C91BE
:102680001597416015964C931597B3CFF901D182F8
:1026900055967C93559715964C91159740611596D4
:1026A0004C931597A6CF83E2E0E0F9E08183E0E662
:1026B000F6E080E4818B85818160858303C053309F
:1026C00008F497CF9801D7010E949F3E689414F8B0
:1026D00096958795779567951694D1F720E030E029
:1026E00047EB51E10E94CB2680939C2C90939D2C2C
:1026F00081E013C080E011C051E020E438E00F2EEB
:10270000F3E2DF2EF02DA0E4B6E070E480E098E084
:102710000F2EF3E1CF2EF02D6DCF2996CDBFDEBF6A
:10272000DF91CF911F910F91FF90EF90DF90CF90AD
:10273000BF90AF909F908F907F906F905F904F90E1
:102740000895AF92BF92CF92DF92EF92FF921F93C4
:10275000CF93DF93182FEB01A82EB12C80E090E0EF
:102760000E9492386B017C01F501EE0FFF1FE659C4
:10277000F14D6081718180E090E00E94923820E00C
:1027800030E04AE754E40E94F9379B01AC01C701ED
:10279000B6010E94F9370E946638E62EF72E7F9325
:1027A0006F93DF93CF931F921F9380E093E29F93E9
:1027B0008F930E9477416E2D7F2D812F07DE8DB77D
:1027C0009EB708968DBF9EBFDF91CF911F91FF905E
:1027D000EF90DF90CF90BF90AF900895E82FF0E09A
:1027E000EE0FFF1FE659F14D608371830895FF924C
:1027F0000F931F93CF93DF93C0E0D0E01BC0CE01B7
:1028000040960E941004F82ECE0141960E941004BA
:10281000FE01E556F04D2F2D30E0322F2227282BD8
:10282000208331832296C017D10749F70033110561
:1028300029F0E8018E010A5F1F4FE1CF0AE61EE290
:10284000C0E4D0E0CE010E941004F82ECE01019623
:102850000E9410042F2D30E0322F2227282BF80160
:10286000219331938F012296C035D10559F7DF911D
:10287000CF911F910F91FF90089583E3E0E4F6E07C
:10288000818383E0E0E6F6E08183E0E0F8E097E032
:1028900090838183E0E4F8E090838183E0E0F9E0D5
:1028A000908381831092E62C84E190E08093DD2D6B
:1028B0009093DE2D8EE190E08093FF2D9093002E7B
:1028C00096CF0895FF920F931F93CF93DF93C0E0AD
:1028D000D0E016C0FE01E556F04DF0806181CE01DA
:1028E00040960E942B046F2DCE0141960E942B042E
:1028F0002296C017D10771F70033110529F0E801BE
:102900008E010A5F1F4FE6CF0AE61EE2C0E4D0E068
:10291000F801F08061810E5F1F4FCE010E942B04F1
:102920006F2DCE0101960E942B042296C035D10551
:1029300079F7DF91CF911F910F91FF9008959F92AA
:10294000AF92BF92CF92DF92EF92FF920F931F93BD
:10295000CF93DF938DE393E20E9488410F2EFBE932
:10296000CF2EFFE2DF2EF02DE12CF12C0F2EFBE419
:10297000AF2EF3E2BF2EF02D01E513E2FF92EF92AE
:10298000BF92AF920E9477410F900F900F900F90DF
:10299000E601912C8881998122969F938F931F93B2
:1029A0000F930E94774193940F900F900F900F9088
:1029B00083E09812EFCF8FE69CE20E9488418FEF70
:1029C000E81AF80A86E0C80ED11C88E0E816F1047F
:1029D000A9F68FE69CE20E948841DF91CF911F917A
:1029E0000F91FF90EF90DF90CF90BF90AF909F90AE
:1029F0000895EF92FF920F931F93CF93DF9385E596
:102A000093E20E9488410AE61EE2C0E0D0E00F2E69
:102A1000FDE6EF2EF3E2FF2EF02DF801808191818B
:102A20000E5F1F4F9F938F93DF93CF93FF92EF9291
:102A30000E94774121960F900F900F900F900F906A
:102A40000F90C830D10549F7DF91CF911F910F91B9
:102A5000FF90EF900895E0EBF9E0918195FFFDCFB5
:102A60008093B00981E090E00895E0E6F6E080E828
:102A7000818380E48283E0EBF9E083E0858387E172
:102A8000868384EA878384818061848384818860EB
:102A9000848382E190E28093053390930633109211
:102AA000E42C1092E52C80E1838308951F93CF934B
:102AB000DF938091E42C9091E52C182FFC01FF27E7
:102AC000EC55F34D8081882379F0C5E0D3E368812C
:102AD000798190E00E9445411F5FE12FF0E0EC55C5
:102AE000F34D80818111F3CF812F90E08093E42C0E
:102AF0009093E52CDF91CF911F9108958091B009BB
:102B000090919A2F913031F4813409F4CFDF1092F3
:102B10009A2F08959091A32C992341F08B3519F4A5
:102B200081E080939A2F1092A32C08958D3011F09C
:102B30008A30A9F48FE69CE20E9488416091E42CDF
:102B40007091E52CFB01EC55F34D108284EA9CE278
:102B50000E94A32D1092E42C1092E52C0895883049
:102B6000A1F48091E42C9091E52C009729F0019735
:102B70008093E42C9093E52C87E793E29F938F93C7
:102B80000E9477410F900F9008958B3121F481E0DE
:102B90008093A32C08952091E42C3091E52C2034CF
:102BA000310591F41F9280E48F938BE793E29F931A
:102BB0008F930E9477411092E42C1092E52C0F9095
:102BC0000F900F900F900895F901EC55F34D80830D
:102BD0002F5F3F4F2093E42C3093E52C6091053319
:102BE0007091063390E00C94454108951F920F9226
:102BF0000FB60F9211240BB60F922F933F934F9362
:102C00005F936F937F938F939F93AF93BF93EF9354
:102C1000FF9374DFFF91EF91BF91AF919F918F91DF
:102C20007F916F915F914F913F912F910F900BBECC
:102C30000F900FBE0F901F90189583E0E0E2F6E032
:102C40008283E0E9F3E081E08083818388E082830E
:102C5000838380E1868308958FE1E0E0F6E082835C
:102C6000E0E8F3E089E080838183128281E083835E
:102C700082818061828383818061838380E1868316
:102C80000895DBDFE9CF0895E0ECF0E080E2808397
:102C900088B1838389B183838AB183838BB1838332
:102CA0008CB183838DB1838380B3838382B3838329
:102CB00083B3838384B3838385B38383A0E0B2E04B
:102CC00094968C91949783839C968C919C97838304
:102CD000D4968C918383A0E4B2E094968C919497DF
:102CE00083839C968C91838381E08093183080E16C
:102CF00091E092838150E9F784E88093C0001092BC
:102D0000193008958EE290E322E330E314C0DF012E
:102D100054971C9214961C9214961C9214961C9212
:102D200014961C9210824F5F7896463081F7019678
:102D30008217930719F0FC0140E0E9CF08952F9224
:102D40003F924F925F926F927F928F929F92AF923B
:102D5000BF92CF92DF92EF92FF920F931F93CF9388
:102D6000DF93C8E3D0E28C010F2EF8E62F2EF0E2BD
:102D70003F2EF02D812C912C540124013501F801B6
:102D800061918F0170E080E090E00E9494386B01C7
:102D90007C01288139814A815B810E94093A9B012B
:102DA000AC01C301B2010E942C372B013C012C81E4
:102DB0003D814E815F81C701B6010E94093A9B01A6
:102DC000AC01C501B4010E942C374B015C0128966F
:102DD000C215D305A1F6A30192010E949F37DF918E
:102DE000CF911F910F91FF90EF90DF90CF90BF9008
:102DF000AF909F908F907F906F905F904F903F909B
:102E00002F900895CF92DF92FF920F931F93CF934D
:102E1000DF93F62E072FA62FB72FE42FF52F26E0EE
:102E200011921D922150E1F7C42ED52E40E050E0C2
:102E300017C09D0110817D91710F7193E60178811A
:102E4000E9012881270FE60128836F5F663089F743
:102E50004A5F5F4FDFEFCD1ADD0A4432510539F08A
:102E6000DC01A40FB51FEF2DF02F60E0E2CFDF9162
:102E7000CF911F910F91FF90DF90CF900895DF9237
:102E8000EF92FF920F931F93CF93DF934AE150E3AA
:102E90006AEA70E3E12CDD24DA941EC0C191C11707
:102EA00008F41C2F0C1708F40C2FD150B9F7011B94
:102EB000E01608F4E02E0D93FA942C5F3F4FFF20AC
:102EC00029F0F901D4E000E01D2DE8CF0696485E18
:102ED0005F4F4617570739F09A01DC010F2EF6E0D5
:102EE000FF2EF02DEECF81E08E1508F480E0DF910B
:102EF000CF911F910F91FF90EF90DF900895DF9297
:102F0000EF92FF920F931F93CF93DF930AE110E3A9
:102F10000F2EFAEAEF2EF0E3FF2EF02D0DC08D2DCF
:102F20006FD88883D394249686E0D812F8CF085EB1
:102F30001F4F0E151F0519F0E801D12CF0CFDF91BE
:102F4000CF911F910F91FF90EF90DF9008952F92F6
:102F50003F924F925F926F927F928F929F92AF9229
:102F6000BF92CF92DF92EF92FF920F931F93CF9376
:102F7000DF938FE59AEEA0E0B0E00197A109B109D7
:102F8000000001F0D1F7C89500008FE79EE301979C
:102F9000F1F7000000C00F2EFBE16F2EF0E37F2E53
:102FA000F02D0F2EFBEA4F2EF0E35F2EF02D0E9446
:102FB0009B024B015C018301332433940E949B02EA
:102FC0006B017C01E801212C822D1AD8888323947F
:102FD000249686E02812F8CF0E949B02DC01CB01E8
:102FE0008C199D09AE09BF090397A105B105A0F38E
:102FF00082E0831520F085E090E00E940C24339459
:103000000F5F1F4F84E03812D9CF0E949B02DC0172
:10301000CB0188199909AA09BB094797A105B105F0
:10302000A0F38FE090E00E940C2488E1680E711CF0
:103030006414750409F0BBCFDF91CF911F910F91FC
:10304000FF90EF90DF90CF90BF90AF909F908F90C8
:103050007F906F905F904F903F902F900895CF9307
:10306000DF931F92CDB7DEB772DF49DF89E1898335
:103070009E012F5F3F4F47E75FE164E170E080E032
:1030800090E00E94CB260F90DF91CF910895AF92F0
:10309000BF92CF92DF92EF92FF920F931F938230F5
:1030A00019F130F4882309F45BC0813071F006C057
:1030B0008430C1F140F1853009F443C0E12CF12C9A
:1030C00000E010E0C12CD12C58C00F2EF0EBEF2EF9
:1030D000F8E0FF2EF02D00E416E06894CC24C7F849
:1030E0006894DD24D1F849C00F2EF0EAEF2EF9E004
:1030F000FF2EF02D00E616E06894CC24C3F8689407
:10310000DD24D4F83AC00F2EF0EAEF2EFAE0FF2EBD
:10311000F02D00E816E06894CC24C3F86894DD2410
:10312000D5F82BC00F2EF0EBEF2EFAE0FF2EF02D8E
:1031300000E816E06894CC24C7F86894DD24D7F83A
:103140001CC00F2EF0EAEF2EFBE0FF2EF02D00EA60
:1031500016E06894CC24C3F86894DD24D6F80DC03A
:103160000F2EF0EAEF2EF8E0FF2EF02D00E416E02F
:103170006894CC24C3F8DD24D394F701A480E0E064
:10318000FBE08181BD2CB0948B218183E0EAF6E0E5
:10319000D18284818D298483F7011482F801C18250
:1031A00084819C2D90958923848370E080E090E059
:1031B0000E94923820E034E244EF5BE40E94093A36
:1031C00020E030E04AE754E40E94F93720E030E0A4
:1031D00040E05FE30E942C370E946638AB01BC01DF
:1031E0004D3051056105710508F45DC04130F4E0D2
:1031F0005F0761057105D8F44150510961097109F2
:10320000DB01CA01B695A79597958795B695A795C1
:103210009795879543705527662777270097A105CF
:10322000B10509F440C08A9501F0E9F73CC042308D
:10323000510584E068077105D0F4425051096109D5
:103240007109DB01CA01B695A79597958795B69543
:10325000A7959795879543705527662777270097F9
:10326000A105B10501F10197F1F700001CC0445020
:10327000510961097109DB01CA01689412F8B69518
:10328000A795979587951694D1F747705527662788
:1032900077270097A105B10531F00197A109B10980
:1032A000000001F0D1F7413051056105710511F4BD
:1032B00000000EC0423051056105710511F400C0D7
:1032C0000FC0433051056105710511F4C89510C058
:1032D000443051056105710519F4C895000010C00E
:1032E000453051056105710519F4C89500C011C03C
:1032F000463051056105710519F4C895C89512C08D
:10330000473051056105710521F4C895C895000045
:1033100012C0483051056105710521F4C895C89562
:1033200000C013C0493051056105710521F4C895ED
:10333000C895C89514C04A3051056105710529F436
:10334000C895C895C895000013C04B30510561055C
:10335000710529F4C895C895C89500C009C04C30BE
:1033600051056105710521F4C895C895C895C895A2
:10337000F8018481C82AC482F701A482E0EAF6E059
:103380008481B822B482E0E0FBE08181D82AD18236
:103390001F910F91FF90EF90DF90CF90BF90AF9073
:1033A0000895CF92DF92EF92FF92CF938FE090E05B
:1033B0000E940C240E949B026B017C0180E091E042
:1033C0000E94B8040E949B02DC01CB018C199D096C
:1033D000AE09BF090297A105B105A0F3C0E00E94A4
:1033E0009B026B017C0167E18C2F51DE0E949B02E6
:1033F000AB01BC014C195D096E097F0947315105CC
:103400006105710598F38FE090E00E940C24CF5F76
:10341000C63029F7CF91FF90EF90DF90CF900895BD
:1034200045E050E06EEB73E28FE30E940F0C8FE3F8
:103430000E945E0B8DE590E00E940C248FEFB1CFCF
:103440000895CF92DF92EF92FF926B017C0120E012
:1034500030E0A9010E94FE398823ACF02BED3FE05B
:1034600049E450E4C701B6010E942C372BED3FE040
:1034700049EC50E40E94D6382BED3FE049E450E49B
:103480000E942B3714C02BED3FE049E450E4C70104
:10349000B6010E942B372BED3FE049EC50E40E942F
:1034A000D6382BED3FE049E450E40E942C37FF90E2
:1034B000EF90DF90CF9008952F923F926F927F927E
:1034C0008F929F92AF92BF92CF92DF92EF92FF9234
:1034D0000F931F93CF93DF93CDB7DEB76097CDBF28
:1034E000DEBF4D875E876F87788B19821A821B82B9
:1034F0001C821D821E821F82188608E310E21C01B6
:103500000F2EF8E66F2EF0E27F2EF02DF101619183
:103510001F0170E080E090E00E9494386B017C0114
:1035200089809A80AB80BC80F80120813181428102
:1035300053810E94093AA50194010E942C376983A6
:103540007A838B839C838D809E80AF80B884F801C2
:103550002481358146815781C701B6010E94093A0D
:10356000A50194010E942C376D837E838F839887F9
:10357000085F1F4F0615170549F629813A814B81CF
:103580005C816D817E818F8198850E949F376987DC
:103590007A878B879C87C984DA84EB84FC842BED43
:1035A0003FE049E450E46D857E858F8598890E94CF
:1035B0002C37A70196010E942B3743DF6096CDBFC1
:1035C000DEBFDF91CF911F910F91FF90EF90DF90C1
:1035D000CF90BF90AF909F908F907F906F903F90D3
:1035E0002F9008952EDF2BED3FE049E450E40E9438
:1035F000F93720E030E044E353E40C94093A0895AD
:10360000CF92DF92EF92FF926B017C012BED3FE0B6
:1036100049EC5FEB0E94FE3918167CF42BED3FE07D
:1036200049EC5FE3C701B6010E94F23788234CF4EE
:10363000C701B6010E94F63707C060E070E0CB0119
:1036400003C060E070E0CB01FF90EF90DF90CF907F
:103650000895CF92DF92EF92FF926B017C012BEDE8
:103660003FE049EC5FEB0E94FE3918167CF42BED2D
:103670003FE049EC5FE3C701B6010E94F2378823BF
:103680004CF4C701B6010E94F63707C060E070E055
:10369000CB0103C060E070E0CB01FF90EF90DF90C2
:1036A000CF9008954F3FE1F420E030E040E05FE349
:1036B0000E94093A2AE038E64EEA5FE30E942B377F
:1036C0000E94763A9B01AC0165E075E48DE991E4D6
:1036D0000E94F9372FE13EE249E95FE30C942B3772
:1036E0001F924F9384EC93E29F938F930E947741B4
:1036F0000F900F900F900F9060E070E0CB01089555
:103700004F925F926F927F928F929F92AF92BF92F1
:10371000CF92DF92EF92FF920F931F93CF93DF939D
:1037200000D01F92CDB7DEB72B013C0129833A832D
:103730004B835C83AC2DBD2DEE2DFF2D60E040E072
:1037400050E020E030E07FEF1FEF8D9190E02817F0
:10375000390710F49C01162F819190E04817590702
:1037600010F4AC01762F6F5F663079F7872E912CBD
:10377000F401EE0FFF1FEE0FFF1FE05EFF4D2081F3
:10378000318142815381C301B2010E942B376B0109
:103790007C012BED3FE049EC5FE30E94FE391816F7
:1037A0000CF476C02BED3FE049EC5FEBC701B601AE
:1037B0000E94F23788230CF46FC029813A814B8133
:1037C0005C81C301B2010E942B37E12FF0E0EE0FC4
:1037D000FF1FEE0FFF1FE05EFF4D20813181428110
:1037E00053810E942B372BED3FE049E450E40E94C7
:1037F0002B3727DE2B013C012BED3FE049EC5FE34B
:103800000E94FE3918160CF44BC02BED3FE049EC3A
:103810005FEBC301B2010E94F23788230CF444C06D
:10382000C701B601EDDE6B017C01C301B20111DFFE
:103830009B01AC01C701B6010E94093A6B017C01F2
:1038400020E030E0A9010E94FE3918168CF5812F86
:1038500090E09C01220F331F820F931F880F991F46
:10386000A80EB91EF401EA0DFB1D608170E080E036
:1038700090E00E949438A70196010E94F937402FEA
:1038800011DF28E93CE445E850E40E942C3713C0DE
:1038900060E070E0CB010FC060E070E0CB010BC0D6
:1038A00060E070E0CB0107C060E070E0CB0103C0D6
:1038B00060E070E0CB012496CDBFDEBFDF91CF91F9
:1038C0001F910F91FF90EF90DF90CF90BF90AF903E
:1038D0009F908F907F906F905F904F9008952F9260
:1038E0003F924F925F926F927F928F929F92AF9290
:1038F000BF92CF92DF92EF92FF920F931F93CF93DD
:10390000DF93CDB7DEB7C75BD109CDBFDEBFCD55E5
:10391000DF4F688379838A839B83C35AD040C9551C
:10392000DF4F288339834A835B83C75AD040CF5403
:10393000DF4FE882F9820A831B83C15BD040CB54FE
:10394000DF4FC882C55BD040C356DF4FA882CD5938
:10395000D040C256DF4FB882CE59D040CE0101963A
:10396000CA54DF4F88839983C65BD040E0E2F0E21F
:10397000C555DF4FE883F983CB5AD04088E390E206
:10398000C556DF4F88839983CB59D040C355DF4F4D
:103990001882CD5AD0409FEFC055DF4F9883C05B4F
:1039A000D040EFEFC155DF4FE883CF5AD04000E061
:1039B00036C2CF56DF4F8881C159D040C356DF4F42
:1039C000F881CD59D0408F1BCF56DF4FE881F98168
:1039D000C159D0401191CF56DF4FE883F983C159C7
:1039E000D040011780F4C055DF4F8883C05BD040C2
:1039F000C255DF4FF881CE5AD040C155DF4FF88312
:103A0000CF5AD040012F123008F49BC128E93CE482
:103A100045E050E4F10160817181828193810E94CF
:103A2000093AC956DF4F688379838A839B83C759D4
:103A3000D04028E93CE445E050E4F101648175811F
:103A4000868197810E94093AC156DF4F6883798346
:103A50008A839B83CF59D040C955DF4F68817981D4
:103A60008A819B81C75AD0400E94F6374B015C0186
:103A700028E93CE445E050E4C556DF4FE881F98190
:103A8000CB59D04060817181828193810E94093A33
:103A90006B017C01CD55DF4F288139814A815B81E3
:103AA000C35AD040C501B4010E94093A9B01AC0140
:103AB000C701B6010E942C374B015C01C955DF4F8D
:103AC000688179818A819B81C75AD0400E946C3A73
:103AD0002B013C0128E93CE445E050E4C556DF4FAA
:103AE000E881F981CB59D0406481758186819781C5
:103AF0000E94093A6B017C01CD55DF4F2881398145
:103B00004A815B81C35AD040C301B2010E94093A85
:103B10009B01AC01C701B6010E942C376B017C01EF
:103B2000C956DF4F288139814A815B81C759D0400E
:103B3000C501B4010E942B372B013C01C156DF4F58
:103B4000288139814A815B81CF59D040C701B601B4
:103B50000E942B37A30192010E949F37CB56DF4F63
:103B6000E881F981C559D04020813181428153815A
:103B70000E942B372B013C01A5019401C956DF4F50
:103B8000688179818A819B81C759D0400E942B37F7
:103B90004B015C01A7019601C156DF4F6881798115
:103BA0008A819B81CF59D0400E942B37A501940177
:103BB0000E949F37C555DF4FE881F981CB5AD0402D
:103BC00020813181428153810E942B37CF54DF4FB6
:103BD000288139814A815B81C15BD0400E942B37AB
:103BE0006B017C01C301B2012CDC2B013C01C7013C
:103BF000B60127DC6B017C01C301B20101DDC956AE
:103C0000DF4F688379838A839B83C759D040C7017C
:103C1000B6011FDD6B017C01612F70E080E090E058
:103C20000E9494384B015C01A7019601C956DF4FF1
:103C3000688179818A819B81C759D0400E94093A65
:103C40009B01AC01C501B4010E94F937CB54DF4F91
:103C50004881C55BD04026DD4B015C01C301B20148
:103C60000E94F637A50194010E94093A6B017C017C
:103C7000C556DF4FE881F981CB59D0402081318191
:103C800042815381F10160817181828193810E941F
:103C90002B3728E93CE445E050E40E94093A9B01B7
:103CA000AC01C701B6010E942C376B017C01C30136
:103CB000B2010E946C3AA50194010E94093A4B019D
:103CC0005C01C556DF4FE881F981CB59D040248192
:103CD000358146815781F1016481758186819781A3
:103CE0000E942B3728E93CE445E050E40E94093A61
:103CF0009B01AC01C501B4010E942C374B015C0152
:103D0000A7019601C701B6010E94093A6B017C0127
:103D1000A5019401C501B4010E94093A9B01AC01BF
:103D2000C701B6010E942C370E94763ACD56DF4F6C
:103D3000E881F981C359D040608371838283938382
:103D40000AC0CD56DF4FE881F981C359D0401082B7
:103D5000118212821382F8E02F0E311CCB56DF4FF6
:103D600088819981C559D0400496CB56DF4F88830E
:103D70009983C559D040CD56DF4FE881F981C359A9
:103D8000D0403496CD56DF4FE883F983C359D040F5
:103D9000F8E62F16F0E23F0609F00BCEC355DF4FD1
:103DA0002881CD5AD0402F5FC355DF4F2883CD5A8D
:103DB000D040C556DF4F88819981CB59D0400896B5
:103DC000C556DF4F88839983CB59D040C555DF4F07
:103DD000E881F981CB5AD0403496C555DF4FE8834E
:103DE000F983CB5AD040C356DF4F88819981CD5992
:103DF000D0400696C356DF4F88839983CD59D04073
:103E0000CA54DF4FE881F981C65BD0407896CA5426
:103E1000DF4FE883F983C65BD040263089F1CA546E
:103E2000DF4F88819981C65BD040CD56DF4F8883B4
:103E30009983C359D040E0E2F0E2CB56DF4FE883EC
:103E4000F983C559D0400F2EF8E32F2EF0E23F2E14
:103E5000F02DC356DF4F88819981CD59D040CF5680
:103E6000DF4F88839983C159D040C355DF4F988174
:103E7000CD5AD040C255DF4F9883CE5AD04099CD0D
:103E8000C155DF4FE881CF5AD0408E2F90E0FC0122
:103E9000EE0FFF1F8E0F9F1FFC01EE0FFF1FC0557F
:103EA000DF4F2881C05BD040E20FF11DEE0FFF1FF6
:103EB000EE0FFF1FEC0FFD1F6181728183819481E2
:103EC000C954DF4FCDBFDEBFDF91CF911F910F915E
:103ED000FF90EF90DF90CF90BF90AF909F908F902A
:103EE0007F906F905F904F903F902F9008954F92EA
:103EF0005F926F927F928F929F92AF92BF92CF927A
:103F0000DF92EF92FF920F931F93CF93DF93CDB782
:103F1000DEB7E897CDBFDEBFCE0101960E943F1706
:103F200081116CC0AE014B5D5F4FBE01655D7F4F7F
:103F3000CE0101960E940217CE018B960E949F1619
:103F40002B013C01AB01BC01CE018596B5DA69AB12
:103F50007AAB8BAB9CABCE0101965C01DE019596F2
:103F60006D018A967C010FEF29A93AA94BA95CA99A
:103F7000C301B201C5DB6DAB7EAB8FAB98AF20E068
:103F800030E0A9010E94F2378823C1F1CC24CA9401
:103F9000E9A8FAA80BA91CA9A30192016DA97EA901
:103FA0008FA998AD9CDC6093E22D7093E32D8093F4
:103FB000E42D9093E52D4092E62D5092E72D6092EE
:103FC000E82D7092E92D89A99AA9ABA9BCA9809383
:103FD000EA2D9093EB2DA093EC2DB093ED2DA092B4
:103FE000EE2DB092EF2D8091D92D9091DA2D809306
:103FF000F02D9093F12D81E08093FE2DE896CDBFBA
:10400000DEBFDF91CF911F910F91FF90EF90DF9076
:10401000CF90BF90AF909F908F907F906F905F9068
:104020004F900895FF920F931F93CF93DF93CDB7D7
:10403000DEB72797CDBFDEBF8C01F62E87E0E4EE1A
:10404000F3E2DE01119601900D928A95E1F76F83FC
:104050008AE190E30E947F17980147E050E0BE019B
:104060006F5F7F4F8FE30E94CC0B8FE30E945E0B4C
:104070008DE590E0D1D30E94A7178F2D38DF2796CA
:10408000CDBFDEBFDF91CF911F910F91FF900895BB
:10409000E0E8F6E080E2818380E18183E0E6F6E01B
:1040A0008183E0E4FAE08FEF90E086A397A312A665
:1040B00013A6208121602083218123602183218117
:1040C0002062218386A397A310A611A620812160D8
:1040D0002083218123602183218120612183E0E4E9
:1040E000F9E086A397A310A611A680818160808342
:1040F0008181836081838181806181830895E0E48F
:10410000F9E010AE11AEE0E4FAE010AE11AE12AE7E
:1041100013AE089590E0E0E4FAE082AF93AF70E070
:1041200060AF71AF50E0E0E4F9E040AF51AF089507
:104130002F923F924F925F926F927F928F929F92B7
:10414000AF92BF92CF92DF92EF92FF920F931F93A5
:10415000CF93DF93CDB7DEB72B97CDBFDEBFFC018A
:10416000D62EB42E2C833D831801EA82FB829C015B
:10417000A3E8BDE20E949F3E0024880F991F001C07
:10418000880F991F001C892F902D48E651E0849FCD
:104190009001859F300D949F300D1124BF01621B4B
:1041A000730B80E090E00E9492382B013C016D2D52
:1041B00070E080E090E00E94943820E030E04FE72B
:1041C00053E40E94F9376B017C016B2D70E080E0B5
:1041D00090E00E94943820E030E04FE753E40E94E2
:1041E000F937062F172F8B879A87C701B6010E94D0
:1041F00061389B01772324F422273327261B370BB2
:10420000B901882777FD8095982F0E9494382CEA71
:1042100035EC47E257E30E94F23788232CF4AA8159
:10422000BB81BC92F101B08220E030E040E752E473
:10423000C301B2010E94F9374B015C010E9466384C
:10424000698370E080E090E00E9494389B01AC01AB
:10425000C501B4010E942B374B015C01A7019601F7
:1042600060E070E080E89FE30E942B37202F312F21
:104270004B855A850E94093A662E772E482E592E74
:10428000A5019401C701B6010E94093A9B01AC0146
:1042900060E070E080E89FE30E942B37202F312FF1
:1042A0004B855A850E94093A6E837F838887998758
:1042B000A501940160E070E080E89FE30E942B3745
:1042C000A70196010E94093A9B01AC0160E070E0F1
:1042D00080E89FE30E942B37202F312F4B855A8592
:1042E0000E94093AC62ED72EE82EF92EF981F23017
:1042F00031F130F4FF2309F45DC0F130A9F007C0BB
:1043000029812430F1F160F1253009F44BC0612C92
:10431000712C412C512CC12CD12CE12CF12C00E022
:1043200010E01B861A8646C0C02ED12EEB84FA847C
:104330000E811F8188858B87A985AA873BC0302F76
:10434000212F9B858A85062D172D4B865A866C2C2E
:104350007D2C4E2C5F2CC32ED22EE92EF82E2AC097
:10436000CE80DF80E884F984302F212F9B858A85D9
:10437000062D172D4B865A86632E722E492E582EE7
:1043800019C0302F212F9B858A850C2D1D2DEB8682
:10439000FA86C62CD72CE42CF52C632E722E492ECF
:1043A000582E08C0C62CD72CE42CF52C6E807F80AC
:1043B0004884598420E030E04FE753E4602F712FA8
:1043C0008B859A850E94093A0E946638EC81FD81AE
:1043D000608320E030E04FE753E4662D772D842D95
:1043E000952D0E94093A0E946638AA81BB816C9380
:1043F00020E030E04FE753E46C2D7D2D8E2D9F2D76
:104400000E94093A0E946638F10160832B96CDBF65
:10441000DEBFDF91CF911F910F91FF90EF90DF9062
:10442000CF90BF90AF909F908F907F906F905F9054
:104430004F903F902F900895EF92FF920F931F930C
:10444000CF93DF9300D0CDB7DEB79E012D5F3F4FF6
:1044500079018E010E5F1F4F2250310969DE8B8179
:104460002A81498150E0E0E4FAE042AF53AF30E006
:1044700020AF31AF90E0E0E4F9E080AF91AF239658
:10448000CDBFDEBFDF91CF911F910F91FF90EF90D5
:104490000895CF93DF93CDB7DEB72A97CDBFDEBFA8
:1044A000DE0111969E01255F3F4FE0E0F2E051E012
:1044B00080A1806880A383A18823E9F345A184A11A
:1044C00090E0942B959587959595879595958795EB
:1044D000959587958D939D9353A3A217B30741F7A5
:1044E00063E0CE0105960E94A20F2A96CDBFDEBFE3
:1044F000DF91CF910895CF93DF93CDB7DEB72A97A1
:10450000CDBFDEBFDE0111969E01255F3F4FE0E08B
:10451000F2E051E080A5806880A783A58823E9F3B5
:1045200045A584A590E0942B9595879595958795BD
:1045300095958795959587958D939D9353A7A217EC
:10454000B30741F763E0CE0105960E94A20F2A96B9
:10455000CDBFDEBFDF91CF910895CF93DF93CDB76D
:10456000DEB72A97CDBFDEBFDE0111969E01255F23
:104570003F4FE0E0F2E051E080A9806880AB83A982
:104580008823E9F345A984A990E0942B9595879514
:104590009595879595958795959587958D939D93F9
:1045A00053ABA217B30741F763E0CE0105960E9413
:1045B000A20F2A96CDBFDEBFDF91CF910895DF9283
:1045C000EF92FF920F931F93CF93DF9380EEE0E083
:1045D000F6E08283E0E0F2E080E2828386E181839C
:1045E00086E0848383E080A380A787E080AB8CE2B1
:1045F00081A384E381A78CE381AB80B5848781B5F7
:10460000858781E080838FE891E00197F1F700C012
:1046100000003FDFA2DF6FDF8AE090E0FDD0D12C09
:10462000C0E0D0E000E010E0E12CF12C32DFE80E39
:10463000F91E61DF080F191F90DFC80FD91F8AE02C
:1046400090E0EAD08FE69CE20E948841D39493E008
:10465000D912ECCF23E030E0C701B9010E94643EDB
:104660006093682E7093692EC801B9010E94643E60
:104670006093DF2D7093E02DCE01B9010E94643E5E
:104680006093D72D7093D82DDF91CF911F910F910B
:10469000FF90EF90DF9008953F924F925F926F925C
:1046A0007F928F929F92AF92BF92CF92DF92EF92C2
:1046B000FF920F931F93CF93DF935C016B017A01FD
:1046C000E0E4FAE082AC93AC782CC0ADD1AD6C2EB6
:1046D000E0E4F9E000AD11AD302E811004C0C1114D
:1046E00002C0002339F040E060E080E013DD86E99D
:1046F00090E092D0CEDE482EFEDE582E2EDF909136
:10470000682E491A9091DF2D591A9091D72D891B47
:10471000A114B10411F0F5014082C114D10411F0CB
:10472000F6015082E114F10411F0F7018083711059
:1047300004C0611002C0332021F0402F6C2F882D5F
:10474000E9DCDF91CF911F910F91FF90EF90DF9007
:10475000CF90BF90AF909F908F907F906F905F9021
:104760004F903F9008951092D32F1092D42F109213
:10477000DC2D1092E12D1092AA302FB7F8941092F0
:10478000A12C1092A22C85E0E0E4F0E0838383E08A
:10479000E0E0F4E08283818180FDFDCF8FEF9FEF29
:1047A000E0E0F4E082879387818180FDFDCF81E0A6
:1047B00080930004E0E0F4E0818180FDFDCFE0E043
:1047C000F4E0108611862FBF089588ED84BF82E043
:1047D00080935000E0E5F0E0818181FFFDCF88ED1E
:1047E00084BFE0E4F0E081E0808385E08383E0E063
:1047F000F4E0818180FDFDCFE0E0F4E08FEF9FEFFA
:104800008287938781E08083818180FDFDCFE0E016
:10481000F4E0108611860895CF92DF92EF92FF9216
:104820007C01F8940E949B0278949B01AC012E0DB0
:104830003F1D411D511D69017A01F8940E949B02A0
:104840006C157D058E059F0510F0789406C0789450
:104850003AE63A95F1F700C0F0CFFF90EF90DF9085
:10486000CF900895FC016FB7F894A091D32FB09129
:10487000D42F109709F4CBC08A179B0709F05BC0AF
:10488000848595858093D32F9093D42F8091AA30DF
:1048900090E09C01220F331FA901440F551F440FC4
:1048A000551F440F551FDA01A21BB30B9D0125555F
:1048B0003F4CE217F30709F59C01220F331FF90162
:1048C000EE0FFF1FEE0FFF1FEE0FFF1FE21BF30B9C
:1048D000E555FF4C108611860796877090789923CE
:1048E00024F40197886F9F6F01968093AA3080917E
:1048F000DC2D81508093DC2D8CC0079687709078DA
:10490000992324F40197886F9F6F019699279C0142
:10491000220F331FA901440F551F440F551F440F89
:10492000551FDA01A21BB30B9D0125553F4CE21721
:10493000F30719F7C1CF1C962D913C911D972115B6
:10494000310509F466C0E217F30711F0D901F3CF7E
:10495000848595851C968D939C931D972091AA30F4
:1049600030E0C901880F991FAC01440F551F440F57
:10497000551F440F551FDA01A81BB90BCD018555F2
:104980009F4CE817F90721F5C901880F991FFC0111
:10499000EE0FFF1FEE0FFF1FEE0FFF1FE81BF90BBF
:1049A000E555FF4C10861186295F3F4F2770307800
:1049B000332334F421503109286F3F6F2F5F3F4F6D
:1049C0002093AA308091DC2D81508093DC2D21C072
:1049D000295F3F4F27703078332334F42150310959
:1049E000286F3F6F2F5F3F4F3327A901440F551F9B
:1049F000CA01880F991F880F991F880F991F841B60
:104A0000950B85559F4CE817F90711F7BDCF6FBF80
:104A100008956FBF0895FF920F931F93CF93DF9375
:104A2000FFB6F894C091D32FD091D42F9091E12D5F
:104A30008091DC2D1F929F931F928F9383E594E2C8
:104A40009F938F930E9477410F900F900F900F903C
:104A50000F900F90209789F10EE714E20E949B02BD
:104A60009F938F937F936F938B818F938A818F9383
:104A700089818F9388818F938F818F938E818F937C
:104A80008D818F938C818F9389858F9388858F9368
:104A9000DF93CF931F930F930E9477418C859D8561
:104AA0002DB73EB72E5E3F4F2DBF3EBF8C179D07E3
:104AB00021F0009711F0EC01D1CFFFBEDF91CF9133
:104AC0001F910F91FF9008959F92AF92BF92CF9246
:104AD000DF92EF92FF920F931F93CF93DF938C019E
:104AE0009FB6F894E091D32FF091D42FDC011C965F
:104AF000ED93FC931D97309769F04D915D916D9109
:104B00007C9180819181A281B38184179507A6074A
:104B1000B70790F10093D32F1093D42FF801808121
:104B20009181A281B3814091A12C5091A22CE0E00F
:104B3000F4E00285138560E070E0BA015527442750
:104B400020E030E0402B512B622B732B4817590784
:104B50006A077B0758F0218120FDFDCFE0E0F4E0FB
:104B6000848795878281886082837CC0E0E0F4E05E
:104B70008281877F828376C0E0E4FAE0C0ACD1AC6A
:104B8000E2ACF3ACE0E4F9E0A0ACB1AC40E062E34D
:104B90008FEFC0DAC091D32FD091D42F45C0CE175C
:104BA000DF0709F040C08CEB94E20E9488410E942C
:104BB0009B029F938F937F936F93D80113968C9151
:104BC00013978F9312968C9112978F9311968C91C5
:104BD00011978F938C918F9317968C9117978F9332
:104BE00016968C9116978F9315968C9115978F9397
:104BF00014968C9114978F9319968C9119978F9383
:104C000018968C918F931F930F9382EE94E29F934B
:104C10008F930E947741FFDE9FBEEDB7FEB772967D
:104C2000EDBFFEBF25C0EF01EC85FD85309779F023
:104C3000D8014D915D916D917C9180819181A2818E
:104C4000B38184179507A607B70708F4A8CF4A2DA4
:104C50006C2D8E2D5FDA8C859D85F8018487958774
:104C60000C871D878091DC2D8F5F8093DC2D9FBE8C
:104C7000DF91CF911F910F91FF90EF90DF90CF9038
:104C8000BF90AF909F9008958F929F92AF92BF92E6
:104C9000EF92FF920F931F93CF93DF93CDB7DEB7C1
:104CA0006097CDBFDEBF83E295E20E948841B3DE0C
:104CB0000091D32F1091D42FEFB6F8940115110560
:104CC00009F456C0F12CF801448155816681778141
:104CD000452B462B472B39F4A484B584C801C2DD8B
:104CE0000A2D1B2D2BC00E949B02F8018480958009
:104CF000A680B780F2E38F0E911CA11CB11CDC01D1
:104D0000CB01880D991DAA1DBB1DF80180839183DD
:104D1000A283B383EF2DF0E0EE0FFF1F81E090E060
:104D20008C0F9D1FE80FF91F00831183F8019485F4
:104D3000858514861586F394092F182F1092DC2D83
:104D40000115110509F0BFCF1092D32F1092D42F67
:104D5000FF2061F08E010F5F1F4FB12CF801819190
:104D600091918F01B1DEB394BF10F8CFEFBE05C0B3
:104D70001092D32F1092D42FF9CF6096CDBFDEBF03
:104D8000DF91CF911F910F91FF90EF90BF90AF9067
:104D90009F908F9008954F925F926F927F92BF92F3
:104DA000CF92DF92EF92FF920F931F93CF93DF93F7
:104DB00000D01F92CDB7DEB769837A838B839C8343
:104DC0006A017901BFB6F8948091DC2D883008F033
:104DD00051C04091AA30842F90E00196877090785E
:104DE000582F481799F199279C01220F331FF90179
:104DF000EE0FFF1FEE0FFF1FEE0FFF1FE21BF30B67
:104E0000E555FF4C20853185232BA1F41FC0992740
:104E10009C01220F331FF901EE0FFF1FEE0FFF1F42
:104E2000EE0FFF1FE21BF30BE555FF4C208531858C
:104E3000232B61F0019687709078992324F40197D1
:104E4000886F9F6F0196582F4813E1CF5093AA3077
:104E5000852F90E0880F991F8C01000F111F000F04
:104E6000111F000F111F081B190B05551F4C0115B1
:104E7000110521F4BFBE80E090E040C00E949B027B
:104E800049805A806B807C80DC01CB01840D951DAC
:104E9000A61DB71DF80180839183A283B3830E946E
:104EA0009B02623071058105910560F4F8018081F3
:104EB0009181A281B3810A96A11DB11D8083918346
:104EC000A283B383F801E286F386C086D18614827A
:104ED00015821682178214861586BFBEC801F4DDBE
:104EE000F801848595858017910731F483E495E274
:104EF0000E94884190DD02C0802F912F2496CDBF63
:104F0000DEBFDF91CF911F910F91FF90EF90DF9067
:104F1000CF90BF907F906F905F904F900895CF9209
:104F2000DF92EF92FF920F931F93CF93DF936B016A
:104F30007C018A01E9010E949B026C0D7D1D8E1D82
:104F40009F1D9E01A80127DFFC01C482D582E68255
:104F5000F782DF91CF911F910F91FF90EF90DF903B
:104F6000CF9008951FB7F89488C0C091D32FD091E7
:104F7000D42F8C859D858093D32F9093D42F7894B4
:104F8000E885F9858A859B851995F8944C815D8122
:104F90006E817F81452B462B472BD1F00E949B02CF
:104FA000CC80DD80EE80FF80DC01CB018C0D9D1D6F
:104FB000AE1DBF1D88839983AA83BB831C861D8673
:104FC0008091DC2D81508093DC2DCE017DDD55C09C
:104FD0008091AA3090E09C01220F331FA901440F59
:104FE000551F440F551F440F551FBA01621B730B09
:104FF0009B0125553F4CC217D30709F59C01220F91
:10500000331FF901EE0FFF1FEE0FFF1FEE0FFF1F03
:10501000E21BF30BE555FF4C10861186079687704F
:105020009078992324F40197886F9F6F019680935D
:10503000AA308091DC2D81508093DC2D1EC0079614
:1050400087709078992324F40197886F9F6F019659
:1050500099279C01220F331FA901440F551F440FAC
:10506000551F440F551FBA01621B730B9B01255539
:105070003F4CC217D30719F7C1CFE091D32FF0915E
:10508000D42F309709F451C0C080D180E280F380E2
:105090000E949B02DC01CB010296A11DB11D8C1563
:1050A0009D05AE05BF0508F060CFE091D32FF091CC
:1050B000D42F3097D1F1C080D180E280F3800E945C
:1050C0009B02C616D706E806F90610F4DDDD32C0ED
:1050D000E091D32FF091D42F309739F180819181D5
:1050E000A281B3814091A12C5091A22CE0E0F4E088
:1050F000C284D38460E070E0BA0155274427E12CD4
:10510000F12C4C295D296E297F29481759076A0718
:105110007B0758F0218120FDFDCFE0E0F4E084879B
:10512000958782818860828305C0E0E0F4E0828117
:10513000877F82831FBF0C9473021F920F920FB65A
:105140000F9211240BB60F92CF92DF92EF92FF9243
:105150002F933F934F935F936F937F938F939F937F
:10516000AF93BF93CF93EF93FF93CFB7F894809112
:10517000A12C9091A22C01968093A12C9093A22C0B
:10518000E091D32FF091D42F309709F450C0C08014
:10519000D180E280F3808091A12C9091A22CE0E05C
:1051A000F4E042855385A0E0B0E0DC019927882730
:1051B00060E070E0842B952BA62BB72BC816D90680
:1051C000EA06FB06A0F50E949B02C616D706E80673
:1051D000F90610F459DD2BC0E091D32FF091D42FB4
:1051E000C080D180E280F3800E949B02DC01CB0171
:1051F0000296A11DB11D8C159D05AE05BF0598F445
:10520000E0E0F4E0818180FDFDCFE091D32FF091CB
:10521000D42F80819181E0E0F4E0848795878281BA
:105220008860828302C00C944502CFBF01C0CFBF0B
:10523000FF91EF91CF91BF91AF919F918F917F910E
:105240006F915F914F913F912F91FF90EF90DF9081
:10525000CF900F900BBE0F900FBE0F901F90189520
:105260000895FC0180819181A281B381AD016627FF
:105270007727642F0C9412200895EF92FF920F93DA
:105280001F93CF93DF930E94A810C0E0D0E090E07E
:10529000082F10E00F2EF8E6EF2EF5E2FF2EF02D8E
:1052A00098010C2E02C0359527950A94E2F720FF4D
:1052B0000BC0DF93CF93FF92EF920E9477410F9044
:1052C0000F900F900F9091E02196C630D10541F7D5
:1052D000911108C08DE695E29F938F930E947741CC
:1052E0000F900F908FE69CE20E948841DF91CF9152
:1052F0001F910F91FF90EF900895FF920F931F93CE
:10530000CF93DF931F921F92CDB7DEB720E230E03C
:1053100029833A83BE016F5F7F4F0E94D140FC0119
:10532000F080BE016F5F7F4F80E090E00E94D1402F
:105330000E94C93F8C01009701F1F0EDFF0E48EC8F
:1053400060E080E00E948A201F930F931F92FF92DB
:1053500022E735E23F932F930E947741B8018F2DCA
:105360000E94E61140E060E080E00E948A200F90F9
:105370000F900F900F900F900F900F900F90DF9164
:10538000CF911F910F91FF9008951F93CF93DF93BB
:105390001F921F92CDB7DEB720E230E029833A8317
:1053A000BE016F5F7F4F0E94D140FC0110811053FE
:1053B000BE016F5F7F4F80E090E00E94D1400E946D
:1053C000C93FBC01812F0E94A1130F900F90DF9164
:1053D000CF911F910895CF93DF9300D0CDB7DEB763
:1053E000AE014D5F5F4FBE016E5F7F4FCE010196F4
:1053F00053D98B811F928F938A811F928F938981BA
:105400001F928F9384E995E29F938F930E94774137
:10541000CDBFDEBF2396CDBFDEBFDF91CF91089514
:10542000CF93DF931F921F92CDB7DEB720E230E01B
:1054300029833A83BE016F5F7F4F0E94D1400E9453
:10544000C93F0E94B8040F900F90DF91CF9108954B
:1054500040E060E084EB0E948A2080E090E00E94BF
:10546000B71140E060E080E00C948A2008950F932B
:105470001F93CF93DF931F921F92CDB7DEB720E229
:1054800030E029833A83BE016F5F7F4F0E94D14095
:10549000009729F48DEA95E20E94884179C00E9424
:1054A000C93F8C01883070F011271F930F9381ED55
:1054B00095E29F938F930E9477410F900F900F90EA
:1054C0000F9066C0BE016F5F7F4F80E090E00E944A
:1054D000D140009729F48DEE95E20E94884158C092
:1054E00011270E94C93FF801EE0FFF1FE00FF11FC7
:1054F000EE0FFF1FE556F04D80839183BE016F5F75
:105500007F4F80E090E00E94D140009729F481E134
:1055100096E20E9488413CC00E94C93FF801EE0F0C
:10552000FF1FE00FF11FEE0FFF1FE556F04D8283C6
:105530009383BE016F5F7F4F80E090E00E94D14077
:10554000009729F486E396E20E94884121C00E94D8
:10555000C93FF801EE0FFF1FE00FF11FEE0FFF1F15
:10556000E556F04D848395839F938F9383818F932A
:1055700082818F9381818F9380818F931F930F936B
:105580008AE596E29F938F930E947741CDBFDEBF5D
:105590000F900F90DF91CF911F910F9108951F935E
:1055A000CF93DF931F921F92CDB7DEB720E230E09A
:1055B00029833A83BE016F5F7F4F0E94D140FC0177
:1055C00010811053BE016F5F7F4F80E090E00E941A
:1055D000D1400E94C93FBC01812F0E94EE130F9061
:1055E0000F90DF91CF911F91089520E030E040E1CE
:1055F0005AE165E070E080E090E0CDCB08950F9334
:105600001F93CF93DF9300D000D0CDB7DEB720E259
:1056100030E029833A83BE016F5F7F4F0E94D14003
:105620000E94C93F8C01BE016F5F7F4F80E090E018
:105630000E94D1400E94C93FA80160E070E0682B41
:105640004B835C836D837E839E012D5F3F4F41E3DF
:1056500059E265E070E080E090E09DDB2696CDBFEA
:10566000DEBFDF91CF911F910F9108950F931F938C
:10567000CF93DF93EC010E949B020091CB2F1091FE
:10568000CC2F2091CD2F3091CE2FAB01BC01401BF0
:10569000510B620B730B4A5F5F4F6F4F7F4F4D355E
:1056A00051056105710528F48DE590E0841B950B8B
:1056B000B3D888818E5F0E94D119DF91CF911F915D
:1056C0000F9108950F931F930E949B020091CB2F7F
:1056D0001091CC2F2091CD2F3091CE2FAB01BC015A
:1056E000401B510B620B730B4B5F5F4F6F4F7F4F34
:1056F0004D3551056105710528F48DE590E0841B59
:10570000950B8AD80E942F181092FE2D1F910F9191
:1057100008956F927F928F929F92AF92BF92CF9295
:10572000DF92EF92FF920F931F93CF93DF931F921D
:105730001F92CDB7DEB7782E692E80E290E0898384
:105740009A83BE016F5F7F4F872D962D0E94D140B7
:105750007C01FC0101900020E9F731976F01C81A24
:10576000D90A68E976E20E94DD40892B21F01C14F9
:105770001D0424F15CC0BE016F5F7F4F80E090E0AC
:105780000E94D1400E94C93F8C01BE016F5F7F4FD4
:1057900080E090E00E94D1400E94C93FF82EBE01F7
:1057A0006F5F7F4F80E090E00E94D1400E94C93F30
:1057B000482F6F2DC8010E941C2251C000E010E04C
:1057C0000F2EF0E4AF2EF9E0BF2EF02D0F2EF0E4F7
:1057D0008F2EFAE09F2EF02DBE016F5F7F4F80E08D
:1057E00090E00E94D140F70121917F01223739F4E6
:1057F0000E94C93F9927F40182AF93AF12C02736A8
:1058000039F40E94C93F9927F40180AF91AF09C0D4
:10581000223669F40E94C93F9C013327F50120AF6D
:1058200031AF0F5F1F4FC016D106B1F618C06F928F
:105830007F928CE996E29F938F930E94774187EE47
:1058400096E20E9488418AE297E20E94884180E7BE
:1058500097E20E9488410F900F900F900F900F9049
:105860000F90DF91CF911F910F91FF90EF90DF90FC
:10587000CF90BF90AF909F908F907F906F90089542
:1058800020E030E040E359E265E070E080E090E045
:1058900082CA08958091752C8F938091742C8F9378
:1058A0008EE997E29F938F930E9477410F900F901C
:1058B0000F900F900895CF93DF93D82FC92FE82F23
:1058C000F92FDF010D900020E9F71197AE1BBF0BF8
:1058D000BF93AF939F938F932FEA37E23F932F931A
:1058E0000E947741ED2FFC2FDF010D900020E9F79A
:1058F0001197AD014E1B5F0B6D2F7C2F8FE30E9424
:105900000F0C0F900F900F900F900F900F90DF9152
:10591000CF910895CF92DF92EF92FF920F931F9352
:10592000CF93DF93CDB7DEB7A597CDBFDEBF8C0198
:1059300063EC7AE20E94ED407C01FF24A701B801EC
:10594000CE0101960E94FC408FEFE81AF80AB801D8
:105950006E0D7F1D8E010A5F1F4FC8010E94E64039
:1059600040E150E060E070E0CE0101960E94B83E58
:105970006B017C01F80101900020E9F73197E01BF1
:10598000F10BFF93EF931F930F938BED97E29F9390
:105990008F930E947741F80101900020E9F7319739
:1059A000AF01401B510B9601B8018FE30E94CC0B55
:1059B0000F900F900F900F900F900F90A596CDBF66
:1059C000DEBFDF91CF911F910F91FF90EF90DF909D
:1059D000CF900895FC0180818823E1F0DF010D90D4
:1059E0000020E9F71197AE1BBF0BA132B105A0F063
:1059F0001F9280E28F93BF93AF938DE098E29F93C5
:105A00008F930E9477410F900F900F900F900F90FF
:105A10000F900895ECEFF7E2DF010D900020E9F719
:105A20001197AD014E1B5F0BBF018FE30C94940CDB
:105A30000895EF92FF920F931F93CF93DF93CDB70B
:105A4000DEB7A597CDBFDEBF8C0163EC7AE20E9482
:105A5000ED407C01FF24A701B801CE0101960E9410
:105A6000FC40B8016E0D7F1D8E010A5F1F4FC801FB
:105A70000E94E64040E150E060E070E0CE01019617
:105A80000E94B83EF80101900020E9F73197AF017C
:105A9000401B510B9B01B8018FE30E94540CA5964B
:105AA000CDBFDEBFDF91CF911F910F91FF90EF909F
:105AB00008950F931F93CF93DF936115710579F1CB
:105AC000FC011081112371F1DC011196680F791F1F
:105AD00001E0E0E0F0E003C01D911123E1F010329D
