:10000000B9C10000D7C10000D5C10000D3C10000B4
:10001000D1C10000CFC10000CDC10000CBC10000A4
:10002000C9C10000C7C100000C947827C4C10000FA
:10003000C1C10000BFC10000BDC10000BBC10000C4
:10004000B9C10000B7C10000B5C10000B3C10000D4
:10005000B1C10000AFC10000ADC10000ABC10000E4
:10006000A9C100000C94D90C0C94290D0C94010D1D
:100070000C94510D0C94A10D0C94790D9BC10000B2
:1000800099C1000097C1000095C1000093C1000014
:1000900091C100008FC100008DC100008BC1000024
:1000A00089C1000087C1000085C1000083C1000034
:1000B00081C100007FC100009DC300007BC1000022
:1000C00079C1000077C1000075C1000073C1000054
:1000D00071C100006FC100006DC100006BC1000064
:1000E00069C1000067C100000C94410E0C94910E90
:1000F0000C94690E0C94B90E0C94090F0C94E10E3B
:1001000059C1000057C1000055C1000053C1000093
:1001100051C100004FC100004DC100004BC10000A3
:1001200049C1000047C1000045C1000043C10000B3
:1001300041C100003FC100003DC100003BC10000C3
:1001400039C1000037C1000035C1000033C10000D3
:1001500031C100002FC100002DC100002BC10000E3
:100160000C94C90D0C94190E0C94F10D0C94F81507
:1001700021C100001FC100001DC100001BC1000003
:1001800019C1000017C1000015C1000013C1000013
:1001900011C100000FC100000DC100000BC1000023
:1001A00009C1000007C1000005C1000003C1000033
:1001B00001C10000FFC00000FDC00000FBC0000046
:1001C000F9C00000F7C00000F5C00000F3C0000057
:1001D000F1C00000EFC00000EDC000000C94310F32
:1001E0000C94810F0C94590FE5C00000E3C000008F
:1001F000E1C00000DFC00000DDC0000015041B04EA
:10020000200427042C0433043804B208C208D70899
:100210001E092E093F094F09CF0ADF0A980AAF0AC3
:10022000BF0AEF0AFF0A084AD73B3BCE016E84BCE7
:10023000BFFDC12F3D6C74319ABD56833DDA3D0040
:10024000C77F11BED9E4BB4C3E916BAAAABE000089
:1002500000803F05A84CCDB2D44EB93836A9020C67
:1002600050B9918688083CA6AAAA2ABE0000008040
:100270003F006E616E00696E660000407A10F35AAE
:1002800000A0724E18090010A5D4E80000E87648D6
:10029000170000E40B54020000CA9A3B000000E182
:1002A000F505000080969800000040420F00000015
:1002B000A08601000000102700000000E8030000F5
:1002C00000006400000000000A00000000000100BF
:1002D000000000002C76D888DC674F0823DFC1DFE0
:1002E000AE59E1B1B796E5E3E453C63AE6519976E3
:1002F00096E8E6C28426EB898C9B62ED407C6FFC1D
:10030000EFBC9C9F40F2BAA56FA5F490055A2AF75E
:100310005C936B6CF9676DC11BFCE0E40D47FEF567
:1003200020E6B500D0ED902E0300943577050080CF
:10033000841E080000204E0A000000C80C3333332E
:10034000330F986E12831141EF8D2114893BE655CE
:1003500016CFFEE6DB18D1844B381BF77C1D901DB1
:10036000A4BBE424203284725E228100C9F124EC13
:10037000A1E53D2711241FBECFEFCDBFDFE3DEBFD8
:1003800000E00CBF18E2A0E0B0E2E6EEF8E700E023
:100390000BBF02C007900D92A236B107D9F72DE22C
:1003A000A2E6B8E201C01D92A731B207E1F7B0D1D1
:1003B0000C94713C25CE0F921F922F923F924F9238
:1003C0005F926F927F928F929F92AF92BF92CF92E5
:1003D000DF92EF92FF920F931F932F933F934F93D0
:1003E0005F936F937F938F939F93AF93BF93CF93BD
:1003F000DF93EF93FF930FB70F93E0ECF6E200E08B
:10040000EF93FF930F9380915D29839580935D29EE
:10041000189580915D298A9580935D290F910FBF72
:10042000FF91EF91DF91CF91BF91AF919F918F910C
:100430007F916F915F914F913F912F911F910F91FC
:10044000FF90EF90DF90CF90BF90AF909F908F90F4
:100450007F906F905F904F903F902F901F900F90E4
:1004600008950FB6F8946091080470910904809182
:100470007D2890917E280FBE0895BF92CF92DF9283
:10048000EF92FF920F931F93CF93DF93CDB7DEB719
:100490006B97CDBFDEBFCE010B968F83988780917F
:1004A0007C28882349F086E08093572910927C2885
:1004B0008CED90E20E94A83B80915729882309F493
:1004C0004DC0E0905729BFB6F894EA94F12C67012B
:1004D000CC0CDD1C86010E0D1F1D000F111F000F1F
:1004E000111F000F111F0D53174DF801478950E0E0
:1004F000B6016E0D7F1D660F771F660F771F660FA3
:10050000771F6753774D8F8198850E94F43AF801E1
:100510008789EF81F885E80FF11D1082F80180814D
:100520009181A281B38189839A83AB83BC838481C7
:1005300095818D839E8386898987F80187898A873B
:1005400080915729815080935729BFBECE010196D3
:100550000E948530809157298111B3CF6B96CDBF12
:10056000DEBFDF91CF911F910F91FF90EF90DF9051
:10057000CF90BF900895CF93DF93CDB7DEB7C0542F
:10058000D109CDBFDEBF82E08093CA0180E4ECE9EF
:10059000F0E2DE01119601900D928A95E1F7AE012D
:1005A0004F5F5F4FBE016F5B7F4F20E030E0FA018D
:1005B00081919191A191B191AF01ABBFFC01879164
:1005C00096912827822F82958227082E86958695D8
:1005D0008025082E869580258770022E232F8695EC
:1005E00007948795302D282706948795302528274E
:1005F0004617570709F0DBCF1092CA0120936428F1
:1006000030936528C05CDF4FCDBFDEBFDF91CF9157
:100610000895E0EAF0E082818160828382818260D5
:1006200082838281846082837894089540E060E0D0
:1006300084E60E94DC2084E690E00E94732440E07F
:1006400064E680E00E94DC2084E690E00E9473244F
:1006500044E660E080E00E94DC2084E690E00E94B6
:1006600073240E94D12040E060E084E60E94DC20F8
:1006700084E690E00E94732440E064E680E00E94FB
:10068000DC2084E690E00E94732444E660E080E091
:100690000E94DC2084E690E00E9473240E94D12016
:1006A00040E060E084E60E94DC2084E690E00E9466
:1006B000732440E064E680E00E94DC2084E690E061
:1006C0000E94732444E660E080E00E94DC2084E61F
:1006D00090E00E9473240C94D12008950E944C2431
:1006E0004ADF0E941A240E9437150E949A200E9415
:1006F00031230E9443160E94461668D027D30E94D9
:1007000050100E9440140E94841683DF8FCF0895FA
:10071000E5DF0E9438300E947F30AFDEFCCF88EDED
:1007200084BF81E0E8E7F0E081830895E0ECF1E048
:1007300087858823ECF30895F9DFE0ECF1E0878505
:1007400081FF0AC086E38287EBECF1E021E030E034
:1007500088ED90E084BF20830895CF93DF93D82F56
:10076000C92FE4DFE0ECF1E0D083CF71C1831282C6
:1007700086E08287EBECF1E021E030E088ED90E06C
:1007800084BF2083E0ECF1E08481DF91CF91089574
:100790001F93CF93DF93182FD92FC62FCDDFE0EC17
:1007A000F1E083E382871083DF71D1831282C483F7
:1007B00085E38287EBECF1E021E030E088ED90E02A
:1007C00084BF2083DF91CF911F91089510927D29DE
:1007D00010927A2810927B2883E0E0E8F6E081838B
:1007E00088EB8093A10483E28093A50481E0809349
:1007F000A40408951F920F920FB60F9211240BB606
:100800000F925F936F937F938F939F93AF93BF9359
:10081000EF93FF9380917D2990E08730910558F503
:10082000FC01E250FF4F0C94C33880917B2881700B
:100830008093A70420C080917A288093A7041BC0CE
:1008400080917B28817080618093A70414C080917F
:100850007A288093A7040FC080917B2881708066DE
:100860008093A70408C080917A288093A70403C0CE
:1008700083E08093A30480917D2990E0019667E056
:1008800070E00E94B03880937D29FF91EF91BF9175
:10089000AF919F918F917F916F915F910F900BBE60
:1008A0000F900FBE0F901F90189580937A28909309
:1008B0007B2888E58093A6048FE795E20197F1F7FE
:1008C00000C000008CE58093A6048FE795E20197B5
:1008D000F1F700C0000008954F925F926F927F92EF
:1008E0008F929F92AF92BF92CF92DF92EF92FF9240
:1008F0000F931F93CF93DF93CDB7DEB72C97CDBF68
:10090000DEBFFE0131968CE0DF011D928A95E9F78A
:100910000F2EF6E0AF2EF0E2BF2EF02D0F2EFAEFE5
:100920008F2EF9E29F2EF02D6F0155245A94E12C61
:10093000F12C772473944FB6F8948701F701EE0FEA
:10094000FF1FE295F295F07FFE27E07FFE27EA5039
:10095000F64D878D81FF80C16E2C552D55200CF4EE
:1009600097C140E0F701EE0FFF1FE295F295F07F8F
:10097000FE27E07FFE27E65FF54D80819181A52F60
:10098000AA0FBB0B21E030E02C0F3D1FA20FB31FBD
:100990002D913C912817390709F4472D51506AF7DA
:1009A000F801EE0FFF1FE295F295F07FFE27E07F42
:1009B000FE27EA50F64D84899589D6018D939C9344
:1009C0004423F1F0F801EE0FFF1FE295F295F07F5E
:1009D000FE27E07FFE27EA50F64D148A158A168A14
:1009E000178A108E118E128E138E148E158E168EFF
:1009F000178ED501ED91FC918481806184832CC197
:100A0000F801EE0FFF1FE295F295F07FFE27E07FE1
:100A1000FE27EA50F64D878D83FF62C08F01468D19
:100A200050E0B40180EF9AE20E94F43AD8015E9659
:100A3000EC915E97F0E0E051F54D10825E968C915E
:100A40005E9790E08093ED2A9093EE2A8D919D9190
:100A50000D90BC91A02D8093E72A9093E82AA09353
:100A6000E92AB093EA2AF801868997898093552963
:100A700090935629F5E0F61540F1862D90E0FC01A3
:100A8000EE0FFF1FE295F295F07FFE27E07FFE2735
:100A9000EA50F64D148A158A168A178A108E118E1E
:100AA000128E138E148E158E168E178EFC01EE0F7D
:100AB000FF1FEA5FFF4D0190F081E02D848180618E
:100AC0008483639426E06212D8CF20E030E04DE6C4
:100AD00056E065E070E080E090E00E949924BCC0A0
:100AE00080915729863020F070927C2810925729E7
:100AF000000F111F02951295107F1027007F1027FD
:100B00000A50164DD8015E964C918091572990E07D
:100B10009C01220F331F820F931F880F991F880F8C
:100B2000991F880F991F50E0B4018753974D0E9479
:100B3000F43A8091572990E0F801268DFC01EE0FE0
:100B4000FF1F8E0F9F1FFC01EE0FFF1FEE0FFF1FF9
:100B5000EE0FFF1FED53F74DE20FF11D168280914E
:100B6000572990E0D8014D915D916D917C9113973B
:100B70009C01220F331F820F931FFC01EE0FFF1FFA
:100B8000EE0FFF1FEE0FFF1FED53F74D4083518314
:100B9000628373838091572990E0FC01EE0FFF1F61
:100BA0008E0F9F1FFC01EE0FFF1FEE0FFF1FEE0FBA
:100BB000FF1FED53F74D668A8091572990E05696B6
:100BC0002D913C915797FC01EE0FFF1F8E0F9F1F39
:100BD000FC01EE0FFF1FEE0FFF1FEE0FFF1FED5387
:100BE000F74D248335838091572990E05E962C91B0
:100BF0005E97FC01EE0FFF1F8E0F9F1FFC01EE0F93
:100C0000FF1FEE0FFF1FEE0FFF1FED53F74D278B5A
:100C1000809157298F5F8093572954961D921C927B
:100C2000559756961D921C92579758961D921C9256
:100C300059975A961D921C925B975C961D921C9236
:100C40005D975E961C925E975F961C92D501ED9122
:100C5000FC918481806184834FBEBFEFEB1AFB0A55
:100C6000E2E0AE0EB11CF0E28F0E911C22E0C20E4B
:100C7000D11C539435E053125ECE20E030E04CE6B8
:100C800054E062E370E080E090E00E94992411C09B
:100C9000F701EE0FFF1FE295F295F07FFE27E07F50
:100CA000FE27EA50F64D84899589D6018D939C9351
:100CB000A7CE2C96CDBFDEBFDF91CF911F910F91B4
:100CC000FF90EF90DF90CF90BF90AF909F908F906C
:100CD0007F906F905F904F900895DF92EF92FF9218
:100CE0000F931F93CF93DF93CDB7DEB7EDB6FEB66C
:100CF0008091ED2A9091EE2A01962DB73EB7281BE0
:100D0000390B2DBF3EBF0DB71EB70F5F1F4FDFB6AC
:100D1000F8944091ED2A5091EE2A4F5F5F4F60EFBB
:100D20007AE2C8010E94F43A6091ED2A7091EE2AAD
:100D3000DFBEC8010E946A2CEDBEFEBEDF91CF91DE
:100D40001F910F91FF90EF90DF900895CF93DF9365
:100D5000A0EAB6E083EF11968C931197E0E0FBE0F8
:100D600082E0848380818360808383ED87A386A370
:100D700089E681A783A785A787A780A782A7C0E464
:100D8000D6E034E43A8380E696E024E0FC01228356
:100D900040E856E0FA01328312962C93129738E815
:100DA000398328E0FC012183FA01318311962C93C9
:100DB000119720E42B8B2F8BFC01238BFA01238BC3
:100DC000278B53962C9382E190E2E6E0F0E268E212
:100DD00053E040E732E0A081B18113966C93A0818B
:100DE000B18115965C93A081B18116964C93A08138
:100DF000B18117963C93A081B18114962C911497E0
:100E0000206114962C93A191B19114962C91149772
:100E1000286014962C93E817F907E9F680E091E032
:100E200044DDA6E0B0E280E090E0FC01EE0FFF1FA1
:100E3000E295F295F07FFE27E07FFE27EA50F64D1F
:100E4000148A158A168A178A108E118E128E138EA6
:100E5000148E158E168E178EED91FD9124812061D2
:100E6000248301968630910501F71092E72A1092AB
:100E7000E82A1092E92A1092EA2A10925729109231
:100E80007C2820E030E04CE654E062E370E080E053
:100E900090E00E949924DF91CF9108955F926F9224
:100EA0007F928F929F92AF92BF92CF92DF92EF92FA
:100EB000FF920F931F93CF93DF93662E572E742EBE
:100EC000C0916428D0916528E82EF12C80FD0DC0DA
:100ED00081E090E0AC019701082E02C0359527957E
:100EE0000A94E2F720FF2AC002C040E050E0FA0175
:100EF000EE0FFF1FE295F295F07FFE27E07FFE27C1
:100F0000EA50F64D878D8870C8278C2F82958C27E4
:100F1000082E869586958025082E869580258770D3
:100F20000C2ECD2F869507948795D02DC827069433
:100F30008795D025C827711007C087C001968630D5
:100F4000910509F0C7CFF7CF962DE62DF52D8191AC
:100F5000C8278C2F82958C27082E8695869580250C
:100F6000082E8695802587700C2ECD2F86950794A8
:100F70008795D02DC82706948795D025C8278E2F12
:100F8000891B871520F361C0C701002E02C095950B
:100F900087950A94E2F780FF25C0F801EE0FFF1F46
:100FA000E295F295F07FFE27E07FFE27EA50F64DAE
:100FB000768EC48BD58B128E138E8091642890917F
:100FC0006528868B978BA501662D752DC4010E941F
:100FD000F43AF6019181F801E050F04E8081892BBE
:100FE000F60181830F5F1F4FF0E28F0E911C0630D8
:100FF000110551F6E6E0F0E280E090E09701082E5E
:1010000002C0359527950A94E2F720FF18C0DC014D
:10101000AA0FBB1FA295B295B07FBA27A07FBA27AF
:10102000AA50B64D1D921D921D921C921397A0813D
:10103000B18113962C911397226013962C930196ED
:10104000329686309105D1F610C00F2EFAEF8F2E12
:10105000F9E29F2EF02D00E010E0A72CB12C0F2E0E
:10106000C12CFBE0DF2EF02D8FCFDF91CF911F91B0
:101070000F91FF90EF90DF90CF90BF90AF909F9037
:101080008F907F906F905F900895AF92BF92CF92B4
:10109000DF92FF920F931F93CF93DF93C82FD0E07F
:1010A000FE01EE0FFF1FEA5FFF4D0190F081E02D82
:1010B000F080D7D9FE01EE0FFF1FE295F295F07F89
:1010C000FE27E07FFE27EA50F64D00811181228144
:1010D00033815B016C01A01AB10AC20AD30A9601DE
:1010E0008501053111052105310510F1FE01EE0FD5
:1010F000FF1FE295F295F07FFE27E07FFE27EA5082
:10110000F64D148A158A168A178A108E118E128E41
:10111000138E148E158E168E178EFE01EE0FFF1F86
:10112000EA5FFF4D0190F081E02D2481206124834E
:10113000FE01EE0FFF1FE295F295F07FFE27E07FA4
:10114000FE27EA50F64D6083718382839383828DFC
:10115000938D8730910508F0B3C0FC01EB5FFE4F23
:101160000C94C3388F2D90E0FE01EE0FFF1FE29527
:10117000F295F07FFE27E07FFE27EA50F64D868B42
:10118000978BD6C0FE01EE0FFF1FE295F295F07F20
:10119000FE27E07FFE27EA50F64D868997899F2932
:1011A000868B978B86899789848F958FC1C0FF2006
:1011B00074F4FE01EE0FFF1FE295F295F07FFE271B
:1011C000E07FFE27EA50F64D878D8860878FFE010D
:1011D000EE0FFF1FE295F295F07FFE27E07FFE27DE
:1011E000EA50F64D278D848D958D28708227282F03
:1011F00022952827022E269526952025022E269513
:1012000020252770082E892F269507942795902D45
:1012100082270694279590258227FE01EE0FFF1F57
:10122000E295F295F07FFE27E07FFE27EA50F64D2B
:10123000848F958F8F2D8F77868F7AC08F2D90E03A
:10124000FE01EE0FFF1FE295F295F07FFE27E07F93
:10125000FE27EA50F64D848B958B6AC0FE01EE0F97
:10126000FF1FE295F295F07FFE27E07FFE27EA5010
:10127000F64D848995899F29848B958B59C08F2D34
:1012800090E0FE01EE0FFF1FE295F295F07FFE2742
:10129000E07FFE27EA50F64D808F918F49C0FE0116
:1012A000EE0FFF1FE295F295F07FFE27E07FFE270D
:1012B000EA50F64D808D918D9F29808F918F38C097
:1012C000FE01EE0FFF1FE295F295F07FFE27E07F13
:1012D000FE27EA50F64DA28DB38D1797AE0FBF1FB4
:1012E0001496FC92848D958D8F25282F2295282782
:1012F000022E269526952025022E2695202527703C
:10130000082E892F269507942795902D82270694DD
:10131000279590258227FE01EE0FFF1FE295F2959B
:10132000F07FFE27E07FFE27EA50F64D848F958FF1
:10133000FE01EE0FFF1FE295F295F07FFE27E07FA2
:10134000FE27EA50F64D828D938D0196828F938F02
:10135000228D338D868D90E007962817390708F483
:10136000C6C0FE01EE0FFF1FE295F295F07FFE274B
:10137000E07FFE27EA50F64D248D358D84899589CE
:101380002817390709F1FE01EE0FFF1FE295F295CC
:10139000F07FFE27E07FFE27EA50F64D148A158A7B
:1013A000168A178A108E118E128E138E148E158E39
:1013B000168E178ECC0FDD1FCA5FDF4DE881F981D5
:1013C00084818061848393C0FE01EE0FFF1FE2954C
:1013D000F295F07FFE27E07FFE27EA50F64D808DE4
:1013E000918D892BA9F1FE01EE0FFF1FE295F29579
:1013F000F07FFE27E07FFE27EA50F64D208D318DED
:1014000080916428909165282817390709F1FE0119
:10141000EE0FFF1FE295F295F07FFE27E07FFE279B
:10142000EA50F64D148A158A168A178A108E118E84
:10143000128E138E148E158E168E178ECC0FDD1F06
:10144000CA5FDF4DE881F9818481806184834FC068
:10145000FE01EE0FFF1FE295F295F07FFE27E07F81
:10146000FE27EA50F64D26893789809164289091AD
:1014700065282817390709F5FE01EE0FFF1FE295D1
:10148000F295F07FFE27E07FFE27EA50F64D148AA2
:10149000158A168A178A108E118E128E138E148E4C
:1014A000158E168E178ECC0FDD1FCA5FDF4DE881BB
:1014B000F9818481806184831AC0FE01EE0FFF1FD1
:1014C000E295F295F07FFE27E07FFE27EA50F64D89
:1014D000878D8260878F878D8160878FCC0FDD1F1E
:1014E000CA5FDF4DE881F98184818F7E8483DF913B
:1014F000CF911F910F91FF90DF90CF90BF90AF9051
:10150000089590E0FC01EE0FFF1FE295F295F07F49
:10151000FE27E07FFE27EA50F64D228D338D2730DF
:10152000310508F07CC0F901E45FFE4F0C94C3382C
:10153000FC01EE0FFF1FE295F295F07FFE27E07FA2
:10154000FE27EA50F64D268D2093EF2A278D23FFA4
:101550007AC02091EF2A20682093EF2A74C0FC0102
:10156000EE0FFF1FE295F295F07FFE27E07FFE274A
:10157000EA50F64D248935892093EF2A64C0FC0196
:10158000EE0FFF1FE295F295F07FFE27E07FFE272A
:10159000EA50F64D248935893093EF2A54C0FC0176
:1015A000EE0FFF1FE295F295F07FFE27E07FFE270A
:1015B000EA50F64D268937892093EF2A44C0FC0172
:1015C000EE0FFF1FE295F295F07FFE27E07FFE27EA
:1015D000EA50F64D268937893093EF2A34C0FC0152
:1015E000EE0FFF1FE295F295F07FFE27E07FFE27CA
:1015F000EA50F64D208D318D2093EF2A24C0FC0156
:10160000EE0FFF1FE295F295F07FFE27E07FFE27A9
:10161000EA50F64D208D318D3093EF2A14C0FC0135
:10162000EE0FFF1FE295F295F07FFE27E07FFE2789
:10163000EA50F64D228D338D27503109E20FF31F0A
:1016400024812093EF2AFC01EE0FFF1FEA5FFF4D7C
:101650000190F081E02D2091EF2A2083FC01EE0F14
:10166000FF1FE295F295F07FFE27E07FFE27EA500C
:10167000F64D228D338D2F5F3F4F228F338F428D5A
:10168000538D268D30E0295F3F4F4217530750F1AD
:10169000FC01EE0FFF1FE295F295F07FFE27E07F41
:1016A000FE27EA50F64D148A158A168A178A108E7C
:1016B000118E128E138E148E158E168E178EFC01BF
:1016C000EE0FFF1FEA5FFF4DA081B18114968C9150
:1016D0001497806114968C930190F081E02D8381A2
:1016E0008C7F83830895E0E0FBE0318190E0DC01B2
:1016F000A050B04E2C91209523232183FC01EE0FA6
:10170000FF1FE295F295F07FFE27E07FFE27EA506B
:10171000F64D178E168E128E138E108E118E168A1F
:10172000178AFC01EE0FFF1FEA5FFF4DA081B18118
:1017300011968C911197806411968C930190F08191
:10174000E02D848180618483089560E0482F50E01B
:10175000262F30E0CA01062E02C0959587950A947F
:10176000E2F780FF0EC0F901EE0FFF1FE295F29540
:10177000F07FFE27E07FFE27EA50F64D878D8370CD
:1017800021F46F5F663020F3089560E0E1CFCF92DF
:10179000DF92EF92FF920F931F93CF93DF93D82E98
:1017A0007B01C42E8901D1DFA6E0B0E2E0E0F0E0E9
:1017B0002D2D30E091E0E9010E2E02C0D595C795A0
:1017C0000A94E2F7C0FF17C0CD91DC9111978C818C
:1017D0008F7E8C83EF01CC0FDD1FC295D295D07F19
:1017E000DC27C07FDC27CA50D64D9F8F8F8D886045
:1017F0008F8F088F198F31961296E630F105D9F642
:101800004C2DB7018D2D4ADBDF91CF911F910F91A8
:10181000FF90EF90DF90CF9008950F931F93CF9399
:10182000DF93182FEB01042F90DFE6E0F0E220E0D9
:1018300030E0612F70E091E0DB01022E02C0B5952F
:10184000A7950A94E2F7A0FF21C0A081B181149668
:101850008C9114978F7E14968C93D901AA0FBB1F7D
:10186000A295B295B07FBA27A07FBA27AA50B64DED
:101870005F969C935F975F968C915F9788605F9669
:101880008C935F9758961D921C9259972F5F3F4FEC
:1018900032962630310581F6402FBE01812FFEDAC7
:1018A000DF91CF911F910F910895CF92DF92EF9228
:1018B000FF920F931F93CF93DF93D82E7B01C42EFB
:1018C000890143DFA6E0B0E2E0E0F0E02D2D30E05A
:1018D00091E0E9010E2E02C0D595C7950A94E2F772
:1018E000C0FF14C0CD91DC9111978C818F7E8C83C9
:1018F000EF01CC0FDD1FC295D295D07FDC27C07FD2
:10190000DC27CA50D64D9F8F088F198F31961296BB
:10191000E630F105F1F64C2DB7018D2DBFDADF91E0
:10192000CF911F910F91FF90EF90DF90CF9008958E
:101930000F931F93CF93DF93182FEB01042F05DF35
:10194000E6E0F0E220E030E0612F70E091E0DB01C2
:10195000022E02C0B595A7950A94E2F7A0FF1AC01F
:10196000A081B18114968C9114978F7E14968C93DC
:10197000D901AA0FBB1FA295B295B07FBA27A07F4D
:10198000BA27AA50B64D5F969C935F9758961D92C2
:101990001C9259972F5F3F4F329626303105B9F68A
:1019A000402FBE01812F7ADADF91CF911F910F91E5
:1019B00008951F920F920FB60F9211240BB60F923B
:1019C0002F933F934F935F936F937F938F939F9347
:1019D000AF93BF93EF93FF9380E057DBFF91EF91BD
:1019E000BF91AF919F918F917F916F915F914F9137
:1019F0003F912F910F900BBE0F900FBE0F901F9035
:101A000018951F920F920FB60F9211240BB60F92DA
:101A10002F933F934F935F936F937F938F939F93F6
:101A2000AF93BF93EF93FF9380E05DDEFF91EF9163
:101A3000BF91AF919F918F917F916F915F914F91E6
:101A40003F912F910F900BBE0F900FBE0F901F90E4
:101A500018951F920F920FB60F9211240BB60F928A
:101A60002F933F934F935F936F937F938F939F93A6
:101A7000AF93BF93EF93FF9380E043DDFF91EF912E
:101A8000BF91AF919F918F917F916F915F914F9196
:101A90003F912F910F900BBE0F900FBE0F901F9094
:101AA00018951F920F920FB60F9211240BB60F923A
:101AB0002F933F934F935F936F937F938F939F9356
:101AC000AF93BF93EF93FF9381E0DFDAFF91EF9144
:101AD000BF91AF919F918F917F916F915F914F9146
:101AE0003F912F910F900BBE0F900FBE0F901F9044
:101AF00018951F920F920FB60F9211240BB60F92EA
:101B00002F933F934F935F936F937F938F939F9305
:101B1000AF93BF93EF93FF9381E0E5DDFF91EF91EA
:101B2000BF91AF919F918F917F916F915F914F91F5
:101B30003F912F910F900BBE0F900FBE0F901F90F3
:101B400018951F920F920FB60F9211240BB60F9299
:101B50002F933F934F935F936F937F938F939F93B5
:101B6000AF93BF93EF93FF9381E0CBDCFF91EF91B5
:101B7000BF91AF919F918F917F916F915F914F91A5
:101B80003F912F910F900BBE0F900FBE0F901F90A3
:101B900018951F920F920FB60F9211240BB60F9249
:101BA0002F933F934F935F936F937F938F939F9365
:101BB000AF93BF93EF93FF9382E067DAFF91EF91CA
:101BC000BF91AF919F918F917F916F915F914F9155
:101BD0003F912F910F900BBE0F900FBE0F901F9053
:101BE00018951F920F920FB60F9211240BB60F92F9
:101BF0002F933F934F935F936F937F938F939F9315
:101C0000AF93BF93EF93FF9382E06DDDFF91EF9170
:101C1000BF91AF919F918F917F916F915F914F9104
:101C20003F912F910F900BBE0F900FBE0F901F9002
:101C300018951F920F920FB60F9211240BB60F92A8
:101C40002F933F934F935F936F937F938F939F93C4
:101C5000AF93BF93EF93FF9382E053DCFF91EF913B
:101C6000BF91AF919F918F917F916F915F914F91B4
:101C70003F912F910F900BBE0F900FBE0F901F90B2
:101C800018951F920F920FB60F9211240BB60F9258
:101C90002F933F934F935F936F937F938F939F9374
:101CA000AF93BF93EF93FF9383E0EFD9FF91EF9151
:101CB000BF91AF919F918F917F916F915F914F9164
:101CC0003F912F910F900BBE0F900FBE0F901F9062
:101CD00018951F920F920FB60F9211240BB60F9208
:101CE0002F933F934F935F936F937F938F939F9324
:101CF000AF93BF93EF93FF9383E0F5DCFF91EF91F8
:101D0000BF91AF919F918F917F916F915F914F9113
:101D10003F912F910F900BBE0F900FBE0F901F9011
:101D200018951F920F920FB60F9211240BB60F92B7
:101D30002F933F934F935F936F937F938F939F93D3
:101D4000AF93BF93EF93FF9383E0DBDBFF91EF91C2
:101D5000BF91AF919F918F917F916F915F914F91C3
:101D60003F912F910F900BBE0F900FBE0F901F90C1
:101D700018951F920F920FB60F9211240BB60F9267
:101D80002F933F934F935F936F937F938F939F9383
:101D9000AF93BF93EF93FF9384E077D9FF91EF91D7
:101DA000BF91AF919F918F917F916F915F914F9173
:101DB0003F912F910F900BBE0F900FBE0F901F9071
:101DC00018951F920F920FB60F9211240BB60F9217
:101DD0002F933F934F935F936F937F938F939F9333
:101DE000AF93BF93EF93FF9384E07DDCFF91EF917E
:101DF000BF91AF919F918F917F916F915F914F9123
:101E00003F912F910F900BBE0F900FBE0F901F9020
:101E100018951F920F920FB60F9211240BB60F92C6
:101E20002F933F934F935F936F937F938F939F93E2
:101E3000AF93BF93EF93FF9384E063DBFF91EF9148
:101E4000BF91AF919F918F917F916F915F914F91D2
:101E50003F912F910F900BBE0F900FBE0F901F90D0
:101E600018951F920F920FB60F9211240BB60F9276
:101E70002F933F934F935F936F937F938F939F9392
:101E8000AF93BF93EF93FF9385E0FFD8FF91EF915E
:101E9000BF91AF919F918F917F916F915F914F9182
:101EA0003F912F910F900BBE0F900FBE0F901F9080
:101EB00018951F920F920FB60F9211240BB60F9226
:101EC0002F933F934F935F936F937F938F939F9342
:101ED000AF93BF93EF93FF9385E005DCFF91EF9104
:101EE000BF91AF919F918F917F916F915F914F9132
:101EF0003F912F910F900BBE0F900FBE0F901F9030
:101F000018951F920F920FB60F9211240BB60F92D5
:101F10002F933F934F935F936F937F938F939F93F1
:101F2000AF93BF93EF93FF9385E0EBDAFF91EF91CF
:101F3000BF91AF919F918F917F916F915F914F91E1
:101F40003F912F910F900BBE0F900FBE0F901F90DF
:101F500018951F93CF93DF93613021F4FC018081AA
:101F6000918151C0623049F5FC012081318182812B
:101F70009381820F931F99230CF401969595879571
:101F800042C012961F5F1617E9F0712FED01E72F7F
:101F9000F0E0EE0FFF1FE80FF91F408151812D91F6
:101FA0003C9111974217530724F4488359832083A7
:101FB00031837F5F7613EBCFE4CF662329F0DC011A
:101FC00010E0E0CF60FD15C06695E62FF0E0E1502F
:101FD000F048EE0FFF1FE80FF91F20813181828149
:101FE0009381820F931F99230CF401969595879501
:101FF0000AC06695262F30E0220F331FFC01E20F46
:10200000F31F80819181DF91CF911F9108950F93EC
:102010001F93CF93DF93CDB7DEB72A97CDBFDEBF37
:10202000E0E4F2E091A1977091A391A1082F10E054
:10203000D801AC5BBE4D8C91892B81A3DE0111963A
:10204000CE010B9651E020A1206820A323A12223DA
:10205000E9F345A124A130E0342B3595279535953A
:1020600027952D933D9353A3A817B90761F763E014
:10207000CE0105966EDFF801EE0FFF1FE259F64D17
:10208000208131818217930714F0821B01C080E008
:102090002A96CDBFDEBFDF91CF911F910F9108959A
:1020A000EF92FF920F931F93CF93DF938CEFE0E2B9
:1020B000F6E08283E0E4F2E0128280E1818387E04F
:1020C000848392E090A381A384B5848785B58587B6
:1020D00081E0808385E38A95F1F7000010926E29F4
:1020E00010926F2910927029109271291092722902
:1020F00010927329109274291092752910927629E2
:1021000010927729109278291092792985E090E031
:102110000E94732480E07BDFCEE6D9E2F12CEE242E
:10212000EA940FC08F2D73DF801708F4082F115029
:10213000C9F7202F30E029933993F39486E0F816FD
:1021400019F015E00E2DEECFDF91CF911F910F9179
:10215000FF90EF9008955F926F927F928F929F927F
:10216000AF92BF92CF92DF92EF92FF920F931F93A5
:10217000CF93DF93CDB7DEB76E97CDBFDEBF81E0E3
:102180008093152A8093352A8093552A8093752A47
:102190008093952A8093B52A60907A2870907B2846
:1021A00080E091E00E9455040F2EF2E1EF2EF0E264
:1021B000FF2EF02DCE010D96E6E0F0E24191519117
:1021C000DA0114962C91DC012D93CD01DA011496DD
:1021D0001C92EE15FF0591F78E010F5F1F4FB12C7A
:1021E0000F2EFFE8CF2EDD24D394F02DF60131978A
:1021F000F1F7000000C08B2D0ADF282F30E0F80136
:10220000219331938F01B394F6E0BF12EFCFE0E05A
:10221000FBE081818C708183E0EAF6E083EF8583C7
:1022200020E436E058E8D90111965C9380E696E008
:1022300048E0DC0111964C9360E876E0DB011196F2
:102240005C934183D90116965C93DC0116964C93FE
:10225000DB0116965C9346838FEC97E00197F1F7CC
:10226000000000C0E0E4F2E0808182608083FE0133
:1022700031966F0100E010E0512C0F2EFFECAF2ED5
:10228000F7E0BF2EF02D88248394912CC50101978F
:10229000F1F7000000C0802FBADE90E0F801EE0FE9
:1022A000FF1F21E030E02C0F3D1FE20FF31F828B58
:1022B000938B8289938982899389D6012D913D914F
:1022C0006D01821B930B419744F0C401002E02C0A4
:1022D000880F991F0A94E2F7582A0F5F1F4F0630A4
:1022E0001105A1F698E8E0E4F6E0978388E0E0E6DF
:1022F000F6E08783E0E8F6E09783E0EAF6E087839C
:1023000083EF8683AE01435F5F4FE6E0F0E28191A9
:102310009191DA012D91AD01DC0114962C93EE150B
:10232000FF05A9F7E0E0FBE08181836F8183C301B2
:102330000E9455041092152A1092352A1092552A9F
:102340001092752A1092952A1092B52A852D6E96B4
:10235000CDBFDEBFDF91CF911F910F91FF90EF9026
:10236000DF90CF90BF90AF909F908F907F906F90B5
:102370005F90089583E0E0E0F8E08183E0E4F8E036
:102380008183E0E0F9E08183E0E4F6E093E3968383
:10239000A0E6B6E016968C931697108A118A148AD6
:1023A000158A50961C92509751961C921092C228F2
:1023B00080917828909179280C94AF250895809188
:1023C000C228882324F48091C228877008958FEF53
:1023D00008954F925F926F927F928F929F92AF92E9
:1023E000BF92CF92DF92EF92FF920F931F93CF9302
:1023F000DF93CDB7DEB72997CDBFDEBF182F7B01A6
:10240000DEDF88230CF079C1812F8770806880938C
:10241000C228A0905929B0905A29AA0CBB1CAA0C1A
:10242000BB1CAA0CBB1CAA0CBB1CAA0CBB1C80901E
:102430007B2990907C29880C991C880C991C880C0D
:10244000991C880C991C880C991C812F90E09C0188
:10245000220F331F820F931F880F991F8954954DA8
:102460009E01295F3F4F6901FE01319600E010E0B7
:102470003C01DC014D915C914115510529F410821C
:102480001182D9011C9218C0BA01552324F4662781
:102490007727641B750B6A0D7B1D60837183D301E5
:1024A00011964C91440F440B440F4F5FD9014C934C
:1024B000080D191D060F171F029632962F5F3F4F0A
:1024C000EC15FD05A9F640E059E0FA0106A317A3B3
:1024D000A0E4B8E096960D931C93979780E098E05F
:1024E000FC0106A317A329813A8122A733A720A7BD
:1024F00031A78B819C819A968D939C939B979896FC
:102500008D939C9399978D819E81DA019A968D93F4
:102510009C939B9798968D939C939997A0907B29D9
:10252000B0907C29AA0CBB1CAA0CBB1CAA0CBB1C1F
:10253000AA0CBB1CAA0CBB1CFE0131966F0140E02B
:10254000E0E0F0E06894882486F8992493F8612C00
:102550006894772473F80F2E412CF9E05F2EF02D4C
:10256000D6012D913D916D012115310569F1413063
:1025700081F018F04230C9F023C0C8018E1B9F0BB8
:10258000B8010E949C38D30190968D939C939197AB
:1025900017C0C8018E1B9F0BB8010E949C38D40144
:1025A00090968D939C9391970BC0C8018E1B9F0BA7
:1025B000B8010E949C38D20190968D939C9391977C
:1025C000EA0DFB1DE20FF31F4F5F433049F60E1774
:1025D0001F0709F494C01F930F93FF93EF938AE4AE
:1025E00091E29F938F930E94973B0F900F900F90D3
:1025F0000F900F900F9083C05F5F4FEF450FE7E0A4
:10260000F0E0EC0FFD1FE40FF11D6081662364F51F
:10261000413089F018F04230D9F054C0FC01C18239
:1026200050967C93509715964C911597426015964D
:102630004C931597E1CFF901C18254967C9354973E
:1026400015964C911597406215964C931597D4CFDB
:1026500083E1E0E0F9E08183E0E6F6E080E4808B6E
:1026600085818260858331C0161664F5413089F01A
:1026700018F04230D9F026C0FC01D18251967C93EB
:10268000519715964C911597416015964C93159757
:10269000B3CFF901D18255967C93559715964C91FD
:1026A0001597406115964C931597A6CF83E2E0E00D
:1026B000F9E08183E0E6F6E080E4818B858181604A
:1026C000858303C0533008F497CF9801D7010E9447
:1026D000C938689414F896958795779567951694F8
:1026E000D1F720E030E04AEB51E10E949924809339
:1026F00078289093792881E013C080E011C051E0E0
:1027000020E438E00F2EF3E2DF2EF02DA0E4B6E057
:1027100070E480E098E00F2EF3E1CF2EF02D6DCF26
:102720002996CDBFDEBFDF91CF911F910F91FF9012
:10273000EF90DF90CF90BF90AF909F908F907F9061
:102740006F905F904F900895AF92BF92CF92DF92BB
:10275000EF92FF921F93CF93DF93182FEB01A82ED8
:10276000B12C80E090E00E94DE326B017C01F5012B
:10277000EE0FFF1FEA51F64D6081718180E090E01D
:102780000E94DE3220E030E04AE754E40E94453205
:102790009B01AC01C701B6010E9445320E94B232D2
:1027A000E62EF72E7F936F93DF93CF931F921F93A5
:1027B00080E991E29F938F930E94973B6E2D7F2D2E
:1027C000812F07DE8DB79EB708968DBF9EBFDF9124
:1027D000CF911F91FF90EF90DF90CF90BF90AF907F
:1027E0000895E82FF0E0EE0FFF1FEA51F64D6083E9
:1027F00071830895FF920F931F93CF93DF93C0E0EF
:10280000D0E01BC0CE0140960E94AD03F82ECE0151
:1028100041960E94AD03FE01E954F54D2F2D30E0A5
:10282000322F2227282B208331832296C017D107ED
:1028300049F70033110529F0E8018E010A5F1F4FA7
:10284000E1CF06EE19E2C0E4D0E0CE010E94AD0374
:10285000F82ECE0101960E94AD032F2D30E0322FCD
:102860002227282BF801219331938F012296C0351E
:10287000D10559F7DF91CF911F910F91FF900895E6
:1028800083E3E0E4F6E0818383E0E0E6F6E0818341
:1028900097E090930008E0E4F8E0818390838183DF
:1028A000E0E0F9E0908381831092C22884E190E017
:1028B0008093592990935A298EE190E080937B2947
:1028C00090937C2997CF0895FF920F931F93CF93F6
:1028D000DF93C0E0D0E016C0FE01E954F54DF08072
:1028E0006181CE0140960E94C8036F2DCE014196B2
:1028F0000E94C8032296C017D10771F70033110553
:1029000029F0E8018E010A5F1F4FE6CF06EE19E2BB
:10291000C0E4D0E0F801F08061810E5F1F4FCE016E
:102920000E94C8036F2DCE0101960E94C803229613
:10293000C035D10579F7DF91CF911F910F91FF90AD
:1029400008959F92AF92BF92CF92DF92EF92FF9243
:102950000F931F93CF93DF938DEC91E20E94A83BDE
:102960000F2EF7EBCF2EFAE2DF2EF02DE12CF12C1B
:102970000F2EFBEDAF2EF1E2BF2EF02D01EE11E296
:10298000FF92EF92BF92AF920E94973B0F900F90F1
:102990000F900F90E601912C8881998122969F9348
:1029A0008F931F930F930E94973B93940F900F90D8
:1029B0000F900F9083E09812EFCF8BE695E20E9484
:1029C000A83B8FEFE81AF80A86E0C80ED11C88E011
:1029D000E816F104A9F68BE695E20E94A83BDF9188
:1029E000CF911F910F91FF90EF90DF90CF90BF900C
:1029F000AF909F900895EF92FF920F931F93CF9304
:102A0000DF9385EE91E20E94A83B06EE19E2C0E05A
:102A1000D0E00F2EFDEFEF2EF1E2FF2EF02DF801AA
:102A2000808191810E5F1F4F9F938F93DF93CF9390
:102A3000FF92EF920E94973B21960F900F900F907C
:102A40000F900F900F90C830D10549F7DF91CF91CB
:102A50001F910F91FF90EF900895E0EBF9E09181C5
:102A600095FFFDCF8093B00981E090E00895E0E606
:102A7000F6E080E8818380E48283E0EBF9E083E0A4
:102A8000858387E1868384EA878384818061848368
:102A900084818860848382E190E28093112D9093F9
:102AA000122D1092C0281092C12880E183830895CE
:102AB0001F93CF93DF938091C0289091C128182F46
:102AC000FC01FF27E058F74D8081882379F0C1E1B0
:102AD000DDE26881798190E00E94653B1F5FE12F14
:102AE000F0E0E058F74D80818111F3CF812F90E025
:102AF0008093C0289093C128DF91CF911F910895B2
:102B00008091B0099091B62A913031F4813409F462
:102B1000CFDF1092B62A089590917F28992341F033
:102B20008B3519F481E08093B62A10927F2808959E
:102B30008D3011F08A30A9F48BE695E20E94A83B13
:102B40006091C0287091C128FB01E058F74D1082B8
:102B500080E898E20E946A2C1092C0281092C12846
:102B600008958830A1F48091C0289091C1280097E1
:102B700029F001978093C0289093C12887E092E2C2
:102B80009F938F930E94973B0F900F9008958B31E6
:102B900021F481E080937F2808952091C02830910E
:102BA000C1282034310591F41F9280E48F938BE08B
:102BB00092E29F938F930E94973B1092C0281092AD
:102BC000C1280F900F900F900F900895F901E058D1
:102BD000F74D80832F5F3F4F2093C0283093C1284B
:102BE0006091112D7091122D90E00C94653B089529
:102BF0001F920F920FB60F9211240BB60F922F93C4
:102C00003F934F935F936F937F938F939F93AF9374
:102C1000BF93EF93FF9374DFFF91EF91BF91AF915B
:102C20009F918F917F916F915F914F913F912F91E4
:102C30000F900BBE0F900FBE0F901F90189583E062
:102C4000E0E2F6E08283E0E9F3E081E080838183E3
:102C500088E08283838380E1868308958FE1E0E0CA
:102C6000F6E08283E0E8F3E089E0808381831282EA
:102C700081E0838382818061828383818061838319
:102C800080E186830895DBDFE9CF0895E0ECF0E092
:102C900080E2808388B1838389B183838AB183830F
:102CA0008BB183838CB183838DB1838380B3838322
:102CB00082B3838383B3838384B3838385B3838322
:102CC000A0E0B2E094968C91949783839C968C912B
:102CD0009C978383D4968C918383A0E4B2E09496EE
:102CE0008C91949783839C968C91838381E08093CD
:102CF000302B80E191E092838150E9F784E8809362
:102D0000C0001092312B089586E49BE22AE43BE256
:102D100014C0DF0154971C9214961C9214961C92B6
:102D200014961C9214961C9210824F5F789646302F
:102D300081F701968217930719F0FC0140E0E9CF73
:102D400008952F923F924F925F926F927F928F924F
:102D50009F92AF92BF92CF92DF92EF92FF920F932A
:102D60001F93CF93DF93C8E3D0E28C010F2EF8E6D8
:102D70002F2EF0E23F2EF02D812C912C54012401B6
:102D80003501F80161918F0170E080E090E00E94D0
:102D9000E0326B017C01288139814A815B810E948C
:102DA00055349B01AC01C301B2010E9478312B0163
:102DB0003C012C813D814E815F81C701B6010E949B
:102DC00055349B01AC01C501B4010E9478314B011F
:102DD0005C012896C215D305A1F6A30192010E94B9
:102DE000EB31DF91CF911F910F91FF90EF90DF902A
:102DF000CF90BF90AF909F908F907F906F905F909B
:102E00004F903F902F900895CF92DF92FF920F93B3
:102E10001F93CF93DF93F62E072FA62FB72FE42F04
:102E2000F52F26E011921D922150E1F7C42ED52EE8
:102E300040E050E017C09D0110817D91710F7193AA
:102E4000E6017881E9012881270FE60128836F5F79
:102E5000663089F74A5F5F4FDFEFCD1ADD0A4432F3
:102E6000510539F0DC01A40FB51FEF2DF02F60E004
:102E7000E2CFDF91CF911F910F91FF90DF90CF9024
:102E80000895DF92EF92FF920F931F93CF93DF93FA
:102E900042E35BE262EC7BE2E12CDD24DA941EC0CB
:102EA000C191C11708F41C2F0C1708F40C2FD15036
:102EB000B9F7011BE01608F4E02E0D93FA942C5F8D
:102EC0003F4FFF2029F0F901D4E000E01D2DE8CFAD
:102ED0000696485E5F4F4617570739F09A01DC01A6
:102EE0000F2EF6E0FF2EF02DEECF81E08E1508F4C8
:102EF00080E0DF91CF911F910F91FF90EF90DF90D5
:102F00000895DF92EF92FF920F931F93CF93DF9379
:102F100002E31BE20F2EF2ECEF2EFBE2FF2EF02D70
:102F20000DC08D2D74D88883D394249686E0D81252
:102F3000F8CF085E1F4F0E151F0519F0E801D12CC0
:102F4000F0CFDF91CF911F910F91FF90EF90DF9025
:102F500008952F923F924F925F926F927F928F923D
:102F60009F92AF92BF92CF92DF92EF92FF920F9318
:102F70001F93CF93DF938FE59AEEA0E0B0E0019727
:102F8000A109B109000001F0D1F7C89500008FE751
:102F90009EE30197F1F7000000C00F2EF3E36F2EC0
:102FA000FBE27F2EF02D0F2EF3EC4F2EFBE25F2E77
:102FB000F02D0E9431024B015C01830133243394D4
:102FC0000E9431026B017C01E801212C822D1FD867
:102FD00088832394249686E02812F8CF0E94310239
:102FE000DC01CB018C199D09AE09BF090397A1052E
:102FF000B105A0F382E0831520F085E090E00E9407
:10300000732433940F5F1F4F84E03812D9CF0E948E
:103010003102DC01CB0188199909AA09BB0947973C
:10302000A105B105A0F38FE090E00E94732488E130
:10303000680E711C6414750409F0BBCFDF91CF9149
:103040001F910F91FF90EF90DF90CF90BF90AF90C6
:103050009F908F907F906F905F904F903F902F90B8
:103060000895CF93DF931F92CDB7DEB772DF49DFAC
:1030700019829E012F5F3F4F4EEA5FE16AE070E0E8
:1030800080E090E00E9499240F90DF91CF91089505
:10309000AF92BF92CF92DF92EF92FF920F931F9366
:1030A000823019F130F4882309F45BC0813071F06B
:1030B00006C08430C1F140F1853009F443C0E12CF1
:1030C000F12C00E010E0C12CD12C58C00F2EF0EBF9
:1030D000EF2EF8E0FF2EF02D00E416E06894CC24EB
:1030E000C7F86894DD24D1F849C00F2EF0EAEF2E1E
:1030F000F9E0FF2EF02D00E616E06894CC24C3F82A
:103100006894DD24D4F83AC00F2EF0EAEF2EFAE0EE
:10311000FF2EF02D00E816E06894CC24C3F86894E4
:10312000DD24D5F82BC00F2EF0EBEF2EFAE0FF2EAA
:10313000F02D00E816E06894CC24C7F86894DD24EC
:10314000D7F81CC00F2EF0EAEF2EFBE0FF2EF02D7B
:1031500000EA16E06894CC24C3F86894DD24D6F81D
:103160000DC00F2EF0EAEF2EF8E0FF2EF02D00E458
:1031700016E06894CC24C3F8DD24D394F701A4802E
:10318000E0E0FBE08181BD2CB0948B218183E0EAFB
:10319000F6E0D18284818D298483F7011482F801BD
:1031A000C18284819C2D90958923848370E080E086
:1031B00090E00E94DE3220E034E244EF5BE40E94C3
:1031C000553420E030E04AE754E40E94453220E0E4
:1031D00030E040E05FE30E9478310E94B232AB0100
:1031E000BC014D3051056105710508F45DC04130E9
:1031F000F4E05F0761057105D8F441505109610998
:103200007109DB01CA01B695A79597958795B69583
:10321000A795979587954370552766277727009739
:10322000A105B10509F440C08A9501F0E9F73CC059
:103230004230510584E068077105D0F442505109CD
:1032400061097109DB01CA01B695A7959795879524
:10325000B695A79597958795437055276627772745
:103260000097A105B10501F10197F1F700001CC01D
:103270004450510961097109DB01CA01689412F8CF
:10328000B695A795979587951694D1F747705527CA
:10329000662777270097A105B10531F00197A109AD
:1032A000B109000001F0D1F7413051056105710508
:1032B00011F400000EC0423051056105710511F492
:1032C00000C00FC0433051056105710511F4C89568
:1032D00010C0443051056105710519F4C89500000E
:1032E00010C0453051056105710519F4C89500C03D
:1032F00011C0463051056105710519F4C895C8958E
:1033000012C0473051056105710521F4C895C89573
:10331000000012C0483051056105710521F4C895BF
:10332000C89500C013C0493051056105710521F4ED
:10333000C895C895C89514C04A30510561057105F6
:1033400029F4C895C895C895000013C04B305105A5
:103350006105710529F4C895C895C89500C009C0D4
:103360004C3051056105710521F4C895C895C89583
:10337000C895F8018481C82AC482F701A482E0EAD2
:10338000F6E08481B822B482E0E0FBE08181D82AB3
:10339000D1821F910F91FF90EF90DF90CF90BF905F
:1033A000AF900895CF92DF92EF92FF92CF938FE08C
:1033B00090E00E9473240E9431026B017C0180E046
:1033C00091E00E9455040E943102DC01CB018C196E
:1033D0009D09AE09BF090297A105B105A0F3C0E0A0
:1033E0000E9431026B017C0167E18C2F51DE0E944B
:1033F0003102AB01BC014C195D096E097F094731EF
:1034000051056105710598F38FE090E00E947324E7
:10341000CF5FC63029F7CF91FF90EF90DF90CF902C
:10342000089545E050E06EE472E28FE30E940D0CD7
:103430008FE30E94A50B8BE490E00E9473248FEF32
:10344000B1CF0895CF92DF92EF92FF926B017C0192
:1034500020E030E0A9010E944A348823ACF02BED33
:103460003FE049E450E4C701B6010E9478312BEDFA
:103470003FE049EC50E40E9422332BED3FE049E469
:1034800050E40E94773114C02BED3FE049E450E452
:10349000C701B6010E9477312BED3FE049EC50E4C3
:1034A0000E9422332BED3FE049E450E40E94783142
:1034B000FF90EF90DF90CF9008952F923F926F9200
:1034C0007F928F929F92AF92BF92CF92DF92EF92B4
:1034D000FF920F931F93CF93DF93CDB7DEB7609723
:1034E000CDBFDEBF4D875E876F87788B19821A82CA
:1034F0001B821C821D821E821F82188608E310E236
:103500001C010F2EF8E66F2EF0E27F2EF02DF10158
:1035100061911F0170E080E090E00E94E0326B0159
:103520007C0189809A80AB80BC80F8012081318148
:10353000428153810E945534A50194010E94783143
:1035400069837A838B839C838D809E80AF80B884CF
:10355000F8012481358146815781C701B6010E9457
:103560005534A50194010E9478316D837E838F8349
:103570009887085F1F4F0615170549F629813A817C
:103580004B815C816D817E818F8198850E94EB31BA
:1035900069877A878B879C87C984DA84EB84FC846B
:1035A0002BED3FE049E450E46D857E858F85988959
:1035B0000E947831A70196010E94773143DF60961F
:1035C000CDBFDEBFDF91CF911F910F91FF90EF90A4
:1035D000DF90CF90BF90AF909F908F907F906F9033
:1035E0003F902F9008952EDF2BED3FE049E450E40B
:1035F0000E94453220E030E044E353E40C9455341B
:103600000895CF92DF92EF92FF926B017C012BED38
:103610003FE049EC5FEB0E944A3418167CF42BED36
:103620003FE049EC5FE3C701B6010E943E328823C8
:103630004CF4C701B6010E94423207C060E070E05E
:10364000CB0103C060E070E0CB01FF90EF90DF9012
:10365000CF900895CF92DF92EF92FF926B017C01A1
:103660002BED3FE049EC5FEB0E944A3418167CF4E6
:103670002BED3FE049EC5FE3C701B6010E943E320B
:1036800088234CF4C701B6010E94423207C060E0B3
:1036900070E0CB0103C060E070E0CB01FF90EF90E1
:1036A000DF90CF9008954F3FE1F420E030E040E01C
:1036B0005FE30E9455342AE038E64EEA5FE30E9459
:1036C00077310E94C2349B01AC0165E075E48DE95D
:1036D00091E40E9445322FE13EE249E95FE30C9418
:1036E000773160E070E0CB0108954F925F926F9266
:1036F0007F928F929F92AF92BF92CF92DF92EF9282
:10370000FF920F931F93CF93DF9300D01F92CDB7FB
:10371000DEB72B013C0129833A834B835C83AC2DBC
:10372000BD2DEE2DFF2D60E040E050E020E030E0C8
:103730007FEF1FEF8D9190E02817390710F49C015F
:10374000162F819190E04817590710F4AC01762F9D
:103750006F5F663079F7872E912CF401EE0FFF1F13
:10376000EE0FFF1FE05EFF4D2081318142815381CA
:10377000C301B2010E9477316B017C012BED3FE068
:1037800049EC5FE30E944A3418160CF476C02BED26
:103790003FE049EC5FEBC701B6010E943E3288234F
:1037A0000CF46FC029813A814B815C81C301B20165
:1037B0000E947731E12FF0E0EE0FFF1FEE0FFF1FA9
:1037C000E05EFF4D20813181428153810E9477313B
:1037D0002BED3FE049E450E40E94773133DE2B01CA
:1037E0003C012BED3FE049EC5FE30E944A341816A0
:1037F0000CF44BC02BED3FE049EC5FEBC301B20191
:103800000E943E3288230CF444C0C701B601F9DEA1
:103810006B017C01C301B2011DDF9B01AC01C7013B
:10382000B6010E9455346B017C0120E030E0A90113
:103830000E944A3418168CF5812F90E09C01220FCB
:10384000331F820F931F880F991FA80EB91EF40112
:10385000EA0DFB1D608170E080E090E00E94E032A4
:10386000A70196010E944532402F1DDF28E93CE464
:1038700045E850E40E94783113C060E070E0CB016D
:103880000FC060E070E0CB010BC060E070E0CB01E6
:1038900007C060E070E0CB0103C060E070E0CB01E6
:1038A0002496CDBFDEBFDF91CF911F910F91FF9086
:1038B000EF90DF90CF90BF90AF909F908F907F90D0
:1038C0006F905F904F9008952F923F924F925F922A
:1038D0006F927F928F929F92AF92BF92CF92DF9220
:1038E000EF92FF920F931F93CF93DF93CDB7DEB785
:1038F000C75CD109CDBFDEBFCD54DF4F688379836C
:103900008A839B83C35BD040C954DF4F28833983AC
:103910004A835B83C75BD040C354DF4FE882F982A0
:103920000A831B83CD5BD040CF53DF4FC882C15C7D
:10393000D040CF54DF4FA882C15BD040CE54DF4F80
:10394000B882C25BD040CE010196CA53DF4F888354
:103950009983C65CD040A0E2B0E2C554DF4FA88393
:10396000B983CB5BD040E8E3F0E2C155DF4FE88399
:10397000F983CF5AD040CE53DF4F1882C25CD0407B
:10398000FFEFCB53DF4FF883C55CD0402FEFCC5314
:10399000DF4F2883C45CD04000E078C2CB56DF4FB5
:1039A0008881C559D040CF54DF4F9881C15BD0404A
:1039B000891BCB56DF4FA881B981C559D0401D91D5
:1039C000CB56DF4FA883B983C559D040011780F487
:1039D000CB53DF4F8883C55CD040CD53DF4FB881D8
:1039E000C35CD040CC53DF4FB883C45CD040012FC0
:1039F000123008F4D7C1D1018D919D910D90BC91E9
:103A0000A02DC556DF4F88839983AA83BB83CB59EA
:103A1000D04028E93CE445E050E4BC01CD010E94DF
:103A20005534CF56DF4F688379838A839B83C1598E
:103A3000D040D10114968D919D910D90BC91A02DF7
:103A4000C156DF4F88839983AA83BB83CF59D04067
:103A500028E93CE445E050E4BC01CD010E94553426
:103A6000C555DF4F688379838A839B83CB5AD040C7
:103A7000C155DF4FA881B981CF5AD0408D919D911A
:103A80000D90BC91A02DCD55DF4F88839983AA83DB
:103A9000BB83C35AD040C954DF4F688179818A8182
:103AA0009B81C75BD0400E9442324B015C0128E9F8
:103AB0003CE445E050E4CD55DF4F688179818A814F
:103AC0009B81C35AD0400E9455346B017C01CD5478
:103AD000DF4F288139814A815B81C35BD040C501BA
:103AE000B4010E9455349B01AC01C701B6010E948C
:103AF00078314B015C01C155DF4FA881B981CF5AA4
:103B0000D04014968D919D910D90BC91A02DC955DA
:103B1000DF4F88839983AA83BB83C75AD040C95497
:103B2000DF4F688179818A819B81C75BD0400E9489
:103B3000B8342B013C0128E93CE445E050E4C95588
:103B4000DF4F688179818A819B81C75AD0400E946A
:103B500055346B017C01CD54DF4F288139814A8176
:103B60005B81C35BD040C301B2010E9455349B010D
:103B7000AC01C701B6010E9478316B017C01CF56C0
:103B8000DF4F288139814A815B81C159D040C5010D
:103B9000B4010E9477312B013C01C555DF4F2881CC
:103BA00039814A815B81CB5AD040C701B6010E945E
:103BB0007731A30192010E94EB31C756DF4FE881B4
:103BC000F981C959D04020813181428153810E94BD
:103BD00077312B013C01A5019401CF56DF4F68815D
:103BE00079818A819B81C159D0400E9477314B01F4
:103BF0005C01A7019601C555DF4F688179818A81F3
:103C00009B81CB5AD0400E947731A50194010E943C
:103C1000EB31C554DF4FA881B981CB5BD0402D91EA
:103C20003D914D915C910E947731C354DF4F2881C3
:103C300039814A815B81CD5BD0400E9477316B0135
:103C40007C01C301B201FEDB2B013C01C701B601BF
:103C5000F9DB6B017C01C301B201D3DCCF56DF4F2E
:103C6000688379838A839B83C159D040C701B60199
:103C7000F1DC6B017C01612F70E080E090E00E943C
:103C8000E0324B015C01A7019601CF56DF4F6881FE
:103C900079818A819B81C159D0400E9455349B0112
:103CA000AC01C501B4010E944532CF53DF4F4881BA
:103CB000C15CD040F8DC6B017C01C301B2010E9401
:103CC0004232A70196010E9455344B015C01CD554B
:103CD000DF4F288139814A815B81C35AD040C55664
:103CE000DF4F688179818A819B81CB59D0400E94C6
:103CF000773128E93CE445E050E40E9455349B01CB
:103D0000AC01C501B4010E9478314B015C01C301D3
:103D1000B2010E94B834A70196010E9455346B018C
:103D20007C01C955DF4F288139814A815B81C75A9F
:103D3000D040C156DF4F688179818A819B81CF59FC
:103D4000D0400E94773128E93CE445E050E40E94ED
:103D500055349B01AC01C701B6010E9478316B015B
:103D60007C01A5019401C501B4010E9455344B01A9
:103D70005C01A7019601C701B6010E9455349B0161
:103D8000AC01C501B4010E9478310E94C234C95609
:103D9000DF4FE881F981C759D04060837183828306
:103DA00093830BC0C956DF4FA881B981C759D04052
:103DB0001D921D921D921C921397B8E02B0E311C80
:103DC000C756DF4FE881F981C959D0403496C756AC
:103DD000DF4FE883F983C959D040C956DF4F888146
:103DE0009981C759D0400496C956DF4F888399837B
:103DF000C759D04098E6291690E2390609F0CECD91
:103E0000CE53DF4FA881C25CD040AF5FCE53DF4FAF
:103E1000A883C25CD040C155DF4FE881F981CF5AF9
:103E2000D0403896C155DF4FE883F983CF5AD04050
:103E3000C554DF4F88819981CB5BD0400496C5542F
:103E4000DF4F88839983CB5BD040CF54DF4FA8816D
:103E5000B981C15BD0401696CF54DF4FA883B98398
:103E6000C15BD040CA53DF4FE881F981C65CD040C6
:103E70007896CA53DF4FE883F983C65CD040CE53AF
:103E8000DF4FF881C25CD040F63089F1CA53DF4F72
:103E900088819981C65CD040C956DF4F8883998359
:103EA000C759D040A0E2B0E2C756DF4FA883B9831C
:103EB000C959D0400F2EF8E32F2EF0E23F2EF02DFF
:103EC000CF54DF4FE881F981C15BD040CB56DF4F43
:103ED000E883F983C559D040CE53DF4FF881C25CE7
:103EE000D040CD53DF4FF883C35CD04057CDCC5387
:103EF000DF4F2881C45CD040822F90E0FC01EE0FA0
:103F0000FF1F8E0F9F1FFC01EE0FFF1FCB53DF4FD4
:103F10008881C55CD040E80FF11DEE0FFF1FEE0F4A
:103F2000FF1FEC0FFD1F6181728183819481C95352
:103F3000DF4FCDBFDEBFDF91CF911F910F91FF907B
:103F4000EF90DF90CF90BF90AF909F908F907F9039
:103F50006F905F904F903F902F9008953F924F92B7
:103F60005F926F927F928F929F92AF92BF92CF9209
:103F7000DF92EF92FF920F931F93CF93DF93CDB712
:103F8000DEB7E497CDBFDEBF182FCE0101960E94A9
:103F90004117811184C0AE014B5D5F4FBE01655D6D
:103FA0007F4FCE0101960E940417CE018B960E948E
:103FB000A1162B013C01AB01BC01CE0185967DDA37
:103FC00069AB7AAB8BAB9CABCE0101965C01DE0199
:103FD00095966D018A967C01012F29A93AA94BA9D2
:103FE0005CA9C301B20181DB362E872E982ED92E13
:103FF00020E030E0A9010E943E32882309F44FC03E
:10400000C12EE9A8FAA80BA91CA9A3019201632D4E
:10401000782D892D9D2D58DCE62EF72E082F192F8F
:10402000DF929F928F923F929F938F937F936F9394
:1040300024E532E23F932F930E94973B8E2D9F2DD4
:10404000A02FB12F80935E2990935F29A0936029C0
:10405000B093612940926229509263296092642949
:104060007092652989A99AA9ABA9BCA980936629F0
:1040700090936729A0936829B0936929A0926A292F
:10408000B0926B29809155299091562980936C2983
:1040900090936D2981E080937A29CDBFDEBFE496AD
:1040A000CDBFDEBFDF91CF911F910F91FF90EF90B9
:1040B000DF90CF90BF90AF909F908F907F906F9048
:1040C0005F904F903F900895FF920F931F93CF936F
:1040D000DF93CDB7DEB72797CDBFDEBF8C01F62EBD
:1040E00087E0E1E8F2E2DE01119601900D928A95F7
:1040F000E1F76F8382E39BE20E948117980147E01A
:1041000050E0BE016F5F7F4F8FE30E94C70B8FE3CC
:104110000E94A50B8BE490E0E6D30E94A9178F2D97
:104120001DDF2796CDBFDEBFDF91CF911F910F918D
:10413000FF900895E0E8F6E080E2818380E18183EA
:10414000E0E6F6E08183E0E4FAE08FEF90E086A31A
:1041500097A312A613A620812160208321812360CA
:10416000218321812062218386A397A310A611A613
:10417000208121602083218123602183218120618E
:104180002183E0E4F9E086A397A310A611A680811D
:10419000816080838181836081838181806181836B
:1041A0000895E0E4F9E010AE11AEE0E4FAE010AEFC
:1041B00011AE12AE13AE089590E0E0E4FAE082AFE3
:1041C00093AF70E060AF71AF50E0E0E4F9E040AF72
:1041D00051AF08952F923F924F925F926F927F92CC
:1041E0008F929F92AF92BF92CF92DF92EF92FF9207
:1041F0000F931F93CF93DF93CDB7DEB72B97CDBF30
:10420000DEBFFC01D62EB42E2C833D831801EA823A
:10421000FB829C01A3E8BDE20E94C9380024880FFC
:10422000991F001C880F991F001C892F902D48E6AC
:1042300051E0849F9001859F300D949F300D112493
:10424000BF01621B730B80E090E00E94DE322B0105
:104250003C016D2D70E080E090E00E94E03220E0B3
:1042600030E04FE753E40E9445326B017C016B2D37
:1042700070E080E090E00E94E03220E030E04FE724
:1042800053E40E944532062F172F8B879A87C70168
:10429000B6010E94AD329B01772324F422273327F5
:1042A000261B370BB901882777FD8095982F0E9430
:1042B000E0322CEA35EC47E257E30E943E32882395
:1042C0002CF4AA81BB81BC92F101B08220E030E0E5
:1042D00040E752E4C301B2010E9445324B015C0148
:1042E0000E94B232698370E080E090E00E94E03288
:1042F0009B01AC01C501B4010E9477314B015C0107
:10430000A701960160E070E080E89FE30E947731AA
:10431000202F312F4B855A850E945534662E772EDB
:10432000482E592EA5019401C701B6010E945534AB
:104330009B01AC0160E070E080E89FE30E94773170
:10434000202F312F4B855A850E9455346E837F83F1
:1043500088879987A501940160E070E080E89FE379
:104360000E947731A70196010E9455349B01AC0150
:1043700060E070E080E89FE30E947731202F312FCA
:104380004B855A850E945534C62ED72EE82EF92E1D
:10439000F981F23031F130F4FF2309F45DC0F130DE
:1043A000A9F007C029812430F1F160F1253009F42A
:1043B0004BC0612C712C412C512CC12CD12CE12CE7
:1043C000F12C00E010E01B861A8646C0C02ED12ECC
:1043D000EB84FA840E811F8188858B87A985AA8743
:1043E0003BC0302F212F9B858A85062D172D4B86AC
:1043F0005A866C2C7D2C4E2C5F2CC32ED22EE92E8F
:10440000F82E2AC0CE80DF80E884F984302F212F57
:104410009B858A85062D172D4B865A86632E722E14
:10442000492E582E19C0302F212F9B858A850C2D9F
:104430001D2DEB86FA86C62CD72CE42CF52C632E8A
:10444000722E492E582E08C0C62CD72CE42CF52CE1
:104450006E807F804884598420E030E04FE753E449
:10446000602F712F8B859A850E9455340E94B2323D
:10447000EC81FD81608320E030E04FE753E4662D5E
:10448000772D842D952D0E9455340E94B232AA8139
:10449000BB816C9320E030E04FE753E46C2D7D2D21
:1044A0008E2D9F2D0E9455340E94B232F1016083FF
:1044B0002B96CDBFDEBFDF91CF911F910F91FF9063
:1044C000EF90DF90CF90BF90AF909F908F907F90B4
:1044D0006F905F904F903F902F900895EF92FF92D2
:1044E0000F931F93CF93DF9300D0CDB7DEB79E011C
:1044F0002D5F3F4F79018E010E5F1F4F2250310912
:1045000069DE8B812A81498150E0E0E4FAE042AF24
:1045100053AF30E020AF31AF90E0E0E4F9E080AF9E
:1045200091AF2396CDBFDEBFDF91CF911F910F9149
:10453000FF90EF900895CF93DF93CDB7DEB72A9722
:10454000CDBFDEBFDE0111969E01255F3F4FE0E04B
:10455000F2E051E080A1806880A383A18823E9F381
:1045600045A184A190E0942B959587959595879585
:1045700095958795959587958D939D9353A3A217B0
:10458000B30741F763E0CE0105960E94A90F2A9672
:10459000CDBFDEBFDF91CF910895CF93DF93CDB72D
:1045A000DEB72A97CDBFDEBFDE0111969E01255FE3
:1045B0003F4FE0E0F2E051E080A5806880A783A54E
:1045C0008823E9F345A584A590E0942B95958795DC
:1045D0009595879595958795959587958D939D93B9
:1045E00053A7A217B30741F763E0CE0105960E94D7
:1045F000A90F2A96CDBFDEBFDF91CF910895CF934B
:10460000DF93CDB7DEB72A97CDBFDEBFDE011196AF
:104610009E01255F3F4FE0E0F2E051E080A9806815
:1046200080AB83A98823E9F345A984A990E0942B62
:104630009595879595958795959587959595879562
:104640008D939D9353ABA217B30741F763E0CE015F
:1046500005960E94A90F2A96CDBFDEBFDF91CF91AC
:104660000895DF92EF92FF920F931F93CF93DF9302
:1046700080EEE0E0F6E08283E0E0F2E080E2828338
:1046800086E1818386E0848383E080A380A787E03E
:1046900080AB8CE281A384E381A78CE381AB80B5FE
:1046A000848781B5858781E080838FE891E00197D9
:1046B000F1F700C000003FDFA2DF6FDF8AE090E08B
:1046C00012D1D12CC0E0D0E000E010E0E12CF12CC0
:1046D00032DFE80EF91E61DF080F191F90DFC80FE7
:1046E000D91F8AE090E0FFD08BE695E20E94A83BBC
:1046F000D39493E0D912ECCF23E030E0C701B901A5
:104700000E94B038462FE72F6093E4297093E52983
:10471000C801B9010E94B038F62F172F60935B29AA
:1047200070935C29CE01B9010E94B038609353297F
:10473000709354297F936F931F93FF93EF934F933D
:104740008EEC92E29F938F930E94973B8DB79EB71A
:1047500008968DBF9EBFDF91CF911F910F91FF9063
:10476000EF90DF9008953F924F925F926F927F9209
:104770008F929F92AF92BF92CF92DF92EF92FF9271
:104780000F931F93CF93DF935C016B017A01E0E4F9
:10479000FAE082AC93AC782CC0ADD1AD6C2EE0E4E5
:1047A000F9E000AD11AD302E811004C0C11102C07E
:1047B000002339F040E060E080E0FEDC86E990E034
:1047C00092D0B9DE482EE9DE582E19DF9091E42907
:1047D000491A90915B29591A90915329891BA11468
:1047E000B10411F0F5014082C114D10411F0F601B9
:1047F0005082E114F10411F0F7018083711004C0BC
:10480000611002C0332021F0402F6C2F882DD4DCA2
:10481000DF91CF911F910F91FF90EF90DF90CF909C
:10482000BF90AF909F908F907F906F905F904F90D0
:104830003F9008951092EB2A1092EC2A109258297A
:1048400010925D291092C22B2FB7F89410927D28F8
:1048500010927E2885E0E0E4F0E0838383E0E0E0EE
:10486000F4E08283818180FDFDCF8FEF9FEFE0E058
:10487000F4E082879387818180FDFDCF81E0809382
:104880000004E0E0F4E0818180FDFDCFE0E0F4E0B1
:10489000108611862FBF089588ED84BF82E0809333
:1048A0005000E0E5F0E0818181FFFDCF88ED84BF1D
:1048B000E0E4F0E081E0808385E08383E0E0F4E001
:1048C000818180FDFDCFE0E0F4E08FEF9FEF8287F4
:1048D000938781E08083818180FDFDCFE0E0F4E07B
:1048E000108611860895CF92DF92EF92FF927C019D
:1048F000F8940E94310278949B01AC012E0D3F1D6B
:10490000411D511D69017A01F8940E9431026C1514
:104910007D058E059F0510F0789406C078943AE6E0
:104920003A95F1F700C0F0CFFF90EF90DF90CF9075
:1049300008958F929F92AF92BF92CF92DF92EF92A3
:10494000FF920F931F93CF93DF9300D01F92CDB7A9
:10495000DEB769837A838B839C836A0179018091B6
:1049600058298A3008F0E8C04091C22B842F90E08B
:1049700001966AE070E00E94B038582F481791F114
:104980009927FC01EE0FFF1F9C01220F331F220FFE
:10499000331F220F331FE20FF31FED53F44D248119
:1049A0003581232BF9F0EAE0F0E015C09927DC010E
:1049B000AA0FBB1F9C01220F331F220F331F220F90
:1049C000331FA20FB31FAD53B44D14962D913C91DC
:1049D0001597232B39F00196BF010E94B038582F4C
:1049E0004813E4CF5093C22B852F90E08C01000F29
:1049F000111F880F991F880F991F880F991F080F83
:104A0000191F0D53144D0115110509F497C00E948B
:104A1000310289809A80AB80BC80DC01CB01880D9B
:104A2000991DAA1DBB1D8230910530F0F8018083CD
:104A30009183A283B38308C00496A11DB11DF80120
:104A400080839183A283B383D8011696ED92FC9262
:104A500017971496CD92DC9215972FB7F894C090C3
:104A6000EB2AD090EC2AF801C086D186C114D1047B
:104A700071F04081518162817381F6018081918161
:104A8000A281B38184179507A607B70790F1009319
:104A9000EB2A1093EC2AF80180819181A281B381E5
:104AA00040917D2850917E28E0E0F4E0C284D384D8
:104AB00060E070E0BA0155274427E12CF12C4C2925
:104AC0005D296E297F29481759076A077B0758F027
:104AD000318130FDFDCFE0E0F4E08487958782816D
:104AE0008460828322C0E0E0F4E082818B7F828355
:104AF0001CC0D6011896ED90FC901997E114F104B2
:104B000061F0F70180819181A281B38184179507BB
:104B1000A607B70710F46701ECCFD8011896ED92FD
:104B2000FC921997F60100871187809158298F5FB1
:104B3000809358292FBF02C000E010E0C8012496DE
:104B4000CDBFDEBFDF91CF911F910F91FF90EF900E
:104B5000DF90CF90BF90AF909F908F9008951F935C
:104B6000CF93DF93FC011FB7F894A091EB2AB0918B
:104B7000EC2A109709F4B1C08A179B0709F050C0BE
:104B8000808591858093EB2A9093EC2A8091C22BAB
:104B900090E0AC01440F551F9C01220F331F220FE0
:104BA000331F220F331F240F351F2D53344DE217AF
:104BB000F307E9F4FC01EE0FFF1F9C01220F331FE6
:104BC000220F331F220F331FE20FF31FED53F44D5B
:104BD0001482158209966AE070E00E94B0388093D2
:104BE000C22B8091582981508093582978C0CAE0FF
:104BF000D0E00996BE010E94B0389927AC01440F5D
:104C0000551F9C01220F331F220F331F220F331F0A
:104C1000240F351F2D53344DE217F30751F7CACF38
:104C200018962D913C9119972115310509F457C01B
:104C3000E217F30711F0D901F3CF8085918518961B
:104C40008D939C9319978091C22B90E0AC01440FF7
:104C5000551F9C01220F331F220F331F220F331FBA
:104C6000240F351F2D53344DE217F307E9F4FC01EF
:104C7000EE0FFF1F9C01220F331F220F331F220F45
:104C8000331FE20FF31FED53F44D14821582099682
:104C90006AE070E00E94B0388093C22B809158295E
:104CA0008150809358291BC0CAE0D0E00996BE010C
:104CB0000E94B0389927AC01440F551F9C01220F68
:104CC000331F220F331F220F331F240F351F2D5385
:104CD000344DE217F30751F7CACF1FBF01C01FBF02
:104CE000DF91CF911F910895FF920F931F93CF9360
:104CF000DF93FFB6F894C091EB2AD091EC2A909103
:104D00005D29809158291F929F931F928F938CE069
:104D100093E29F938F930E94973B0F900F900F9079
:104D20000F900F900F90209721F107E313E20E945C
:104D300031029F938F937F936F938B818F938A819F
:104D40008F9389818F9388818F938D818F938C81AD
:104D50008F93DF93CF931F930F930E94973B088409
:104D6000D985C02D8DB79EB70E968DBF9EBF20975B
:104D7000F1F6FFBEDF91CF911F910F91FF90089543
:104D80001FB7F894E091EB2AF091EC2A309709F0E4
:104D900067C0A6C0E090EB2AF090EC2AD7011896E5
:104DA0008D919C9119978093EB2A9093EC2A78949B
:104DB000D7011496ED91FC91159716968D919C91C3
:104DC00017971995F8948091C22B90E0AC01440F8D
:104DD000551F9C01220F331F220F331F220F331F39
:104DE000240F351F2D53344DE216F30611F5FC0147
:104DF000EE0FFF1F9C01220F331F220F331F220FC4
:104E0000331FE20FF31FED53F44D14821582099600
:104E1000BE010E94B0388093C22B809158298150E6
:104E200080935829E091EB2AF091EC2A3097D1F445
:104E300057C00996BE010E94B0389927AC01440FB3
:104E4000551F9C01220F331F220F331F220F331FC8
:104E5000240F351F2D53344DE216F30651F7C7CFFB
:104E6000CAE0D0E0C080D180E280F3800E943102AD
:104E7000DC01CB010296A11DB11D8C159D05AE056F
:104E8000BF0508F087CFE091EB2AF091EC2A30972C
:104E900039F180819181A281B38140917D28509127
:104EA0007E28E0E0F4E0C284D38460E070E0BA01E0
:104EB00055274427E12CF12C4C295D296E297F29A7
:104EC000481759076A077B0758F0218120FDFDCF5D
:104ED000E0E0F4E08487958782818460828305C066
:104EE000E0E0F4E082818B7F82831FBF0C94090293
:104EF0001F920F920FB60F9211240BB60F92CF9202
:104F0000DF92EF92FF922F933F934F935F936F93B4
:104F10007F938F939F93AF93BF93CF93EF93FF9321
:104F2000CFB7F89480917D2890917E280196809348
:104F30007D2890937E28E091EB2AF091EC2A30971F
:104F400009F43FC0C080D180E280F38080917D2849
:104F500090917E28E0E0F4E042855385A0E0B0E047
:104F6000DC019927882760E070E0842B952BA62B25
:104F7000B72BC816D906EA06FB0618F50E943102BF
:104F8000DC01CB010296A11DB11D8C159D05AE055E
:104F9000BF0598F4E0E0F4E0818180FDFDCFE09171
:104FA000EB2AF091EC2A80819181E0E0F4E08487A3
:104FB000958782818460828302C00C94DB01CFBF1D
:104FC00001C0CFBFFF91EF91CF91BF91AF919F9162
:104FD0008F917F916F915F914F913F912F91FF90B2
:104FE000EF90DF90CF900F900BBE0F900FBE0F9001
:104FF0001F9018950895FC0180819181A281B38151
:10500000AD0166277727642F5FC80895EF92FF925E
:105010000F931F93CF93DF930E94AB10C0E0D0E0BB
:1050200090E0082F10E00F2EF5E6EF2EF3E2FF2EB2
:10503000F02D98010C2E02C0359527950A94E2F7C1
:1050400020FF0BC0DF93CF93FF92EF920E94973B1C
:105050000F900F900F900F9091E02196C630D105E0
:1050600041F7911108C08AE693E29F938F930E94C3
:10507000973B0F900F908BE695E20E94A83BDF9143
:10508000CF911F910F91FF90EF900895FF920F9392
:105090001F93CF93DF931F921F92CDB7DEB720E20D
:1050A00030E029833A83BE016F5F7F4F0E94F13A5F
:1050B000FC01F080BE016F5F7F4F80E090E00E94B6
:1050C000F13A0E94E9398C010097F1F0F0EDFF0E02
:1050D00048EC60E080E070D81F930F931F92FF921E
:1050E0002FE633E23F932F930E94973BB8018F2D19
:1050F0000E94E91140E060E080E05ED80F900F90E0
:105100000F900F900F900F900F900F90DF91CF9115
:105110001F910F91FF9008951F93CF93DF931F92DC
:105120001F92CDB7DEB720E230E029833A83BE017B
:105130006F5F7F4F0E94F13AFC0110811053BE0156
:105140006F5F7F4F80E090E00E94F13A0E94E93962
:10515000BC01812F0E94A4130F900F90DF91CF917B
:105160001F910895CF93DF9300D0CDB7DEB7AE0186
:105170004D5F5F4FBE016E5F7F4FCE010196F3DA48
:105180008B811F928F938A811F928F9389811F92A7
:105190008F9381E993E29F938F930E94973BCDBFBA
:1051A000DEBF2396CDBFDEBFDF91CF910895CF93B1
:1051B000DF931F921F92CDB7DEB720E230E0298344
:1051C0003A83BE016F5F7F4F0E94F13A0E94E93936
:1051D0000E9455040F900F90DF91CF91089540E009
:1051E00060E084EB0E94DC2080E090E00E94BA1135
:1051F00040E060E080E00C94DC2008950F931F9362
:10520000CF93DF931F921F92CDB7DEB720E230E03D
:1052100029833A83BE016F5F7F4F0E94F13A009766
:1052200029F48AEA93E20E94A83B79C00E94E939F6
:105230008C01883070F011271F930F938EEC93E24E
:105240009F938F930E94973B0F900F900F900F901A
:1052500066C0BE016F5F7F4F80E090E00E94F13A30
:10526000009729F48AEE93E20E94A83B58C01127C8
:105270000E94E939F801EE0FFF1FE00FF11FEE0F5A
:10528000FF1FE954F54D80839183BE016F5F7F4F0F
:1052900080E090E00E94F13A009729F48EE094E2D9
:1052A0000E94A83B3CC00E94E939F801EE0FFF1FA5
:1052B000E00FF11FEE0FFF1FE954F54D828393833A
:1052C000BE016F5F7F4F80E090E00E94F13A00974F
:1052D00029F483E394E20E94A83B21C00E94E939AB
:1052E000F801EE0FFF1FE00FF11FEE0FFF1FE95453
:1052F000F54D848395839F938F9383818F938281D0
:105300008F9381818F9380818F931F930F9387E574
:1053100094E29F938F930E94973BCDBFDEBF0F9087
:105320000F90DF91CF911F910F9108951F93CF930D
:10533000DF931F921F92CDB7DEB720E230E02983C2
:105340003A83BE016F5F7F4F0E94F13AFC011081EA
:105350001053BE016F5F7F4F80E090E00E94F13AF2
:105360000E94E939BC01812F0E94F1130F900F9028
:10537000DF91CF911F91089520E030E041E15AE1A3
:1053800065E070E080E090E0D4CA08950F931F9329
:10539000CF93DF9300D000D0CDB7DEB720E230E06E
:1053A00029833A83BE016F5F7F4F0E94F13A0E94CA
:1053B000E9398C01BE016F5F7F4F80E090E00E9471
:1053C000F13A0E94E939A80160E070E0682B4B8354
:1053D0005C836D837E839E012D5F3F4F4BEF57E2D1
:1053E00065E070E080E090E0A4DA2696CDBFDEBFF5
:1053F000DF91CF911F910F9108950F931F93CF933A
:10540000DF93EC010E9431020091E72A1091E82A13
:105410002091E92A3091EA2AAB01BC01401B510BD3
:10542000620B730B4A5F5F4F6F4F7F4F4B345105D9
:105430006105710528F48BE490E0841B950B53DA29
:1054400088818E5F0E94D219DF91CF911F910F91B9
:1054500008950F931F930E9431020091E72A109143
:10546000E82A2091E92A3091EA2AAB01BC01401BCD
:10547000510B620B730B4B5F5F4F6F4F7F4F4B3482
:1054800051056105710528F48BE490E0841B950BB0
:105490002ADA0E94311810927A291F910F910895EB
:1054A0006F927F928F929F92AF92BF92CF92DF9234
:1054B000EF92FF920F931F93CF93DF931F921F9250
:1054C000CDB7DEB7782E692E80E290E089839A838B
:1054D000BE016F5F7F4F872D962D0E94F13A7C01B0
:1054E000FC0101900020E9F731976F01C81AD90A31
:1054F00065E974E20E94FD3A892B21F01C141D0419
:1055000024F15CC0BE016F5F7F4F80E090E00E949D
:10551000F13A0E94E9398C01BE016F5F7F4F80E054
:1055200090E00E94F13A0E94E939F82EBE016F5FC7
:105530007F4F80E090E00E94F13A0E94E939482FC5
:105540006F2DC8010E946E2251C000E010E00F2EA6
:10555000F0E4AF2EF9E0BF2EF02D0F2EF0E48F2EE9
:10556000FAE09F2EF02DBE016F5F7F4F80E090E04C
:105570000E94F13AF70121917F01223739F40E940C
:10558000E9399927F40182AF93AF12C0273639F475
:105590000E94E9399927F40180AF91AF09C0223602
:1055A00069F40E94E9399C013327F50120AF31AF3E
:1055B0000F5F1F4FC016D106B1F618C06F927F92D1
:1055C00089E994E29F938F930E94973B84EE94E243
:1055D0000E94A83B87E295E20E94A83B8DE695E2F7
:1055E0000E94A83B0F900F900F900F900F900F907C
:1055F000DF91CF911F910F91FF90EF90DF90CF90AF
:10560000BF90AF909F908F907F906F90089520E013
:1056100030E04AEF57E265E070E080E090E089C951
:105620000895809165288F93809164288F938BE9EA
:1056300095E29F938F930E94973B0F900F900F904E
:105640000F900895CF93DF93D82FC92FE82FF92F0C
:10565000DF010D900020E9F71197AE1BBF0BBF9340
:10566000AF939F938F932CEA35E23F932F930E9441
:10567000973BED2FFC2FDF010D900020E9F71197EC
:10568000AD014E1B5F0B6D2F7C2F8FE30E940D0C25
:105690000F900F900F900F900F900F90DF91CF9180
:1056A0000895CF92DF92EF92FF920F931F93CF93C3
:1056B000DF93CDB7DEB7A597CDBFDEBF8C0160EA23
:1056C00072E20E940D3B7C01FF24A701B801CE01CC
:1056D00001960E941C3B8FEFE81AF80AB8016E0D84
:1056E0007F1D8E010A5F1F4FC8010E94063B40E1EB
:1056F00050E060E070E0CE0101960E94D8386B0166
:105700007C01F80101900020E9F73197E01BF10BD3
:10571000FF93EF931F930F9388ED95E29F938F93E1
:105720000E94973BF80101900020E9F73197AF0103
:10573000401B510B9601B8018FE30E94C70B0F90DD
:105740000F900F900F900F900F90A596CDBFDEBFDA
:10575000DF91CF911F910F91FF90EF90DF90CF904D
:105760000895FC0180818823E1F0DF010D90002085
:10577000E9F71197AE1BBF0BA131B105A0F01F9245
:1057800080E18F93BF93AF938AE096E29F938F93CC
:105790000E94973B0F900F900F900F900F900F90DB
:1057A0000895E9EFF5E2DF010D900020E9F7119788
:1057B000AD014E1B5F0BBF018FE30C94980C089555
:1057C000EF92FF920F931F93CF93DF93CDB7DEB786
:1057D000A597CDBFDEBF8C0160EA72E20E940D3B4F
:1057E0007C01FF24A701B801CE0101960E941C3B59
:1057F000B8016E0D7F1D8E010A5F1F4FC8010E9408
:10580000063B40E150E060E070E0CE0101960E946E
:10581000D838F80101900020E9F73197AF01401B1B
:10582000510B9B01B8018FE30E94550CA596CDBF8B
:10583000DEBFDF91CF911F910F91FF90EF90089500
:105840000F931F93CF93DF936115710579F1FC01DD
:105850001081112371F1DC011196680F791F01E0AD
:10586000E0E0F0E003C01D911123E1F0103249F4B3
:10587000013071F4E40FF51F108200E0E0E0F0E089
:105880000CC0013029F4EA01CE0FDF1F188304C0D9
:10589000E901CE0FDF1F18833196A617B70719F756
:1058A000CF0101C0CF01013061F405C0E0E0F0E0BC
:1058B00002C0E0E0F0E0E40FF51F1082F901108271
:1058C00004C0F901E80FF91F1082DF91CF911F91F9
:1058D0000F910895CF93DF93CDB7DEB7C058D109AC
:1058E000CDBFDEBFFC012081222309F44EC19E0101
:1058F0002F5F3F4FAE014F5B5F4FA2DF67E476E261
:10590000CE018F5B9F4F0E94FD3A892B21F4CE017F
:105910000196BCDB3AC16BE676E2CE018F5B9F4F0E
:105920000E94FD3A892B21F4CE010196F5DB2DC1B1
:1059300062E576E2CE018F5B9F4F0E94FD3A892B94
:1059400011F410DC22C16AE576E2CE018F5B9F4F35
:105950000E94FD3A892B21F4CE01019628DC15C165
:1059600061E676E2CE018F5B9F4F0E94FD3A892B64
:1059700011F44CDB0AC166E676E2CE018F5B9F4FE5
:105980000E94FD3A892B11F42ADCFFC060E776E221
:10599000CE018F5B9F4F0E94FD3A892B21F4CE01EF
:1059A00001962CDCF2C06BE776E2CE018F5B9F4F55
:1059B0000E94FD3A892B21F4CE010196B7DCE5C0A7
:1059C0006DE876E2CE018F5B9F4F0E94FD3A892BF6
:1059D00011F4D2DCDAC063E976E2CE018F5B9F4F2F
:1059E0000E94FD3A892B21F4CE010196CFDCCDC077
:1059F00069E976E2CE018F5B9F4F0E94FD3A892BC9
:105A000021F4CE010196F9DCC0C06EE472E2CE0151
:105A10008F5B9F4F0E94FD3A892B11F41ADDB5C0B0
:105A20006FE976E2CE018F5B9F4F0E94FD3A892B92
:105A300021F4CE01019634DDA8C067EA76E2CE01FA
:105A40008F5B9F4F0E94FD3A892B11F4EADD9DC0C8
:105A50006EEA76E2CE018F5B9F4F0E94FD3A892B62
:105A600011F4D5DD92C06FEB76E2CE018F5B9F4FD4
:105A70000E94FD3A892B21F4CE010196E3DD85C019
:105A80006BEB76E2CE018F5B9F4F0E94FD3A892B34
:105A900021F4CE01019605DE78C063EC76E2CE01FA
:105AA0008F5B9F4F0E94FD3A892B21F4CE01019616
:105AB00058DE6BC067EC76E2CE018F5B9F4F0E9491
:105AC000FD3A892B21F4CE0101967ADE5EC06BECA3
:105AD00076E2CE018F5B9F4F0E94FD3A892B11F435
