S01900004368656D5F73696D5F64726F706C6574732E737265631A
S1130000B9C10000D7C10000D5C10000D3C10000B0
S1130010D1C10000CFC10000CDC10000CBC10000A0
S1130020C9C10000C7C100000C949127C4C10000DD
S1130030C1C10000BFC10000BDC10000BBC10000C0
S1130040B9C10000B7C10000B5C10000B3C10000D0
S1130050B1C10000AFC10000ADC10000ABC10000E0
S1130060A9C100000C949C0D0C94EC0D0C94C40DCF
S11300700C94140E0C94640E0C943C0E9BC1000062
S113008099C1000097C1000095C1000093C1000010
S113009091C100008FC100008DC100008BC1000020
S11300A089C1000087C1000085C1000083C1000030
S11300B081C100007FC1000093C300007BC1000028
S11300C079C1000077C1000075C1000073C1000050
S11300D071C100006FC100006DC100006BC1000060
S11300E069C1000067C100000C94040F0C94540F04
S11300F00C942C0F0C947C0F0C94CC0F0C94A40F28
S113010059C1000057C1000055C1000053C100008F
S113011051C100004FC100004DC100004BC100009F
S113012049C1000047C1000045C1000043C10000AF
S113013041C100003FC100003DC100003BC10000BF
S113014039C1000037C1000035C1000033C10000CF
S113015031C100002FC100002DC100002BC10000DF
S11301600C948C0E0C94DC0E0C94B40E0C94891626
S113017021C100001FC100001DC100001BC10000FF
S113018019C1000017C1000015C1000013C100000F
S113019011C100000FC100000DC100000BC100001F
S11301A009C1000007C1000005C1000003C100002F
S11301B001C10000FFC00000FDC00000FBC0000042
S11301C0F9C00000F7C00000F5C00000F3C0000053
S11301D0F1C00000EFC00000EDC000000C94F40F6B
S11301E00C9445100C941D10E5C00000E3C0000001
S11301F0E1C00000DFC00000DDC000000B041104FA
S113020016041D04220429042E044C0859086F08FE
S1130210B508C208D008DD08060A130AD409EC0997
S1130220F909200A2D0A084AD73B3BCE016E84BC4B
S1130230BFFDC12F3D6C74319ABD56833DDA3D003C
S1130240C77F11BED9E4BB4C3E916BAAAABE000085
S113025000803F05A84CCDB2D44EB93836A9020C63
S113026050B9918688083CA6AAAA2ABE000000803C
S11302703F006E616E00696E660000407A10F35AAA
S113028000A0724E18090010A5D4E80000E87648D2
S1130290170000E40B54020000CA9A3B000000E17E
S11302A0F505000080969800000040420F00000011
S11302B0A08601000000102700000000E8030000F1
S11302C000006400000000000A00000000000100BB
S11302D0000000002C76D888DC674F0823DFC1DFDC
S11302E0AE59E1B1B796E5E3E453C63AE6519976DF
S11302F096E8E6C28426EB898C9B62ED407C6FFC19
S1130300EFBC9C9F40F2BAA56FA5F490055A2AF75A
S11303105C936B6CF9676DC11BFCE0E40D47FEF563
S113032020E6B500D0ED902E0300943577050080CB
S1130330841E080000204E0A000000C80C3333332A
S1130340330F986E12831141EF8D2114893BE655CA
S113035016CFFEE6DB18D1844B381BF77C1D901DAD
S1130360A4BBE424203284725E228100C9F124EC0F
S1130370A1E53D2711241FBECFEFCDBFDFE3DEBFD4
S113038000E00CBF17E2A0E0B0E2E6E0F3E700E033
S11303900BBF02C007900D92A035B107D9F72DE22B
S11303A0A0E5B7E201C01D92A231B207E1F7A6D1E0
S11303B00C94813925CE0F921F922F923F924F9227
S11303C05F926F927F928F929F92AF92BF92CF92E1
S11303D0DF92EF92FF920F931F932F933F934F93CC
S11303E05F936F937F938F939F93AF93BF93CF93B9
S11303F0DF93EF93FF930FB70F93E9EDF6E200E07D
S1130400EF93FF930F938091502983958093502904
S11304101895809150298A95809350290F910FBF88
S1130420FF91EF91DF91CF91BF91AF919F918F9108
S11304307F916F915F914F913F912F911F910F91F8
S1130440FF90EF90DF90CF90BF90AF909F908F90F0
S11304507F906F905F904F903F902F901F900F90E0
S113046008950FB6F894609108047091090480917E
S1130470592790915A270FBE0895CF92DF92EF9299
S1130480FF920F931F93CF93DF93CDB7DEB7CA5478
S1130490D109CDBFDEBFCE010B968F8398878091A3
S11304A05827882339F086E080934B298DED90E21C
S11304B00E94B83880914B29882309F445C00F2E37
S11304C0F7E4CF2EF02D60914B29DFB6F8946150FC
S11304D0C69EB00111248B010156184D780186E4A3
S11304E0E80EF11CF701408150E06B55784D8F8187
S11304F098850E94FF37F7018081EF81F885E80F26
S1130500F11D1082F80180819181A281B3818983D8
S11305109A83AB83BC83848195818D839E83EB5BBB
S1130520FF4F80818987F70180818A8780914B29D9
S1130530815080934B29DFBECE0101960E946D2E1F
S113054080914B298111BFCFC65BDF4FCDBFDEBF8A
S1130550DF91CF911F910F91FF90EF90DF90CF909B
S11305600895CF93DF93CDB7DEB7C054D109CDBF83
S1130570DEBF82E08093CA0180E4EDE9F0E2DE01AF
S1130580119601900D928A95E1F7AE014F5F5F4F8E
S1130590BE016F5B7F4F20E030E0FA0181919191C1
S11305A0A191B191AF01ABBFFC018791969128272E
S11305B0822F82958227082E869586958025082E7F
S11305C0869580258770022E232F8695079487951C
S11305D0302D282706948795302528274617570756
S11305E009F0DBCF1092CA0120935227309353278E
S11305F0C05CDF4FCDBFDEBFDF91CF910895E0EA4D
S1130600F0E0828181608283828182608283828140
S1130610846082837894089540E060E084E60E94D8
S1130620862184E690E00E948C2440E064E680E029
S11306300E94862184E690E00E948C2444E660E0D7
S113064080E00E94862184E690E00E948C240E942F
S11306507B2140E060E084E60E94862184E690E00D
S11306600E948C2440E064E680E00E94862184E6B7
S113067090E00E948C2444E660E080E00E948621A1
S113068084E690E00E948C240E947B2140E060E09C
S113069084E60E94862184E690E00E948C2440E057
S11306A064E680E00E94862184E690E00E948C2427
S11306B044E660E080E00E94862184E690E00E94A7
S11306C08C240C947B2108950E9465244ADF0E94A7
S11306D033240E94C8150E9444210E9445230E948D
S11306E0D5160E94D81668D0E3D20E940E110E943B
S11306F0D0140E943B1783DF8FCF0895E5DF0E945B
S11307000E2E0E94332EB9DEFCCF88ED84BF81E02B
S1130710E8E7F0E081830895E0ECF1E08785882341
S1130720ECF30895F9DFE0ECF1E0878581FF0AC07E
S113073086E38287EBECF1E021E030E088ED90E0A5
S113074084BF20830895CF93DF93D82FC92FE4DF8C
S1130750E0ECF1E0D083CF71C183128286E082871E
S1130760EBECF1E021E030E088ED90E084BF208301
S1130770E0ECF1E08481DF91CF9108951F93CF9352
S1130780DF93182FD92FC62FCDDFE0ECF1E083E300
S113079082871083DF71D1831282C48385E38287C9
S11307A0EBECF1E021E030E088ED90E084BF2083C1
S11307B0DF91CF911F91089510926C2910925627C2
S11307C01092572783E0E0E8F6E0818388EB80937A
S11307D0A10483E28093A50481E08093A404089596
S11307E01F920F920FB60F9211240BB60F925F93C4
S11307F06F937F938F939F93AF93BF93EF93FF93E5
S113080080916C2990E08730910558F5FC01E25005
S1130810FF4F0C94CE358091572781708093A704A5
S113082020C0809156278093A7041BC0809157272E
S1130830817080618093A70414C0809156278093AF
S1130840A7040FC080915727817080668093A70406
S113085008C0809156278093A70403C083E0809347
S1130860A30480916C2990E0019667E070E00E94F7
S1130870BB3580936C29FF91EF91BF91AF919F910C
S11308808F917F916F915F910F900BBE0F900FBE70
S11308900F901F901895809356279093572788E5BB
S11308A08093A6048FE795E20197F1F700C000005A
S11308B08CE58093A6048FE795E20197F1F700C0D9
S11308C0000008952F923F924F925F926F927F9211
S11308D08F929F92AF92BF92CF92DF92EF92FF924C
S11308E00F931F93CF93DF93CDB7DEB72E97CDBF72
S11308F0DEBFFE0131968CE0DF011D928A95E9F797
S113090026E030E22D873E870F2EF3EC8F2EF9E29E
S11309109F2EF02D5F0133243A94C12CD12C0F2E3D
S1130920FFE47F2EF02D0F2EF7E45F2EF02D6624CA
S113093063942FB6F894A6017C9CF0017D9CF00D85
S11309401124E35FF54D808181FF38C14C2C732D58
S113095033200CF451C160E07C9CF0017D9CF00DCF
S11309601124EE5FF54D80819181A72FAA0FBB0B57
S113097021E030E02C0F3D1FA20FB31F2D913C91BD
S11309802817390709F4662D71506AF7749EF0012F
S1130990759EF00D1124EE5FF54D80819181D50196
S11309A08D939C936623F1F0749EC001759E900D07
S11309B011248154964DFC01E25BFF4F1082319764
S11309C010823497108211823297108211823297EA
S11309D010821182AD85BE85ED91FC918481806188
S11309E08483ECC0749EF001759EF00D1124E35FC6
S11309F0F54D808183FF69C0749E8001759E100D42
S1130A0011240154164D7801BDE4EB0EF11CF701DD
S1130A10408150E0B40183ED9BE20E94FF37D7018F
S1130A20EC91F0E0ED52F44D10828C9190E08093C3
S1130A30D02B9093D12BF80180819181A281B38135
S1130A408093CA2B9093CB2BA093CC2BB093CD2B1C
S1130A50EB5BFF4F808191818093492990934A29D0
S1130A60F5E0F41538F1242D30E0729EC001739E38
S1130A70900D11248154964DFC01E25BFF4F1082CE
S1130A80319710823497108211823297108211822A
S1130A90329710821182F901EE0FFF1FEA5FFF4DBA
S1130AA00190F081E02D848180618483439426E069
S1130AB04212D9CF20E030E04FE156E065E070E02B
S1130AC080E090E00E94B22479C080914B29863066
S1130AD020F06092582710924B29749E8001759ED5
S1130AE0100D11240154164D78013DE4E30EF11C60
S1130AF0D7014C9180914B29589EC001112450E09C
S1130B00B4018B55984D0E94FF37E0914B29D701D2
S1130B108C915E9EF0011124E156F84DE80FF11D11
S1130B20168220914B29F80180819181A281B381A1
S1130B30529EF0011124E156F84D80839183A283E3
S1130B40B383E0914B295E9EF0011124EC51F84DE2
S1130B504082A0914B29F801EB5BFF4F808191818A
S1130B605A9ED0011124A156B84D14968D939C938E
S1130B70159790914B29D7018C91599ED00111243E
S1130B80AB51B84D8C9380914B298F5F80934B2947
S1130B90D801A25BBF4F1C92D7011C9214971D92DF
S1130BA01C92119712971D921C9210821182AD858E
S1130BB0BE85ED91FC918481806184832FBEBFEF5B
S1130BC0CB1ADB0AED85FE853296ED87FE87FFE4BE
S1130BD08F0E911C22E0A20EB11C339435E0331227
S1130BE0A8CE20E030E042E654E062E370E080E02A
S1130BF090E00E94B2240DC07C9CF0017D9CF00D1D
S1130C001124EE5FF54D80819181D5018D939C93E4
S1130C10E9CE2E96CDBFDEBFDF91CF911F910F910C
S1130C20FF90EF90DF90CF90BF90AF909F908F9008
S1130C307F906F905F904F903F902F900895DF9238
S1130C40EF92FF920F931F93CF93DF93CDB7DEB74D
S1130C50EDB6FEB68091D02B9091D12B01962DB795
S1130C603EB7281B390B2DBF3EBF0DB71EB70F5F14
S1130C701F4FDFB6F8944091D02B5091D12B4F5F8A
S1130C805F4F63ED7BE2C8010E94FF376091D02B78
S1130C907091D12BDFBEC8010E948C2CEDBEFEBE2C
S1130CA0DF91CF911F910F91FF90EF90DF90089506
S1130CB0CF93DF93A0EAB6E083EF11968C9311975C
S1130CC0E0E0FBE092E094839081936090838183E1
S1130CD082ED87A386A389E681A783A785A787A733
S1130CE080A782A7C0E4D6E034E43A8380E696E0A5
S1130CF024E0FC01228340E856E0FA013283129694
S1130D002C93129738E8398328E0FC012183FA01F7
S1130D10318311962C93119720E42B8B2F8BFC019C
S1130D20238BFA01238B278B53962C9382E190E239
S1130D30E6E0F0E268E253E040E732E0A081B1810E
S1130D4013966C93A081B18115965C93A081B181B7
S1130D5016964C93A081B18117963C93A081B181E2
S1130D6014962C911497206114962C93A191B1910F
S1130D7014962C911497286014962C93E817F9076D
S1130D80E9F680E091E087DDA6E0B0E220E030E023
S1130D904FE4429FC001439F900D11248154964D0E
S1130DA0FC01E25BFF4F108231971082349710826E
S1130DB01182329710821182329710821182ED9142
S1130DC0FD918481806184832F5F3F4F26303105FC
S1130DD001F71092CA2B1092CB2B1092CC2B1092AD
S1130DE0CD2B10924B291092582720E030E042E698
S1130DF054E062E370E080E090E00E94B224DF916E
S1130E00CF9108954F925F926F927F928F929F92AB
S1130E10AF92BF92CF92DF92EF92FF920F931F9304
S1130E20CF93DF93662E572E742EC0915227D09104
S1130E305327E82EF12C80FD0DC081E090E0AC0139
S1130E409701082E02C0359527950A94E2F720FFF2
S1130E5027C002C040E050E08FE4849FF001859FEA
S1130E60F00D1124E35FF54D80818870C8278C2F25
S1130E7082958C27082E869586958025082E869542
S1130E80802587700C2ECD2F869507948795D02DBD
S1130E90C82706948795D025C827711007C086C037
S1130EA001968630910509F0CACFF7CF962DE62D2D
S1130EB0F52D8191C8278C2F82958C27082E869535
S1130EC086958025082E8695802587700C2ECD2F3B
S1130ED0869507948795D02DC82706948795D025A5
S1130EE0C8278E2F891B871520F360C0C701002EE9
S1130EF002C0959587950A94E2F780FF27C0409E2B
S1130F00C001419E900D11248154964DFC01E35B78
S1130F10FF4F70823A97C083D18336961082118234
S1130F202091522730915327349720833183A50190
S1130F30662D752DC4010E94FF37F6019181F801D9
S1130F40E050F04E8081892BF60181830F5F1F4FA3
S1130F50FFE48F0E911C0630110541F6E6E0F0E245
S1130F6080E090E04FE49701082E02C03595279564
S1130F700A94E2F720FF14C0489FD001499FB00DA6
S1130F801124A154B64D1D921D921D921C921397CB
S1130F90A081B18113962C911397226013962C9300
S1130FA00196329686309105F1F614C00F2EF3ECBB
S1130FB08F2EF9E29F2EF02D00E010E00F2EFFE4BB
S1130FC04F2EF02DA72CB12C0F2EC12CFBE0DF2EC1
S1130FD0F02D8CCFDF91CF911F910F91FF90EF9067
S1130FE0DF90CF90BF90AF909F908F907F906F9045
S1130FF05F904F900895AF92BF92CF92DF92FF928D
S11310000F931F93CF93DF93C82FD0E0FE01EE0F11
S1131010FF1FEA5FFF4D0190F081E02DF08021DA9F
S11310202FE42C9FF0012D9FF00D1124E154F64D77
S113103000811181228133815B016C01A01AB10A04
S1131040C20AD30A960185010B3011052105310529
S113105050F02FE42C9FF0012D9FF00D1124E85F38
S1131060F54D108211822FE42C9FF0012D9FF00D7D
S11310701124E154F64D6083718382839383E75B8B
S1131080FF4F808191818730910508F0A4C0FC0155
S1131090EB5FFE4F0C94CE358F2D90E02FE42C9F08
S11310A0F0012D9FF00D1124EC5FF54D80839183A9
S11310B0CAC02FE42C9FC0012D9F900D1124815490
S11310C0964DFC01EB5BFF4F208131813F2920834A
S11310D0318320813181369620833183B4C0FF204F
S11310E05CF48FE48C9FF0018D9FF00D1124E35F7D
S11310F0F54D8081886080832FE42C9FC0012D9F53
S1131100900D11248154964DFC01E25BFF4F208128
S113111033978081918128708227282F2295282750
S1131120022E269526952025022E26952025277009
S1131130082E892F269507942795902D82270694AB
S11311402795902582274FE44C9F90014D9F300DA9
S113115011242154364DF901E55BFF4F80839183BF
S11311608F2D8F77329680836EC08F2D90E02FE481
S11311702C9FF0012D9FF00D1124EE5FF54D80831F
S1131180918361C08FE48C9FF0018D9FF00D112439
S1131190EE5FF54D808191819F298083918353C0B7
S11311A08F2D90E02FE42C9FF0012D9FF00D112442
S11311B0EA5FF54D8083918346C08FE48C9FF001F4
S11311C08D9FF00D1124EA5FF54D808191819F2957
S11311D08083918338C02FE42C9FC0012D9F900DF4
S11311E011248154964DFC01E75BFF4F0190F0817F
S11311F0E02D3797E80FF91FF482FC01E55BFF4F00
S1131200808191818F25282F22952827022E2695CB
S113121026952025022E269520252770082E892F15
S1131220269507942795902D822706942795902537
S113123082272FE42C9FF0012D9FF00D1124E65FEF
S1131240F54D808391832FE42C9FC0012D9F900D39
S113125011248154964DFC01E75BFF4F20813181BD
S11312602F5F3F4F208331832081318134968081E9
S113127090E007962817390708F479C02FE42C9FCB
S1131280C0012D9F900D11248154964DFC01E55B06
S1131290FF4F208131813897808191812817390748
S11312A059F08FE48C9FF0018D9FF00D1124E85FBD
S11312B0F54D108211825BC08FE48C9FF0018D9FED
S11312C0F00D1124EA5FF54D80819181892BE1F0C5
S11312D08FE48C9FF0018D9FF00D1124EA5FF54D92
S11312E02081318180915227909153272817390703
S11312F059F08FE48C9FF0018D9FF00D1124E85F6D
S1131300F54D1082118233C08FE48C9FF0018D9FC4
S1131310F00D1124EC5FF54D20813181809152272D
S1131320909153272817390759F48FE48C9FF001C3
S11313308D9FF00D1124E85FF54D1082118217C0C6
S11313408FE48C9FF0018D9FF00D1124E35FF54D28
S1131350808182608083808181608083CC0FDD1FE7
S1131360CA5FDF4DE881F98184818F7E8483DF91B8
S1131370CF911F910F91FF90DF90CF90BF90AF90CE
S11313800895282F30E09FE4899FF0011124E85F3D
S1131390F54D808191818730910508F06BC0FC0187
S11313A0E45FFE4F0C94CE354FE4429FC001439F4F
S11313B0900D11248154964DFC01E35BFF4F408155
S11313C04093D22B3196808183FF69C08091D22BC8
S11313D080688093D22B63C08FE4829FF001839F47
S11313E0F00D1124EE5FF54D808191818093D22B15
S11313F056C08FE4829FF001839FF00D1124EE5FAD
S1131400F54D808191819093D22B49C08FE4829FC6
S1131410F001839FF00D1124EC5FF54D80819181E3
S11314208093D22B3CC08FE4829FF001839FF00D08
S11314301124EC5FF54D808191819093D22B2FC0C4
S11314408FE4829FF001839FF00D1124EA5FF54D34
S1131450808191818093D22B22C08FE4829FF001FE
S1131460839FF00D1124EA5FF54D80819181909363
S1131470D22B15C04FE4429FC001439F900D11240D
S11314808154964DFC01E75BFF4F408151814750E9
S11314905109FC01E40FF51F84818093D22BF901DB
S11314A0EE0FFF1FEA5FFF4D0190F081E02D809168
S11314B0D22B80834FE4429FC001439F900D11249F
S11314C08154964DFC01E75BFF4F408151814F5F92
S11314D05F4F40835183408151813496808190E0F5
S11314E007964817590750F14FE4429FC001439FA4
S11314F0900D11248154964DFC01E25BFF4F108244
S1131500319710823497108211823297108211829F
S1131510329710821182F901EE0FFF1FEA5FFF4D2F
S1131520A081B18114968C911497806114968C9348
S11315300190F081E02D83818C7F83830895E0E026
S1131540FBE0318190E0DC01A050B04E2C9120955D
S1131550232321834FE4489F9001499F300D112498
S11315602154364DF901E25BFF4F1082319710820E
S1131570349710821182329710821182329710822E
S11315801182FC01EE0FFF1FEA5FFF4DA081B181C4
S113159011968C911197806411968C930190F0812F
S11315A0E02D848180618483089560E0482F50E0B9
S11315B07FE4262F30E0CA01062E02C09595879558
S11315C00A94E2F780FF0AC0729FF001739FF00D46
S11315D01124E35FF54D8081837021F46F5F6630E1
S11315E040F3089560E0E5CF2F923F924F925F92CF
S11315F06F927F928F929F92AF92BF92CF92DF921F
S1131600EF92FF920F931F93CF93DF93582E4B01CA
S11316103901242E882309F482C00F2EF6E0EF2E20
S1131620F0E2FF2EF02D0F2EFFE44F2EF02DAA2412
S1131630A394B12C0F2EFDEC3F2EF02D6CC0852D04
S113164090E00C2E02C0959587950A94E2F780FFEE
S113165048C04C9EF0014D9EF00D1124E35FF54D02
S1131660808180FD3EC00E9431024C9EF0014D9E5F
S1131670F00D1124E154F64D2081318142815381D2
S1131680DC01CB01821B930BA40BB50B0A97A105BC
S1131690B10538F1D801ED91FC9184818F7E84836A
S11316A04C9EC0014D9E900D11248154964DFC0119
S11316B0E25BFF4FB1E0B08320812860208337973D
S11316C060827182C5010C2E02C0880F991F0A9492
S11316D0E2F76C01422DB40195DB8C2D66DFC094DA
S11316E05C2021960E5F1F4FC630D10509F0A7CFAD
S11316F05520A9F00E941617839D912D11249695CB
S113170096959695990F292F220F220F920F891BD8
S113171090E00E948C248701C0E0D0E090CFDF915C
S1131720CF911F910F91FF90EF90DF90CF90BF90DA
S1131730AF909F908F907F906F905F904F903F906D
S11317402F9008953F924F925F926F927F928F9263
S11317509F92AF92BF92CF92DF92EF92FF920F933C
S11317601F93CF93DF93782E6B01442E882309F4C3
S113177080C006E010E20F2EFFE46F2EF02D33241C
S11317803394AA24A394B12C0F2EFDEC5F2EF02DDC
S11317906CC0872D90E00C2E02C0959587950A9415
S11317A0E2F780FF47C06C9EF0016D9EF00D11249E
S11317B0E35FF54D808180FD3DC00E9431026C9E47
S11317C0F0016D9EF00D1124E154F64D208131811C
S11317D042815381DC01CB01821B930BA40BB50B1B
S11317E00A97A105B10530F1D401ED91FC918481F2
S11317F08F7E84836C9EC0016D9E900D1124815454
S1131800964DFC01E25BFF4F3082208128602083EB
S1131810379710821182C5010C2E02C0880F991FC0
S11318200A94E2F77C01442DB601ECDA8E2DBDDE7C
S1131830E0947E20219692E0890E911CC630D10559
S113184009F0A7CF7720A9F00E941617859D912D46
S11318501124969596959695990F292F220F220F6C
S1131860920F891B90E00E948C244801C0E0D0E0D4
S113187090CFDF91CF911F910F91FF90EF90DF9068
S1131880CF90BF90AF909F908F907F906F905F901C
S11318904F903F9008952F923F924F925F926F9294
S11318A07F928F929F92AF92BF92CF92DF92EF92EC
S11318B0FF920F931F93CF93DF93582E4B0139015F
S11318C0242E882309F47FC00F2EF6E0EF2EF0E2D9
S11318D0FF2EF02D0F2EFFE44F2EF02DAA24A394FB
S11318E0B12C0F2EFDEC3F2EF02D69C0852D90E01C
S11318F00C2E02C0959587950A94E2F780FF45C0A7
S11319004C9EF0014D9EF00D1124E35FF54D808156
S113191080FD3BC00E9431024C9EF0014D9EF00DB3
S11319201124E154F64D2081318142815381DC013F
S1131930CB01821B930BA40BB50B0A97A105B10530
S113194020F1D801ED91FC9184818F7E84834C9E9B
S1131950C0014D9E900D11248154964DFC01E25B13
S1131960FF4FB1E0B083379760827182C5010C2EBE
S113197002C0880F991F0A94E2F76C01422DB4014A
S113198041DA8C2D12DEC0945C2021960E5F1F4F2D
S1131990C630D10509F0AACF5520A9F00E94161728
S11319A0839D912D1124969596959695990F292F9F
S11319B0220F220F920F891B90E00E948C24870132
S11319C0C0E0D0E093CFDF91CF911F910F91FF90B2
S11319D0EF90DF90CF90BF90AF909F908F907F90CB
S11319E06F905F904F903F902F9008953F924F9249
S11319F05F926F927F928F929F92AF92BF92CF929B
S1131A00DF92EF92FF920F931F93CF93DF93782E81
S1131A106B01442E882309F47DC006E010E20F2EEA
S1131A20FFE46F2EF02D33243394AA24A394B12C15
S1131A300F2EFDEC5F2EF02D69C0872D90E00C2E4B
S1131A4002C0959587950A94E2F780FF44C06C9E86
S1131A50F0016D9EF00D1124E35FF54D808180FD52
S1131A603AC00E9431026C9EF0016D9EF00D11246B
S1131A70E154F64D2081318142815381DC01CB0157
S1131A80821B930BA40BB50B0A97A105B10518F1A2
S1131A90D401ED91FC9184818F7E84836C9EC0017E
S1131AA06D9E900D11248154964DFC01E25BFF4F15
S1131AB03082379710821182C5010C2E02C0880F24
S1131AC0991F0A94E2F77C01442DB6019BD98E2D0F
S1131AD06CDDE0947E20219692E0890E911CC63044
S1131AE0D10509F0AACF7720A9F00E941617859D89
S1131AF0912D1124969596959695990F292F220F3D
S1131B00220F920F891B90E00E948C244801C0E0B0
S1131B10D0E093CFDF91CF911F910F91FF90EF9081
S1131B20DF90CF90BF90AF909F908F907F906F90F9
S1131B305F904F903F9008951F920F920FB60F92AF
S1131B4011240BB60F922F933F934F935F936F9390
S1131B507F938F939F93AF93BF93EF93FF9380E013
S1131B604ADAFF91EF91BF91AF919F918F917F914D
S1131B706F915F914F913F912F910F900BBE0F90FA
S1131B800FBE0F901F9018951F920F920FB60F92D1
S1131B9011240BB60F922F933F934F935F936F9340
S1131BA07F938F939F93AF93BF93EF93FF9380E0C3
S1131BB0C6DCFF91EF91BF91AF919F918F917F917F
S1131BC06F915F914F913F912F910F900BBE0F90AA
S1131BD00FBE0F901F9018951F920F920FB60F9281
S1131BE011240BB60F922F933F934F935F936F93F0
S1131BF07F938F939F93AF93BF93EF93FF9380E073
S1131C00C0DBFF91EF91BF91AF919F918F917F9135
S1131C106F915F914F913F912F910F900BBE0F9059
S1131C200FBE0F901F9018951F920F920FB60F9230
S1131C3011240BB60F922F933F934F935F936F939F
S1131C407F938F939F93AF93BF93EF93FF9381E021
S1131C50D2D9FF91EF91BF91AF919F918F917F91D5
S1131C606F915F914F913F912F910F900BBE0F9009
S1131C700FBE0F901F9018951F920F920FB60F92E0
S1131C8011240BB60F922F933F934F935F936F934F
S1131C907F938F939F93AF93BF93EF93FF9381E0D1
S1131CA04EDCFF91EF91BF91AF919F918F917F9106
S1131CB06F915F914F913F912F910F900BBE0F90B9
S1131CC00FBE0F901F9018951F920F920FB60F9290
S1131CD011240BB60F922F933F934F935F936F93FF
S1131CE07F938F939F93AF93BF93EF93FF9381E081
S1131CF048DBFF91EF91BF91AF919F918F917F91BD
S1131D006F915F914F913F912F910F900BBE0F9068
S1131D100FBE0F901F9018951F920F920FB60F923F
S1131D2011240BB60F922F933F934F935F936F93AE
S1131D307F938F939F93AF93BF93EF93FF9382E02F
S1131D405AD9FF91EF91BF91AF919F918F917F915C
S1131D506F915F914F913F912F910F900BBE0F9018
S1131D600FBE0F901F9018951F920F920FB60F92EF
S1131D7011240BB60F922F933F934F935F936F935E
S1131D807F938F939F93AF93BF93EF93FF9382E0DF
S1131D90D6DBFF91EF91BF91AF919F918F917F918E
S1131DA06F915F914F913F912F910F900BBE0F90C8
S1131DB00FBE0F901F9018951F920F920FB60F929F
S1131DC011240BB60F922F933F934F935F936F930E
S1131DD07F938F939F93AF93BF93EF93FF9382E08F
S1131DE0D0DAFF91EF91BF91AF919F918F917F9145
S1131DF06F915F914F913F912F910F900BBE0F9078
S1131E000FBE0F901F9018951F920F920FB60F924E
S1131E1011240BB60F922F933F934F935F936F93BD
S1131E207F938F939F93AF93BF93EF93FF9383E03D
S1131E30E2D8FF91EF91BF91AF919F918F917F91E4
S1131E406F915F914F913F912F910F900BBE0F9027
S1131E500FBE0F901F9018951F920F920FB60F92FE
S1131E6011240BB60F922F933F934F935F936F936D
S1131E707F938F939F93AF93BF93EF93FF9383E0ED
S1131E805EDBFF91EF91BF91AF919F918F917F9115
S1131E906F915F914F913F912F910F900BBE0F90D7
S1131EA00FBE0F901F9018951F920F920FB60F92AE
S1131EB011240BB60F922F933F934F935F936F931D
S1131EC07F938F939F93AF93BF93EF93FF9383E09D
S1131ED058DAFF91EF91BF91AF919F918F917F91CC
S1131EE06F915F914F913F912F910F900BBE0F9087
S1131EF00FBE0F901F9018951F920F920FB60F925E
S1131F0011240BB60F922F933F934F935F936F93CC
S1131F107F938F939F93AF93BF93EF93FF9384E04B
S1131F206AD8FF91EF91BF91AF919F918F917F916B
S1131F306F915F914F913F912F910F900BBE0F9036
S1131F400FBE0F901F9018951F920F920FB60F920D
S1131F5011240BB60F922F933F934F935F936F937C
S1131F607F938F939F93AF93BF93EF93FF9384E0FB
S1131F70E6DAFF91EF91BF91AF919F918F917F919D
S1131F806F915F914F913F912F910F900BBE0F90E6
S1131F900FBE0F901F9018951F920F920FB60F92BD
S1131FA011240BB60F922F933F934F935F936F932C
S1131FB07F938F939F93AF93BF93EF93FF9384E0AB
S1131FC0E0D9FF91EF91BF91AF919F918F917F9154
S1131FD06F915F914F913F912F910F900BBE0F9096
S1131FE00FBE0F901F9018951F920F920FB60F926D
S1131FF011240BB60F922F933F934F935F936F93DC
S11320007F938F939F93AF93BF93EF93FF9385E059
S11320100E94FB07FF91EF91BF91AF919F918F9128
S11320207F916F915F914F913F912F910F900BBED4
S11320300F900FBE0F901F9018951F920F920FB61E
S11320400F9211240BB60F922F933F934F935F93EC
S11320506F937F938F939F93AF93BF93EF93FF936C
S113206085E06DDAFF91EF91BF91AF919F918F91D0
S11320707F916F915F914F913F912F910F900BBE84
S11320800F900FBE0F901F9018951F920F920FB6CE
S11320900F9211240BB60F922F933F934F935F939C
S11320A06F937F938F939F93AF93BF93EF93FF931C
S11320B085E067D9FF91EF91BF91AF919F918F9187
S11320C07F916F915F914F913F912F910F900BBE34
S11320D00F900FBE0F901F901895CF93DF93613030
S11320E019F4FC01808146C0623019F5FC0120819D
S11320F08181992787FD9095820F911D27FD9A95DF
S113210099230CF401969595879534C011965F5FD9
S11321105617A1F0252FED01FC01E20FF11D4081BE
S11321203C91431714F4488330832F5F2613F4CF74
S1132130EDCF662329F0DC0150E0E9CF60FD15C046
S11321406695DC01A60FB11DFD01319720818C91AC
S1132150992787FD9095820F911D27FD9A959923C4
S11321600CF401969595879505C06695FC01E60FDC
S1132170F11D8081DF91CF9108950F931F93CF9329
S1132180DF9300D0CDB7DEB7E0E4F2E091A1977819
S113219091A391A1082F10E0D801AB5BBE4D8C91A7
S11321A0892B81A3DE011196CE01049651E053A33D
S11321B020812460208323A12223E9F325A144A1C3
S11321C060E4269F90011124342F36953695232BF5
S11321D02D93A817B90759F763E0CE0101967DDF67
S11321E0992787FD9095F801EE59F64D208130E04E
S11321F08217930754F063E0CE0101966EDFF80175
S1132200EE59F64D9081891B01C080E02396CDBF25
S1132210DEBFDF91CF911F910F910895AF92BF92CE
S1132220CF92DF92EF92FF920F931F93CF93DF939E
S1132230A0E2B6E08CEF12968C931297E0E4F2E001
S113224090E3928390E1918397E0948392E090A34A
S113225011A294B5948795B5958791E090831092D7
S113226062291092632910926429109265291092B0
S113227066291092672912968C9385E090E00E945B
S11322808C240F2EF2E6EF2EF9E2FF2EF02D08E655
S113229019E2E701AA24AA940BC08B2D6EDF8C15DA
S11322A008F4C82EDA94C9F7C992C017D10741F0CF
S11322B0BC2EBE180F2EF5E0DF2EF02DCA2CEDCF6C
S11322C084E295E20E94B838DF91CF911F910F917B
S11322D0FF90EF90DF90CF90BF90AF9008955F9202
S11322E06F927F928F929F92AF92BF92CF92DF9222
S11322F0EF92FF920F931F93CF93DF93CDB7DEB787
S11323006297CDBFDEBF609056277090572780E05C
S113231091E00E944B040F2EF2E1EF2EF0E2FF2E2B
S1132320F02DCE010D96E6E0F0E241915191DA01F3
S113233014962C91DC012D93CD01DA0114961C9294
S1132340EE15FF0591F78E010F5F1F4FB12C0F2E75
S1132350FFE8CF2EDD24D394F02DF6013197F1F769
S1132360000000C08B2D09DF282F30E0F8012193F5
S113237031938F01B394F6E0BF12EFCFE0E0FBE0BE
S113238081818C708183E0EAF6E083EF8583818329
S113239020E436E058E8D90111965C9380E696E093
S11323A048E0DC0111964C9360E876E0DB0111967D
S11323B05C934183D90116965C93DC0116964C9389
S11323C0DB0116965C934683FE0131966F0100E0B3
S11323D010E0512C0F2EFFECAF2EF7E0BF2EF02DA6
S11323E088248394912CC5010197F1F7000000C063
S11323F0802FC3DED6012D913D916D0190E0821BAB
S1132400930B4F9744F0C401002E02C0880F991F0C
S11324100A94E2F7582A0F5F1F4F0630110519F787
S113242098E8E0E4F6E0978388E0E0E6F6E0878366
S1132430E0E8F6E09783E0EAF6E08783AE01435FE5
S11324405F4FE6E0F0E281919191DA012D91AD01C7
S1132450DC0114962C93EE15FF05A9F7E0E0FBE0F0
S11324608181836F8183C3010E944B04852D629611
S1132470CDBFDEBFDF91CF911F910F91FF90EF9001
S1132480DF90CF90BF90AF909F908F907F906F9090
S11324905F90089583E0E0E0F8E08183E0E4F8E011
S11324A08183E0E0F9E08183E0E4F6E093E396835E
S11324B0A0E6B6E016968C931697108A118A148AB1
S11324C0158A50961C92509751961C9210929E27F2
S11324D080915427909155270C94C8250895809194
S11324E09E27882324F480919E27877008958FEF78
S11324F008954F925F926F927F928F929F92AF92C4
S1132500BF92CF92DF92EF92FF920F931F93CF93DC
S1132510DF93CDB7DEB72997CDBFDEBF182F7B0180
S1132520DEDF88230CF079C1812F87708068809367
S11325309E27A0904E29B0904F29AA0CBB1CAA0C30
S1132540BB1CAA0CBB1CAA0CBB1CAA0CBB1C8090F9
S11325506A2990906B29880C991C880C991C880C0A
S1132560991C880C991C880C991C812F90E09C0163
S1132570220F331F820F931F880F991F8656944D85
S11325809E01295F3F4F6901FE01319600E010E092
S11325903C01DC014D915C914115510529F41082F7
S11325A01182D9011C9218C0BA01552324F466275C
S11325B07727641B750B6A0D7B1D60837183D301C0
S11325C011964C91440F440B440F4F5FD9014C9327
S11325D0080D191D060F171F029632962F5F3F4FE5
S11325E0EC15FD05A9F640E059E0FA0106A317A38E
S11325F0A0E4B8E096960D931C93979780E098E03A
S1132600FC0106A317A329813A8122A733A720A797
S113261031A78B819C819A968D939C939B979896D6
S11326208D939C9399978D819E81DA019A968D93CF
S11326309C939B9798968D939C939997A0906A29C5
S1132640B0906B29AA0CBB1CAA0CBB1CAA0CBB1C0B
S1132650AA0CBB1CAA0CBB1CFE0131966F0140E006
S1132660E0E0F0E06894882486F8992493F8612CDB
S11326706894772473F80F2E412CF9E05F2EF02D27
S1132680D6012D913D916D012115310569F141303E
S113269081F018F04230C9F023C0C8018E1B9F0B93
S11326A0B8010E94A735D30190968D939C9391977E
S11326B017C0C8018E1B9F0BB8010E94A735D40117
S11326C090968D939C9391970BC0C8018E1B9F0B82
S11326D0B8010E94A735D20190968D939C9391974F
S11326E0EA0DFB1DE20FF31F4F5F433049F60E174F
S11326F01F0709F494C01F930F93FF93EF938BE488
S113270091E29F938F930E94A2380F900F900F90A5
S11327100F900F900F9083C05F5F4FEF450FE7E07E
S1132720F0E0EC0FFD1FE40FF11D6081662364F5FA
S1132730413089F018F04230D9F054C0FC01C18214
S113274050967C93509715964C9115974260159628
S11327504C931597E1CFF901C18254967C93549719
S113276015964C911597406215964C931597D4CFB6
S113277083E1E0E0F9E08183E0E6F6E080E4808B49
S113278085818260858331C0161664F5413089F0F5
S113279018F04230D9F026C0FC01D18251967C93C6
S11327A0519715964C911597416015964C93159732
S11327B0B3CFF901D18255967C93559715964C91D8
S11327C01597406115964C931597A6CF83E2E0E0E8
S11327D0F9E08183E0E6F6E080E4818B8581816025
S11327E0858303C0533008F497CF9801D7010E9422
S11327F0D435689414F896958795779567951694CB
S1132800D1F720E030E04AE452E10E94B224809300
S113281054279093552781E013C080E011C051E004
S113282020E438E00F2EF3E2DF2EF02DA0E4B6E032
S113283070E480E098E00F2EF3E1CF2EF02D6DCF01
S11328402996CDBFDEBFDF91CF911F910F91FF90ED
S1132850EF90DF90CF90BF90AF909F908F907F903C
S11328606F905F904F900895AF92BF92CF92DF9296
S1132870EF92FF921F93CF93DF93182FEB01A82EB3
S1132880B12C80E090E00E94E92F6B017C01F501FE
S1132890EE0FFF1FE155F64D6081718180E090E0FD
S11328A00E94E92F20E030E04AE754E40E94502FD0
S11328B09B01AC01C701B6010E94502F0E94BD2F9D
S11328C0E62EF72E7F936F93DF93CF931F921F9380
S11328D081E991E29F938F930E94A2386E2D7F2D00
S11328E0812F07DE8DB79EB708968DBF9EBFDF91FF
S11328F0CF911F91FF90EF90DF90CF90BF90AF905A
S11329000895E82FF0E0EE0FFF1FE155F64D6083C8
S113291071830895FF920F931F93CF93DF93C0E0C9
S1132920D0E01BC0CE0140960E94A303F82ECE0136
S113293041960E94A303FE01E656F44D2F2D30E08C
S1132940322F2227282B208331832296C017D107C8
S113295049F70033110529F0E8018E010A5F1F4F82
S1132960E1CF0FEA19E2C0E4D0E0CE010E94A30354
S1132970F82ECE0101960E94A3032F2D30E0322FB2
S11329802227282BF801219331938F012296C035F9
S1132990D10559F7DF91CF911F910F91FF900895C1
S11329A083E3E0E4F6E0818383E0E0E6F6E081831C
S11329B0E0E0F8E097E090838183E0E4F8E090833E
S11329C08183E0E0F9E09083818310929E2784E183
S11329D090E080934E2990934F298EE190E080936C
S11329E06A2990936B2996CF0895FF920F931F93B2
S11329F0CF93DF93C0E0D0E016C0FE01E656F44D5D
S1132A00F0806181CE0140960E94BE036F2DCE01FD
S1132A1041960E94BE032296C017D10771F7003376
S1132A20110529F0E8018E010A5F1F4FE6CF0FEA76
S1132A3019E2C0E4D0E0F801F08061810E5F1F4F1D
S1132A40CE010E94BE036F2DCE0101960E94BE03EB
S1132A502296C035D10579F7DF91CF911F910F915F
S1132A60FF9008959F92AF92BF92CF92DF92EF9220
S1132A70FF920F931F93CF93DF938EEC91E20E940A
S1132A80B8380F2EFAE9CF2EFBE2DF2EF02DE12C21
S1132A90F12C0F2EFCEDAF2EF1E2BF2EF02D02EE45
S1132AA011E2FF92EF92BF92AF920E94A2380F9070
S1132AB00F900F900F90E601912C888199812296B6
S1132AC09F938F931F930F930E94A23893940F9018
S1132AD00F900F900F9083E09812EFCF84E295E26D
S1132AE00E94B8388FEFE81AF80A86E0C80ED11CA5
S1132AF088E0E816F104A9F684E295E20E94B83869
S1132B00DF91CF911F910F91FF90EF90DF90CF90C5
S1132B10BF90AF909F900895EF92FF920F931F93F1
S1132B20CF93DF9386EE91E20E94B8380FEA19E260
S1132B30C0E0D0E00F2EFEEFEF2EF1E2FF2EF02DDD
S1132B40F801808191810E5F1F4F9F938F93DF93D4
S1132B50CF93FF92EF920E94A23821960F900F908C
S1132B600F900F900F900F90C830D10549F7DF9167
S1132B70CF911F910F91FF90EF900895E0EBF9E052
S1132B80918195FFFDCF8093B00981E090E0089595
S1132B90E0E6F6E080E8818380E48283E0EBF9E01C
S1132BA083E0858387E1868384EA878384818061E7
S1132BB0848384818860848382E190E280930C2DF5
S1132BC090930D2D10929C2710929D2780E1838372
S1132BD008951F93CF93DF9380919C2790919D2715
S1132BE0182FFC01FF27E45AF84D8081882379F0DF
S1132BF0CCE0DDE26881798190E00E9470381F5F4B
S1132C00E12FF0E0E45AF84D80818111F3CF812F58
S1132C1090E080939C2790939D27DF91CF911F9103
S1132C2008958091B0099091992B913031F48134B9
S1132C3009F4CFDF1092992B089590915B27992383
S1132C4041F08B3519F481E08093992B10925B2726
S1132C5008958D3011F08A30A9F484E295E20E943F
S1132C60B83860919C2770919D27FB01E45AF84D78
S1132C7010828CE597E20E948C2C10929C27109273
S1132C809D2708958830A1F480919C2790919D27D9
S1132C90009729F0019780939C2790939D2788E0C3
S1132CA092E29F938F930E94A2380F900F90089501
S1132CB08B3121F481E080935B27089520919C2738
S1132CC030919D272034310591F41F9280E48F9335
S1132CD08CE092E29F938F930E94A23810929C27DB
S1132CE010929D270F900F900F900F900895F90167
S1132CF0E45AF84D80832F5F3F4F20939C273093F5
S1132D009D2760910C2D70910D2D90E00C947038DE
S1132D1008951F920F920FB60F9211240BB60F92C3
S1132D202F933F934F935F936F937F938F939F93CF
S1132D30AF93BF93EF93FF9374DFFF91EF91BF9134
S1132D40AF919F918F917F916F915F914F913F913F
S1132D502F910F900BBE0F900FBE0F901F901895E0
S1132D6083E0E0E2F6E08283E0E9F3E081E080835F
S1132D7081838EE0828388E0838380E18683089563
S1132D808FE1E0E0F6E08283E0E8F3E089E080832D
S1132D908183128281E08383828180618283838143
S1132DA08061838380E186830895DADFE9CF089523
S1132DB0E0ECF0E080E2808388B1838389B183838F
S1132DC08AB183838BB183838CB183838DB18383F5
S1132DD080B3838382B3838383B3838384B3838302
S1132DE085B38383A0E0B2E094968C919497838317
S1132DF09C968C919C978383D4968C918383A0E436
S1132E00B2E094968C91949783839C968C9183835F
S1132E1081E08093132C80E191E092838150E9F763
S1132E2084E88093C0001092142C08959091142C7F
S1132E30911106C0E0ECF0E0818180FFFDCF14C069
S1132E40E0ECF0E082819F5F9093142C903190F03D
S1132E502091132C90E122839150E9F794E8909308
S1132E60C0001092142C0895E0ECF0E0828191E00F
S1132E709093142C089589E29CE22DE23CE214C064
S1132E80DF0154971C9214961C9214961C9214966B
S1132E901C9214961C9210824F5F7896463081F7EC
S1132EA001968217930719F0FC0140E0E9CF0895D9
S1132EB02F923F924F925F926F927F928F929F9246
S1132EC0AF92BF92CF92DF92EF92FF920F931F9334
S1132ED0CF93DF93C8E3D0E28C010F2EF8E62F2EB8
S1132EE0F0E23F2EF02D812C912C54012401350168
S1132EF0F80161918F0170E080E090E00E94EB2F77
S1132F006B017C01288139814A815B810E94603197
S1132F109B01AC01C301B2010E94832E2B013C0131
S1132F202C813D814E815F81C701B6010E946031D1
S1132F309B01AC01C501B4010E94832E4B015C01CD
S1132F402896C215D305A1F6A30192010E94F62E7C
S1132F50DF91CF911F910F91FF90EF90DF90CF9071
S1132F60BF90AF909F908F907F906F905F904F90A5
S1132F703F902F900895CF92DF92FF920F931F936B
S1132F80CF93DF93F62E072FA62FB72FE42FF52F1D
S1132F9026E011921D922150E1F7C42ED52E40E077
S1132FA050E017C09D0110817D91710F7193E6016E
S1132FB07881E9012881270FE60128836F5F663055
S1132FC089F74A5F5F4FDFEFCD1ADD0A44325105BE
S1132FD039F0DC01A40FB51FEF2DF02F60E0E2CF34
S1132FE0DF91CF911F910F91FF90DF90CF900895C3
S1132FF0DF92EF92FF920F931F93CF93DF9345E1FC
S11330005CE265EA7CE2E12CDD24DA941EC0C19125
S1133010C11708F41C2F0C1708F40C2FD150B9F762
S1133020011BE01608F4E02E0D93FA942C5F3F4F39
S1133030FF2029F0F901D4E000E01D2DE8CF069629
S1133040485E5F4F4617570739F09A01DC010F2E8F
S1133050F6E0FF2EF02DEECF81E093E09E1508F40C
S113306080E0DF91CF911F910F91FF90EF90DF905F
S11330700895DF92EF92FF920F931F93CF93DF9304
S113308005E11CE20F2EF5EAEF2EFCE2FF2EF02DF7
S11330900DC08D2D72D88883D394249686E0D812DF
S11330A0F8CF085E1F4F0E151F0519F0E801D12C4B
S11330B0F0CFDF91CF911F910F91FF90EF90DF90B0
S11330C008952F923F924F925F926F927F928F92C8
S11330D09F92AF92BF92CF92DF92EF92FF920F93A3
S11330E01F93CF93DF938FE59AEEA0E0B0E00197B2
S11330F0A109B109000001F0D1F7C89500008FE7DC
S11331009EE30197F1F7000000C00F2EF6E16F2E49
S1133110FCE27F2EF02D0F2EF6EA4F2EFCE25F2EFE
S1133120F02D0E9431024B015C018301332433945E
S11331300E9431026B017C01E801212C822D1DD8F3
S113314088832394249686E02812F8CF0E943102C3
S1133150DC01CB018C199D09AE09BF090397A105B8
S1133160B105A0F382E0831520F085E090E00E9491
S11331708C2433940F5F1F4F84E03812D9CF0E9400
S11331803102DC01CB0188199909AA09BB094797C7
S1133190A105B105A0F38FE090E00E948C2488E1A2
S11331A0680E711C6414750409F0BBCFDF91CF91D4
S11331B01F910F91FF90EF90DF90CF90BF90AF9051
S11331C09F908F907F906F905F904F903F902F9043
S11331D00895CF93DF931F92CDB7DEB772DF49DF37
S11331E019829E012F5F3F4F40E750E26AE070E092
S11331F080E090E00E94B2240F90DF91CF91089577
S1133200AF92BF92CF92DF92EF92FF920F931F93F0
S1133210823019F130F4882309F45BC0813071F0F5
S113322006C08430C1F140F1853009F443C0E12C7B
S1133230F12C00E010E0C12CD12C58C00F2EF0EB83
S1133240EF2EF8E0FF2EF02D00E416E06894CC2475
S1133250C7F86894DD24D1F849C00F2EF0EAEF2EA8
S1133260F9E0FF2EF02D00E616E06894CC24C3F8B4
S11332706894DD24D4F83AC00F2EF0EAEF2EFAE079
S1133280FF2EF02D00E816E06894CC24C3F868946F
S1133290DD24D5F82BC00F2EF0EBEF2EFAE0FF2E35
S11332A0F02D00E816E06894CC24C7F86894DD2477
S11332B0D7F81CC00F2EF0EAEF2EFBE0FF2EF02D06
S11332C000EA16E06894CC24C3F86894DD24D6F8A8
S11332D00DC00F2EF0EAEF2EF8E0FF2EF02D00E4E3
S11332E016E06894CC24C3F8DD24D394F701A480B9
S11332F0E0E0FBE08181BD2CB0948B218183E0EA86
S1133300F6E0D18284818D298483F7011482F80147
S1133310C18284819C2D90958923848370E080E010
S113332090E00E94E92F20E034E244EF5BE40E9445
S1133330603120E030E04AE754E40E94502F20E05E
S113334030E040E05FE30E94832E0E94BD2FAB017A
S1133350BC014D3051056105710508F45DC0413073
S1133360F4E05F0761057105D8F441505109610922
S11333707109DB01CA01B695A79597958795B6950E
S1133380A7959795879543705527662777270097C4
S1133390A105B10509F440C08A9501F0E9F73CC0E4
S11333A04230510584E068077105D0F44250510958
S11333B061097109DB01CA01B695A79597958795AF
S11333C0B695A795979587954370552766277727D0
S11333D00097A105B10501F10197F1F700001CC0A8
S11333E04450510961097109DB01CA01689412F85A
S11333F0B695A795979587951694D1F74770552755
S1133400662777270097A105B10531F00197A10937
S1133410B109000001F0D1F7413051056105710592
S113342011F400000EC0423051056105710511F41C
S113343000C00FC0433051056105710511F4C895F2
S113344010C0443051056105710519F4C895000098
S113345010C0453051056105710519F4C89500C0C7
S113346011C0463051056105710519F4C895C89518
S113347012C0473051056105710521F4C895C895FE
S1133480000012C0483051056105710521F4C8954A
S1133490C89500C013C0493051056105710521F478
S11334A0C895C895C89514C04A3051056105710581
S11334B029F4C895C895C895000013C04B30510530
S11334C06105710529F4C895C895C89500C009C05F
S11334D04C3051056105710521F4C895C895C8950E
S11334E0C895F8018481C82AC482F701A482E0EA5D
S11334F0F6E08481B822B482E0E0FBE08181D82A3E
S1133500D1821F910F91FF90EF90DF90CF90BF90E9
S1133510AF900895CF92DF92EF92FF92CF938FE016
S113352090E00E948C240E9431026B017C0180E0B7
S113353091E00E944B040E943102DC01CB018C1902
S11335409D09AE09BF090297A105B105A0F3C0E02A
S11335500E9431026B017C0167E18C2F51DE0E94D5
S11335603102AB01BC014C195D096E097F09473179
S113357051056105710598F38FE090E00E948C2459
S1133580CF5FC63029F7CF91FF90EF90DF90CF90B7
S1133590089545E050E06FE472E28FE30E94A20BCD
S11335A08FE30E94D50A8BE490E00E948C248FEF75
S11335B0B1CF0895CF92DF92EF92FF926B017C011D
S11335C020E030E0A9010E9455318823ACF02BEDB6
S11335D03FE049E450E4C701B6010E94832E2BED7D
S11335E03FE049EC50E40E942D302BED3FE049E4EC
S11335F050E40E94822E14C02BED3FE049E450E4D5
S1133600C701B6010E94822E2BED3FE049EC50E445
S11336100E942D302BED3FE049E450E40E94832EBC
S1133620FF90EF90DF90CF9008952F923F926F928A
S11336307F928F929F92AF92BF92CF92DF92EF923E
S1133640FF920F931F93CF93DF93CDB7DEB76097AD
S1133650CDBFDEBF4D875E876F87788B19821A8254
S11336601B821C821D821E821F82188608E310E2C0
S11336701C010F2EF8E66F2EF0E27F2EF02DF101E3
S113368061911F0170E080E090E00E94EB2F6B01DC
S11336907C0189809A80AB80BC80F80120813181D3
S11336A0428153810E946031A50194010E94832EBE
S11336B069837A838B839C838D809E80AF80B8845A
S11336C0F8012481358146815781C701B6010E94E2
S11336D06031A50194010E94832E6D837E838F83C4
S11336E09887085F1F4F0615170549F629813A8107
S11336F04B815C816D817E818F8198850E94F62E3D
S113370069877A878B879C87C984DA84EB84FC84F5
S11337102BED3FE049E450E46D857E858F859889E3
S11337200E94832EA70196010E94822E43DF609699
S1133730CDBFDEBFDF91CF911F910F91FF90EF902E
S1133740DF90CF90BF90AF909F908F907F906F90BD
S11337503F902F900895CF92DF92EF92FF926B01EA
S11337607C012BED3FE049EC5FEB0E9455311816CC
S11337707CF42BED3FE049EC5FE3C701B6010E9406
S1133780492F88234CF4C701B6010E944D2F07C06E
S113379060E070E0CB0103C060E070E0CB01FF901B
S11337A0EF90DF90CF900895CF92DF92EF92FF9247
S11337B06B017C012BED3FE049EC5FEB0E9455313E
S11337C018167CF42BED3FE049EC5FE3C701B6012A
S11337D00E94492F88234CF4C701B6010E944D2F43
S11337E007C060E070E0CB0103C060E070E0CB0193
S11337F0FF90EF90DF90CF9008954F3FB1F42AE00F
S113380038E64EEA5FE30E94822E0E94CD319B018E
S1133810AC0165E075E48DE991E40E94502F2FE13D
S11338203EE249E95FE30C94822E1F924F9385E5B3
S113383092E29F938F930E94A2380F900F900F9063
S11338400F9060E070E0CB0108954F925F926F9209
S11338507F928F929F92AF92BF92CF92DF92EF921C
S1133860FF920F931F93CF93DF9300D01F92CDB796
S1133870DEB72B013C0129833A834B835C83AC2D57
S1133880BD2DEE2DFF2D60E040E050E020E030E063
S11338907FEF1FEF8D9190E02817390710F49C01FA
S11338A0162F819190E04817590710F4AC01762F38
S11338B06F5F663079F7872E912CF401EE0FFF1FAE
S11338C0EE0FFF1FE05EFF4D208131814281538165
S11338D0C301B2010E94822E6B017C012BED3FE0FB
S11338E049EC5FE30E94553118160CF476C02BEDB9
S11338F03FE049EC5FEBC701B6010E94492F8823E2
S11339000CF46FC029813A814B815C81C301B201FF
S11339100E94822EE12FF0E0EE0FFF1FEE0FFF1F3B
S1133920E05EFF4D20813181428153810E94822ECD
S11339302BED3FE049E450E40E94822E3BDE2B0154
S11339403C012BED3FE049EC5FE30E945531181632
S11339500CF44BC02BED3FE049EC5FEBC301B2012B
S11339600E94492F88230CF444C0C701B601F3DE3A
S11339706B017C01C301B20117DF9B01AC01C701DC
S1133980B6010E9460316B017C0120E030E0A901A6
S11339900E94553118168CF5812F90E09C01220F5E
S11339A0331F820F931F880F991FA80EB91EF401AD
S11339B0EA0DFB1D608170E080E090E00E94EB2F37
S11339C0A70196010E94502F402F17DF28E93CE4FD
S11339D045E850E40E94832E13C060E070E0CB0100
S11339E00FC060E070E0CB010BC060E070E0CB0181
S11339F007C060E070E0CB0103C060E070E0CB0181
S1133A002496CDBFDEBFDF91CF911F910F91FF9020
S1133A10EF90DF90CF90BF90AF909F908F907F906A
S1133A206F905F904F9008952F923F924F925F92C4
S1133A306F927F928F929F92AF92BF92CF92DF92BA
S1133A40EF92FF920F931F93CF93DF93CDB7DEB71F
S1133A50C75BD109CDBFDEBFC955DF4F688379830A
S1133A608A839B83C75AD040C555DF4F2883398347
S1133A704A835B83CB5AD040CD54DF4FE882F9822E
S1133A800A831B83C35BD040C954DF4FC882C75B22
S1133A90D040CA56DF4FA882C659D040C956DF4F1E
S1133AA0B882C759D040CE010196CF54DF4F8883E6
S1133AB09983C15BD040E0E2F0E2CB55DF4FE8836D
S1133AC0F983C55AD04088E390E2C756DF4F888314
S1133AD09983C959D040CD55DF4F1882C35AD0407D
S1133AE09FEFC055DF4F9883C05BD040EFEFC155C7
S1133AF0DF4FE883CF5AD040C856DF4F1882C859E9
S1133B00D0403EC2CE56DF4F8881C259D040CA56FB
S1133B10DF4FF881C659D0408F1BCE56DF4FE88166
S1133B20F981C259D0402191CE56DF4FE883F98301
S1133B30C259D040CF56DF4F2883C159D040C85610
S1133B40DF4F9881C859D0409217A0F4C055DF4F79
S1133B508883C05BD040CC55DF4FE881C45AD04045
S1133B60C155DF4FE883CF5AD040C856DF4F288372
S1133B70C859D040CF56DF4FF881C159D040F430F6
S1133B8008F49BC128E93CE445E050E4F10160817C
S1133B907181828193810E946031C556DF4F6883B1
S1133BA079838A839B83CB59D04028E93CE445E060
S1133BB050E4F10164817581868197810E946031AE
S1133BC0C156DF4F688379838A839B83CF59D04062
S1133BD0C555DF4F688179818A819B81CB5AD0405A
S1133BE00E944D2F4B015C0128E93CE445E050E480
S1133BF0C756DF4FE881F981C959D040608171818E
S1133C00828193810E9460316B017C01C955DF4F31
S1133C10288139814A815B81C75AD040C501B401EA
S1133C200E9460319B01AC01C701B6010E94832E42
S1133C304B015C01C555DF4F688179818A819B8185
S1133C40CB5AD0400E94C3312B013C0128E93CE40B
S1133C5045E050E4C756DF4FE881F981C959D040A7
S1133C6064817581868197810E9460316B017C013A
S1133C70C955DF4F288139814A815B81C75AD040B9
S1133C80C301B2010E9460319B01AC01C701B601BE
S1133C900E94832E6B017C01C556DF4F2881398138
S1133CA04A815B81CB59D040C501B4010E94822E68
S1133CB02B013C01C156DF4F288139814A815B8148
S1133CC0CF59D040C701B6010E94822EA3019201B0
S1133CD00E94F62ECC56DF4FE881F981C459D040BA
S1133CE020813181428153810E94822E2B013C012B
S1133CF0A5019401C556DF4F688179818A819B8132
S1133D00CB59D0400E94822E4B015C01A701960141
S1133D10C156DF4F688179818A819B81CF59D04018
S1133D200E94822EA50194010E94F62ECB55DF4FEE
S1133D30E881F981C55AD040208131814281538183
S1133D400E94822ECD54DF4F288139814A815B81C4
S1133D50C35BD0400E94822E6B017C01C301B2017F
S1133D6029DC2B013C01C701B60124DC6B017C0179
S1133D70C301B201F0DCC556DF4F688379838A83BF
S1133D809B83CB59D040C701B6010EDD6B017C018A
S1133D90CF56DF4FF881C159D0406F2F70E080E0DB
S1133DA090E00E94EB2F4B015C01A7019601C556E0
S1133DB0DF4F688179818A819B81CB59D0400E94F1
S1133DC060319B01AC01C501B4010E94502FC9545C
S1133DD0DF4F4881C75BD04010DD4B015C01C3015C
S1133DE0B2010E944D2FA50194010E9460316B0124
S1133DF07C01C756DF4FE881F981C959D040208141
S1133E00318142815381F101608171818281938189
S1133E100E94822E28E93CE445E050E40E9460318F
S1133E209B01AC01C701B6010E94832E6B017C018A
S1133E30C301B2010E94C331A50194010E94603103
S1133E404B015C01C756DF4FE881F981C959D04065
S1133E502481358146815781F10164817581868190
S1133E6097810E94822E28E93CE445E050E40E94B8
S1133E7060319B01AC01C501B4010E94832E4B014A
S1133E805C01A7019601C701B6010E9460316B0174
S1133E907C01A5019401C501B4010E9460319B011C
S1133EA0AC01C701B6010E94832E0E94CD31F801F6
S1133EB0608371838283938305C0F8011082118229
S1133EC012821382F8E02F0E311CCC56DF4F88810A
S1133ED09981C459D0400496CC56DF4F8883998386
S1133EE0C459D0400C5F1F4F98E6291690E239065A
S1133EF009F008CECD55DF4FE881C35AD040EF5FBB
S1133F00CD55DF4FE883C35AD040C756DF4F888171
S1133F109981C959D0400896C756DF4F8883998341
S1133F20C959D040CB55DF4FE881F981C55AD040FB
S1133F303496CB55DF4FE883F983C55AD040CA562F
S1133F40DF4F88819981C659D0400696CA56DF4F03
S1133F5088839983C659D040CF54DF4FE881F981D3
S1133F60C15BD0407896CF54DF4FE883F983C15BBF
S1133F70D040CD55DF4FF881C35AD040F63059F1C7
S1133F80CF54DF4F08811981C15BD04080E290E2B9
S1133F90CC56DF4F88839983C459D0400F2EF8E361
S1133FA02F2EF0E23F2EF02DCA56DF4FE881F98123
S1133FB0C659D040CE56DF4FE883F983C259D0406A
S1133FC0CD55DF4FF881C35AD040CC55DF4FF8832D
S1133FD0C45AD04097CDC155DF4F2881CF5AD04025
S1133FE0822F90E0FC01EE0FFF1F8E0F9F1FFC013C
S1133FF0EE0FFF1FC055DF4F8881C05BD040E80F34
S1134000F11DEE0FFF1FEE0FFF1FEC0FFD1F61816F
S1134010728183819481C954DF4FCDBFDEBFDF91AC
S1134020CF911F910F91FF90EF90DF90CF90BF90B1
S1134030AF909F908F907F906F905F904F903F9044
S11340402F900895CF92DF92EF92FF920F931F93D8
S1134050CF93DF93D82FC92F8BE790E00E94B3381A
S1134060ED2EFC2EC12C0FE812E28BE790E00E94AB
S1134070B338E701D12C89911F928F931F930F932B
S11340800E94A2380F900F900F900F9084E08D152E
S113409020F08CE290E00E94B338D39486E0D812EA
S11340A0EACF8DE790E00E94B33884E08C1520F0CD
S11340B08CE290E00E94B338C39486E0E80EF11CD1
S11340C086E0C812D2CF8EEB92E20E94B838DF911C
S11340D0CF911F910F91FF90EF90DF90CF900895B3
S11340E04F925F926F927F928F929F92AF92BF9204
S11340F0CF92DF92EF92FF920F931F93CF93DF93B0
S1134100CDB7DEB7E897CDBFDEBF182FCE0101963D
S11341100E94F81781116EC0CE01019693DFAE01A3
S11341204B5D5F4FBE01655D7F4FCE0101960E94DE
S1134130BB17CE018B960E9458172B013C01AB0193
S1134140BC01CE01859671DA69AB7AAB8BAB9CABC3
S1134150CE0101965C01DE0195966D018A967C0183
S1134160012F29A93AA94BA95CA9C301B2016DDBAE
S11341706DAB7EAB8FAB98AF20E030E0A9010E941D
S1134180492F8823B9F1C12EE9A8FAA80BA91CA9C3
S1134190A30192016DA97EA98FA998AD45DC609316
S11341A0522970935329809354299093552940920E
S11341B0562950925729609258297092592989A9F1
S11341C09AA9ABA9BCA980935A2990935B29A0937F
S11341D05C29B0935D29A0925E29B0925F298091F9
S11341E0492990914A29809360299093612981E01B
S11341F080936829E896CDBFDEBFDF91CF911F91F0
S11342000F91FF90EF90DF90CF90BF90AF909F9071
S11342108F907F906F905F904F900895FF920F93CF
S11342201F93CF93DF93CDB7DEB72797CDBFDEBF04
S11342308C01F62E87E0E2E9F2E2DE0111960190AC
S11342400D928A95E1F76F8385E19CE20E9439180B
S1134250980147E050E0BE016F5F7F4F8FE30E94FB
S1134260F40A8FE30E94D50A8BE490E055D30E94B0
S113427061188F2D35DF2796CDBFDEBFDF91CF913B
S11342801F910F91FF900895E0E8F6E080E28183AA
S113429080E18183E0E6F6E08183E0E4FAE08FEFF9
S11342A090E086A397A312A613A620812160208301
S11342B021812360218321812062218386A397A306
S11342C010A611A6208121602083218123602183EF
S11342D0218120612183E0E4F9E086A397A310A65D
S11342E011A6808181608083818183608183818143
S11342F0806181830895E0E4F9E010AE11AEE0E45A
S1134300FAE010AE11AE12AE13AE089590E0E0E400
S1134310FAE082AF93AF70E060AF71AF50E0E0E4D9
S1134320F9E040AF51AF08952F923F924F925F92C0
S11343306F927F928F929F92AF92BF92CF92DF92B1
S1134340EF92FF920F931F93CF93DF93CDB7DEB716
S11343502B97CDBFDEBFFC01D62EB42E2C833D831C
S11343601801EA82FB829C01A3E8BDE20E94D435D5
S11343700024880F991F001C880F991F001C892F87
S1134380902D48E651E0849F9001859F300D949FC5
S1134390300D1124BF01621B730B80E090E00E947A
S11343A0E92F2B013C016D2D70E080E090E00E942C
S11343B0EB2F20E030E04FE753E40E94502F6B01D5
S11343C07C016B2D70E080E090E00E94EB2F20E0F8
S11343D030E04FE753E40E94502F062F172F8B87AE
S11343E09A87C701B6010E94B82F9B01772324F452
S11343F022273327261B370BB901882777FD8095A1
S1134400982F0E94EB2F2CEA35EC47E257E30E94E9
S1134410492F88232CF4AA81BB81BC92F101B0827C
S113442020E030E040E752E4C301B2010E94502F83
S11344304B015C010E94BD2F698370E080E090E035
S11344400E94EB2F9B01AC01C501B4010E94822E96
S11344504B015C01A701960160E070E080E89FE3F6
S11344600E94822E202F312F4B855A850E94603165
S1134470662E772E482E592EA5019401C701B60148
S11344800E9460319B01AC0160E070E080E89FE332
S11344900E94822E202F312F4B855A850E94603135
S11344A06E837F8388879987A501940160E070E01B
S11344B080E89FE30E94822EA70196010E9460314A
S11344C09B01AC0160E070E080E89FE30E94822ED3
S11344D0202F312F4B855A850E946031C62ED72E4E
S11344E0E82EF92EF981F23031F130F4FF2309F48A
S11344F05DC0F130A9F007C029812430F1F160F1E9
S1134500253009F44BC0612C712C412C512CC12C49
S1134510D12CE12CF12C00E010E01B861A8646C059
S1134520C02ED12EEB84FA840E811F8188858B875F
S1134530A985AA873BC0302F212F9B858A85062D0C
S1134540172D4B865A866C2C7D2C4E2C5F2CC32E3B
S1134550D22EE92EF82E2AC0CE80DF80E884F9849A
S1134560302F212F9B858A85062D172D4B865A8641
S1134570632E722E492E582E19C0302F212F9B8561
S11345808A850C2D1D2DEB86FA86C62CD72CE42C9F
S1134590F52C632E722E492E582E08C0C62CD72C0B
S11345A0E42CF52C6E807F804884598420E030E030
S11345B04FE753E4602F712F8B859A850E946031F9
S11345C00E94BD2FEC81FD81608320E030E04FE745
S11345D053E4662D772D842D952D0E9460310E9421
S11345E0BD2FAA81BB816C9320E030E04FE753E4F8
S11345F06C2D7D2D8E2D9F2D0E9460310E94BD2F2C
S1134600F10160832B96CDBFDEBFDF91CF911F9167
S11346100F91FF90EF90DF90CF90BF90AF909F905D
S11346208F907F906F905F904F903F902F90089560
S1134630EF92FF920F931F93CF93DF9300D0CDB7E8
S1134640DEB79E012D5F3F4F79018E010E5F1F4F34
S11346502250310969DE8B812A81498150E0E0E4EE
S1134660FAE042AF53AF30E020AF31AF90E0E0E486
S1134670F9E080AF91AF2396CDBFDEBFDF91CF913C
S11346801F910F91FF90EF90089580EEE0E0F6E027
S11346908283E0E0F2E081E0808382E0828384E14F
S11346A0818387E0848380B5848781B585878BE0A7
S11346B080A380A78FE080AB88E281A380E381A7F9
S11346C088E381AB81A1846081A381A5846081A7F3
S11346D081A9846081AB0895CF93DF93CDB7DEB712
S11346E02797CDBFDEBFDE011196CE010896E0E02C
S11346F0F2E031E033A320A1206820A323A12223E8
S1134700E9F324A12D93A817B907A1F767E0CE0117
S113471001960E946D102796CDBFDEBFDF91CF9129
S11347200895CF93DF93CDB7DEB72797CDBFDEBF14
S1134730DE011196CE010896E0E0F2E031E033A705
S113474020A5206820A723A52223E9F324A52D93DF
S1134750A817B907A1F767E0CE0101960E946D1072
S11347602796CDBFDEBFDF91CF910895CF93DF931E
S1134770CDB7DEB72797CDBFDEBFDE011196CE01E0
S11347800896E0E0F2E031E033AB20A9206820ABEA
S113479023A92223E9F324A92D93A817B907A1F784
S11347A067E0CE0101960E946D102796CDBFDEBF53
S11347B0DF91CF9108955F926F927F928F929F9233
S11347C0AF92BF92CF92DF92EF92FF920F931F931B
S11347D0CF93DF935C016B017A01E0E4FAE082ACF1
S11347E093AC782CC0ADD1AD6C2EE0E4F9E000AD13
S11347F011AD502E811004C0C11102C0002339F044
S113480040E060E080E082DD86E990E085D0A1149C
S1134810B10419F061DFF5018083C114D10419F0EA
S113482080DFF6018083E114F10419F09FDFF701C2
S11348308083711004C0611002C0552021F0402F04
S11348406C2F882D63DDDF91CF911F910F91FF9025
S1134850EF90DF90CF90BF90AF909F908F907F901C
S11348606F905F9008951092CE2B1092CF2B1092E0
S11348704D29109250291092A52C2FB7F89410921C
S1134880592710925A2785E0E0E4F0E0838383E01F
S1134890E0E0F4E08283818180FDFDCF8FEF9FEF24
S11348A0E0E0F4E082879387818180FDFDCF81E0A1
S11348B080930004E0E0F4E0818180FDFDCFE0E03E
S11348C0F4E0108611862FBF089588ED84BF82E03E
S11348D080935000E0E5F0E0818181FFFDCF88ED19
S11348E084BFE0E4F0E081E0808385E08383E0E05E
S11348F0F4E0818180FDFDCFE0E0F4E08FEF9FEFF5
S11349008287938781E08083818180FDFDCFE0E011
S1134910F4E0108611860895CF92DF92EF92FF9211
S11349207C01F8940E94310278949B01AC012E0D15
S11349303F1D411D511D69017A01F8940E94310205
S11349406C157D058E059F0510F0789406C078944B
S11349503AE63A95F1F700C0F0CFFF90EF90DF9080
S1134960CF9008958F929F92AF92BF92CF92DF9291
S1134970EF92FF920F931F93CF93DF9300D01F9278
S1134980CDB7DEB769837A838B839C836A0179010F
S113499080914D298A3008F0E8C04091A52C842FDD
S11349A090E001966AE070E00E94BB35582F4817EA
S11349B091F19927FC01EE0FFF1F9C01220F331F79
S11349C0220F331F220F331FE20FF31FEA55F34D5B
S11349D024813581232BF9F0EAE0F0E015C0992712
S11349E0DC01AA0FBB1F9C01220F331F220F331FB0
S11349F0220F331FA20FB31FAA55B34D14962D9146
S1134A003C911597232B39F00196BF010E94BB35C9
S1134A10582F4813E4CF5093A52C852F90E08C0198
S1134A20000F111F880F991F880F991F880F991F56
S1134A30080F191F0A55134D0115110509F497C0E4
S1134A400E94310289809A80AB80BC80DC01CB015A
S1134A50880D991DAA1DBB1D8230910530F0F80107
S1134A6080839183A283B38308C00496A11DB11DE2
S1134A70F80180839183A283B383D8011696ED92C3
S1134A80FC9217971496CD92DC9215972FB7F89451
S1134A90C090CE2BD090CF2BF801C086D186C11404
S1134AA0D10471F04081518162817381F60180816A
S1134AB09181A281B38184179507A607B70790F166
S1134AC00093CE2B1093CF2BF80180819181A2818A
S1134AD0B3814091592750915A27E0E0F4E0C28411
S1134AE0D38460E070E0BA0155274427E12CF12C0F
S1134AF04C295D296E297F29481759076A077B07C6
S1134B0058F0318130FDFDCFE0E0F4E084879587F3
S1134B1082818460828322C0E0E0F4E082818B7F22
S1134B2082831CC0D6011896ED90FC901997E1146D
S1134B30F10461F0F70180819181A281B38184172E
S1134B409507A607B70710F46701ECCFD8011896AC
S1134B50ED92FC921997F6010087118780914D29F7
S1134B608F5F80934D292FBF02C000E010E0C80181
S1134B702496CDBFDEBFDF91CF911F910F91FF909F
S1134B80EF90DF90CF90BF90AF909F908F9008955B
S1134B901F93CF93DF93FC011FB7F894A091CE2B02
S1134BA0B091CF2B109709F4B1C08A179B0709F075
S1134BB050C0808591858093CE2B9093CF2B80918C
S1134BC0A52C90E0AC01440F551F9C01220F331F0C
S1134BD0220F331F220F331F240F351F2A55334D45
S1134BE0E217F307E9F4FC01EE0FFF1F9C01220F0B
S1134BF0331F220F331F220F331FE20FF31FEA5517
S1134C00F34D1482158209966AE070E00E94BB3568
S1134C108093A52C80914D29815080934D2978C093
S1134C20CAE0D0E00996BE010E94BB359927AC01C9
S1134C30440F551F9C01220F331F220F331F220FD5
S1134C40331F240F351F2A55334DE217F30751F74D
S1134C50CACF18962D913C9119972115310509F465
S1134C6057C0E217F30711F0D901F3CF808591857E
S1134C7018968D939C9319978091A52C90E0AC0184
S1134C80440F551F9C01220F331F220F331F220F85
S1134C90331F240F351F2A55334DE217F307E9F468
S1134CA0FC01EE0FFF1F9C01220F331F220F331F45
S1134CB0220F331FE20FF31FEA55F34D14821582BE
S1134CC009966AE070E00E94BB358093A52C809120
S1134CD04D29815080934D291BC0CAE0D0E009962C
S1134CE0BE010E94BB359927AC01440F551F9C019E
S1134CF0220F331F220F331F220F331F240F351FA0
S1134D002A55334DE217F30751F7CACF1FBF01C02D
S1134D101FBFDF91CF911F910895FF920F931F93AF
S1134D20CF93DF93FFB6F894C091CE2BD091CF2BC5
S1134D309091502980914D291F929F931F928F9398
S1134D4082EC92E29F938F930E94A2380F900F906F
S1134D500F900F900F900F90209721F10DEE12E21B
S1134D600E9431029F938F937F936F938B818F93D4
S1134D708A818F9389818F9388818F938D818F937B
S1134D808C818F93DF93CF931F930F930E94A2384C
S1134D900884D985C02D8DB79EB70E968DBF9EBF52
S1134DA02097F1F6FFBEDF91CF911F910F91FF90F5
S1134DB008951FB7F894E091CE2BF091CF2B309744
S1134DC009F067C0A6C0E090CE2BF090CF2BD7019E
S1134DD018968D919C9119978093CE2B9093CF2BFD
S1134DE07894D7011496ED91FC91159716968D91B0
S1134DF09C9117971995F8948091A52C90E0AC019B
S1134E00440F551F9C01220F331F220F331F220F03
S1134E10331F240F351F2A55334DE216F30611F5BF
S1134E20FC01EE0FFF1F9C01220F331F220F331FC3
S1134E30220F331FE20FF31FEA55F34D148215823C
S1134E400996BE010E94BB358093A52C80914D2903
S1134E50815080934D29E091CE2BF091CF2B309748
S1134E60D1F457C00996BE010E94BB359927AC0105
S1134E70440F551F9C01220F331F220F331F220F93
S1134E80331F240F351F2A55334DE216F30651F70D
S1134E90C7CFCAE0D0E0C080D180E280F3800E9416
S1134EA03102DC01CB010296A11DB11D8C159D05BB
S1134EB0AE05BF0508F087CFE091CE2BF091CF2B44
S1134EC0309739F180819181A281B3814091592732
S1134ED050915A27E0E0F4E0C284D38460E070E0AB
S1134EE0BA0155274427E12CF12C4C295D296E2960
S1134EF07F29481759076A077B0758F0218120FD4D
S1134F00FDCFE0E0F4E0848795878281846082832A
S1134F1005C0E0E0F4E082818B7F82831FBF0C94A4
S1134F2009021F920F920FB60F9211240BB60F9223
S1134F30CF92DF92EF92FF922F933F934F935F9321
S1134F406F937F938F939F93AF93BF93CF93EF937D
S1134F50FF93CFB7F8948091592790915A270196DF
S1134F608093592790935A27E091CE2BF091CF2B21
S1134F70309709F43FC0C080D180E280F3808091F3
S1134F80592790915A27E0E0F4E042855385A0E048
S1134F90B0E0DC019927882760E070E0842B952B32
S1134FA0A62BB72BC816D906EA06FB0618F50E94ED
S1134FB03102DC01CB010296A11DB11D8C159D05AA
S1134FC0AE05BF0598F4E0E0F4E0818180FDFDCFFB
S1134FD0E091CE2BF091CF2B80819181E0E0F4E041
S1134FE08487958782818460828302C00C94DB016C
S1134FF0CFBF01C0CFBFFF91EF91CF91BF91AF91D0
S11350009F918F917F916F915F914F913F912F91DC
S1135010FF90EF90DF90CF900F900BBE0F900FBEDC
S11350200F901F9018950895FC0180819181A281B1
S1135030B381AD0166277727642FF0C80895EF92F6
S1135040FF920F931F93CF93DF930E946F11C0E0E1
S1135050D0E090E0082F10E00F2EFBE1EF2EF3E2FA
S1135060FF2EF02D98010C2E02C0359527950A9439
S1135070E2F720FF0BC0DF93CF93FF92EF920E94E1
S1135080A2380F900F900F900F9091E02196C630A8
S1135090D10541F7911108C080E293E29F938F9369
S11350A00E94A2380F900F9084E295E20E94B838D3
S11350B0DF91CF911F910F91FF90EF900895FF9290
S11350C00F931F93CF93DF931F921F92CDB7DEB739
S11350D020E230E029833A83BE016F5F7F4F0E9454
S11350E0FC37FC01F080BE016F5F7F4F80E090E0F1
S11350F00E94FC370E94F4368C010097F1F0F0ED29
S1135100FF0E48EC60E080E001D91F930F931F92DB
S1135110FF9225E233E23F932F930E94A238B80115
S11351208F2D0E94791240E060E080E0EFD80F906C
S11351300F900F900F900F900F900F900F90DF91A2
S1135140CF911F910F91FF9008951F93CF93DF93F9
S11351501F921F92CDB7DEB720E230E029833A8355
S1135160BE016F5F7F4F0E94FC37FC01108110531A
S1135170BE016F5F7F4F80E090E00E94FC370E9489
S1135180F436BC01812F0E9434140F900F90DF91EC
S1135190CF911F910895CF93DF9300D0CDB7DEB7A1
S11351A0AE014D5F5F4FBE016E5F7F4FCE01019632
S11351B002DB2B81822F992787FD90959F932F9354
S11351C02A81822F992787FD90959F932F93298178
S11351D0822F992787FD90959F932F9387E493E2DD
S11351E09F938F930E94A238CDBFDEBF2396CDBF7D
S11351F0DEBFDF91CF910895CF93DF931F921F926B
S1135200CDB7DEB720E230E029833A83BE016F5F79
S11352107F4F0E94FC370E94F4360E944B040F908B
S11352200F90DF91CF91089540E060E084EB6ED859
S113523080E090E00E944A1240E060E080E066C8AE
S113524008950F931F93CF93DF931F921F92CDB7AF
S1135250DEB720E230E029833A83BE016F5F7F4FDF
S11352600E94FC37009729F483E693E20E94B83841
S113527079C00E94F4368C01883070F011271F9396
S11352800F9387E893E29F938F930E94A2380F9025
S11352900F900F900F9066C0BE016F5F7F4F80E04C
S11352A090E00E94FC37009729F483EA93E20E947D
S11352B0B83858C011270E94F436F801EE0FFF1FCA
S11352C0E00FF11FEE0FFF1FE656F44D808391832C
S11352D0BE016F5F7F4F80E090E00E94FC37009733
S11352E029F487EC93E20E94B8383CC00E94F4365B
S11352F0F801EE0FFF1FE00FF11FEE0FFF1FE65640
S1135300F44D82839383BE016F5F7F4F80E090E012
S11353100E94FC37009729F48CEE93E20E94B8387F
S113532021C00E94F436F801EE0FFF1FE00FF11FB9
S1135330EE0FFF1FE656F44D848395839F938F935E
S113534083818F9382818F9381818F9380818F93C7
S11353501F930F9380E194E29F938F930E94A2384E
S1135360CDBFDEBF0F900F90DF91CF911F910F91B2
S113537008951F93CF93DF931F921F92CDB7DEB78B
S113538020E230E029833A83BE016F5F7F4F0E94A1
S1135390FC37FC0110811053BE016F5F7F4F80E02A
S11353A090E00E94FC370E94F436BC01812F0E94D9
S11353B081140F900F90DF91CF911F91089520E0F9
S11353C030E049EC5AE165E070E080E090E0CACA60
S11353D008950F931F93CF93DF9300D000D0CDB7E0
S11353E0DEB720E230E029833A83BE016F5F7F4F4E
S11353F00E94FC370E94F4368C01BE016F5F7F4F20
S113540080E090E00E94FC370E94F436A80160E03E
S113541070E0682B4B835C836D837E839E012D5FDC
S11354203F4F44E158E265E070E080E090E09ADAB2
S11354302696CDBFDEBFDF91CF911F910F910895C6
S11354400F931F93CF93DF93EC010E9431020091DD
S1135450CA2B1091CB2B2091CC2B3091CD2BAB01AF
S1135460BC01401B510B620B730B4A5F5F4F6F4FC4
S11354707F4F4B3451056105710528F48BE490E0AE
S1135480841B950B49DA88818E5F0E948A1ADF910A
S1135490CF911F910F9108950F931F930E94310292
S11354A00091CA2B1091CB2B2091CC2B3091CD2B7A
S11354B0AB01BC01401B510B620B730B4B5F5F4F85
S11354C06F4F7F4F4B3451056105710528F48BE410
S11354D090E0841B950B20DA0E94E9181092682949
S11354E01F910F9108956F927F928F929F92AF9226
S11354F0BF92CF92DF92EF92FF920F931F93CF93BD
S1135500DF931F921F92CDB7DEB7782E692E80E20B
S113551090E089839A83BE016F5F7F4F872D962D1C
S11355200E94FC377C01FC0101900020E9F73197CF
S11355306F01C81AD90A6EE474E20E940838892BF4
S113554021F01C141D041CF15BC0BE016F5F7F4F72
S113555080E090E00E94FC370E94F4368C01BE018A
S11355606F5F7F4F80E090E00E94FC370E94F4362A
S1135570F82EBE016F5F7F4F80E090E00E94FC3701
S11355800E94F436482F6F2DC80152D851C000E054
S113559010E00F2EF0E4AF2EF9E0BF2EF02D0F2E09
S11355A0F0E48F2EFAE09F2EF02DBE016F5F7F4F47
S11355B080E090E00E94FC37F70121917F012237BF
S11355C039F40E94F4369927F40182AF93AF12C0E4
S11355D0273639F40E94F4369927F40180AF91AF4D
S11355E009C0223669F40E94F4369C013327F50180
S11355F020AF31AF0F5F1F4FC016D106B1F618C0F0
S11356006F927F9282E594E29F938F930E94A238D7
S11356108DE994E20E94B83880EE94E20E94B83892
S113562086E295E20E94B8380F900F900F900F9089
S11356300F900F90DF91CF911F910F91FF90EF90FA
S1135640DF90CF90BF90AF909F908F907F906F909E
S1135650089520E030E043E158E265E070E080E046
S113566090E080C90895809153278F9380915227A9
S11356708F9384E595E29F938F930E94A2380F90B5
S11356800F900F900F900895CF93DF93D82FC92FC9
S1135690E82FF92FDF010D900020E9F71197AE1BD9
S11356A0BF0BBF93AF939F938F9325E635E23F9350
S11356B02F930E94A238ED2FFC2FDF010D900020C4
S11356C0E9F71197AD014E1B5F0B6D2F7C2F8FE314
S11356D00E94A20B0F900F900F900F900F900F90BD
S11356E0DF91CF910895CF92DF92EF92FF920F93C3
S11356F01F93CF93DF93CDB7DEB7A597CDBFDEBFA2
S11357008C016DE872E20E9418387C01FF24A70125
S1135710B801CE0101960E9427388FEFE81AF80AE3
S1135720B8016E0D7F1D8E010A5F1F4FC8010E94D4
S1135730113840E150E060E070E0CE0101960E9433
S1135740E3356B017C01F80101900020E9F7319702
S1135750E01BF10BFF93EF931F930F9381E995E205
S11357609F938F930E94A238F80101900020E9F7DB
S11357703197AF01401B510B9601B8018FE30E9492
S1135780F40A0F900F900F900F900F900F90A59622
S1135790CDBFDEBFDF91CF911F910F91FF90EF90AE
S11357A0DF90CF900895FC0180818823E1F0DF0130
S11357B00D900020E9F71197AE1BBF0BA034B10583
S11357C0A0F01F928FE38F93BF93AF9381EF95E285
S11357D09F938F930E94A2380F900F900F900F9079
S11357E00F900F900895E2EBF5E2DF010D90002099
S11357F0E9F71197AD014E1B5F0BBF018FE30C94CA
S1135800F60C0895EF92FF920F931F93CF93DF93BB
S1135810CDB7DEB7A597CDBFDEBF8C016DE872E2D0
S11358200E9418387C01FF24A701B801CE0101961B
S11358300E942738B8016E0D7F1D8E010A5F1F4F2D
S1135840C8010E94113840E150E060E070E0CE01F0
S113585001960E94E335F80101900020E9F73197A1
S1135860AF01401B510B9B01B8018FE30E944B0C0D
S1135870A596CDBFDEBFDF91CF911F910F91FF9011
S1135880EF9008950F931F93CF93DF9361157105E4
S113589079F1FC011081112371F1DC011196680F7B
S11358A0791F01E0E0E0F0E003C01D911123E1F075
S11358B0103249F4013071F4E40FF51F108200E056
S11358C0E0E0F0E00CC0013029F4EA01CE0FDF1F64
S11358D0188304C0E901CE0FDF1F18833196A61781
S11358E0B70719F7CF0101C0CF01013061F405C03A
S11358F0E0E0F0E002C0E0E0F0E0E40FF51F108229
S1135900F901108204C0F901E80FF91F1082DF9138
S1135910CF911F910F910895CF93DF93CDB7DEB749
S1135920C058D109CDBFDEBFFC012081222309F478
S113593030C19E012F5F3F4FAE014F5B5F4FA2DF2F
S11359406EE276E2CE018F5B9F4F0E940838892B6E
S113595021F4CE010196B3DB1CC162E576E2CE01EF
S11359608F5B9F4F0E940838892B21F4CE0101964A
S1135970ECDB0FC169E376E2CE018F5B9F4F0E949F
S11359800838892B11F407DC04C161E476E2CE0106
S11359908F5B9F4F0E940838892B21F4CE0101961A
S11359A02BDCF7C068E476E2CE018F5B9F4F0E9448
S11359B00838892B11F443DBECC06DE476E2CE01A8
S11359C08F5B9F4F0E940838892B11F42DDCE1C0B6
S11359D067E576E2CE018F5B9F4F0E940838892BE2
S11359E021F4CE0101962DDCD4C062E676E2CE012C
S11359F08F5B9F4F0E940838892B21F4CE010196BA
S1135A00B8DCC7C064E776E2CE018F5B9F4F0E948B
S1135A100838892B11F4D3DCBCC06AE776E2CE01E6
S1135A208F5B9F4F0E940838892B21F4CE01019689
S1135A30D0DCAFC060E876E2CE018F5B9F4F0E945E
S1135A400838892B21F4CE010196FADCA2C06FE458
S1135A5072E2CE018F5B9F4F0E940838892B11F4AC
S1135A601BDD97C066E876E2CE018F5B9F4F0E94F4
S1135A700838892B21F4CE01019635DD8AC06EE801
S1135A8076E2CE018F5B9F4F0E940838892B11F478
S1135A90EADD7FC065E976E2CE018F5B9F4F0E940D
S1135AA00838892B11F4D5DD74C066EA76E2CE019C
S1135AB08F5B9F4F0E940838892B21F4CE010196F9
S1135AC0E3DD67C062EA76E2CE018F5B9F4F0E94FE
S1135AD00838892B21F4CE01019605DE5AC06AEA02
S1135AE076E2CE018F5B9F4F0E940838892B21F408
S1135AF0CE01019658DE4DC06EEA76E2CE018F5B90
S1135B009F4F0E940838892B21F4CE0101967ADE3A
S1135B1040C062EB76E2CE018F5B9F4F0E94083853
S1135B20892B11F4FAD835C068EB76E2CE018F5B8D
S1135B309F4F0E940838892B19F40E94850329C0BD
S1135B406EEB76E2CE018F5B9F4F0E940838892B63
S1135B5029F40E9432150E948C151BC063ED76E275
S1135B60CE018F5B9F4F0E940838892B19F40E9445
S1135B70F5140FC0CE018F5B9F4F9F938F9388EED8
S1135B8096E29F938F930E94A2380F900F900F90EC
S1135B900F90C058DF4FCDBFDEBFDF91CF91089586
S1135BA0CF93DF93EC01623091F018F4613031F05F
S1135BB029C06330A9F06430E1F024C08DE0EFE83F
S1135BC0F0E2DE0101900D928A95E1F723C08DE0A9
S1135BD0E2E8F0E2DE0101900D928A95E1F71AC045
S1135BE08DE0E5E7F0E2DE0101900D928A95E1F7A0
S1135BF011C08DE0E8E6F0E2DE0101900D928A9595
S1135C00E1F708C08AE097E29F938F930E94A2383D
S1135C100F900F90CE01DF91CF910895CF93DF9332
S1135C20CDB7DEB72D97CDBFDEBF4FEF6AE08AE078
S1135C300E94862160919C20CE010196B1DFCE01A5
S1135C4009969F938F938AE197E29F938F930E9483
S1135C50A2380F900F900F900F902D96CDBFDEBFFE
S1135C60DF91CF910895CF92DF92EF92FF920F933D
S1135C701F93CF93DF93CDB7DEB76A97CDBFDEBF57
S1135C80CE86DF86E88AF98A0A8B1B8B2C8B3D8BA8
S1135C904E8B5F8B688F798F8A8F8DE0FE013E96E5
S1135CA0DE01119601900D928A95E1F74DE0BE0157
S1135CB06F5F7F4F8FE30E94F60C88EE93E00E94A3
S1135CC08C246A96CDBFDEBFDF91CF911F910F91D7
S1135CD0FF90EF90DF90CF900895FC0181858D3087
S1135CE011F426813781C90108969F938F938BE223
