S01900004368656D5F73696D5F64726F706C6574732E737265631A
S1130000B9C10000D7C10000D5C10000D3C10000B0
S1130010D1C10000CFC10000CDC10000CBC10000A0
S1130020C9C10000C7C100000C946E27C4C1000000
S1130030C1C10000BFC10000BDC10000BBC10000C0
S1130040B9C10000B7C10000B5C10000B3C10000D0
S1130050B1C10000AFC10000ADC10000ABC10000E0
S1130060A9C100000C94D90C0C94290D0C94010D19
S11300700C94510D0C94A10D0C94790D9BC10000AE
S113008099C1000097C1000095C1000093C1000010
S113009091C100008FC100008DC100008BC1000020
S11300A089C1000087C1000085C1000083C1000030
S11300B081C100007FC100009DC300007BC100001E
S11300C079C1000077C1000075C1000073C1000050
S11300D071C100006FC100006DC100006BC1000060
S11300E069C1000067C100000C94410E0C94910E8C
S11300F00C94690E0C94B90E0C94090F0C94E10E37
S113010059C1000057C1000055C1000053C100008F
S113011051C100004FC100004DC100004BC100009F
S113012049C1000047C1000045C1000043C10000AF
S113013041C100003FC100003DC100003BC10000BF
S113014039C1000037C1000035C1000033C10000CF
S113015031C100002FC100002DC100002BC10000DF
S11301600C94C90D0C94190E0C94F10D0C94FC15FF
S113017021C100001FC100001DC100001BC10000FF
S113018019C1000017C1000015C1000013C100000F
S113019011C100000FC100000DC100000BC100001F
S11301A009C1000007C1000005C1000003C100002F
S11301B001C10000FFC00000FDC00000FBC0000042
S11301C0F9C00000F7C00000F5C00000F3C0000053
S11301D0F1C00000EFC00000EDC000000C94310F2E
S11301E00C94810F0C94590FE5C00000E3C000008B
S11301F0E1C00000DFC00000DDC0000015041B04E6
S1130200200427042C0433043804B208C208D70895
S11302101E092E093F094F09CF0ADF0A980AAF0ABF
S1130220BF0AEF0AFF0A084AD73B3BCE016E84BCE3
S1130230BFFDC12F3D6C74319ABD56833DDA3D003C
S1130240C77F11BED9E4BB4C3E916BAAAABE000085
S113025000803F05A84CCDB2D44EB93836A9020C63
S113026050B9918688083CA6AAAA2ABE000000803C
S11302703F006E616E00696E660000407A10F35AAA
S113028000A0724E18090010A5D4E80000E87648D2
S1130290170000E40B54020000CA9A3B000000E17E
S11302A0F505000080969800000040420F00000011
S11302B0A08601000000102700000000E8030000F1
S11302C000006400000000000A00000000000100BB
S11302D0000000002C76D888DC674F0823DFC1DFDC
S11302E0AE59E1B1B796E5E3E453C63AE6519976DF
S11302F096E8E6C28426EB898C9B62ED407C6FFC19
S1130300EFBC9C9F40F2BAA56FA5F490055A2AF75A
S11303105C936B6CF9676DC11BFCE0E40D47FEF563
S113032020E6B500D0ED902E0300943577050080CB
S1130330841E080000204E0A000000C80C3333332A
S1130340330F986E12831141EF8D2114893BE655CA
S113035016CFFEE6DB18D1844B381BF77C1D901DAD
S1130360A4BBE424203284725E228100C9F124EC0F
S1130370A1E53D2711241FBECFEFCDBFDFE3DEBFD4
S113038000E00CBF17E2A0E0B0E2EEEEF3E700E01D
S11303900BBF02C007900D92A63EB107D9F72BE21E
S11303A0A6EEB7E201C01D92A03BB207E1F7B0D1BF
S11303B00C94F53925CE0F921F922F923F924F92B3
S11303C05F926F927F928F929F92AF92BF92CF92E1
S11303D0DF92EF92FF920F931F932F933F934F93CC
S11303E05F936F937F938F939F93AF93BF93CF93B9
S11303F0DF93EF93FF930FB70F93E6EBF6E200E082
S1130400EF93FF930F938091CF2883958093CF2808
S113041018958091CF288A958093CF280F910FBF8C
S1130420FF91EF91DF91CF91BF91AF919F918F9108
S11304307F916F915F914F913F912F911F910F91F8
S1130440FF90EF90DF90CF90BF90AF909F908F90F0
S11304507F906F905F904F903F902F901F900F90E0
S113046008950FB6F894609108047091090480917E
S1130470EF279091F0270FBE0895BF92CF92DF929D
S1130480EF92FF920F931F93CF93DF93CDB7DEB715
S11304906B97CDBFDEBFCE010B968F83988780917B
S11304A0EE27882349F086E08093C9281092EE272E
S11304B08DED90E20E942C398091C928882309F49B
S11304C04DC0E090C928BFB6F894EA94F12C6701B6
S11304D0CC0CDD1C86010E0D1F1D000F111F000F1B
S11304E0111F000F111F0B5C174DF801478950E0D5
S11304F0B6016E0D7F1D660F771F660F771F660F9F
S1130500771F655C774D8F8198850E947338F80159
S11305108789EF81F885E80FF11D1082F801808149
S11305209181A281B38189839A83AB83BC838481C3
S113053095818D839E8386898987F80187898A8737
S11305408091C92881508093C928BFBECE010196ED
S11305500E94C32E8091C9288111B3CF6B96CDBF61
S1130560DEBFDF91CF911F910F91FF90EF90DF904D
S1130570CF90BF900895CF93DF93CDB7DEB7C0542B
S1130580D109CDBFDEBF82E08093CA0180E4EDE9EA
S1130590F0E2DE01119601900D928A95E1F7AE0129
S11305A04F5F5F4FBE016F5B7F4F20E030E0FA0189
S11305B081919191A191B191AF01ABBFFC01879160
S11305C096912827822F82958227082E86958695D4
S11305D08025082E869580258770022E232F8695E8
S11305E007948795302D282706948795302528274A
S11305F04617570709F0DBCF1092CA012093E8276A
S11306003093E927C05CDF4FCDBFDEBFDF91CF91D0
S11306100895E0EAF0E082818160828382818260D1
S113062082838281846082837894089540E060E0CC
S113063084E60E94D22084E690E00E94692440E08F
S113064064E680E00E94D22084E690E00E9469245F
S113065044E660E080E00E94D22084E690E00E94BC
S113066069240E94C72040E060E084E60E94D22012
S113067084E690E00E94692440E064E680E00E9401
S1130680D22084E690E00E94692444E660E080E0A1
S11306900E94D22084E690E00E9469240E94C72030
S11306A040E060E084E60E94D22084E690E00E946C
S11306B0692440E064E680E00E94D22084E690E071
S11306C00E94692444E660E080E00E94D22084E62F
S11306D090E00E9469240C94C72008950E9442244B
S11306E04ADF0E9410240E943B150E9490200E9421
S11306F027230E9447160E944A1668D027D30E94D7
S113070050100E9444140E94881683DF8FCF0895EE
S1130710E5DF0E94462E0E947B2EAFDEFCCF88EDE3
S113072084BF81E0E8E7F0E081830895E0ECF1E044
S113073087858823ECF30895F9DFE0ECF1E0878501
S113074081FF0AC086E38287EBECF1E021E030E030
S113075088ED90E084BF20830895CF93DF93D82F52
S1130760C92FE4DFE0ECF1E0D083CF71C1831282C2
S113077086E08287EBECF1E021E030E088ED90E068
S113078084BF2083E0ECF1E08481DF91CF91089570
S11307901F93CF93DF93182FD92FC62FCDDFE0EC13
S11307A0F1E083E382871083DF71D1831282C483F3
S11307B085E38287EBECF1E021E030E088ED90E026
S11307C084BF2083DF91CF911F9108951092EF2869
S11307D01092EC271092ED2783E0E0E8F6E08183A5
S11307E088EB8093A10483E28093A50481E0809345
S11307F0A40408951F920F920FB60F9211240BB602
S11308000F925F936F937F938F939F93AF93BF9355
S1130810EF93FF938091EF2890E08730910558F58E
S1130820FC01E250FF4F0C9442368091ED27817019
S11308308093A70420C08091EC278093A7041BC059
S11308408091ED27817080618093A70414C080910A
S1130850EC278093A7040FC08091ED2781708066F8
S11308608093A70408C08091EC278093A70403C059
S113087083E08093A3048091EF2890E0019667E0E1
S113088070E00E942F368093EF28FF91EF91BF9183
S1130890AF919F918F917F916F915F910F900BBE5C
S11308A00F900FBE0F901F9018958093EC27909394
S11308B0ED2788E58093A6048FE795E20197F1F789
S11308C000C000008CE58093A6048FE795E20197B1
S11308D0F1F700C0000008954F925F926F927F92EB
S11308E08F929F92AF92BF92CF92DF92EF92FF923C
S11308F00F931F93CF93DF93CDB7DEB72C97CDBF64
S1130900DEBFFE0131968CE0DF011D928A95E9F786
S11309100F2EF6E0AF2EF0E2BF2EF02D0F2EFCE6E8
S11309208F2EF9E29F2EF02D6F0155245A94E12C5D
S1130930F12C772473944FB6F8948701F701EE0FE6
S1130940FF1FE295F295F07FFE27E07FFE27E8592E
S1130950F64D878D81FF80C16E2C552D55200CF4EA
S113096097C140E0F701EE0FFF1FE295F295F07F8B
S1130970FE27E07FFE27E458F64D80819181A52F64
S1130980AA0FBB0B21E030E02C0F3D1FA20FB31FB9
S11309902D913C912817390709F4472D51506AF7D6
S11309A0F801EE0FFF1FE295F295F07FFE27E07F3E
S11309B0FE27E859F64D84899589D6018D939C9339
S11309C04423F1F0F801EE0FFF1FE295F295F07F5A
S11309D0FE27E07FFE27E859F64D148A158A168A09
S11309E0178A108E118E128E138E148E158E168EFB
S11309F0178ED501ED91FC918481806184832CC193
S1130A00F801EE0FFF1FE295F295F07FFE27E07FDD
S1130A10FE27E859F64D878D83FF62C08F01468D0E
S1130A2050E0B40182E69AE20E947338D8015E96DF
S1130A30EC915E97F0E0EE59F54D10825E968C9144
S1130A405E9790E080935F2A9093602A8D919D91A8
S1130A500D90BC91A02D8093592A90935A2AA0936B
S1130A605B2AB0935C2AF801868997898093C7280A
S1130A709093C828F5E0F61540F1862D90E0FC012E
S1130A80EE0FFF1FE295F295F07FFE27E07FFE2731
S1130A90E859F64D148A158A168A178A108E118E13
S1130AA0128E138E148E158E168E178EFC01EE0F79
S1130AB0FF1FEA5FFF4D0190F081E02D848180618A
S1130AC08483639426E06212D8CF20E030E04DE6C0
S1130AD056E065E070E080E090E00E948F24BCC0A6
S1130AE08091C928863020F07092EE271092C92890
S1130AF0000F111F02951295107F1027007F1027F9
S1130B000859164DD8015E964C918091C92890E001
S1130B109C01220F331F820F931F880F991F880F88
S1130B20991F880F991F50E0B401855C974D0E946E
S1130B3073388091C92890E0F801268DFC01EE0FEE
S1130B40FF1F8E0F9F1FFC01EE0FFF1FEE0FFF1FF5
S1130B50EE0FFF1FEB5CF74DE20FF11D1682809143
S1130B60C92890E0D8014D915D916D917C911397C6
S1130B709C01220F331F820F931FFC01EE0FFF1FF6
S1130B80EE0FFF1FEE0FFF1FEB5CF74D4083518309
S1130B90628373838091C92890E0FC01EE0FFF1FEC
S1130BA08E0F9F1FFC01EE0FFF1FEE0FFF1FEE0FB6
S1130BB0FF1FEB5CF74D668A8091C92890E056963A
S1130BC02D913C915797FC01EE0FFF1F8E0F9F1F35
S1130BD0FC01EE0FFF1FEE0FFF1FEE0FFF1FEB5C7C
S1130BE0F74D248335838091C92890E05E962C913B
S1130BF05E97FC01EE0FFF1F8E0F9F1FFC01EE0F8F
S1130C00FF1FEE0FFF1FEE0FFF1FEB5CF74D278B4F
S1130C108091C9288F5F8093C92854961D921C9295
S1130C20559756961D921C92579758961D921C9252
S1130C3059975A961D921C925B975C961D921C9232
S1130C405D975E961C925E975F961C92D501ED911E
S1130C50FC918481806184834FBEBFEFEB1AFB0A51
S1130C60E2E0AE0EB11CF0E28F0E911C22E0C20E47
S1130C70D11C539435E053125ECE20E030E04CE6B4
S1130C8054E06EE370E080E090E00E948F2411C095
S1130C90F701EE0FFF1FE295F295F07FFE27E07F4C
S1130CA0FE27E859F64D84899589D6018D939C9346
S1130CB0A7CE2C96CDBFDEBFDF91CF911F910F91B0
S1130CC0FF90EF90DF90CF90BF90AF909F908F9068
S1130CD07F906F905F904F900895DF92EF92FF9214
S1130CE00F931F93CF93DF93CDB7DEB7EDB6FEB668
S1130CF080915F2A9091602A01962DB73EB7281BF8
S1130D00390B2DBF3EBF0DB71EB70F5F1F4FDFB6A8
S1130D10F89440915F2A5091602A4F5F5F4F62E6DA
S1130D207AE2C8010E94733860915F2A7091602A48
S1130D30DFBEC8010E94602CEDBEFEBEDF91CF91E4
S1130D401F910F91FF90EF90DF900895CF93DF9361
S1130D50A0EAB6E083EF11968C931197E0E0FBE0F4
S1130D6082E0848380818360808383ED87A386A36C
S1130D7089E681A783A785A787A780A782A7C0E460
S1130D80D6E034E43A8380E696E024E0FC01228352
S1130D9040E856E0FA01328312962C93129738E811
S1130DA0398328E0FC012183FA01318311962C93C5
S1130DB0119720E42B8B2F8BFC01238BFA01238BBF
S1130DC0278B53962C9382E190E2E6E0F0E268E20E
S1130DD053E040E732E0A081B18113966C93A08187
S1130DE0B18115965C93A081B18116964C93A08134
S1130DF0B18117963C93A081B18114962C911497DC
S1130E00206114962C93A191B19114962C9114976E
S1130E10286014962C93E817F907E9F680E091E02E
S1130E2044DDA6E0B0E280E090E0FC01EE0FFF1F9D
S1130E30E295F295F07FFE27E07FFE27E859F64D14
S1130E40148A158A168A178A108E118E128E138EA2
S1130E50148E158E168E178EED91FD9124812061CE
S1130E60248301968630910501F71092592A109235
S1130E705A2A10925B2A10925C2A1092C928109266
S1130E80EE2720E030E04CE654E06EE370E080E0D2
S1130E9090E00E948F24DF91CF9108955F926F922A
S1130EA07F928F929F92AF92BF92CF92DF92EF92F6
S1130EB0FF920F931F93CF93DF93662E572E742EBA
S1130EC0C091E827D091E927E82EF12C80FD0DC0D0
S1130ED081E090E0AC019701082E02C0359527957A
S1130EE00A94E2F720FF2AC002C040E050E0FA0171
S1130EF0EE0FFF1FE295F295F07FFE27E07FFE27BD
S1130F00E859F64D878D8870C8278C2F82958C27D9
S1130F10082E869586958025082E869580258770CF
S1130F200C2ECD2F869507948795D02DC82706942F
S1130F308795D025C827711007C087C001968630D1
S1130F40910509F0C7CFF7CF962DE62DF52D8191A8
S1130F50C8278C2F82958C27082E86958695802508
S1130F60082E8695802587700C2ECD2F86950794A4
S1130F708795D02DC82706948795D025C8278E2F0E
S1130F80891B871520F361C0C701002E02C0959507
S1130F9087950A94E2F780FF25C0F801EE0FFF1F42
S1130FA0E295F295F07FFE27E07FFE27E859F64DA3
S1130FB0768EC48BD58B128E138E8091E8279091F8
S1130FC0E927868B978BA501662D752DC4010E9498
S1130FD07338F6019181F801E050F04E8081892B3D
S1130FE0F60181830F5F1F4FF0E28F0E911C0630D4
S1130FF0110551F6E6E0F0E280E090E09701082E5A
S113100002C0359527950A94E2F720FF18C0DC0149
S1131010AA0FBB1FA295B295B07FBA27A07FBA27AB
S1131020A859B64D1D921D921D921C921397A08132
S1131030B18113962C911397226013962C930196E9
S1131040329686309105D1F610C00F2EFCE68F2E15
S1131050F9E29F2EF02D00E010E0A72CB12C0F2E0A
S1131060C12CFBE0DF2EF02D8FCFDF91CF911F91AC
S11310700F91FF90EF90DF90CF90BF90AF909F9033
S11310808F907F906F905F900895AF92BF92CF92B0
S1131090DF92FF920F931F93CF93DF93C82FD0E07B
S11310A0FE01EE0FFF1FEA5FFF4D0190F081E02D7E
S11310B0F080D7D9FE01EE0FFF1FE295F295F07F85
S11310C0FE27E07FFE27E859F64D00811181228139
S11310D033815B016C01A01AB10AC20AD30A9601DA
S11310E08501053111052105310510F1FE01EE0FD1
S11310F0FF1FE295F295F07FFE27E07FFE27E85977
S1131100F64D148A158A168A178A108E118E128E3D
S1131110138E148E158E168E178EFE01EE0FFF1F82
S1131120EA5FFF4D0190F081E02D2481206124834A
S1131130FE01EE0FFF1FE295F295F07FFE27E07FA0
S1131140FE27E859F64D6083718382839383828DF1
S1131150938D8730910508F0B3C0FC01EB5FFE4F1F
S11311600C9442368F2D90E0FE01EE0FFF1FE295A6
S1131170F295F07FFE27E07FFE27E859F64D868B37
S1131180978BD6C0FE01EE0FFF1FE295F295F07F1C
S1131190FE27E07FFE27E859F64D868997899F2927
S11311A0868B978B86899789848F958FC1C0FF2002
S11311B074F4FE01EE0FFF1FE295F295F07FFE2717
S11311C0E07FFE27E859F64D878D8860878FFE0102
S11311D0EE0FFF1FE295F295F07FFE27E07FFE27DA
S11311E0E859F64D278D848D958D28708227282FF8
S11311F022952827022E269526952025022E26950F
S113120020252770082E892F269507942795902D41
S113121082270694279590258227FE01EE0FFF1F53
S1131220E295F295F07FFE27E07FFE27E859F64D20
S1131230848F958F8F2D8F77868F7AC08F2D90E036
S1131240FE01EE0FFF1FE295F295F07FFE27E07F8F
S1131250FE27E859F64D848B958B6AC0FE01EE0F8C
S1131260FF1FE295F295F07FFE27E07FFE27E85905
S1131270F64D848995899F29848B958B59C08F2D30
S113128090E0FE01EE0FFF1FE295F295F07FFE273E
S1131290E07FFE27E859F64D808F918F49C0FE010B
S11312A0EE0FFF1FE295F295F07FFE27E07FFE2709
S11312B0E859F64D808D918D9F29808F918F38C08C
S11312C0FE01EE0FFF1FE295F295F07FFE27E07F0F
S11312D0FE27E859F64DA28DB38D1797AE0FBF1FA9
S11312E01496FC92848D958D8F25282F229528277E
S11312F0022E269526952025022E26952025277038
S1131300082E892F269507942795902D82270694D9
S1131310279590258227FE01EE0FFF1FE295F29597
S1131320F07FFE27E07FFE27E859F64D848F958FE6
S1131330FE01EE0FFF1FE295F295F07FFE27E07F9E
S1131340FE27E859F64D828D938D0196828F938FF7
S1131350228D338D868D90E007962817390708F47F
S1131360C6C0FE01EE0FFF1FE295F295F07FFE2747
S1131370E07FFE27E859F64D248D358D84899589C3
S11313802817390709F1FE01EE0FFF1FE295F295C8
S1131390F07FFE27E07FFE27E859F64D148A158A70
S11313A0168A178A108E118E128E138E148E158E35
S11313B0168E178ECC0FDD1FCA5FDF4DE881F981D1
S11313C084818061848393C0FE01EE0FFF1FE29548
S11313D0F295F07FFE27E07FFE27E859F64D808DD9
S11313E0918D892BA9F1FE01EE0FFF1FE295F29575
S11313F0F07FFE27E07FFE27E859F64D208D318DE2
S11314008091E8279091E9272817390709F1FE010F
S1131410EE0FFF1FE295F295F07FFE27E07FFE2797
S1131420E859F64D148A158A168A178A108E118E79
S1131430128E138E148E158E168E178ECC0FDD1F02
S1131440CA5FDF4DE881F9818481806184834FC064
S1131450FE01EE0FFF1FE295F295F07FFE27E07F7D
S1131460FE27E859F64D268937898091E82790911F
S1131470E9272817390709F5FE01EE0FFF1FE2954A
S1131480F295F07FFE27E07FFE27E859F64D148A97
S1131490158A168A178A108E118E128E138E148E48
S11314A0158E168E178ECC0FDD1FCA5FDF4DE881B7
S11314B0F9818481806184831AC0FE01EE0FFF1FCD
S11314C0E295F295F07FFE27E07FFE27E859F64D7E
S11314D0878D8260878F878D8160878FCC0FDD1F1A
S11314E0CA5FDF4DE881F98184818F7E8483DF9137
S11314F0CF911F910F91FF90DF90CF90BF90AF904D
S1131500089590E0FC01EE0FFF1FE295F295F07F45
S1131510FE27E07FFE27E859F64D228D338D2730D4
S1131520310508F07CC0F901E45FFE4F0C944236AB
S1131530FC01EE0FFF1FE295F295F07FFE27E07F9E
S1131540FE27E859F64D268D2093612A278D23FF27
S11315507AC02091612A20682093612A74C0FC011A
S1131560EE0FFF1FE295F295F07FFE27E07FFE2746
S1131570E859F64D248935892093612A64C0FC0119
S1131580EE0FFF1FE295F295F07FFE27E07FFE2726
S1131590E859F64D248935893093612A54C0FC01F9
S11315A0EE0FFF1FE295F295F07FFE27E07FFE2706
S11315B0E859F64D268937892093612A44C0FC01F5
S11315C0EE0FFF1FE295F295F07FFE27E07FFE27E6
S11315D0E859F64D268937893093612A34C0FC01D5
S11315E0EE0FFF1FE295F295F07FFE27E07FFE27C6
S11315F0E859F64D208D318D2093612A24C0FC01D9
S1131600EE0FFF1FE295F295F07FFE27E07FFE27A5
S1131610E859F64D208D318D3093612A14C0FC01B8
S1131620EE0FFF1FE295F295F07FFE27E07FFE2785
S1131630E859F64D228D338D27503109E20FF31FFF
S113164024812093612AFC01EE0FFF1FEA5FFF4D06
S11316500190F081E02D2091612A2083FC01EE0F9E
S1131660FF1FE295F295F07FFE27E07FFE27E85901
S1131670F64D228D338D2F5F3F4F228F338F428D56
S1131680538D268D30E0295F3F4F4217530750F1A9
S1131690FC01EE0FFF1FE295F295F07FFE27E07F3D
S11316A0FE27E859F64D148A158A168A178A108E71
S11316B0118E128E138E148E158E168E178EFC01BB
S11316C0EE0FFF1FEA5FFF4DA081B18114968C914C
S11316D01497806114968C930190F081E02D83819E
S11316E08C7F83830895E0E0FBE0318190E0DC01AE
S11316F0A050B04E2C91209523232183FC01EE0FA2
S1131700FF1FE295F295F07FFE27E07FFE27E85960
S1131710F64D178E168E128E138E108E118E168A1B
S1131720178AFC01EE0FFF1FEA5FFF4DA081B18114
S113173011968C911197806411968C930190F0818D
S1131740E02D848180618483089560E0482F50E017
S1131750262F30E0CA01062E02C0959587950A947B
S1131760E2F780FF0EC0F901EE0FFF1FE295F2953C
S1131770F07FFE27E07FFE27E859F64D878D8370C2
S113178021F46F5F663020F3089560E0E1CFCF92DB
S1131790DF92EF92FF920F931F93CF93DF93D82E94
S11317A07B01C42E8901D1DFA6E0B0E2E0E0F0E0E5
S11317B02D2D30E091E0E9010E2E02C0D595C7959C
S11317C00A94E2F7C0FF17C0CD91DC9111978C8188
S11317D08F7E8C83EF01CC0FDD1FC295D295D07F15
S11317E0DC27C07FDC27C859D64D9F8F8F8D88603A
S11317F08F8F088F198F31961296E630F105D9F63E
S11318004C2DB7018D2D4ADBDF91CF911F910F91A4
S1131810FF90EF90DF90CF9008950F931F93CF9395
S1131820DF93182FEB01042F90DFE6E0F0E220E0D5
S113183030E0612F70E091E0DB01022E02C0B5952B
S1131840A7950A94E2F7A0FF21C0A081B181149664
S11318508C9114978F7E14968C93D901AA0FBB1F79
S1131860A295B295B07FBA27A07FBA27A859B64DE2
S11318705F969C935F975F968C915F9788605F9665
S11318808C935F9758961D921C9259972F5F3F4FE8
S113189032962630310581F6402FBE01812FFEDAC3
S11318A0DF91CF911F910F910895CF92DF92EF9224
S11318B0FF920F931F93CF93DF93D82E7B01C42EF7
S11318C0890143DFA6E0B0E2E0E0F0E02D2D30E056
S11318D091E0E9010E2E02C0D595C7950A94E2F76E
S11318E0C0FF14C0CD91DC9111978C818F7E8C83C5
S11318F0EF01CC0FDD1FC295D295D07FDC27C07FCE
S1131900DC27C859D64D9F8F088F198F31961296B0
S1131910E630F105F1F64C2DB7018D2DBFDADF91DC
S1131920CF911F910F91FF90EF90DF90CF9008958A
S11319300F931F93CF93DF93182FEB01042F05DF31
S1131940E6E0F0E220E030E0612F70E091E0DB01BE
S1131950022E02C0B595A7950A94E2F7A0FF1AC01B
S1131960A081B18114968C9114978F7E14968C93D8
S1131970D901AA0FBB1FA295B295B07FBA27A07F49
S1131980BA27A859B64D5F969C935F9758961D92B7
S11319901C9259972F5F3F4F329626303105B9F686
S11319A0402FBE01812F7ADADF91CF911F910F91E1
S11319B008951F920F920FB60F9211240BB60F9237
S11319C02F933F934F935F936F937F938F939F9343
S11319D0AF93BF93EF93FF9380E057DBFF91EF91B9
S11319E0BF91AF919F918F917F916F915F914F9133
S11319F03F912F910F900BBE0F900FBE0F901F9031
S1131A0018951F920F920FB60F9211240BB60F92D6
S1131A102F933F934F935F936F937F938F939F93F2
S1131A20AF93BF93EF93FF9380E05DDEFF91EF915F
S1131A30BF91AF919F918F917F916F915F914F91E2
S1131A403F912F910F900BBE0F900FBE0F901F90E0
S1131A5018951F920F920FB60F9211240BB60F9286
S1131A602F933F934F935F936F937F938F939F93A2
S1131A70AF93BF93EF93FF9380E043DDFF91EF912A
S1131A80BF91AF919F918F917F916F915F914F9192
S1131A903F912F910F900BBE0F900FBE0F901F9090
S1131AA018951F920F920FB60F9211240BB60F9236
S1131AB02F933F934F935F936F937F938F939F9352
S1131AC0AF93BF93EF93FF9381E0DFDAFF91EF9140
S1131AD0BF91AF919F918F917F916F915F914F9142
S1131AE03F912F910F900BBE0F900FBE0F901F9040
S1131AF018951F920F920FB60F9211240BB60F92E6
S1131B002F933F934F935F936F937F938F939F9301
S1131B10AF93BF93EF93FF9381E0E5DDFF91EF91E6
S1131B20BF91AF919F918F917F916F915F914F91F1
S1131B303F912F910F900BBE0F900FBE0F901F90EF
S1131B4018951F920F920FB60F9211240BB60F9295
S1131B502F933F934F935F936F937F938F939F93B1
S1131B60AF93BF93EF93FF9381E0CBDCFF91EF91B1
S1131B70BF91AF919F918F917F916F915F914F91A1
S1131B803F912F910F900BBE0F900FBE0F901F909F
S1131B9018951F920F920FB60F9211240BB60F9245
S1131BA02F933F934F935F936F937F938F939F9361
S1131BB0AF93BF93EF93FF9382E067DAFF91EF91C6
S1131BC0BF91AF919F918F917F916F915F914F9151
S1131BD03F912F910F900BBE0F900FBE0F901F904F
S1131BE018951F920F920FB60F9211240BB60F92F5
S1131BF02F933F934F935F936F937F938F939F9311
S1131C00AF93BF93EF93FF9382E06DDDFF91EF916C
S1131C10BF91AF919F918F917F916F915F914F9100
S1131C203F912F910F900BBE0F900FBE0F901F90FE
S1131C3018951F920F920FB60F9211240BB60F92A4
S1131C402F933F934F935F936F937F938F939F93C0
S1131C50AF93BF93EF93FF9382E053DCFF91EF9137
S1131C60BF91AF919F918F917F916F915F914F91B0
S1131C703F912F910F900BBE0F900FBE0F901F90AE
S1131C8018951F920F920FB60F9211240BB60F9254
S1131C902F933F934F935F936F937F938F939F9370
S1131CA0AF93BF93EF93FF9383E0EFD9FF91EF914D
S1131CB0BF91AF919F918F917F916F915F914F9160
S1131CC03F912F910F900BBE0F900FBE0F901F905E
S1131CD018951F920F920FB60F9211240BB60F9204
S1131CE02F933F934F935F936F937F938F939F9320
S1131CF0AF93BF93EF93FF9383E0F5DCFF91EF91F4
S1131D00BF91AF919F918F917F916F915F914F910F
S1131D103F912F910F900BBE0F900FBE0F901F900D
S1131D2018951F920F920FB60F9211240BB60F92B3
S1131D302F933F934F935F936F937F938F939F93CF
S1131D40AF93BF93EF93FF9383E0DBDBFF91EF91BE
S1131D50BF91AF919F918F917F916F915F914F91BF
S1131D603F912F910F900BBE0F900FBE0F901F90BD
S1131D7018951F920F920FB60F9211240BB60F9263
S1131D802F933F934F935F936F937F938F939F937F
S1131D90AF93BF93EF93FF9384E077D9FF91EF91D3
S1131DA0BF91AF919F918F917F916F915F914F916F
S1131DB03F912F910F900BBE0F900FBE0F901F906D
S1131DC018951F920F920FB60F9211240BB60F9213
S1131DD02F933F934F935F936F937F938F939F932F
S1131DE0AF93BF93EF93FF9384E07DDCFF91EF917A
S1131DF0BF91AF919F918F917F916F915F914F911F
S1131E003F912F910F900BBE0F900FBE0F901F901C
S1131E1018951F920F920FB60F9211240BB60F92C2
S1131E202F933F934F935F936F937F938F939F93DE
S1131E30AF93BF93EF93FF9384E063DBFF91EF9144
S1131E40BF91AF919F918F917F916F915F914F91CE
S1131E503F912F910F900BBE0F900FBE0F901F90CC
S1131E6018951F920F920FB60F9211240BB60F9272
S1131E702F933F934F935F936F937F938F939F938E
S1131E80AF93BF93EF93FF9385E0FFD8FF91EF915A
S1131E90BF91AF919F918F917F916F915F914F917E
S1131EA03F912F910F900BBE0F900FBE0F901F907C
S1131EB018951F920F920FB60F9211240BB60F9222
S1131EC02F933F934F935F936F937F938F939F933E
S1131ED0AF93BF93EF93FF9385E005DCFF91EF9100
S1131EE0BF91AF919F918F917F916F915F914F912E
S1131EF03F912F910F900BBE0F900FBE0F901F902C
S1131F0018951F920F920FB60F9211240BB60F92D1
S1131F102F933F934F935F936F937F938F939F93ED
S1131F20AF93BF93EF93FF9385E0EBDAFF91EF91CB
S1131F30BF91AF919F918F917F916F915F914F91DD
S1131F403F912F910F900BBE0F900FBE0F901F90DB
S1131F5018951F93CF93DF93613021F4FC018081A6
S1131F60918151C0623049F5FC0120813181828127
S1131F709381820F931F99230CF40196959587956D
S1131F8042C012961F5F1617E9F0712FED01E72F7B
S1131F90F0E0EE0FFF1FE80FF91F408151812D91F2
S1131FA03C9111974217530724F4488359832083A3
S1131FB031837F5F7613EBCFE4CF662329F0DC0116
S1131FC010E0E0CF60FD15C06695E62FF0E0E1502B
S1131FD0F048EE0FFF1FE80FF91F20813181828145
S1131FE09381820F931F99230CF4019695958795FD
S1131FF00AC06695262F30E0220F331FFC01E20F42
S1132000F31F80819181DF91CF911F9108950F93E8
S11320101F93CF93DF93CDB7DEB72A97CDBFDEBF33
S1132020E0E4F2E091A1977091A391A1082F10E050
S1132030D801AB5BBE4D8C91892B81A3DE01119637
S1132040CE010B9651E020A1206820A323A12223D6
S1132050E9F345A124A130E0342B35952795359536
S113206027952D933D9353A3A817B90761F763E010
S1132070CE0105966EDFF801EE0FFF1FE052F74D1B
S1132080208131818217930714F0821B01C080E004
S11320902A96CDBFDEBFDF91CF911F910F91089596
S11320A0EF92FF920F931F93CF93DF938CEFE0E2B5
S11320B0F6E08283E0E4F2E0128280E1818387E04B
S11320C0848392E090A381A384B5848785B58587B2
S11320D081E0808385E38A95F1F700001092E0287F
S11320E01092E1281092E2281092E3281092E4283A
S11320F01092E5281092E6281092E7281092E8281A
S11321001092E9281092EA281092EB2885E090E0DA
S11321100E94692480E07BDFC0EED8E2F12CEE243B
S1132120EA940FC08F2D73DF801708F4082F115025
S1132130C9F7202F30E029933993F39486E0F816F9
S113214019F015E00E2DEECFDF91CF911F910F9175
S1132150FF90EF9008955F926F927F928F929F927B
S1132160AF92BF92CF92DF92EF92FF920F931F93A1
S1132170CF93DF93CDB7DEB76E97CDBFDEBF81E0DF
S1132180809387298093A7298093C7298093E7297F
S11321908093072A8093272A6090EC277090ED277C
S11321A080E091E00E9455040F2EF2E1EF2EF0E260
S11321B0FF2EF02DCE010D96E6E0F0E24191519113
S11321C0DA0114962C91DC012D93CD01DA011496D9
S11321D01C92EE15FF0591F78E010F5F1F4FB12C76
S11321E00F2EFFE8CF2EDD24D394F02DF601319786
S11321F0F1F7000000C08B2D0ADF282F30E0F80132
S1132200219331938F01B394F6E0BF12EFCFE0E056
S1132210FBE081818C708183E0EAF6E083EF8583C3
S113222020E436E058E8D90111965C9380E696E004
S113223048E0DC0111964C9360E876E0DB011196EE
S11322405C934183D90116965C93DC0116964C93FA
S1132250DB0116965C9346838FEC97E00197F1F7C8
S1132260000000C0E0E4F2E0808182608083FE012F
S113227031966F0100E010E0512C0F2EFFECAF2ED1
S1132280F7E0BF2EF02D88248394912CC50101978B
S1132290F1F7000000C0802FBADE90E0F801EE0FE5
S11322A0FF1F21E030E02C0F3D1FE20FF31F828B54
S11322B0938B8289938982899389D6012D913D914B
S11322C06D01821B930B419744F0C401002E02C0A0
S11322D0880F991F0A94E2F7582A0F5F1F4F0630A0
S11322E01105A1F68FE595E20E942C3998E8E0E407
S11322F0F6E0978388E0E0E6F6E08783E0E8F6E03E
S11323009783E0EAF6E0878383EF8683AE01435F39
S11323105F4FE6E0F0E281919191DA012D91AD01F8
S1132320DC0114962C93EE15FF05A9F7E0E0FBE021
S11323308181836F8183C3010E9455041092872990
S11323401092A7291092C7291092E7291092072A00
S11323501092272A852D6E96CDBFDEBFDF91CF91D7
S11323601F910F91FF90EF90DF90CF90BF90AF90AF
S11323709F908F907F906F905F90089583E0E0E04E
S1132380F8E08183E0E4F8E08183E0E0F9E0818330
S1132390E0E4F6E093E39683A0E6B6E016968C9329
S11323A01697108A118A148A158A50961C9250978F
S11323B051961C92109234288091EA279091EB2731
S11323C00C94A525089580913428882324F48091C1
S11323D03428877008958FEF08954F925F926F921B
S11323E07F928F929F92AF92BF92CF92DF92EF92A1
S11323F0FF920F931F93CF93DF93CDB7DEB7299747
S1132400CDBFDEBF182F7B01DEDF88230CF079C13E
S1132410812F8770806880933428A090CB28B09057
S1132420CC28AA0CBB1CAA0CBB1CAA0CBB1CAA0C57
S1132430BB1CAA0CBB1C8090ED289090EE28880C45
S1132440991C880C991C880C991C880C991C880C64
S1132450991C812F90E09C01220F331F820F931F40
S1132460880F991F875D954D9E01295F3F4F690134
S1132470FE01319600E010E03C01DC014D915C91DD
S11324804115510529F410821182D9011C9218C0FA
S1132490BA01552324F466277727641B750B6A0D4C
S11324A07B1D60837183D30111964C91440F440BBF
S11324B0440F4F5FD9014C93080D191D060F171FC8
S11324C0029632962F5F3F4FEC15FD05A9F640E0CA
S11324D059E0FA0106A317A3A0E4B8E096960D9379
S11324E01C93979780E098E0FC0106A317A3298129
S11324F03A8122A733A720A731A78B819C819A9682
S11325008D939C939B9798968D939C9399978D818B
S11325109E81DA019A968D939C939B9798968D93BE
S11325209C939997A090ED28B090EE28AA0CBB1C20
S1132530AA0CBB1CAA0CBB1CAA0CBB1CAA0CBB1C63
S1132540FE0131966F0140E0E0E0F0E068948824F9
S113255086F8992493F8612C6894772473F80F2EE5
S1132560412CF9E05F2EF02DD6012D913D916D01A6
S11325702115310569F1413081F018F04230C9F07C
S113258023C0C8018E1B9F0BB8010E941B36D301C8
S113259090968D939C93919717C0C8018E1B9F0BA7
S11325A0B8010E941B36D40190968D939C93919709
S11325B00BC0C8018E1B9F0BB8010E941B36D201B1
S11325C090968D939C939197EA0DFB1DE20FF31F58
S11325D04F5F433049F60E171F0709F494C01F9349
S11325E00F93FF93EF938BE491E29F938F930E9459
S11325F016390F900F900F900F900F900F9083C08B
S11326005F5F4FEF450FE7E0F0E0EC0FFD1FE40FD5
S1132610F11D6081662364F5413089F018F0423081
S1132620D9F054C0FC01C18250967C935097159602
S11326304C911597426015964C931597E1CFF9018B
S1132640C18254967C93549715964C911597406289
S113265015964C931597D4CF83E1E0E0F9E081839C
S1132660E0E6F6E080E4808B85818260858331C07A
S1132670161664F5413089F018F04230D9F026C0BE
S1132680FC01D18251967C93519715964C911597E4
S1132690416015964C931597B3CFF901D1825596A5
S11326A07C93559715964C911597406115964C93CC
S11326B01597A6CF83E2E0E0F9E08183E0E6F6E057
S11326C080E4818B85818160858303C0533008F465
S11326D097CF9801D7010E944836689414F89695CC
S11326E08795779567951694D1F720E030E04EEB07
S11326F051E10E948F248093EA279093EB2781E095
S113270013C080E011C051E020E438E00F2EF3E262
S1132710DF2EF02DA0E4B6E070E480E098E00F2E08
S1132720F3E1CF2EF02D6DCF2996CDBFDEBFDF9123
S1132730CF911F910F91FF90EF90DF90CF90BF90BA
S1132740AF909F908F907F906F905F904F9008957F
S1132750AF92BF92CF92DF92EF92FF921F93CF93EB
S1132760DF93182FEB01A82EB12C80E090E00E949B
S11327705D306B017C01F501EE0FFF1FE85AF64D49
S11327806081718180E090E00E945D3020E030E063
S11327904AE754E40E94C42F9B01AC01C701B6016F
S11327A00E94C42F0E943130E62EF72E7F936F9340
S11327B0DF93CF931F921F9381E991E29F938F93AD
S11327C00E9416396E2D7F2D812F07DE8DB79EB79F
S11327D008968DBF9EBFDF91CF911F91FF90EF9020
S11327E0DF90CF90BF90AF900895E82FF0E0EE0F08
S11327F0FF1FE85AF64D608371830895FF920F938B
S11328001F93CF93DF93C0E0D0E01BC0CE0140966E
S11328100E94AD03F82ECE0141960E94AD03FE0145
S1132820E75DF54D2F2D30E0322F2227282B208312
S113283031832296C017D10749F70033110529F0D7
S1132840E8018E010A5F1F4FE1CF08E519E2C0E4F9
S1132850D0E0CE010E94AD03F82ECE0101960E9475
S1132860AD032F2D30E0322F2227282BF80121939E
S113287031938F012296C035D10559F7DF91CF915D
S11328801F910F91FF90089583E3E0E4F6E08183C4
S113289083E0E0E6F6E0818397E090930008E0E4CB
S11328A0F8E0818390838183E0E0F9E09083818381
S11328B01092342884E190E08093CB289093CC2824
S11328C08EE190E08093ED289093EE2897CF0895C1
S11328D0FF920F931F93CF93DF93C0E0D0E016C015
S11328E0FE01E75DF54DF0806181CE0140960E94C6
S11328F0C8036F2DCE0141960E94C8032296C017CB
S1132900D10771F70033110529F0E8018E010A5F40
S11329101F4FE6CF08E519E2C0E4D0E0F801F080EB
S113292061810E5F1F4FCE010E94C8036F2DCE013F
S113293001960E94C8032296C035D10579F7DF912C
S1132940CF911F910F91FF9008959F92AF92BF92E4
S1132950CF92DF92EF92FF920F931F93CF93DF9367
S11329608EEC91E20E942C390F2EF9E2CF2EFAE27E
S1132970DF2EF02DE12CF12C0F2EFCEDAF2EF1E229
S1132980BF2EF02D02EE11E2FF92EF92BF92AF92B2
S11329900E9416390F900F900F900F90E601912C22
S11329A08881998122969F938F931F930F930E94FE
S11329B0163993940F900F900F900F9083E0981214
S11329C0EFCF8FE595E20E942C398FEFE81AF80AD1
S11329D086E0C80ED11C88E0E816F104A9F68FE55C
S11329E095E20E942C39DF91CF911F910F91FF90B6
S11329F0EF90DF90CF90BF90AF909F900895EF92AB
S1132A00FF920F931F93CF93DF9386EE91E20E9480
S1132A102C3908E519E2C0E0D0E00F2EFEEFEF2ECE
S1132A20F1E2FF2EF02DF801808191810E5F1F4F9E
S1132A309F938F93DF93CF93FF92EF920E94163967
S1132A4021960F900F900F900F900F900F90C83019
S1132A50D10549F7DF91CF911F910F91FF90EF902E
S1132A600895E0EBF9E0918195FFFDCF8093B009E3
S1132A7081E090E00895E0E6F6E080E8818380E478
S1132A808283E0EBF9E083E0858387E1868384EA4F
S1132A90878384818061848384818860848382E1E4
S1132AA090E28093AA2B9093AB2B10923228109231
S1132AB0332880E1838308951F93CF93DF9380911C
S1132AC0322890913328182FFC01FF27EE50F84D3F
S1132AD08081882379F0CAEADBE26881798190E019
S1132AE00E94E4381F5FE12FF0E0EE50F84D808142
S1132AF08111F3CF812F90E0809332289093332873
S1132B00DF91CF911F9108958091B0099091282A67
S1132B10913031F4813409F4CFDF1092282A0895DA
S1132B209091F127992341F08B3519F481E080933A
S1132B30282A1092F12708958D3011F08A30A9F4D3
S1132B408FE595E20E942C396091322870913328E8
S1132B50FB01EE50F84D108282EF97E20E94602C48
S1132B60109232281092332808958830A1F480916D
S1132B70322890913328009729F0019780933228C6
S1132B809093332888E092E29F938F930E941639A2
S1132B900F900F9008958B3121F481E08093F127F9
S1132BA0089520913228309133282034310591F44E
S1132BB01F9280E48F938CE092E29F938F930E9404
S1132BC0163910923228109233280F900F900F90DC
S1132BD00F900895F901EE50F84D80832F5F3F4F19
S1132BE020933228309333286091AA2B7091AB2B19
S1132BF090E00C94E43808951F920F920FB60F9250
S1132C0011240BB60F922F933F934F935F936F93BF
S1132C107F938F939F93AF93BF93EF93FF9374DF4F
S1132C20FF91EF91BF91AF919F918F917F916F91A0
S1132C305F914F913F912F910F900BBE0F900FBE5C
S1132C400F901F90189583E0E0E2F6E08283E0E9BC
S1132C50F3E081E08083818388E08283838380E161
S1132C60868308958FE1E0E0F6E08283E0E8F3E014
S1132C7089E080838183128281E083838281806101
S1132C80828383818061838380E186830895DBDF8F
S1132C90E9CF0895E0ECF0E080E2808388B183839B
S1132CA089B183838AB183838BB183838CB183831A
S1132CB08DB1838380B3838382B3838383B383831C
S1132CC084B3838385B38383A0E0B2E094968C912C
S1132CD0949783839C968C919C978383D4968C91B0
S1132CE08383A0E4B2E094968C91949783839C961A
S1132CF08C91838381E08093A22A80E191E0928386
S1132D008150E9F784E88093C0001092A32A0895C3
S1132D1088EB9AE22CEB3AE214C0DF0154971C9240
S1132D2014961C9214961C9214961C9214961C923F
S1132D3010824F5F7896463081F701968217930789
S1132D4019F0FC0140E0E9CF08952F923F924F9291
S1132D505F926F927F928F929F92AF92BF92CF9227
S1132D60DF92EF92FF920F931F93CF93DF93C8E309
S1132D70D0E28C010F2EF8E62F2EF0E23F2EF02D3C
S1132D80812C912C540124013501F80161918F01AA
S1132D9070E080E090E00E945F306B017C0128814C
S1132DA039814A815B810E94D4319B01AC01C3010A
S1132DB0B2010E94F72E2B013C012C813D814E81F2
S1132DC05F81C701B6010E94D4319B01AC01C501EA
S1132DD0B4010E94F72E4B015C012896C215D3055D
S1132DE0A1F6A30192010E946A2FDF91CF911F9156
S1132DF00F91FF90EF90DF90CF90BF90AF909F9096
S1132E008F907F906F905F904F903F902F90089598
S1132E10CF92DF92FF920F931F93CF93DF93F62EFF
S1132E20072FA62FB72FE42FF52F26E011921D921E
S1132E302150E1F7C42ED52E40E050E017C09D018B
S1132E4010817D91710F7193E6017881E9012881E8
S1132E50270FE60128836F5F663089F74A5F5F4F6B
S1132E60DFEFCD1ADD0A4432510539F0DC01A40F3D
S1132E70B51FEF2DF02F60E0E2CFDF91CF911F91CE
S1132E800F91FF90DF90CF900895DF92EF92FF9221
S1132E900F931F93CF93DF9344EA5AE264E37BE2F8
S1132EA0E12CDD24DA941EC0C191C11708F41C2F53
S1132EB00C1708F40C2FD150B9F7011BE01608F4D5
S1132EC0E02E0D93FA942C5F3F4FFF2029F0F90177
S1132ED0D4E000E01D2DE8CF0696485E5F4F46170C
S1132EE0570739F09A01DC010F2EF6E0FF2EF02D82
S1132EF0EECF81E08E1508F480E0DF91CF911F9131
S1132F000F91FF90EF90DF900895DF92EF92FF9280
S1132F100F931F93CF93DF9304EA1AE20F2EF4E387
S1132F20EF2EFBE2FF2EF02D0DC08D2D70D888837F
S1132F30D394249686E0D812F8CF085E1F4F0E155E
S1132F401F0519F0E801D12CF0CFDF91CF911F912B
S1132F500F91FF90EF90DF9008952F923F924F9240
S1132F605F926F927F928F929F92AF92BF92CF9215
S1132F70DF92EF92FF920F931F93CF93DF938FE52E
S1132F809AEEA0E0B0E00197A109B109000001F0B8
S1132F90D1F7C89500008FE79EE30197F1F7000091
S1132FA000C00F2EF5EA6F2EFAE27F2EF02D0F2EC1
S1132FB0F5E34F2EFBE25F2EF02D0E9431024B0110
S1132FC05C018301332433940E9431026B017C0140
S1132FD0E801212C822D1BD888832394249686E033
S1132FE02812F8CF0E943102DC01CB018C199D0913
S1132FF0AE09BF090397A105B105A0F382E08315CB
S113300020F085E090E00E94692433940F5F1F4F05
S113301084E03812D9CF0E943102DC01CB01881937
S11330209909AA09BB094797A105B105A0F38FE047
S113303090E00E94692488E1680E711C6414750490
S113304009F0BBCFDF91CF911F910F91FF90EF90CB
S1133050DF90CF90BF90AF909F908F907F906F90B4
S11330605F904F903F902F900895CF93DF931F92DE
S1133070CDB7DEB772DF49DF19829E012F5F3F4F64
S11330804CEB5FE16AE070E080E090E00E948F2406
S11330900F90DF91CF910895AF92BF92CF92DF92BC
S11330A0EF92FF920F931F93823019F130F488232B
S11330B009F45BC0813071F006C08430C1F140F185
S11330C0853009F443C0E12CF12C00E010E0C12C60
S11330D0D12C58C00F2EF0EBEF2EF8E0FF2EF02D80
S11330E000E416E06894CC24C7F86894DD24D1F891
S11330F049C00F2EF0EAEF2EF9E0FF2EF02D00E686
S113310016E06894CC24C3F86894DD24D4F83AC05B
S11331100F2EF0EAEF2EFAE0FF2EF02D00E816E075
S11331206894CC24C3F86894DD24D5F82BC00F2E02
S1133130F0EBEF2EFAE0FF2EF02D00E816E0689495
S1133140CC24C7F86894DD24D7F81CC00F2EF0EA0D
S1133150EF2EFBE0FF2EF02D00EA16E06894CC245D
S1133160C3F86894DD24D6F80DC00F2EF0EAEF2ED4
S1133170F8E0FF2EF02D00E416E06894CC24C3F8A8
S1133180DD24D394F701A480E0E0FBE08181BD2C31
S1133190B0948B218183E0EAF6E0D18284818D2989
S11331A08483F7011482F801C18284819C2D909557
S11331B08923848370E080E090E00E945D3020E009
S11331C034E244EF5BE40E94D43120E030E04AE78B
S11331D054E40E94C42F20E030E040E05FE30E940A
S11331E0F72E0E943130AB01BC014D305105610511
S11331F0710508F45DC04130F4E05F0761057105B5
S1133200D8F44150510961097109DB01CA01B6952D
S1133210A79597958795B695A795979587954370A4
S11332205527662777270097A105B10509F440C003
S11332308A9501F0E9F73CC04230510584E0680703
S11332407105D0F44250510961097109DB01CA01C9
S1133250B695A79597958795B695A79597958795CC
S113326043705527662777270097A105B10501F11B
S11332700197F1F700001CC044505109610971091C
S1133280DB01CA01689412F8B695A79597958795BE
S11332901694D1F747705527662777270097A1051D
S11332A0B10531F00197A109B109000001F0D1F78E
S11332B0413051056105710511F400000EC0423022
S11332C051056105710511F400C00FC0433051056B
S11332D06105710511F4C89510C0443051056105AC
S11332E0710519F4C895000010C0453051056105F9
S11332F0710519F4C89500C011C046305105610527
S1133300710519F4C895C89512C047305105610577
S1133310710521F4C895C895000012C048305105C4
S11333206105710521F4C895C89500C013C04930E2
S113333051056105710521F4C895C895C89514C057
S11333404A3051056105710529F4C895C895C89599
S1133350000013C04B3051056105710529F4C8956F
S1133360C895C89500C009C04C3051056105710568
S113337021F4C895C895C895C895F8018481C82AD0
S1133380C482F701A482E0EAF6E08481B822B48220
S1133390E0E0FBE08181D82AD1821F910F91FF9058
S11333A0EF90DF90CF90BF90AF900895CF92DF92CF
S11333B0EF92FF92CF938FE090E00E9469240E94E5
S11333C031026B017C0180E091E00E9455040E946F
S11333D03102DC01CB018C199D09AE09BF090297AA
S11333E0A105B105A0F3C0E00E9431026B017C018C
S11333F067E18C2F51DE0E943102AB01BC014C19F4
S11334005D096E097F09473151056105710598F31E
S11334108FE090E00E946924CF5FC63029F7CF91F6
S1133420FF90EF90DF90CF90089545E050E06FE477
S113343072E28FE30E940D0C8FE30E94A50B8DE5D1
S113344090E00E9469248FEFB1CF0895CF92DF926C
S1133450EF92FF926B017C0120E030E0A9010E9411
S1133460C9318823ACF02BED3FE049E450E4C701B7
S1133470B6010E94F72E2BED3FE049EC50E40E9488
S1133480A1302BED3FE049E450E40E94F62E14C035
S11334902BED3FE049E450E4C701B6010E94F62E4B
S11334A02BED3FE049EC50E40E94A1302BED3FE0CE
S11334B049E450E40E94F72EFF90EF90DF90CF9004
S11334C008952F923F926F927F928F929F92AF9224
S11334D0BF92CF92DF92EF92FF920F931F93CF93FD
S11334E0DF93CDB7DEB76097CDBFDEBF4D875E8774
S11334F06F87788B19821A821B821C821D821E821E
S11335001F82188608E310E21C010F2EF8E66F2EC6
S1133510F0E27F2EF02DF10161911F0170E080E057
S113352090E00E945F306B017C0189809A80AB80BF
S1133530BC80F80120813181428153810E94D431C1
S1133540A50194010E94F72E69837A838B839C835F
S11335508D809E80AF80B884F801248135814681B6
S11335605781C701B6010E94D431A50194010E947C
S1133570F72E6D837E838F839887085F1F4F061510
S1133580170549F629813A814B815C816D817E81E1
S11335908F8198850E946A2F69877A878B879C8799
S11335A0C984DA84EB84FC842BED3FE049E450E4E5
S11335B06D857E858F8598890E94F72EA7019601D7
S11335C00E94F62E43DF6096CDBFDEBFDF91CF9120
S11335D01F910F91FF90EF90DF90CF90BF90AF902D
S11335E09F908F907F906F903F902F900895CF92EF
S11335F0DF92EF92FF926B017C012BED3FE049ECEF
S11336005FEB0E94C93118167CF42BED3FE049ECC6
S11336105FE3C701B6010E94BD2F88234CF4C701A4
S1133620B6010E94C12F07C060E070E0CB0103C067
S113363060E070E0CB01FF90EF90DF90CF900895B1
S1133640CF92DF92EF92FF926B017C012BED3FE072
S113365049EC5FEB0E94C93118167CF42BED3FE076
S113366049EC5FE3C701B6010E94BD2F88234CF4E7
S1133670C701B6010E94C12F07C060E070E0CB0112
S113368003C060E070E0CB01FF90EF90DF90CF903B
S113369008954F3FE1F420E030E040E05FE30E9412
S11336A0D4312AE038E64EEA5FE30E94F62E0E9407
S11336B041329B01AC0165E075E48DE991E40E941F
S11336C0C42F2FE13EE249E95FE30C94F62E1F92EA
S11336D04F9385E592E29F938F930E9416390F9042
S11336E00F900F900F9060E070E0CB0108954F921F
S11336F05F926F927F928F929F92AF92BF92CF927E
S1133700DF92EF92FF920F931F93CF93DF9300D03A
S11337101F92CDB7DEB72B013C0129833A834B833B
S11337205C83AC2DBD2DEE2DFF2D60E040E050E01C
S113373020E030E07FEF1FEF8D9190E028173907EC
S113374010F49C01162F819190E04817590710F44A
S1133750AC01762F6F5F663079F7872E912CF401D8
S1133760EE0FFF1FEE0FFF1FE05EFF4D2081318142
S113377042815381C301B2010E94F62E6B017C0188
S11337802BED3FE049EC5FE30E94C93118160CF4BD
S113379076C02BED3FE049EC5FEBC701B6010E9418
S11337A0BD2F88230CF46FC029813A814B815C8141
S11337B0C301B2010E94F62EE12FF0E0EE0FFF1FCD
S11337C0EE0FFF1FE05EFF4D208131814281538166
S11337D00E94F62E2BED3FE049E450E40E94F62EC1
S11337E035DE2B013C012BED3FE049EC5FE30E9409
S11337F0C93118160CF44BC02BED3FE049EC5FEBDC
S1133800C301B2010E94BD2F88230CF444C0C70138
S1133810B601EDDE6B017C01C301B20111DF9B0136
S1133820AC01C701B6010E94D4316B017C0120E0D8
S113383030E0A9010E94C93118168CF5812F90E05F
S11338409C01220F331F820F931F880F991FA80E0C
S1133850B91EF401EA0DFB1D608170E080E090E088
S11338600E945F30A70196010E94C42F402F11DFF0
S113387028E93CE445E850E40E94F72E13C060E0D8
S113388070E0CB010FC060E070E0CB010BC060E0E2
S113389070E0CB0107C060E070E0CB0103C060E0E2
S11338A070E0CB012496CDBFDEBFDF91CF911F9195
S11338B00F91FF90EF90DF90CF90BF90AF909F90CB
S11338C08F907F906F905F904F9008952F923F92CA
S11338D04F925F926F927F928F929F92AF92BF921C
S11338E0CF92DF92EF92FF920F931F93CF93DF93C8
S11338F0CDB7DEB7C75BD109CDBFDEBFCD55DF4F36
S1133900688379838A839B83C35AD040C955DF4F28
S1133910288339834A835B83C75AD040CF54DF4F0F
S1133920E882F9820A831B83C15BD040CB54DF4F0A
S1133930C882C55BD040C356DF4FA882CD59D04062
S1133940C256DF4FB882CE59D040CE010196CA5438
S1133950DF4F88839983C65BD040E0E2F0E2C5552F
S1133960DF4FE883F983CB5AD04088E390E2C55611
S1133970DF4F88839983CB59D040C355DF4F1882DA
S1133980CD5AD0409FEFC055DF4F9883C05BD040E5
S1133990EFEFC155DF4FE883CF5AD04000E036C285
S11339A0CF56DF4F8881C159D040C356DF4FF881CD
S11339B0CD59D0408F1BCF56DF4FE881F981C159D3
S11339C0D0401191CF56DF4FE883F983C159D040DD
S11339D0011780F4C055DF4F8883C05BD040C255C7
S11339E0DF4FF881CE5AD040C155DF4FF883CF5A0C
S11339F0D040012F123008F49BC128E93CE445E093
S1133A0050E4F10160817181828193810E94D431FB
S1133A10C956DF4F688379838A839B83C759D04013
S1133A2028E93CE445E050E4F10164817581868134
S1133A3097810E94D431C156DF4F688379838A838A
S1133A409B83CF59D040C955DF4F688179818A81E2
S1133A509B81C75AD0400E94C12F4B015C0128E9C9
S1133A603CE445E050E4C556DF4FE881F981CB5989
S1133A70D04060817181828193810E94D4316B0135
S1133A807C01CD55DF4F288139814A815B81C35A3E
S1133A90D040C501B4010E94D4319B01AC01C701DF
S1133AA0B6010E94F72E4B015C01C955DF4F6881B6
S1133AB079818A819B81C75AD0400E9437322B0179
S1133AC03C0128E93CE445E050E4C556DF4FE88179
S1133AD0F981CB59D04064817581868197810E9498
S1133AE0D4316B017C01CD55DF4F288139814A8166
S1133AF05B81C35AD040C301B2010E94D4319B01FF
S1133B00AC01C701B6010E94F72E6B017C01C956B6
S1133B10DF4F288139814A815B81C759D040C50173
S1133B20B4010E94F62E2B013C01C156DF4F2881BF
S1133B3039814A815B81CF59D040C701B6010E94C7
S1133B40F62EA30192010E946A2FCB56DF4FE88123
S1133B50F981C559D04020813181428153810E942D
S1133B60F62E2B013C01A5019401C956DF4F688153
S1133B7079818A819B81C759D0400E94F62E4B01DE
S1133B805C01A7019601C156DF4F688179818A8162
S1133B909B81CF59D0400E94F62EA50194010E942A
S1133BA06A2FC555DF4FE881F981CB5AD040208177
S1133BB03181428153810E94F62ECF54DF4F2881F8
S1133BC039814A815B81C15BD0400E94F62E6B0132
S1133BD07C01C301B2013ADC2B013C01C701B601EF
S1133BE035DC6B017C01C301B20101DDC956DF4F35
S1133BF0688379838A839B83C759D040C701B60100
S1133C001FDD6B017C01612F70E080E090E00E9479
S1133C105F304B015C01A7019601C956DF4F6881F3
S1133C2079818A819B81C759D0400E94D4319B01FC
S1133C30AC01C501B4010E94C42FCB54DF4F4881AD
S1133C40C55BD04026DD4B015C01C301B2010E947B
S1133C50C12FA50194010E94D4316B017C01C5568A
S1133C60DF4FE881F981CB59D040208131814281F5
S1133C705381F10160817181828193810E94F62ECA
S1133C8028E93CE445E050E40E94D4319B01AC01B6
S1133C90C701B6010E94F72E6B017C01C301B2017A
S1133CA00E943732A50194010E94D4314B015C017A
S1133CB0C556DF4FE881F981CB59D0402481358145
S1133CC046815781F10164817581868197810E94C3
S1133CD0F62E28E93CE445E050E40E94D4319B01EF
S1133CE0AC01C501B4010E94F72E4B015C01A70190
S1133CF09601C701B6010E94D4316B017C01A50174
S1133D009401C501B4010E94D4319B01AC01C701E7
S1133D10B6010E94F72E0E944132CD56DF4FE88152
S1133D20F981C359D04060837183828393830AC02D
S1133D30CD56DF4FE881F981C359D04010821182FA
S1133D4012821382F8E02F0E311CCB56DF4F88818C
S1133D509981C559D0400496CB56DF4F8883998307
S1133D60C559D040CD56DF4FE881F981C359D040C1
S1133D703496CD56DF4FE883F983C359D040F8E633
S1133D802F16F0E23F0609F00BCEC355DF4F288112
S1133D90CD5AD0402F5FC355DF4F2883CD5AD04032
S1133DA0C556DF4F88819981CB59D0400896C556B6
S1133DB0DF4F88839983CB59D040C555DF4FE881C5
S1133DC0F981CB5AD0403496C555DF4FE883F98347
S1133DD0CB5AD040C356DF4F88819981CD59D0400A
S1133DE00696C356DF4F88839983CD59D040CA5471
S1133DF0DF4FE881F981C65BD0407896CA54DF4F23
S1133E00E883F983C65BD040263089F1CA54DF4F7A
S1133E1088819981C65BD040CD56DF4F88839983D2
S1133E20C359D040E0E2F0E2CB56DF4FE883F98398
S1133E30C559D0400F2EF8E32F2EF0E23F2EF02D7F
S1133E40C356DF4F88819981CD59D040CF56DF4F7B
S1133E5088839983C159D040C355DF4F9881CD5A87
S1133E60D040C255DF4F9883CE5AD04099CDC1552A
S1133E70DF4FE881CF5AD0408E2F90E0FC01EE0F47
S1133E80FF1F8E0F9F1FFC01EE0FFF1FC055DF4F5A
S1133E902881C05BD040E20FF11DEE0FFF1FEE0F33
S1133EA0FF1FEC0FFD1F6181728183819481C954CE
S1133EB0DF4FCDBFDEBFDF91CF911F910F91FF90F8
S1133EC0EF90DF90CF90BF90AF909F908F907F90B6
S1133ED06F905F904F903F902F900895CF92DF9214
S1133EE0EF92FF920F931F93CF93DF93D82FC92F95
S1133EF08BE790E00E942739ED2EFC2EC12C0FE8B1
S1133F0012E28BE790E00E942739E701D12C8991D6
S1133F101F928F931F930F930E9416390F900F9047
S1133F200F900F9084E08D1520F08CE290E00E94B9
S1133F302739D39486E0D812EACF8DE790E00E9427
S1133F40273984E08C1520F08CE290E00E94273918
S1133F50C39486E0E80EF11C86E0C812D2CF8EEB43
S1133F6092E20E942C39DF91CF911F910F91FF9023
S1133F70EF90DF90CF9008954F925F926F927F926F
S1133F808F929F92AF92BF92CF92DF92EF92FF9265
S1133F900F931F93CF93DF93CDB7DEB7E897CDBFD1
S1133FA0DEBF182FCE0101960E94451781116EC005
S1133FB0CE01019693DFAE014B5D5F4FBE01655D9F
S1133FC07F4FCE0101960E940817CE018B960E9466
S1133FD0A5162B013C01AB01BC01CE01859671DA1B
S1133FE069AB7AAB8BAB9CABCE0101965C01DE0175
S1133FF095966D018A967C01012F29A93AA94BA9AE
S11340005CA9C301B20173DB6DAB7EAB8FAB98AF20
S113401020E030E0A9010E94BD2F8823B9F1C12E10
S1134020E9A8FAA80BA91CA9A30192016DA97EA96C
S11340308FA998AD4BDC6093D0287093D1288093DE
S1134040D2289093D3284092D4285092D5286092B5
S1134050D6287092D72889A99AA9ABA9BCA980931C
S1134060D8289093D928A093DA28B093DB28A0927B
S1134070DC28B092DD288091C7289091C8288093CD
S1134080DE289093DF2881E08093EC28E896CDBF6A
S1134090DEBFDF91CF911F910F91FF90EF90DF90E2
S11340A0CF90BF90AF909F908F907F906F905F90D4
S11340B04F900895FF920F931F93CF93DF93CDB743
S11340C0DEB72797CDBFDEBF8C01F62E87E0E2E98D
S11340D0F2E2DE01119601900D928A95E1F76F8369
S11340E084EA9AE20E948517980147E050E0BE01F5
S11340F06F5F7F4F8FE30E94C70B8FE30E94A50B76
S11341008DE590E0E6D30E94AD178F2D35DF27961D
S1134110CDBFDEBFDF91CF911F910F91FF90089526
S1134120E0E8F6E080E2818380E18183E0E6F6E086
S11341308183E0E4FAE08FEF90E086A397A312A6D0
S113414013A6208121602083218123602183218182
S11341502062218386A397A310A611A62081216043
S11341602083218123602183218120612183E0E454
S1134170F9E086A397A310A611A6808181608083AD
S11341808181836081838181806181830895E0E4FA
S1134190F9E010AE11AEE0E4FAE010AE11AE12AEEA
S11341A013AE089590E0E0E4FAE082AF93AF70E0DC
S11341B060AF71AF50E0E0E4F9E040AF51AF089573
S11341C02F923F924F925F926F927F928F929F9223
S11341D0AF92BF92CF92DF92EF92FF920F931F9311
S11341E0CF93DF93CDB7DEB72B97CDBFDEBFFC01F6
S11341F0D62EB42E2C833D831801EA82FB829C01C7
S1134200A3E8BDE20E9448360024880F991F001CD1
S1134210880F991F001C892F902D48E651E0849F38
S11342209001859F300D949F300D1124BF01621BB6
S1134230730B80E090E00E945D302B013C016D2DFA
S113424070E080E090E00E945F3020E030E04FE7D3
S113425053E40E94C42F6B017C016B2D70E080E05D
S113426090E00E945F3020E030E04FE753E40E948A
S1134270C42F062F172F8B879A87C701B6010E9478
S11342802C309B01772324F422273327261B370B5A
S1134290B901882777FD8095982F0E945F302CEA1A
S11342A035EC47E257E30E94BD2F88232CF4AA8102
S11342B0BB81BC92F101B08220E030E040E752E4DF
S11342C0C301B2010E94C42F4B015C010E94313032
S11342D0698370E080E090E00E945F309B01AC0154
S11342E0C501B4010E94F62E4B015C01A7019601A1
S11342F060E070E080E89FE30E94F62E202F312FCB
S11343004B855A850E94D431662E772E482E592E1D
S1134310A5019401C701B6010E94D4319B01AC01EF
S113432060E070E080E89FE30E94F62E202F312F9A
S11343304B855A850E94D4316E837F838887998701
S1134340A501940160E070E080E89FE30E94F62EEE
S1134350A70196010E94D4319B01AC0160E070E09A
S113436080E89FE30E94F62E202F312F4B855A853B
S11343700E94D431C62ED72EE82EF92EF981F230C0
S113438031F130F4FF2309F45DC0F130A9F007C026
S113439029812430F1F160F1253009F44BC0612CFE
S11343A0712C412C512CC12CD12CE12CF12C00E08E
S11343B010E01B861A8646C0C02ED12EEB84FA84E8
S11343C00E811F8188858B87A985AA873BC0302FE2
S11343D0212F9B858A85062D172D4B865A866C2C9A
S11343E07D2C4E2C5F2CC32ED22EE92EF82E2AC003
S11343F0CE80DF80E884F984302F212F9B858A8545
S1134400062D172D4B865A86632E722E492E582E52
S113441019C0302F212F9B858A850C2D1D2DEB86ED
S1134420FA86C62CD72CE42CF52C632E722E492E3A
S1134430582E08C0C62CD72CE42CF52C6E807F8017
S11344404884598420E030E04FE753E4602F712F13
S11344508B859A850E94D4310E943130EC81FD8194
S1134460608320E030E04FE753E4662D772D842D00
S1134470952D0E94D4310E943130AA81BB816C9366
S113448020E030E04FE753E46C2D7D2D8E2D9F2DE1
S11344900E94D4310E943130F10160832B96CDBF4C
S11344A0DEBFDF91CF911F910F91FF90EF90DF90CE
S11344B0CF90BF90AF909F908F907F906F905F90C0
S11344C04F903F902F900895EF92FF920F931F9378
S11344D0CF93DF9300D0CDB7DEB79E012D5F3F4F62
S11344E079018E010E5F1F4F2250310969DE8B81E5
S11344F02A81498150E0E0E4FAE042AF53AF30E072
S113450020AF31AF90E0E0E4F9E080AF91AF2396C3
S1134510CDBFDEBFDF91CF911F910F91FF90EF9040
S11345200895CF93DF93CDB7DEB72A97CDBFDEBF13
S1134530DE0111969E01255F3F4FE0E0F2E051E07D
S113454080A1806880A383A18823E9F345A184A185
S113455090E0942B95958795959587959595879556
S1134560959587958D939D9353A3A217B30741F710
S113457063E0CE0105960E94A90F2A96CDBFDEBF47
S1134580DF91CF910895CF93DF93CDB7DEB72A970C
S1134590CDBFDEBFDE0111969E01255F3F4FE0E0F7
S11345A0F2E051E080A5806880A783A58823E9F321
S11345B045A584A590E0942B959587959595879529
S11345C095958795959587958D939D9353A7A21758
S11345D0B30741F763E0CE0105960E94A90F2A961E
S11345E0CDBFDEBFDF91CF910895CF93DF93CDB7D9
S11345F0DEB72A97CDBFDEBFDE0111969E01255F8F
S11346003F4FE0E0F2E051E080A9806880AB83A9ED
S11346108823E9F345A984A990E0942B959587957F
S11346209595879595958795959587958D939D9364
S113463053ABA217B30741F763E0CE0105960E947E
S1134640A90F2A96CDBFDEBFDF91CF910895DF92E7
S1134650EF92FF920F931F93CF93DF9380EEE0E0EE
S1134660F6E08283E0E0F2E080E2828386E1818307
S113467086E0848383E080A380A787E080AB8CE21C
S113468081A384E381A78CE381AB80B5848781B562
S1134690858781E080838FE891E00197F1F700C07E
S11346A000003FDFA2DF6FDF8AE090E012D1D12C5F
S11346B0C0E0D0E000E010E0E12CF12C32DFE80EA5
S11346C0F91E61DF080F191F90DFC80FD91F8AE098
S11346D090E0FFD08FE595E20E942C39D39493E0CB
S11346E0D912ECCF23E030E0C701B9010E942F3684
S11346F0462FE72F6093562970935729C801B901B3
S11347000E942F36F62F172F6093CD287093CE2852
S1134710CE01B9010E942F366093C5287093C62834
S11347207F936F931F93FF93EF934F9382EC92E2E7
S11347309F938F930E9416398DB79EB708968DBFAD
S11347409EBFDF91CF911F910F91FF90EF90DF906B
S113475008953F924F925F926F927F928F929F92B1
S1134760AF92BF92CF92DF92EF92FF920F931F937B
S1134770CF93DF935C016B017A01E0E4FAE082AC51
S113478093AC782CC0ADD1AD6C2EE0E4F9E000AD73
S113479011AD302E811004C0C11102C0002339F0C4
S11347A040E060E080E0FEDC86E990E092D0B9DE93
S11347B0482EE9DE582E19DF90915629491A909116
S11347C0CD28591A9091C528891BA114B10411F060
S11347D0F5014082C114D10411F0F6015082E114B4
S11347E0F10411F0F7018083711004C0611002C05C
S11347F0332021F0402F6C2F882DD4DCDF91CF9112
S11348001F910F91FF90EF90DF90CF90BF90AF90EA
S11348109F908F907F906F905F904F903F900895FE
S113482010925D2A10925E2A1092CA281092CF2804
S11348301092342B2FB7F8941092EF271092F02790
S113484085E0E0E4F0E0838383E0E0E0F4E0828369
S1134850818180FDFDCF8FEF9FEFE0E0F4E0828760
S11348609387818180FDFDCF81E080930004E0E0A7
S1134870F4E0818180FDFDCFE0E0F4E01086118654
S11348802FBF089588ED84BF82E080935000E0E557
S1134890F0E0818181FFFDCF88ED84BFE0E4F0E0AA
S11348A081E0808385E08383E0E0F4E0818180FD22
S11348B0FDCFE0E0F4E08FEF9FEF8287938781E004
S11348C08083818180FDFDCFE0E0F4E010861186D5
S11348D00895CF92DF92EF92FF927C01F8940E94A8
S11348E0310278949B01AC012E0D3F1D411D511DD9
S11348F069017A01F8940E9431026C157D058E05D8
S11349009F0510F0789406C078943AE63A95F1F74A
S113491000C0F0CFFF90EF90DF90CF9008958F927A
S11349209F92AF92BF92CF92DF92EF92FF920F933A
S11349301F93CF93DF9300D01F92CDB7DEB7698367
S11349407A838B839C836A0179018091CA288A3097
S113495008F0E8C04091342B842F90E001966AE07F
S113496070E00E942F36582F481791F19927FC01C7
S1134970EE0FFF1F9C01220F331F220F331F220F44
S1134980331FE20FF31FEB5CF44D24813581232B9D
S1134990F9F0EAE0F0E015C09927DC01AA0FBB1F8B
S11349A09C01220F331F220F331F220F331FA20F2C
S11349B0B31FAB5CB44D14962D913C911597232BEA
S11349C039F00196BF010E942F36582F4813E4CFC7
S11349D05093342B852F90E08C01000F111F880F0A
S11349E0991F880F991F880F991F080F191F0B5CB7
S11349F0144D0115110509F497C00E9431028980F4
S1134A009A80AB80BC80DC01CB01880D991DAA1D66
S1134A10BB1D8230910530F0F80180839183A2831D
S1134A20B38308C00496A11DB11DF801808391834E
S1134A30A283B383D8011696ED92FC92179714962D
S1134A40CD92DC9215972FB7F894C0905D2AD09040
S1134A505E2AF801C086D186C114D10471F0408168
S1134A60518162817381F60180819181A281B38138
S1134A7084179507A607B70790F100935D2A109352
S1134A805E2AF80180819181A281B3814091EF2750
S1134A905091F027E0E0F4E0C284D38460E070E059
S1134AA0BA0155274427E12CF12C4C295D296E29A4
S1134AB07F29481759076A077B0758F0318130FD71
S1134AC0FDCFE0E0F4E0848795878281846082836F
S1134AD022C0E0E0F4E082818B7F82831CC0D60197
S1134AE01896ED90FC901997E114F10461F0F70128
S1134AF080819181A281B38184179507A607B707A6
S1134B0010F46701ECCFD8011896ED92FC92199736
S1134B10F601008711878091CA288F5F8093CA2885
S1134B202FBF02C000E010E0C8012496CDBFDEBF55
S1134B30DF91CF911F910F91FF90EF90DF90CF9075
S1134B40BF90AF909F908F9008951F93CF93DF9362
S1134B50FC011FB7F894A0915D2AB0915E2A1097CA
S1134B6009F4B1C08A179B0709F050C0808591856C
S1134B7080935D2A90935E2A8091342B90E0AC015F
S1134B80440F551F9C01220F331F220F331F220F86
S1134B90331F240F351F2B5C344DE217F307E9F460
S1134BA0FC01EE0FFF1F9C01220F331F220F331F46
S1134BB0220F331FE20FF31FEB5CF44D14821582B6
S1134BC009966AE070E00E942F368093342B80911E
S1134BD0CA2881508093CA2878C0CAE0D0E00996D8
S1134BE0BE010E942F369927AC01440F551F9C012A
S1134BF0220F331F220F331F220F331F240F351FA1
S1134C002B5C344DE217F30751F7CACF18962D9158
S1134C103C9119972115310509F457C0E217F307A0
S1134C2011F0D901F3CF8085918518968D939C93CB
S1134C3019978091342B90E0AC01440F551F9C01CF
S1134C40220F331F220F331F220F331F240F351F50
S1134C502B5C344DE217F307E9F4FC01EE0FFF1F60
S1134C609C01220F331F220F331F220F331FE20F29
S1134C70F31FEB5CF44D1482158209966AE070E030
S1134C800E942F368093342B8091CA2881508093C0
S1134C90CA281BC0CAE0D0E00996BE010E942F3684
S1134CA09927AC01440F551F9C01220F331F220F7B
S1134CB0331F220F331F240F351F2B5C344DE21793
S1134CC0F30751F7CACF1FBF01C01FBFDF91CF91B8
S1134CD01F910895FF920F931F93CF93DF93FFB615
S1134CE0F894C0915D2AD0915E2A9091CF2880914A
S1134CF0CA281F929F931F928F9380E093E29F9301
S1134D008F930E9416390F900F900F900F900F9071
S1134D100F90209721F10BE213E20E9431029F933E
S1134D208F937F936F938B818F938A818F938981E4
S1134D308F9388818F938D818F938C818F93DF9351
S1134D40CF931F930F930E9416390884D985C02DE1
S1134D508DB79EB70E968DBF9EBF2097F1F6FFBE0E
S1134D60DF91CF911F910F91FF9008951FB7F89491
S1134D70E0915D2AF0915E2A309709F067C0A6C0E1
S1134D80E0905D2AF0905E2AD70118968D919C914F
S1134D90199780935D2A90935E2A7894D70114968C
S1134DA0ED91FC91159716968D919C9117971995F5
S1134DB0F8948091342B90E0AC01440F551F9C0172
S1134DC0220F331F220F331F220F331F240F351FCF
S1134DD02B5C344DE216F30611F5FC01EE0FFF1FB8
S1134DE09C01220F331F220F331F220F331FE20FA8
S1134DF0F31FEB5CF44D148215820996BE010E94E8
S1134E002F368093342B8091CA2881508093CA28EE
S1134E10E0915D2AF0915E2A3097D1F457C009964B
S1134E20BE010E942F369927AC01440F551F9C01E7
S1134E30220F331F220F331F220F331F240F351F5E
S1134E402B5C344DE216F30651F7C7CFCAE0D0E02D
S1134E50C080D180E280F3800E943102DC01CB016A
S1134E600296A11DB11D8C159D05AE05BF0508F068
S1134E7087CFE0915D2AF0915E2A309739F18081E5
S1134E809181A281B3814091EF275091F027E0E016
S1134E90F4E0C284D38460E070E0BA01552744276B
S1134EA0E12CF12C4C295D296E297F2948175907DB
S1134EB06A077B0758F0218120FDFDCFE0E0F4E094
S1134EC08487958782818460828305C0E0E0F4E072
S1134ED082818B7F82831FBF0C9409021F920F92E1
S1134EE00FB60F9211240BB60F92CF92DF92EF926E
S1134EF0FF922F933F934F935F936F937F938F937F
S1134F009F93AF93BF93CF93EF93FF93CFB7F8944F
S1134F108091EF279091F02701968093EF2790934B
S1134F20F027E0915D2AF0915E2A309709F43FC0A2
S1134F30C080D180E280F3808091EF279091F027A8
S1134F40E0E0F4E042855385A0E0B0E0DC0199277D
S1134F50882760E070E0842B952BA62BB72BC8160E
S1134F60D906EA06FB0618F50E943102DC01CB01E2
S1134F700296A11DB11D8C159D05AE05BF0598F4C3
S1134F80E0E0F4E0818180FDFDCFE0915D2AF091C5
S1134F905E2A80819181E0E0F4E0848795878281B4
S1134FA08460828302C00C94DB01CFBF01C0CFBFF9
S1134FB0FF91EF91CF91BF91AF919F918F917F918D
S1134FC06F915F914F913F912F91FF90EF90DF9000
S1134FD0CF900F900BBE0F900FBE0F901F9018959F
S1134FE00895FC0180819181A281B381AD0166277E
S1134FF07727642F5FC80895EF92FF920F931F9352
S1135000CF93DF930E94AB10C0E0D0E090E0082F74
S113501010E00F2EF9E5EF2EF3E2FF2EF02D9801AC
S11350200C2E02C0359527950A94E2F720FF0BC099
S1135030DF93CF93FF92EF920E9416390F900F9057
S11350400F900F9091E02196C630D10541F7911150
S113505008C08EE593E29F938F930E9416390F90B8
S11350600F908FE595E20E942C39DF91CF911F912B
S11350700F91FF90EF900895FF920F931F93CF939A
S1135080DF931F921F92CDB7DEB720E230E0298371
S11350903A83BE016F5F7F4F0E947038FC01F0803D
S11350A0BE016F5F7F4F80E090E00E9470380E94E5
S11350B068378C010097F1F0F0EDFF0E48EC60E0EA
S11350C080E070D81F930F931F92FF9223E633E280
S11350D03F932F930E941639B8018F2D0E94ED1132
S11350E040E060E080E05ED80F900F900F900F904A
S11350F00F900F900F900F90DF91CF911F910F9110
S1135100FF9008951F93CF93DF931F921F92CDB703
S1135110DEB720E230E029833A83BE016F5F7F4F20
S11351200E947038FC0110811053BE016F5F7F4FE5
S113513080E090E00E9470380E946837BC01812FA3
S11351400E94A8130F900F90DF91CF911F910895A3
S1135150CF93DF9300D0CDB7DEB7AE014D5F5F4F85
S1135160BE016E5F7F4FCE010196F3DA8B811F92F1
S11351708F938A811F928F9389811F928F9385E8E1
S113518093E29F938F930E941639CDBFDEBF23967F
S1135190CDBFDEBFDF91CF910895CF93DF931F92F0
S11351A01F92CDB7DEB720E230E029833A83BE01F7
S11351B06F5F7F4F0E9470380E9468370E945504C9
S11351C00F900F90DF91CF91089540E060E084EB61
S11351D00E94D22080E090E00E94BE1140E060E096
S11351E080E00C94D22008950F931F93CF93DF9304
S11351F01F921F92CDB7DEB720E230E029833A83B5
S1135200BE016F5F7F4F0E947038009729F48EE9CA
S113521093E20E942C3979C00E9468378C0188304F
S113522070F011271F930F9382EC93E29F938F9357
S11352300E9416390F900F900F900F9066C0BE0118
S11352406F5F7F4F80E090E00E947038009729F4F0
S11352508EED93E20E942C3958C011270E946837C2
S1135260F801EE0FFF1FE00FF11FEE0FFF1FE75DC8
S1135270F54D80839183BE016F5F7F4F80E090E0A6
S11352800E947038009729F482E094E20E942C393D
S11352903CC00E946837F801EE0FFF1FE00FF11FBA
S11352A0EE0FFF1FE75DF54D82839383BE016F5FB1
S11352B07F4F80E090E00E947038009729F487E2E5
S11352C094E20E942C3921C00E946837F801EE0F45
S11352D0FF1FE00FF11FEE0FFF1FE75DF54D848305
S11352E095839F938F9383818F9382818F93818101
S11352F08F9380818F931F930F938BE494E29F93FA
S11353008F930E941639CDBFDEBF0F900F90DF91AF
S1135310CF911F910F9108951F93CF93DF931F9205
S11353201F92CDB7DEB720E230E029833A83BE0175
S11353306F5F7F4F0E947038FC0110811053BE01D3
S11353406F5F7F4F80E090E00E9470380E94683762
S1135350BC01812F0E94F5130F900F90DF91CF9124
S11353601F91089520E030E045E15AE165E070E0E6
S113537080E090E0D4CA08950F931F93CF93DF93F6
S113538000D000D0CDB7DEB720E230E029833A83E5
S1135390BE016F5F7F4F0E9470380E9468378C0196
S11353A0BE016F5F7F4F80E090E00E9470380E94E2
S11353B06837A80160E070E0682B4B835C836D83E1
S11353C07E839E012D5F3F4F41EF57E265E070E021
S11353D080E090E0A4DA2696CDBFDEBFDF91CF91C6
S11353E01F910F9108950F931F93CF93DF93EC01B7
S11353F00E9431020091592A10915A2A20915B2A65
S113540030915C2AAB01BC01401B510B620B730B46
S11354104A5F5F4F6F4F7F4F4D35510561057105F1
S113542028F48DE590E0841B950B53DA88818E5F18
S11354300E94D619DF91CF911F910F9108950F9378
S11354401F930E9431020091592A10915A2A2091E7
S11354505B2A30915C2AAB01BC01401B510B620BEF
S1135460730B4B5F5F4F6F4F7F4F4D355105610598
S1135470710528F48DE590E0841B950B2ADA0E94CF
S113548035181092EC281F910F9108956F927F9216
S11354908F929F92AF92BF92CF92DF92EF92FF9240
S11354A00F931F93CF93DF931F921F92CDB7DEB755
S11354B0782E692E80E290E089839A83BE016F5F23
S11354C07F4F872D962D0E9470387C01FC0101903E
S11354D00020E9F731976F01C81AD90A69E874E224
S11354E00E947C38892B21F01C141D0424F15CC01B
S11354F0BE016F5F7F4F80E090E00E9470380E9491
S113550068378C01BE016F5F7F4F80E090E00E949E
S113551070380E946837F82EBE016F5F7F4F80E0BD
S113552090E00E9470380E946837482F6F2DC801A0
S11355300E94642251C000E010E00F2EF0E4AF2E70
S1135540F9E0BF2EF02D0F2EF0E48F2EFAE09F2EFF
S1135550F02DBE016F5F7F4F80E090E00E947038B5
S1135560F70121917F01223739F40E946837992786
S1135570F40182AF93AF12C0273639F40E94683722
S11355809927F40180AF91AF09C0223669F40E94D3
S113559068379C013327F50120AF31AF0F5F1F4FF0
S11355A0C016D106B1F618C06F927F928DE894E2CE
S11355B09F938F930E94163988ED94E20E942C39B0
S11355C08BE195E20E942C3981E695E20E942C3908
S11355D00F900F900F900F900F900F90DF91CF913D
S11355E01F910F91FF90EF90DF90CF90BF90AF90FD
S11355F09F908F907F906F90089520E030E040EF6F
S113560057E265E070E080E090E089C908958091F8
S1135610E9278F938091E8278F938FE895E29F93F2
S11356208F930E9416390F900F900F900F9008954A
S1135630CF93DF93D82FC92FE82FF92FDF010D90D7
S11356400020E9F71197AE1BBF0BBF93AF939F9355
S11356508F9320EA35E23F932F930E941639ED2F62
S1135660FC2FDF010D900020E9F71197AD014E1BCF
S11356705F0B6D2F7C2F8FE30E940D0C0F900F900A
S11356800F900F900F900F90DF91CF910895CF92CC
S1135690DF92EF92FF920F931F93CF93DF93CDB7D7
S11356A0DEB7A597CDBFDEBF8C016DE872E20E9424
S11356B08C387C01FF24A701B801CE0101960E9419
S11356C09B388FEFE81AF80AB8016E0D7F1D8E0122
S11356D00A5F1F4FC8010E94853840E150E060E036
S11356E070E0CE0101960E9457366B017C01F801EF
S11356F001900020E9F73197E01BF10BFF93EF9342
S11357001F930F938CEC95E29F938F930E9416390D
S1135710F80101900020E9F73197AF01401B510BCC
S11357209601B8018FE30E94C70B0F900F900F9062
S11357300F900F900F90A596CDBFDEBFDF91CF9154
S11357401F910F91FF90EF90DF90CF900895FC018F
S113575080818823E1F0DF010D900020E9F71197A3
S1135760AE1BBF0BA131B105A0F01F9280E18F9356
S1135770BF93AF938EEF95E29F938F930E94163958
S11357800F900F900F900F900F900F900895EDEEE3
S1135790F5E2DF010D900020E9F71197AD014E1BF2
S11357A05F0BBF018FE30C94980C0895EF92FF9266
S11357B00F931F93CF93DF93CDB7DEB7A597CDBFDC
S11357C0DEBF8C016DE872E20E948C387C01FF24FC
S11357D0A701B801CE0101960E949B38B8016E0D55
S11357E07F1D8E010A5F1F4FC8010E94853840E16A
S11357F050E060E070E0CE0101960E945736F80157
S113580001900020E9F73197AF01401B510B9B0138
S1135810B8018FE30E94550CA596CDBFDEBFDF9182
S1135820CF911F910F91FF90EF9008950F931F93C5
S1135830CF93DF936115710579F1FC011081112378
S113584071F1DC011196680F791F01E0E0E0F0E0EE
S113585003C01D911123E1F0103249F4013071F4B9
S1135860E40FF51F108200E0E0E0F0E00CC001302E
S113587029F4EA01CE0FDF1F188304C0E901CE0F1B
S1135880DF1F18833196A617B70719F7CF0101C098
S1135890CF01013061F405C0E0E0F0E002C0E0E0D7
S11358A0F0E0E40FF51F1082F901108204C0F90141
S11358B0E80FF91F1082DF91CF911F910F91089586
S11358C0CF93DF93CDB7DEB7C058D109CDBFDEBFCC
S11358D0FC012081222309F44EC19E012F5F3F4F1A
S11358E0AE014F5B5F4FA2DF6BE376E2CE018F5BCD
S11358F09F4F0E947C38892B21F4CE010196BCDB9A
S11359003AC16FE576E2CE018F5B9F4F0E947C38EF
S1135910892B21F4CE010196F5DB2DC166E476E2F4
S1135920CE018F5B9F4F0E947C38892B11F410DCD1
S113593022C16EE476E2CE018F5B9F4F0E947C38D9
S1135940892B21F4CE01019628DC15C165E576E2A8
S1135950CE018F5B9F4F0E947C38892B11F44CDB66
S11359600AC16AE576E2CE018F5B9F4F0E947C38C4
S1135970892B11F42ADCFFC064E676E2CE018F5B4A
S11359809F4F0E947C38892B21F4CE0101962CDC98
S1135990F2C06FE676E2CE018F5B9F4F0E947C38A7
S11359A0892B21F4CE010196B7DCE5C061E876E2EB
S11359B0CE018F5B9F4F0E947C38892B11F4D2DC7F
S11359C0DAC067E876E2CE018F5B9F4F0E947C3895
S11359D0892B21F4CE010196CFDCCDC06DE876E2AF
S11359E0CE018F5B9F4F0E947C38892B21F4CE011E
S11359F00196F9DCC0C06FE472E2CE018F5B9F4F69
S1135A000E947C38892B11F41ADDB5C063E976E273
S1135A10CE018F5B9F4F0E947C38892B21F4CE01ED
S1135A20019634DDA8C06BE976E2CE018F5B9F4F0F
S1135A300E947C38892B11F4EADD9DC062EA76E28B
S1135A40CE018F5B9F4F0E947C38892B11F4D5DDEA
S1135A5092C063EB76E2CE018F5B9F4F0E947C384D
S1135A60892B21F4CE010196E3DD85C06FEA76E24D
S1135A70CE018F5B9F4F0E947C38892B21F4CE018D
S1135A80019605DE78C067EB76E2CE018F5B9F4F0F
S1135A900E947C38892B21F4CE01019658DE6BC01C
S1135AA06BEB76E2CE018F5B9F4F0E947C38892B93
S1135AB021F4CE0101967ADE5EC06FEB76E2CE0170
S1135AC08F5B9F4F0E947C38892B11F403D953C0FC
S1135AD065EC76E2CE018F5B9F4F0E947C38892B68
S1135AE019F40E948F0347C06BEC76E2CE018F5B02
S1135AF09F4F0E947C38892B19F40E9468143BC084
S1135B0060EE76E2CE018F5B9F4F0E947C38892B3A
S1135B1029F40E94A5140E94FF142DC080E090E097
S1135B20892BD1F0BE016F5F7F4FCE018F5B9F4FFA
S1135B300E94000081111FC0CE018F5B9F4F9F9375
S1135B408F9385EF96E29F938F930E9416390F905F
S1135B500F900F900F900FC0CE018F5B9F4F9F93BC
S1135B608F9385EF96E29F938F930E9416390F903F
S1135B700F900F900F90C058DF4FCDBFDEBFDF9165
S1135B80CF91089587E197E20E942C390E94151A5B
S1135B9020E030E042EC5DE268E873E180E090E010
S1135BA00C948F240895CF93DF93EC01623091F02D
S1135BB018F4613031F029C06330A9F06430E1F0A9
S1135BC024C08DE0EFE8F0E2DE0101900D928A95A9
S1135BD0E1F723C08DE0E2E8F0E2DE0101900D92EE
S1135BE08A95E1F71AC08DE0E5E7F0E2DE01019065
S1135BF00D928A95E1F711C08DE0E8E6F0E2DE014E
S1135C0001900D928A95E1F708C080E397E29F9393
S1135C108F930E9416390F900F90CE01DF91CF9190
S1135C200895CF92DF92EF92FF920F931F93CF9339
S1135C30DF93CDB7DEB72D97CDBFDEBFC982DA8241
S1135C40EB82FC820D831E832F83388749875A8712
S1135C506B877C878D87BE016F5F7F4F6093992B25
S1135C6070939A2B4DE08FE30E94980C80E497E2A6
S1135C700E942C392D96CDBFDEBFDF91CF911F91AD
S1135C800F91FF90EF90DF90CF900895CF93DF9323
S1135C90CDB7DEB72D97CDBFDEBF4FEF6FEF8AE0F4
S1135CA00E94D22060919C20CE0101967CDF8DE081
S1135CB0FE013196ABE9BBE201900D928A95E1F7C2
S1135CC08091A42B1F928F938091A32B1F928F936B
S1135CD082E597E29F938F930E94163953DF0F90CA
S1135CE00F900F900F900F900F902D96CDBFDEBFA9
